:020000040800F2
:10000000F0060120B1010008CF3300080D2B0008D5
:10001000CD330008430900088543000800000000B4
:10002000000000000000000000000000DD360008B5
:100030008D2600080000000003340008913A0008F3
:10004000CB010008CB010008CB010008CB01000860
:10005000CB010008CB010008CB010008CB01000850
:10006000CB010008CB010008CB010008CB01000840
:10007000CB010008CB010008CB010008CB01000830
:10008000CB010008CB010008CB01000800000000F4
:10009000000000000000000000000000CB0100088C
:1000A000CB010008CB010008CB010008CB01000800
:1000B000CB010008CB010008CB010008CB010008F0
:1000C000CB010008CB010008CB010008CB010008E0
:1000D000CB010008D1410008CB010008000000005E
:1000E000CB010008CB010008CB0100080000000094
:1000F000000000000000000000000000CB0100082C
:1001000000000000CB010008CB010008CB01000873
:1001100000000000000000000000000000000000DF
:10012000CB010008CB010008511C0008551C000839
:10013000891C000800000000000000000000000012
:10014000000000000000000000000000CB010008DB
:10015000B51C0008CB010008CB010008CB0100084A
:10016000CB010008CB0100080000000000000000E7
:10017000000000000000000000000000000000007F
:1001800000000000CB01000800000000000000009B
:10019000CB010008CB010008DFF810D000F094FB81
:1001A0000048004799490008AFF30080F00601209D
:1001B0000648804706480047FEE7FEE7FEE7FEE701
:1001C000FEE7FEE7FEE7FEE7FEE7FEE76D3B000821
:1001D000990100082DE9F05F0546002092469B46F4
:1001E00088460646814640241BE02846414647464D
:1001F000224600F032FA53465A46C01A914110D3B3
:1002000011461846224600F019FA2D1A67EB01082C
:100210004F4622460120002100F010FA17EB00099A
:100220004E41201EA4F10104DFDC484631462A4637
:100230004346BDE8F09F40EA01039B0703D009E075
:1002400008C9121F08C0042AFAD203E011F8013BC2
:1002500000F8013B521EF9D27047D2B201E000F81B
:10026000012B491EFBD270470022F6E710B513465A
:100270000A4604461946FFF7F0FF204610BD2DE957
:10028000FE4F804681EA0300C00F0C46009021F02B
:10029000004123F00045B8EB0200A94105D24046D9
:1002A000214690461C460B46024623F00040104370
:1002B00047D0270DC7F30A00C3F30A510290401A32
:1002C000019040286BDAC3F3130040F4801B0098C0
:1002D000924620B10023D2EB030A63EB0B0B01988B
:1002E0005946C0F14002504600F0A8F906460D46B6
:1002F00050465946019A00F0C0F910EB08006141E0
:10030000002487EA115284EAE7731A4340D0009A26
:1003100062B3019A012A4FEA075215DC001B61EB18
:1003200002014FF0004202EA0752CDE90042001CF0
:1003300041F5801132462B4600F0C0F903B0BDE80C
:10034000F08F40462146F9E7001B61EB0201001CDB
:1003500041F5801300185B412018A2F5001747EB08
:10036000030140EAD570B6196D4111E06D084FEAFE
:10037000360645EAC0754FEA0752001B61EB0201E1
:10038000001C41F5801149084FEA30000019514125
:1003900032462B4603B0BDE8F04F00F080B900981C
:1003A000012240000023D0EB020263EBE0730098CF
:1003B00021464FEAE074B8EB000061EB0401E9E785
:1003C00083F000435BE781F0004158E72DE9FE4FE1
:1003D00081EA030404F0004421F0004100944FF04E
:1003E000000B23F0004350EA01045ED052EA0304FC
:1003F0005BD0C3F30A54C1F30A552C44A4F2F3347E
:100400000194A0FB0254C1F3130141F48011C3F322
:10041000130343F4801301FB024400FB034E840AE0
:10042000970A44EA815447EA8357A4FB0768029578
:100430008D0A05FB07854FEA932C04FB0C54270516
:10044000029D4FEA065847EA1637B5EB08056EEBF2
:10045000070C870E920E47EA811742EA8312A7FB28
:100460000201B6EB0B0164EB00042B0D43EA0C33E5
:100470005E1844EB1C50DA465146E7FB0201C5F317
:1004800013044FEA0B3343EA14534FEA0432019C3E
:1004900043EA0603A4F10C040294009CCDE900B4E5
:1004A00000F00CF903B0BDE8F08F00200146F9E739
:1004B0002DE9F04D81EA030404F0004B21F00045E2
:1004C00014464FF0000A23F0004150EA050220D004
:1004D00054EA01021DD0C5F30A570246C5F31303BF
:1004E000C1F31300C1F30A5640F4801543F480139E
:1004F000A7EB0608101BD64608F2FD3873EB050083
:1005000002D308F1010801E092185B41B8F1000F35
:1005100003DA00200146BDE8F08D00204FF4801181
:10052000064684460EE0171B73EB050705D3121B26
:1005300063EB050306434CEA010C49084FEA30001F
:1005400092185B4150EA0107EDD152EA030012D044
:1005500082EA040083EA0501084305D0101BAB4181
:1005600006D20122002306E000224FF0004302E001
:100570006FF0010253101AEB06004CEB085110EB20
:100580000A0041EB0B01BDE8F04D00F088B80EB554
:1005900040F2334102910021CDE900110A460B4699
:1005A00000F08CF803B000BDC1F30A5210B5C1F3DE
:1005B000130140F2FF3341F480119A4201DA002026
:1005C00010BD40F233439A42A2F2334203DC52425E
:1005D00000F043F810BD904010BD000030B5041E7F
:1005E00071F1000404DB4FF00044404264EB010170
:1005F000141E73F1000405DB1C464FF00043524209
:1006000063EB04038B4208BF824230BD30B5041E49
:1006100071F1000404DB4FF00044404264EB01013F
:10062000141E73F1000405DB1C464FF000435242D8
:1006300063EB0403994208BF904230BD202A04DBDB
:10064000203A00FA02F1002070479140C2F12003E5
:1006500020FA03F3194390407047202A04DB203A24
:1006600021FA02F00021704721FA02F3D040C2F1D2
:1006700020029140084319467047202A06DBCB1719
:10068000203A41FA02F043EAE07306E041FA02F34D
:10069000D040C2F12002914008431946704710B57E
:1006A000141E73F1000408DA401C41F10001921895
:1006B0005B411A4301D120F0010010BD2DE9F04D3E
:1006C00092469B4611B1B1FA81F202E0B0FA80F293
:1006D00020329046FFF7B2FF04460F4640EA0A0078
:1006E00041EA0B0153465A46084313D0114653EAD8
:1006F000010019D0C8F140025046FFF7AEFF054691
:100700000E46504659464246FFF798FF084305D02B
:10071000012004E020463946BDE8F08D0020054365
:1007200046EAE0762C4337430A986305E40AA0EBD7
:1007300008000022FD0A44EA47540A3002D500208E
:100740000146E9E7010510196941DDE9084500198D
:100750006941BDE8F04DA2E72DE9F041054621F0E1
:1007600000400C46284309D0C4F30A5040F23341FC
:10077000884205DD28462146BDE8F0812846FBE792
:1007800040F2FE31884210DC0CDB4FEA043040EAD4
:10079000155050EA053105D0104804F000410143DE
:1007A0000020E9E700200146E6E7A0F23340464298
:1007B000C6F1400228462146FFF740FF074688461B
:1007C000284621463246FFF748FF43463A46FFF7A0
:1007D00066FF3246BDE8F041FFF730BF0000F03F52
:1007E0002DE9FE4FC3F30A5701F000450024C1F381
:1007F0000A56C3F31303C1F3130143F4801312EB3E
:10080000020AA64641F48011009543EB030CA7F1C0
:10081000010B16E0B0EB0A0061EB0C01071E71F151
:10082000000707DA4FF00008D0EB080085F000451C
:1008300068EB0101171A73EB0107EBD3761E001862
:1008400049415E45F6DA50EA010209D0CDE900E5FA
:10085000002213460296FFF731FF03B0BDE8F08F88
:1008600020460099F9E770B5044601F000450020E4
:10087000054304D14FF00045644265EB010103F0EC
:100880000045284305D118464FF00043524263EB20
:100890000003101B73EB010002D24FF0004009E08F
:1008A00082EA040283EA01034FF000501A4301D1A7
:1008B0004FF0C0404FEA2062EFF3008162F31F6106
:1008C00081F3008870BD0000064C074D06E0E0682B
:1008D00040F0010394E8070098471034AC42F6D387
:1008E000FFF75EFC904B0008B04B000870B58C1809
:1008F00010F8015B15F0070301D110F8013B2A1134
:1009000006D110F8012B03E010F8016B01F8016B20
:100910005B1EF9D12B0705D40023521E0DD401F81C
:10092000013BFAE710F8013BCB1A921C03E013F8E5
:10093000015B01F8015B521EF9D5A142D8D300201A
:1009400070BDFEE72DE9FF4F99462DED0A8B9FB054
:1009500015460C46FE4FDDF8D8B0DDF8E0A029982A
:10096000F8B1F4B1EDB1B9F1000F1AD05FEA0B00A4
:1009700017D03798A8B15FEA0A009FEDF6CB9FED3C
:10098000F7BB9FEDF88B9FEDF99B9FEDFAAB08D07D
:1009900094ED000B53EC1C2B51EC100BFFF71EFEDB
:1009A00004D2BA68002A7DD0012117E294ED000B31
:1009B00053EC1B2B51EC100BFFF728FEF1D394EDF9
:1009C000040B53EC1C2B51EC100BFFF707FEE8D384
:1009D00094ED040B53EC1B2B51EC100BFFF716FEA0
:1009E000DFD394ED080B53EC1C2B51EC100BFFF7ED
:1009F000F5FDD6D394ED080B53EC1B2B51EC100BEB
:100A0000FFF704FECDD394ED020B53EC192B51EC00
:100A1000100BFFF7E3FDC4D394ED020B53EC182B3E
:100A200051EC100BFFF7F2FDBBD394ED060B53EC2A
:100A3000192B51EC100BFFF7D1FDB2D394ED060B3F
:100A400053EC182B51EC100BFFF7E0FDA9D394EDFC
:100A50000A0B53EC192B51EC100BFFF7BFFDA0D381
:100A600094ED0A0B53EC182B51EC100BFFF7CEFD55
:100A700097D35822214602A8FFF7DDFB299838605A
:100A8000C7E9039B3798C7E9050A94ED020BB0EE5E
:100A9000498AF0EE698A53EC192B51EC100BFFF7E1
:100AA000B5FD00E09CE101D294ED028B94ED060BC4
:100AB00053EC192B51EC100BFFF7A8FD11D253EC9E
:100AC000192B51EC180BFFF789FD08D094ED060B9C
:100AD00053EC182B51EC100BFFF780FD01D294ED75
:100AE000068B94ED0A0B53EC192B51EC100BFFF70E
:100AF0008DFD11D253EC192B51EC180BFFF76EFD45
:100B000008D094ED0A0B53EC182B51EC100BFFF7A7
:100B100065FD01D294ED0A8B53EC192B51EC180BA7
:100B2000FFF75CFD7FF63DAF53EC182B9FED930B69
:100B300051EC100BFFF7BCFC95ED020B41EC180BD0
:100B400053EC102BFFF762FD01D295ED028BB0EE56
:100B50004A9AF0EE6A9A53EC192B51EC180BFFF7F6
:100B60003DFD03D2B0EE498AF0EE698A94ED020BA6
:100B700051EC180B53EC102BFFF728FC41EC100B39
:100B800003F0E6FD51EC100BFFF70EFD119094ED14
:100B9000060B51EC180B53EC102BFFF717FC41EC34
:100BA000100B03F0D5FD51EC100BFFF7FDFC12907C
:100BB00094ED0A0B51EC180B53EC102BFFF706FCCD
:100BC00041EC100B03F0C4FD51EC100BFFF7ECFCF3
:100BD0001390DDE911010844139958220844149038
:100BE0008DED168B02A96748FFF725FB66480024A8
:100BF00004701499416084602968C16004744FF0E6
:100C0000010880F811808474C4741430047014993D
:100C1000416084602968C160047480F81180847424
:100C2000C474594E14982836306086ED028B14989F
:100C3000FFF7ADFC53EC182BFFF73AFCC6E90401B3
:100C4000022086F8300086F831804FF0E02086F8E8
:100C50003240006900F00400706314982E68B042BE
:100C600000D8064602ACCDE9006400234946379A15
:100C7000299801F063FD14982B6898420AD9C01A8C
:100C8000984200D91846CDE90004524659462998A1
:100C900001F054FD3D4DA868C0F340000028FAD093
:100CA000A868C0F3C0100028FAD1394C05212046AD
:100CB00001F0A6FF0421204601F0A2FF05212046F5
:100CC00001F0C6FF0028F9D10421204601F0C0FF41
:100CD0000028F9D14FF40070E0608000E060C0109F
:100CE000E0604020E0600001E0600820E06020203B
:100CF000E0600420E060C4F80C801020E060DFF8C1
:100D000094A06FF00101CAF810106FF0100BCAF830
:100D100010B000220521204601F0E8FF4A460521D7
:100D2000204601F0BDFF32460521204601F0A2FF1A
:100D300000220421204601F0D9FF04212046379AE1
:100D400001F0AEFF32460421204601F093FF23E07C
:100D500060000020000000000088B3C00000000018
:100D60000088B3400000000000408F4000000000F9
:100D700000000000000000000000594000000000DA
:100D800000000840480201203801012000300140E5
:100D900000640240000001400521204601F03AFFB6
:100DA0000521204601F040FF0421204601F032FFDA
:100DB0000421204601F038FF442003F01EFB3C20B4
:100DC00003F01BFB304818A9B0EE480AF0EE680AA1
:100DD00003F026F958B1BA6812B1082105209047EE
:100DE00000201FB0BDEC0A8B04B0BDE8F08F9FED72
:100DF000278B9FED289B18A9B0EE481AF0EE681AD1
:100E0000B0EE490AF0EE690A5646504603F0A8F8DB
:100E1000B0EE481AF0EE681AB0EE490AF0EE690A30
:100E200018A802F05EFC1D4F022087F831006868A8
:100E300040F002006860F06840F48070F060F06894
:100E400040F48050F0600521204601F0F7FE0421B7
:100E5000204601F0F3FE6FF001003061C6F810B0DB
:100E60000F48416941F001014161706940F00100A2
:100E7000706102F038FC306840F00100306087F8A3
:100E800032800120ADE7000000E1F5050000000020
:100E900084D787410000000084D79741600101207A
:100EA000000400402DE9FC41174CA07C002825D00F
:100EB000607C002822D0207C00281FD1A068E16837
:100EC00043186068002504F11406984214D960683C
:100ED000C21AE068904200D2E26894F813C00C494C
:100EE0000A4FBCF1000F0868CDE9002708D08A69D5
:100EF000D1F8101001F022FCA574B574BDE8FC8196
:100F00004A69C968F6E7000038010120480201205B
:100F1000600000200548817C19B1417C09B1007C4A
:100F200008B10020704701207047000038010120FF
:100F30002DE9F0473D4D6868DFF8F480C0F34010BC
:100F400000273C4EA8F12804002855D02020E86056
:100F5000607C002868D0A068E1680844A0607068E0
:100F600020B102F04FFA726802219047A1686268CE
:100F70000120914211D3207467742D481438007CED
:100F8000002851D0042188F8311002F065FA726807
:100F9000002A49D00421642041E021782278C2F15E
:100FA00001022270A268E3681A446368934201D97F
:100FB000E174A0740421284601F022FE0421284691
:100FC00001F046FE0028F9D16068A168401AE16886
:100FD000814200D2E0688146207818B3B2690421CA
:100FE000284601F05DFE4A460421284601F042FEF3
:100FF0000421284601F022FE6868C0F3C0000028E2
:1010000012D00820E8606774A774052188F83110B1
:1010100002F022FAB268002A06D002210520BDE8BB
:10102000F04710477269DAE7BDE8F08700640240D4
:1010300060010120600000202DE9F0473A4D68680A
:10104000DFF8E880C0F3C0200027394EA8F114046F
:1010500000284ED0E814E860607C002862D0A068C8
:10106000E1680844A060A06862680121904211D341
:1010700021746774A4F11400007C002852D004216C
:1010800088F8311002F0E8F97268002A4AD0042189
:10109000642042E020782278C2F101022270A26826
:1010A000E3681A446368934201D9E074A17405218E
:1010B000284601F0A5FD0521284601F0C9FD0028BC
:1010C000F9D16068A168401AE168814200D2E06805
:1010D0008146207820B332690521284601F0E0FDE1
:1010E0004A460521284601F0C5FD0521284601F0A4
:1010F000A5FD6868C0F34020002813D04FF40070AD
:10110000E8606774A774052188F8311002F0A4F92B
:10111000B268002A06D002210520BDE8F04710473A
:10112000F268D9E7BDE8F087006402406001012061
:10113000600000204268006909B1906170470004B6
:10114000FBE78268406909B1906170470004FBE7E2
:101150002DE9FF4F99462DED108B9FB016460C469A
:10116000FE4DDDF8F0B0DDF8F8A02F98D8B1D4B17D
:10117000CEB1B9F1000F16D05FEA0B0013D03D9845
:1011800088B15FEA0A009FEDF69B9FEDF78B9FED1C
:10119000F8AB08D094ED000B53EC192B51EC100B6D
:1011A000FFF71CFA04D2AA68002A7DD0012197E239
:1011B00094ED000B53EC182B51EC100BFFF726FAB3
:1011C000F1D394ED020B53EC192B51EC100BFFF7FC
:1011D00005FAE8D394ED020B53EC182B51EC100BED
:1011E000FFF714FADFD394ED040B53EC192B51ECF9
:1011F000100BFFF7F3F9D6D394ED040B53EC182B37
:1012000051EC100BFFF702FACDD394ED060B53EC23
:10121000192B51EC100BFFF7E1F9C4D394ED060B39
:1012200053EC182B51EC100BFFF7F0F9BBD394EDF6
:10123000080B9FEDD11B51EC100B53EC112BFFF75A
:10124000CDF9B0D394ED080B53EC1A2B51EC100BE5
:10125000FFF7DCF9A7D35822214602A8FEF7EBFFDF
:10126000BE482F990160C0E9039B3D99C0E9051A6A
:1012700094ED080B9FEDC21B51EC100B53EC112B9E
:10128000FFF7A4F853EC1A2BFFF712F9FFF78CF9CC
:1012900080B2FFF77CF996ED020B41EC180B53EC92
:1012A000102BFFF79BF900E01CE201D396ED028BB7
:1012B000A56A05B9012594ED000B94ED04BB53EC30
:1012C000102B51EC1B0BFFF77BF841EC100B03F0DC
:1012D0003FF994ED089BB0EE40FAF0EE60FA53EC63
:1012E000192B51EC1F0BFFF7E3F894ED060B41ECC3
:1012F0001E0B53EC1B2B51EC100BFFF761F841EC6C
:10130000100B03F025F9B0EE40AAF0EE60AA9FEDB5
:101310009E0B51EC1A0B53EC102BFFF757F853ECC4
:10132000192BFFF7C5F894ED020B41EC1D0B53ECA4
:101330001B2B51EC100BFFF743F841EC100B03F0A3
:1013400007F9B0EE40CAF0EE60CA53EC192B51EC2D
:101350001C0BFFF7ADF841EC1B0B2846FFF717F904
:1013600053EC1D2BFFF732F853EC1E2BFEF787FFD3
:1013700053EC1B2BFEF783FF41EC190B51EC180BC0
:1013800053EC192BFFF722F841EC100B03F0E0F9B6
:1013900051EC100BFFF708F9FFF7F9F853EC182B95
:1013A000FFF786F853EC192BFFF782F841EC190B85
:1013B00053EC1E2B51EC180BFFF708F853EC192BCC
:1013C000FFF704F841EC100B03F0C2F951EC100BDD
:1013D000FFF7EAF8119053EC1D2B51EC180BFEF7B8
:1013E000F5FF53EC192BFEF7F1FF41EC100B03F066
:1013F000AFF951EC100BFFF7D7F8129053EC1B2B01
:1014000051EC180BFEF7E2FF53EC192BFEF7DEFF51
:1014100041EC100B03F09CF951EC100BFFF7C4F8F2
:1014200013909FED5B9B1198012738B953EC192B52
:1014300051EC1F0BFFF7EAF800D21197129802281F
:1014400008D253EC192B51EC1A0BFFF7DFF801D23D
:1014500002201290139838B953EC192B51EC1C0B45
:10146000FFF7D4F800D21397DDE9110101FB050065
:1014700013995822084414908DED168B02A9464802
:10148000FEF7D9FE44480025603805701499416084
:1014900085603168C1600574B84647748574C57449
:1014A000143005701499416085603168C16005741D
:1014B00047748574C574384F1498383F386087ED89
:1014C000028B1498FFF763F853EC182BFEF7F0FF2C
:1014D000C7E904011298FFF75AF853EC182BFEF7EE
:1014E000E7FF9FED2E1B53EC112BFEF76FFF41EC36
:1014F000100B51EC1A0B53EC102BFEF7D9FF41ECFB
:10150000100B87ED060B94ED081B53EC112BFEF727
:1015100057FF41EC100B03F01BF887ED080B94ED1F
:10152000081B51EC100B53EC112BFEF7C1FF9FED84
:101530001D1B53EC112BFEF749FFC7E90A0187F881
:10154000305087F831804FF0E02087F83250006942
:1015500000F0040078631498376827E060000020EA
:10156000000000000088B3C0000000000088B34005
:10157000000000000088C3409A9999999999B93F51
:1015800000000000E0FFEF4000000000000000400D
:101590000000000000000000980101200000000091
:1015A0000000E03F0000000000005940B84200D8B1
:1015B000074602ACCDE90074002349463D9A2F98B6
:1015C00001F008F91498336898420AD9C01A984271
:1015D00000D91846CDE90004524659462F9801F02B
:1015E000F9F8694EB068C0F340000028FAD0B0683E
:1015F000C0F3C0100028FAD1644C0521204601F048
:10160000FFFA0421204601F0FBFA0521204601F0F3
:101610001FFB0028F9D10421204601F019FB002806
:10162000F9D14FF40070E0608000E060C010E0602D
:101630004020E0600001E0600820E0602020E060E1
:101640000420E060C4F80C801020E060504D6FF082
:10165000010AC5F810A06FF0100BC5F810B00022F9
:101660000521204601F042FB4A460521204601F0B3
:1016700017FB3A460521204601F0FCFA002204211E
:10168000204601F033FB042120463D9A01F008FB7F
:101690003A460421204601F0EDFA0521204601F0EA
:1016A000B9FA0521204601F0BFFA0421204601F0D5
:1016B000B1FA0421204601F0B7FA442002F09DFE61
:1016C0003C2002F09AFE334818A9B0EE480AF0EE2A
:1016D000680A02F0A5FC60B12F48826812B10821A7
:1016E0000520904700201FB0BDEC108B04B0BDE872
:1016F000F08F9FED2A8B9FED2B9B18A9B0EE481A17
:10170000F0EE681AB0EE490AF0EE690A284602F0D7
:1017100027FCB0EE481AF0EE681AB0EE490AF0EE77
:10172000690A18A801F0DDFF204F022087F8310078
:10173000706840F002007060E86840F48070E86013
:10174000E86840F48050E8600521204601F076FA10
:101750000421204601F072FAC5F810A0C5F810B0B7
:101760001348416941F001014161686940F001009D
:10177000686101F0B8FF286840F00100286087F830
:1017800032800120AFE700000030014000640240D9
:101790000000014000E1F5056000002000000000AD
:1017A00084D787410000000084D797416001012061
:1017B000000400402DE9FC41174CA07C00280ED00D
:1017C000607C00280BD0207C002808D1A068E1684C
:1017D000431860680025984203D8A574A574BDE835
:1017E000FC816068C11AE068884200D2E168E77C49
:1017F0000A4E094A60323068CDE900124FB1B26931
:10180000D6F8101000F0E6FFA57403481430857474
:10181000E5E77269F168F5E7380101206000002012
:101820000948817C59B1417C49B1007C38B90648EE
:101830001430817C19B1417C09B1007C08B10020D1
:101840007047012070470000380101202DE9F04762
:101850003D4D6868DFF8F480C0F3401000273C4E2F
:10186000A8F12804002855D02020E860607C0028DA
:1018700068D0A068E1680844A060706820B101F0F9
:10188000C1FD726802219047A168626801209142FF
:1018900011D3207467742D481438007C002851D06F
:1018A000042188F8311001F0D7FD7268002A49D070
:1018B0000421642041E021782278C2F101022270E3
:1018C000A268E3681A446368934201D9E174A07482
:1018D0000421284601F094F90421284601F0B8F9C2
:1018E0000028F9D16068A168401AE168814200D2FD
:1018F000E0688146207818B3B2690421284601F0D7
:10190000CFF94A460421284601F0B4F904212846BB
:1019100001F094F96868C0F3C000002812D00820D4
:10192000E8606774A774052188F8311001F094FD10
:10193000B268002A06D002210520BDE8F047104712
:101940007269DAE7BDE8F0870064024060010120B7
:10195000600000202DE9F0473A4D6868DFF8E88024
:10196000C0F3C0200027394EA8F1140400284ED03F
:10197000E814E860607C002862D0A068E168084450
:10198000A060A06862680121904211D3217467743D
:10199000A4F11400007C002852D0042188F83110F2
:1019A00001F05AFD7268002A4AD00421642042E006
:1019B00020782278C2F101022270A268E3681A44FA
:1019C0006368934201D9E074A1740521284601F0AF
:1019D00017F90521284601F03BF90028F9D1606884
:1019E000A168401AE168814200D2E068814620780F
:1019F00020B332690521284601F052F94A460521F3
:101A0000284601F037F90521284601F017F96868E2
:101A1000C0F34020002813D04FF40070E8606774D2
:101A2000A774052188F8311001F016FDB268002A6C
:101A300006D002210520BDE8F0471047F268D9E73B
:101A4000BDE8F087006402406001012060000020D2
:101A50002DE9F04387B018216846FEF705FC022007
:101A600001F0A4F8042001F0A1F8082001F09EF88C
:101A700025484FF47E7211048161244F4FF0E051EC
:101A80004FF4E059B961DFF888804FF48023C8F83B
:101A90001830012502240092CDE901540026CDE939
:101AA0000364694601F04AF9CDF80090CDE901548C
:101AB000CDE903646946384601F040F904200090FE
:101AC000CDE90154CDE903646946404601F036F999
:101AD000022002F075FC002001F01AF8002002F04C
:101AE00053FC002002F05CFC002000F0DBFD002035
:101AF00000F0E4FD002000F0EDFD002000F0F6FD18
:101B000007B0BDE8F0830000000402400008024076
:101B1000000C0240FFF79CBF8171C26822F4700282
:101B200042EA0151C16070474171C26822F070629F
:101B300042EA0161C16070470181034BC2681A40EB
:101B400042EA0111C16070470F00F0FFF0B587B0A5
:101B5000044618216846FEF787FB1348016841F0E8
:101B6000010101600068012500F001000690E068B5
:101B700003278DE8A1000026CDE9035669462068B9
:101B800001F0DCF8206900906946606801F0D6F841
:101B90006069CDE90276CDE9000504966946A06842
:101BA00001F0CCF807B0F0BD3038024010B5044663
:101BB0000068FFF7CBFF00212068FFF7C2FA002181
:101BC000206800F0B5FF01212068FFF7B3FA01F0AB
:101BD0000BFD0021204600F01DF803212046FFF7F1
:101BE000A3FF0F212046FFF797FF47F6FF7120461E
:101BF000FFF7A2FF0021204600F005F82046BDE8CF
:101C0000104000F00FB88172C26822F00F020A4340
:101C1000C26070470171C26822F0704242EA0171ED
:101C2000C160704770B5044600680021FFF789FA6B
:101C3000E168080C8DB2012101F020FD0121284648
:101C400001F01CFD2068BDE870400121FFF779BA62
:101C50007047000009480168C1F3C06100290CD039
:101C60004FF000618160064A012111700549CA7870
:101C70008258C97822F01002425070470064024036
:101C800000000020484A00080948407C00280ED087
:101C90000748283090F8300018B1012803D00228F6
:101CA00003D0FFF7D3BD00F0EFBBFFF741B970479A
:101CB000380101200948407C00280ED00748143024
:101CC00090F8300018B1012803D0022803D0FFF7A4
:101CD00041BE00F05DBCFFF7AFB970474C01012079
:101CE0002DE9FF4F9A462DED0C8B9FB016460C4602
:101CF000FE4DDDF8E8B02B98F0B1ECB1E6B1BAF1E9
:101D0000000F19D03898B8B13998A8B15FEA0B0024
:101D10009FEDF7BB9FEDF89B9FEDF9AB9FEDFACBE5
:101D20009FEDFB8B08D094ED000B53EC1B2B51EC7B
:101D3000100BFEF753FC04D2AA68002A7DD00121C3
:101D4000F0E294ED000B53EC192B51EC100BFEF765
:101D50005DFCF1D394ED020B53EC1B2B51EC100BFB
:101D6000FEF73CFCE8D394ED020B53EC192B51EC3D
:101D7000100BFEF74BFCDFD394ED040B9FEDE61B3D
:101D800051EC100B53EC112BFEF728FCD4D394ED3F
:101D9000040B53EC1A2B51EC100BFEF737FCCBD392
:101DA00094ED060B53EC182B51EC100BFEF716FCC0
:101DB000C2D394ED060B9FEDDA1B51EC100B53ECE4
:101DC000112BFEF723FCB7D394ED080B9FEDD61B28
:101DD00051EC100B53EC112BFEF700FCACD394ED3F
:101DE000080B53EC1A2B51EC100BFEF70FFCA3D38E
:101DF00094ED0A0B53EC182B51EC100BFEF7EEFB95
:101E00009AD394ED0A0B53EC1C2B51EC100BFEF7FC
:101E1000FDFB91D394ED0A1B94ED080B53EC112BB1
:101E200051EC100BFEF7F2FB86D95822214602A88E
:101E3000FEF701FA9DED020B00E075E29DED041B3B
:101E400053EC102B51EC110BFEF7C8FB9DED060B6C
:101E500008D202F07DFB51EC100B81F00041CDE97E
:101E6000060103E002F074FB8DED060B9F482B99F1
:101E7000C0F80CA00160389901613999C0E9051BCF
:101E800094EC040B53EC102B51EC110BFEF798FA69
:101E900041EC100B02F05CFB02F05AFB94ED041BCA
:101EA00051EC100B53EC112BFEF702FB41EC100B25
:101EB00002F0C2FA51EC100BFEF776FB5FEA000865
:101EC00001D14FF0010894ED0A0B53EC1A2B51ECA1
:101ED000100BFEF7EDFA94ED080B41EC190B53ECE7
:101EE0001A2B51EC100BFEF7E3FA41EC1A0B9FEDA5
:101EF000900B53EC102BFEF789FB7DD253EC1A2B81
:101F000051EC180BFEF7D4FA9FED8BBB53EC1B2B57
:101F1000FEF75CFA41EC100B02F01AFC53EC1B2BA1
:101F200051EC100BFEF7C4FA41EC1D0B53EC192BCE
:101F300051EC180BFEF7BCFA0F4647EC120B0546A6
:101F400053EC1B2B51EC120BFEF740FA41EC100B3B
:101F500002F0FEFB53EC1B2B51EC100BFEF7A8FA22
:101F600041EC180BB0EE4D0AF0EE6D0AB0EE481AD7
:101F7000F0EE681A02F082FC53EC1B2B51EC100BB4
:101F8000FEF724FA41EC100B02F0E2FB53EC1B2BA2
:101F900051EC100BFEF78CFA41EC1B0B53EC182B99
:101FA00051EC1D0BFEF712FA53EC1B2BFEF780FAD7
:101FB00041EC100B96ED021B02F00EFBB0EE408AD6
:101FC000F0EE608A53EC1C2B51EC180BFEF71EFB55
:101FD0002CD253EC1A2B9FED5A0B51EC100BFEF741
:101FE00067FA41EC180B9FED580B51EC190B53ECB1
:101FF000102BFEF70BFB00E04DE00AD253EC192B3F
:102000009FED530B51EC100BFEF752FA41EC110B04
:1020100001E047EC115BB0EE480AF0EE680A02F00E
:10202000A1FA00BFB0EE408AF0EE608A96ED021B86
:10203000B0EE480AF0EE680A02F0CEFA9FED461BB9
:1020400002F090FAB0EE408AF0EE608A53EC192B61
:1020500051EC180BFEF7BAF941EC100B02F078FBCB
:1020600051EC100BFEF7A0FA054653EC1A2B51EC7D
:10207000180BFEF7ABF941EC100B02F069FB51ECC9
:10208000100BFEF791FA0746A5EB0709022D00D2C7
:1020900002254FB109E096ED020BB0EE4C1AF0EEBE
:1020A0006C1A02F099FABDE70127B9F1000F0BD1C4
:1020B0007D1C4FF001092846FEF769FA53EC192BF5
:1020C000FEF7F6F941EC180B08FB05F0CDE914908A
:1020D000CDE91257CDF844808DED168B582202A918
:1020E0001F48FEF7A8F800251D483BE060000020CF
:1020F000000000000088B3C0000000000088B3406A
:102100000000000000408F40000000000088C34035
:10211000000000000000F03F0000000000408FC001
:102120000000000000407F409A9999999999B93F21
:10213000FCA9F1D24D62503F000000000000244095
:1021400000000000000014407B14AE47E17A843F99
:1021500000000000000000400000000000003440CB
:10216000F0010120B838057015994160856031682B
:10217000C16005744FF0010880F811808574C57442
:10218000143005701599416085603168C16005742F
:1021900080F811808574C5748C4F1598386087ED70
:1021A000028B1598FEF7F3F953EC182BFEF780F924
:1021B000C7E9040194ED040B53EC192B51EC100BFF
:1021C000FEF776F99FED820BC7E9060187ED080B54
:1021D00087ED0A0B87F8308087F831804FF0E020D8
:1021E00087F83250006900F004007863159837686A
:1021F000B84200D8074602ACCDE90074002351462E
:10220000399A2B9800F0D8FB1598336898420AD970
:10221000C01A984200D91846CDE900045A463899A8
:102220002B9800F0C9FB6C4EB068C0F3400000284A
:10223000FAD0B068C0F3C0100028FAD1674C05216D
:10224000204600F0DDFC0421204600F0D9FC0521E9
:10225000204600F0FDFC0028F9D10421204600F0C2
:10226000F7FC0028F9D14FF40070E0608000E060D6
:10227000C010E0604020E0600001E0600820E06005
:102280002020E0600420E060C4F80C801020E060B2
:10229000534D6FF00109C5F810906FF0100BC5F8A1
:1022A00010B000220521204600F020FD52460521F5
:1022B000204600F0F5FC3A460521204600F0DAFC05
:1022C00000220421204600F011FD04212046399A05
:1022D00000F0E6FC3A460421204600F0CBFC052144
:1022E000204600F097FC0521204600F09DFC0421CB
:1022F000204600F08FFC0421204600F095FC44208D
:1023000002F07BF83C2002F078F8364818A9B0EECD
:10231000480AF0EE680A01F083FE60B13248826834
:1023200012B108210520904700201FB0BDEC0C8B96
:1023300004B0BDE8F08F9FED2D8B9FED2E9B18A96B
:10234000B0EE481AF0EE681AB0EE490AF0EE690AEB
:10235000284601F005FEB0EE481AF0EE681AB0EE1D
:10236000490AF0EE690A18A801F0BBF9174F0220DC
:1023700087F83100706840F002007060E86840F44F
:102380008070E860E86840F48050E86005212046ED
:1023900000F054FC0421204600F050FCC5F81090D9
:1023A000C5F810B01548416941F001014161686903
:1023B00040F00100686101F096F9286840F00100E2
:1023C000286087F832800120AFE70000600101201B
:1023D00000000000000000000030014000640240E6
:1023E0000000014000E1F505600000200000000051
:1023F00084D787410000000084D797410004004043
:102400002DE9FC41174CA07C002825D0607C0028D9
:1024100022D0207C00281FD1A068E16843186068A2
:10242000002504F11406984214D96068C21AE068C5
:10243000904200D2E26894F813C00A4F0A49B837B4
:10244000BCF1000F0868CDE9002707D08A69096947
:1024500000F0B2FAA574B574BDE8FC814A69C96898
:10246000F6E7000038010120600000200548817C6B
:1024700019B1417C09B1007C08B1002070470120EE
:1024800070470000380101202DE9F0473D4D686894
:10249000DFF8F480C0F3401000273C4EA8F1280478
:1024A000002855D02020E860607C002868D0A06813
:1024B000E1680844A060706820B100F0A3FF726872
:1024C00002219047A16862680120914211D32074D3
:1024D00067742D481438007C002851D0042188F8F6
:1024E000311000F0B9FF7268002A49D0042164203D
:1024F00041E021782278C2F101022270A268E368EB
:102500001A446368934201D9E174A07404212846F7
:1025100000F076FB0421284600F09AFB0028F9D150
:102520006068A168401AE168814200D2E068814693
:10253000207818B3B2690421284600F0B1FB4A465E
:102540000421284600F096FB0421284600F076FB83
:102550006868C0F3C000002812D00820E8606774E3
:10256000A774052188F8311000F076FFB268002AC0
:1025700006D002210520BDE8F04710477269DAE76E
:10258000BDE8F08700640240600101206000002087
:102590002DE9F0473A4D6868DFF8E880C0F3C020C5
:1025A0000027394EA8F1140400284ED0E814E86042
:1025B000607C002862D0A068E1680844A060A06840
:1025C00062680121904211D321746774A4F1140050
:1025D000007C002852D0042188F8311000F03CFF24
:1025E0007268002A4AD00421642042E020782278D0
:1025F000C2F101022270A268E3681A446368934240
:1026000001D9E074A1740521284600F0F9FA0521EA
:10261000284600F01DFB0028F9D16068A168401A27
:10262000E168814200D2E0688146207820B33269B7
:102630000521284600F034FB4A460521284600F0D3
:1026400019FB0521284600F0F9FA6868C0F340201C
:10265000002813D04FF40070E8606774A774052158
:1026600088F8311000F0F8FEB268002A06D0022186
:102670000520BDE8F0471047F268D9E7BDE8F087CC
:10268000006402406001012060000020704710B526
:10269000FFF78CFA00F06CFE01F07EFABDE8104006
:1026A00001F01DB804494FF48062012802D0C8032C
:1026B000886170478A6170470008024004494FF4FE
:1026C0000062012802D00804886170478A6170475F
:1026D0000008024004494FF48052012802D0480407
:1026E000886170478A6170470008024004490128E8
:1026F00003D04FF48020886170470420FBE700007E
:10270000000C024000B587B018216846FDF7ACFD0B
:10271000042000F027FA08484FF400510A048261AF
:10272000009101210022CDE90112CDE90321694682
:1027300000F004FB07B000BD000802402DE9F0479F
:1027400098462DED028B9146C6681D48DDE90A7555
:1027500006408A4600242DE0E96B08EB0400814224
:1027600002D995ED000B08E02A6C1144814202D990
:1027700095ED040B01E095ED080B9FED128B51ECEC
:10278000100B53EC182BFDF721FE9FED101B53ECA3
:10279000112BFDF78DFE53EC182BFDF770FDFDF7A7
:1027A00003FF80B246EA0010020C2AF8142029F830
:1027B0001400641CBC42CFD3BDEC028BBDE8F08793
:1027C0000F00F0FF000000000000E04000000000EB
:1027D0000088B3402DE9FF4F70492DED048B85B083
:1027E000C068DDE916A400EA0109A06A00B9012069
:1027F000D4E90F518846616C08FB00FB00269FED71
:10280000688B0491A0E00C988DED008B87198DEDFD
:10281000028BAF4219D2012D0ED9681EFDF7B7FE0B
:1028200041EC190B3846FDF7B2FE53EC192BFDF7BE
:102830003FFE41EC100B03E0B0EE480AF0EE680AF0
:102840008DED020B94ED009B47E005EB0B00B842C9
:10285000A7EB05007DD9B0FBF8F2B0FBF8F108FB5F
:1028600012074FEA580087421BD201280ED9401E9A
:10287000FDF78DFE41EC190B3846FDF788FE53EC51
:10288000192BFDF715FE41EC100B03E0B0EE480AE2
:10289000F0EE680A8DED020B94ED049B94ED060BAF
:1028A0001DE03F1AA8EB000001280ED9401EFDF7DD
:1028B0006EFE41EC190B3846FDF769FE53EC192BFF
:1028C000FDF7F6FD41EC100B03E0B0EE480AF0EE28
:1028D000680A8DED020B94ED069B94ED040B53EC0E
:1028E000192B51EC100BFDF76BFD9DED021B53EC0A
:1028F000112BFDF76BFD53EC192BFDF7C0FCCDE957
:1029000000019FED299B9DED000B53EC192B51EC21
:10291000100BFDF75BFD9FED261B53EC112BFDF714
:10292000C7FD53EC192BFDF7AAFCFDF73DFE80B265
:1029300049EA0010010C00900A9820F816100B9933
:10294000009821F81600761C5645FFF45CAF05B0E0
:1029500000E003E0BDEC048BBDE8FF8FA0EB0B07AC
:10296000049801280ED9401EFDF711FE41EC190B09
:102970003846FDF70CFE53EC192BFDF799FD41ECA1
:10298000100B03E0B0EE480AF0EE680A8DED020B82
:1029900094ED049B94ED020BA1E700000F00F0FF03
:1029A0000000000000000000000000000000E04007
:1029B000000000000088B3402DE9FF5F9B462DED2D
:1029C0000A8BC7684548DDE918A4074000259FED3C
:1029D00044AB9FED45BBD4F84890266C77E000BF30
:1029E0000BEB0501B1FBF6F2B1FBF6F006FB12189A
:1029F0009FED3FCBFDF7CBFD94ED049B53EC192BE2
:102A0000FDF7E4FC94ED001B53EC112BFDF737FCB4
:102A100041EC180B53EC1C2B51EC190BFDF7F6FD98
:102A200094ED020B51EC180B53EC102B03D2FDF775
:102A3000EDFD05D202E0FDF7D1FD01D294ED028B50
:102A4000C84509D394ED060B51EC180B53EC102B31
:102A5000FDF715FC41EC180BB0EE4A9AF0EE6A9ABD
:102A600053EC192B51EC180BFDF7B8FD03D2B0EE67
:102A7000498AF0EE698AB0EE4B9AF0EE6B9A53EC0D
:102A8000192B51EC180BFDF7C1FD03D2B0EE498AAA
:102A9000F0EE698A9FED18CB51EC180B53EC1C2B10
:102AA000FDF794FC53EC192BFDF702FD53EC1C2BA6
:102AB000FDF7E5FBFDF778FD80B20B9947EA0010C2
:102AC000020C21F815200C9921F815006D1C5545B4
:102AD00086D3BDEC0A8BBDE8FF9F00000F00F0FF1E
:102AE000000000000088B3C0000000000088B34070
:102AF0000000000000000000000000000000E040B6
:102B0000014880687047000050000020FEE7000088
:102B100006494FF4C0028A61C20701D020228A61AF
:102B2000800701D540208861704700000004024002
:102B30000268C06809B1906170470004FBE7FFF7C5
:102B4000E1BD000002494FF000508861704700006D
:102B50000008024002494FF40050886170470000AD
:102B600000080240044908B50A6802430A6009687F
:102B70000140009108BD000030380240044908B50A
:102B80000A6802430A6009680140009108BD00001C
:102B900030380240044908B50A6802430A600968EF
:102BA0000140009108BD000030380240044908B5DA
:102BB0000A6802430A6009680140009108BD0000EC
:102BC00030380240034A1430515C0A5822F00402A3
:102BD0000A5070475E4A0008034A515C425822F08E
:102BE00010024250704700007E4A0008034A515CC0
:102BF000425822F004024250704700007E4A00080A
:102C0000034A515C425822F00102425070470000D2
:102C10007E4A0008034A515C425842F0100242507A
:102C2000704700007E4A0008034A515C425842F057
:102C300004024250704700007E4A0008034A515C7B
:102C4000425842F001024250704700007E4A00089C
:102C5000024A515C405800F0010070477E4A00086B
:102C6000034B595C435823F0606313434350704750
:102C70005E4A0008044B001D595C0B586FF30F03AC
:102C800013430B50704700007E4A0008034B595C09
:102C9000435823F0C0031343435070475E4A000873
:102CA000024B0C30595C0A50704700007E4A000805
:102CB000034B595C435823F48063134343507047DC
:102CC0005E4A0008034B595C435823F4C043134346
:102CD000435070475E4A0008034B595C435823F445
:102CE00090731343435070475E4A0008034B595C8E
:102CF000435823F490731343435070477E4A0008AF
:102D0000034B595C435823F40073134343507047FB
:102D10005E4A0008034B595C435823F4C0531343E5
:102D2000435070475E4A0008034B595C435823F4F4
:102D300040331343435070475E4A0008F0B50A68B9
:102D40000F2692FAA2F2B2FA82F303248AE0012754
:102D50009F4015EA07027DD04D68012D01D0022D5C
:102D60001BD18D68876892FAA2FCBCFA8CFC4FEAF2
:102D70004C0C04FA0CFC27EA0C0792FAA2FCBCFAF1
:102D80008CFC4FEA4C0C05FA0CF52F438760CD689C
:102D90004768554397432F4347600F69D0F80CC0ED
:102DA00092FAA2F5B5FA85F54FEA450E04FA0EF54A
:102DB0002CEA050C92FAA2F5B5FA85F56D00AF4044
:102DC0004CEA070CC0F80CC04D68022D33D192FAC2
:102DD000A2F5B5FA85F5082D15D2D1F814C0056A0B
:102DE00092FAA2F7B7FA87F7BF0006FA07F7BD43D2
:102DF00092FAA2F7B7FA87F7BF000CFA07FC45EA88
:102E00000C05056217E0D1F814E0476A150A95FA37
:102E1000A5FCBCFA8CFC4FEA8C0C06FA0CFC95FA6B
:102E2000A5F5B5FA85F5AD0027EA0C070EFA05FE03
:102E300047EA0E0747624D68076892FAA2FCBCFA9F
:102E40008CFC4FEA4C0C04FA0CFE27EA0E0792FAAF
:102E5000A2F200E005E0B2FA82F2520095402F4360
:102E600007605B1C0A681546DA407FF470AF0020EB
:102E7000F0BD4FF47A71B0FBF1F14FF0E020491E44
:102E800041610021816105210161704710B504464F
:102E900000F06CFB206000F03FFB606000F04AFB3C
:102EA000A060606800F054FBE06010BD10B50368DE
:102EB0000122C3F380132BBBD1E900231A43D1E9CC
:102EC000023423431A430B691A434B691A438B6933
:102ED0001A43CB691A430B6A1A4303684FF6BF744F
:102EE000A3431A43026042684B6922F0040242EA9B
:102EF000134242600A6AB2F5005F02D1898C89B23E
:102F000001610022C16921F40061C161104610BD58
:102F100001490860704700005C0000200A7B8B6854
:102F20001A434B6822F480621A430B6822F4006251
:102F30001A43CB8922F480521A430B6922F40052BF
:102F40001A43496922F480420A43426400207047D0
:102F5000F0B502681D4B1E4C9F031E4D1E4E98423D
:102F600007D0B84205D0A04203D0A84201D0B04259
:102F700005D1D1F804C022F0700242EA0C02984256
:102F800010D0B8420ED0A0420CD0A8420AD0B04215
:102F900008D0124CA04205D0114CA04202D0114CD6
:102FA000A04203D1CC6822F44072224302608A68B6
:102FB000C2620A888262984201D10969016341694B
:102FC00041F0010141610020F0BD0000000001401E
:102FD0000004004000080040000C00400040014098
:102FE0000044014000480140012919D0042919D0AA
:102FF000102919D0402919D0B1F5807F18D0B1F52A
:10300000806F17D006210C4A1830525C10440268B9
:10301000094BDB1D5B5C042199408A4302607047C9
:103020000021F0E70121EEE70221ECE70321EAE7C6
:103030000421E8E70521E6E7504A0008012919D0F4
:10304000042919D0102919D0402919D0B1F5807F51
:1030500018D0B1F5806F17D006210C4A1830525C99
:1030600010440268094BDB1D5B5C082199400A4350
:10307000026070470021F0E70121EEE70221ECE752
:103080000321EAE70421E8E70521E6E7504A0008C2
:10309000F0B501250023604C012908D0102933D058
:1030A000B1F5807F64D0B1F5805F5FD190E0016AB7
:1030B00021F001010162016A45688669176826F0FE
:1030C00073063E43176921F002013943576821F026
:1030D00001013943A04212D1546921F0080141EAAB
:1030E0008401946821F0040141EA840125F480748C
:1030F00095692C43D56924F4007444EA450545607C
:103100008661D26842632FE0016A21F010010162FA
:10311000016A45688669176826F4E64646EA072686
:10312000176921F0200141EA0711576821F01001C9
:1031300041EA0711A04213D1546921F0800141EA0C
:103140008411946821F0400141EA841125F48064DF
:10315000956944EA8504D56924F4006444EAC50508
:1031600045608661D268826301621D462846F0BDD3
:10317000016A21F480710162016A4568C6691768B5
:1031800026F073063E43176921F4007141EA0721D6
:10319000576821F4807141EA0721A04213D1546994
:1031A00021F4006141EA8421946821F4806141EABC
:1031B000842125F48054956944EA0514D56924F4E2
:1031C000005444EA45154560C661D268C263CBE746
:1031D000016A21F480510162056A4168C669176875
:1031E00026F4E64646EA0726176925F4005545EA1F
:1031F0000735576825F4805545EA0735A04204D1C4
:10320000946921F4804141EA84114160C661D1682A
:1032100001640562A9E70000000001407FB5044693
:10322000C0680D460126C0F3403078BBE968686885
:10323000AA690843296911430843E16849F20C620D
:1032400091430843E060A868216921F4405101439B
:1032500021616869616921F44071014361616846D7
:10326000FFF714FE0B48844207D00B48844201D17B
:10327000029903E00948844208D1039931B12B68CF
:1032800023B100262046AA6900F00AF804B03046AF
:1032900070BD0000001001400044004000140140D7
:1032A0002DE9F04106461920A1FB00011F4600232D
:1032B00064243225B2F5004F27D0BB0FBA00FCF7CB
:1032C00089FF0146B0FBF4F06FF01802504301EBA8
:1032D000800005EB0010B0FBF4F000F0F002B1FB51
:1032E000F4F002EB0012B1FBF4F06FF01803584356
:1032F00001EB800005EB0010B0FBF4F000F00F00D4
:10330000104480B2B060BDE8F081FA195B41FCF76F
:1033100061FF0146B0FBF4F00201B1FBF4F06FF085
:103320001803584301EB800005EBC000B0FBF4F03C
:1033300000F0F80002EB4002B1FBF4F0584301EB5F
:10334000800005EBC000B0FBF4F000F00700D7E709
:1033500008B54FF0E0210A690092421C00D0401CE1
:103360000A69D20300D5401E0028F9D108BD00002B
:1033700038B51448016841F4800101600068124CBE
:1033800000F48000009020680022C0F30220114663
:1033900000F01EF80146442001F03CF8442001F002
:1033A0001FF820680022C0F30220114600F010F838
:1033B00001463C2001F02EF8BDE838403C2001F0E9
:1033C0000FB80000303802400CED00E0FEE7FEE7E9
:1033D00030B500F00703C3F10704042C00D904241E
:1033E000181D072801D2002300E0DB1E012505FA85
:1033F00004F0401E084098409D406D1E1540284333
:1034000030BD70470C48416839B1826800F1140141
:103410008B689A4203D9816802E00020704789686E
:10342000642240685143B1FBF0F0642801D9642064
:103430007047C0B270470000380101200548007C89
:1034400028B104481430007C08B1012070470020E6
:10345000704700003801012010B52B4C0521204693
:10346000FFF7CEFB04212046FFF7CAFB05212046CB
:10347000FFF7EEFB0028F9D104212046FFF7E8FB17
:103480000028F3D12149086820F001000860204895
:10349000426822F002024260C86820F48070C8606E
:1034A000C86820F48050C86000F01FF9052120464C
:1034B000FFF792FB05212046FFF798FB04212046E9
:1034C000FFF78AFB04212046FFF790FB4FF40060D2
:1034D000E0608010E0604000E0608010E06040202C
:1034E000E0602020E0600820E0601020E060042020
:1034F000E0600120E06007490020487488741431BE
:103500004874887410BD000000640240000001404F
:10351000003001403801012004490968044A01F0E3
:10352000F0010909515CC8407047000008380240AA
:10353000664A000804490968044A01F4E05102EBB4
:1035400091210978C840704708380240764A00083F
:1035500004490968044A01F4604102EB51310978D9
:10356000C840704708380240764A0008074800689B
:1035700010F00C01064807D0042904D0082903D113
:10358000082000F009B803487047000008380240DE
:103590000024F40040787D0110B5104A0446002054
:1035A000116811F480030E4903D0B3F5800F00D1E8
:1035B0000C49082C11D1106800F03F00B1FBF0F06D
:1035C0001168C1F3881148431168012201F44031A8
:1035D00002EB11414900B0FBF1F010BD043802408C
:1035E0000024F40040787D0110B592B0282168468F
:1035F000FCF73AFE18210AA8FCF736FE1C480168C1
:1036000041F480510160006800F480501090012066
:10361000FFF7B4FAA0200A9002200B9003200024A8
:10362000CDE90C040520CDE90E400AA91148FFF7A9
:1036300085FB4FF48270CDE900404FF40060CDE986
:1036400002048010CDE904400A20CDE90840069428
:103650000794094C69462046FFF728FC606820F073
:1036600010006060206840F04000206012B010BD83
:103670004438024000000240003001402DE9F04192
:103680000E460746FFF73CFA0446134D05E000BF1F
:10369000FFF736FA001BB0421CD2A868C0F3400006
:1036A0000028F5D0EF6004E0FFF72AFA001BB042D3
:1036B00010D2A868C0F340000028F5D005E000BF94
:1036C000FFF71EFA001BB04204D2A868C0F3C01076
:1036D0000028F5D1BDE8F08100300140704700F0CE
:1036E000BFBB00F053BB00F023BC00F029BC0000BE
:1036F00010B59AB090ED0C0B04468DED000B9DF8C3
:10370000000000F05DFE9DF80100FFF701FA9DF852
:10371000020000F039FE9DF8030000F041FE9DF824
:103720000400FEF7BFFF9DF80500FEF7C7FF9DF8F8
:103730000600FEF7CFFF9DF80700FEF7D7FF94EDD8
:103740000E0B51EC100BFCF72FFFC1B21C48FEF71B
:10375000E3F958221B4904A8FCF76DFD94ED000B1A
:103760001B488DED040B94ED020B174A8DED060BF3
:1037700094ED040B15498DED080B94ED060B154BDC
:103780008DED0A0B94ED080B8DED0C0B94ED0A0BEF
:103790008DED0E0B8DE807000F4A04A90848FDF7D0
:1037A000D1F8FFF7D7F904E0FDF7B4FB08B1FDF756
:1037B00079FBFFF743FE0028F6D01AB010BD0000D9
:1037C0001C000020384B000838C100203881002040
:1037D00038410020380100203000002010B59AB098
:1037E00090ED0C0B04468DED000B9DF8000000F0F1
:1037F000E7FD9DF80100FFF78BF99DF8020000F04E
:10380000C3FD9DF8030000F0CBFD9DF80400FEF71A
:1038100049FF9DF80500FEF751FF9DF80600FEF7F1
:1038200059FF9DF80700FEF761FF94ED0E0B51EC78
:10383000100BFCF7B9FEC1B21E48FEF76DF9582215
:103840001D4904A8FCF7F7FC94ED000B8DED040B6B
:1038500094ED020B8DED060B94ED040B8DED080B32
:1038600094ED060B8DED0A0B94ED080B8DED0C0B12
:1038700094ED0A0B51EC100BFCF796FE0E901148DC
:103880000E4A0F498DE807000F4B104A04A909485A
:10389000FDF75EFCFFF75EF905E000BFFDF7C0FF36
:1038A00008B1FDF787FFFFF7C9FD0028F6D01AB071
:1038B00010BD00001C000020884A000838C100200C
:1038C00038810020384100203801002030000020DD
:1038D00030B1012807D0022808D10548FFF708BFFA
:1038E0000348FFF77BBF024800F004B870470000B0
:1038F000A002012010B59AB090ED0C0B04468DED9E
:10390000000B9DF8000000F05BFD9DF80100FFF743
:10391000FFF89DF8020000F037FD9DF8030000F06D
:103920003FFD9DF80400FEF7BDFE9DF80500FEF783
:10393000C5FE9DF80600FEF7CDFE9DF80700FEF7D8
:10394000D5FE94ED0E0B51EC100BFCF72DFEC1B221
:103950001C48FEF7E1F858221B4904A8FCF76BFC51
:1039600094ED000B1B488DED040B94ED020B174AF0
:103970008DED060B94ED040B15498DED080B94EDC0
:10398000060B154B8DED0A0B94ED080B8DED0C0B12
:1039900094ED0A0B8DED0E0B8DE807000F4A04A97C
:1039A0000848FEF79DF9FFF7D5F804E0FEF75EFD45
:1039B00008B1FEF725FDFFF741FD0028F6D01AB04B
:1039C00010BD00001C000020E04A000838C10020A3
:1039D00038810020384100203801002030000020CC
:1039E000014840787047000080000020030005D0A7
:1039F00021B10A2904D90A20002204E000207047DE
:103A0000084600220AE0074901EBC20191ED160BBE
:103A100003EBC201521C81ED000BD2B28242F2D301
:103A20007047000080000020054890F8AA1021B1DE
:103A3000002180F8AA100120704700207047000084
:103A40008000002010B5FFF7EFFF01280ED1FFF72F
:103A5000C7FF074C0A2120700648FFF7C7FF2078F0
:103A6000FFF736FFBDE81040FFF76CB810BD00004F
:103A700030010020A00201200448002180F8AB1092
:103A800000F8A91F4170C0F80310704780000020A3
:103A90007047000070B52F48016821F0070141F020
:103AA00003010160016801F007010329FAD12A49E5
:103AB000086840F4404008602848026842F48032B8
:103AC00002600268C2F34042002AFAD0234A244B23
:103AD000121D1468234D2C4023431360136823F4F4
:103AE00040331360026842F0807202600268C2F3E1
:103AF0004062002AFAD04868C0F380300028FAD02B
:103B000016480830016821F0F0010160016821F4D5
:103B1000E05141F480510160016821F4604101608D
:103B2000016821F0030141F002010160016801F028
:103B30000C010829FAD10C4C2046FFF79AF92046CF
:103B4000FFF7E6F905488C30016821F080710160CB
:103B500070BD0000003C0240007000400038024090
:103B60000C1840000080BFFF00E1F5050248016825
:103B700041F470010160704788ED00E000B587B046
:103B800018216846FCF770FB8020FEF7EBFF012050
:103B9000FEF7E8FF07B000BD2DE9F04F9BB0142100
:103BA00014A8FCF761FB20216846FCF75DFB182197
:103BB00008A8FCF759FB18210EA8FCF755FB6D4827
:103BC000016841F0010101600068DFF8ACA100F07C
:103BD00001004FF0406919904A4605215046FFF711
:103BE0003FF8402205215046FFF750F84FF440328D
:103BF00005215046FFF798F8002205215046FFF7AF
:103C00006BF8002205215046FFF77AF84FF4806BDD
:103C10005A4605215046FFF74BF84FF400663246EE
:103C200005215046FFF776F84FF40058424605212B
:103C30005046FFF747F805215046FEF7C3FF504DA9
:103C40004D4F4E4C68790837C4514A4604215046BE
:103C5000FFF706F8402204215046FFF717F8B2019B
:103C600004215046FFF760F8002204215046FFF778
:103C700033F8002204215046FFF742F85A46042147
:103C80005046FFF715F8324604215046FFF742F838
:103C9000424604215046FFF715F804215046FEF72E
:103CA00091FF2879C4510024ADF850404FF6FF70C1
:103CB000CDE91540334D179414A928461894FFF701
:103CC00047F9286820F080002860A86844F20701BE
:103CD0008843A8603020CDE9000447F6FF70CDE9A5
:103CE0000240AF14049406946A4639462846079465
:103CF000FFF7CEF939462846FFF776F9686820F0D5
:103D000070006860A86820F08000A8600894CDE981
:103D10000C848DF82C4009940A94ADF82E4008A923
:103D20002846FFF7FBF80120FEF734FF02200E962D
:103D3000CDE90F040120CDE912400EA911941248DB
:103D4000FEF7FCFF39462846FFF778F9E86840F4AB
:103D50008070E860E86840F48050E860286A40F4C9
:103D600080502862686C40F4004068641BB0BDE875
:103D7000F08F000044380240006402400C300140E3
:103D80005E4A0008000001400000024030B5040017
:103D90002DED068B83B0B0EE418AF0EE618A9FED87
:103DA0002BABB0EE409AF0EE609A4AD053EC1A2B4F
:103DB00051EC180BFCF712FC43D953EC1A2B51ECC5
:103DC000190BFCF70BFC3CD9224D286820F00100B0
:103DD00028602068A8626068E8622068401CFCF7E0
:103DE000D6FB41EC100B51EC190B53EC102BFCF7EC
:103DF0005FFB9FED191B53EC112BFCF7E7FA53EC1B
:103E0000182BFCF755FBCDE900019DED000B00F0F0
:103E100013FB51EC100BFCF7C7FB00906068009996
:103E2000884201D3084602E0401C4008009008B9CF
:103E300001200090E863286A40F480702862002026
:103E4000686203B0BDEC068B30BD000000000000CE
:103E500000000000000400400000000000004E4090
:103E60002DE9F04194B014210EA8FCF7FDF92021B2
:103E70006846FCF7F9F9182108A8FCF7F5F9294874
:103E8000016841F0020101600068002500F00200B5
:103E90001390ADF838504FF6FF70CDE90F50224C1B
:103EA0000EA920461195FFF753F8206820F08000F6
:103EB00020604FF4807841462046FFF7BFF860202D
:103EC0000127CDE9000747F6FF70CDE90250022631
:103ED0006A464146CDF8188004962046FFF7D8F888
:103EE00041462046FFF780F8606820F0700040F0FF
:103EF00020006060A06820F08000A0600220FEF733
:103F000049FECDE90876CDE90A65CDE90C7608A928
:103F10000648FEF713FF206A40F48070206214B058
:103F2000BDE8F08140380240000400400004024037
:103F30000248016841F0010101607047000400403F
:103F40000548016821F00101016000214162034937
:103F50000120886170470000000400400004024016
:103F600030B50D002DED068B81B0B0EE418AF0EE3C
:103F7000618A9FED27ABB0EE409AF0EE609A04465E
:103F800042D053EC1A2B51EC180BFCF727FB3BD912
:103F900053EC1A2B51EC190BFCF720FB34D9206899
:103FA00020F0010020602868A0626868E06228684C
:103FB000401CFCF7ECFA41EC100B51EC190B53ECE4
:103FC000102BFCF775FA9FED141B53EC112BFCF72B
:103FD000FDF953EC182BFCF76BFA41EC100B00F0D9
:103FE0002BFA51EC100BFCF7DFFA6968814201D221
:103FF000491C480800B9012000902064206A40F460
:10400000805020620020606201B0BDEC068B30BDA4
:1040100000000000000000000000000000803040B0
:104020002DE9F05F0C002DED0A8BB0EE409AF0EE1A
:10403000609A06469FED5CBBB0EE4B8AF0EE6B8A51
:104040009FED5BAB7ED053EC1A2B51EC190BFCF7B8
:10405000C5FA77D99FED580B002084ED040B206042
:104060006060054684ED02AB3046FCF790FA894665
:1040700080464FF48036681CFCF789FA41EC110B3E
:1040800049EC108B53EC112B51EC100BFCF710FA90
:1040900041EC1A0B53EC192BFCF70AFA41EC100B0C
:1040A00000F056FB51EC100BFCF77EFA002869D0AB
:1040B000B04267D8471E462F68D9781CFCF767FACC
:1040C00041EC100B51EC1A0B53EC102BFCF7F0F9F0
:1040D00041EC1A0B53EC192BFCF772F941EC100B65
:1040E00000F036FAB0EE40CAF0EE60CAB0EE4A0A0E
:1040F000F0EE6A0A00F02CFB51EC100BFCF754FABE
:104100008346B0EE4C0AF0EE6C0A00F021FB51EC55
:10411000100BFCF749FA824653EC182B51EC1C0BA0
:10412000FCF75CFA1ED2B0EE4C8AF0EE6C8A504678
:10413000FCF72DFAC4E90401C4E900575846FCF71E
:1041400026FA00E029E09FED1E0BC4E9020153ECC2
:10415000102B51EC190BFCF739F953EC1C2BFCF725
:1041600055FA13D351EC190B9FED170B53EC102B91
:10417000FCF72CF953EC1C2BFCF748FA02D8B5F5E8
:104180007A7F03D36D1CB542FFF475AF53EC1B2B44
:1041900051EC180BFCF722FA04D10120BDEC0A8B7C
:1041A000BDE8F09F0020F9E7FFFFFFFFFFFFEF7F73
:1041B00000000000000000000000E0FFFFFFEF41F2
:1041C00095D626E80B2E113E8DEDB5A0F7C6B03E74
:1041D000AFF3008070B52F4C2068C0F3401000286A
:1041E00057D060680021C2B22B48012390F8AB5031
:1041F00035B1012D0BD0022D11D0032D2CD12EE085
:10420000FF2A43D180F8AB30C0F8AC103EE000F894
:10421000AB2B022200F81F294177016236E090F8AB
:10422000A93090F8A8108B4216D2D90803F00703E2
:104230000A2911D200EBC10119440A7290F8A910A1
:10424000491CC9B280F8A91090F8A82091421DD34A
:10425000032180F8AB1019E0FFF70EFC16E0FE2AF0
:10426000FAD102784270002200EBC205521C95ED93
:10427000020BD2B285ED160B0A2AF5D380F8AA30CC
:1042800080F8AB1000F8A91FC0F803106FF02000F1
:10429000206070BD001001408000002010B58EB07D
:1042A0001C216846FBF7E0FF182107A8FBF7DCFF9D
:1042B0002F48016841F010010160006800F0100013
:1042C0000D902B481438016841F00101016000682D
:1042D000002400F001000D904FF4C0600790022010
:1042E00008900320CDE909040720CDE90B4007A978
:1042F0002048FEF723FD20480068C0F30220011D7E
:10430000072901D2002000E0C01E04FA00F10801D4
:104310001A4981F80004194920202139C1F8000107
:104320004FF4E130CDE900040C200294CDE90340C4
:1043300005940694124C69462046FEF76FFF54F828
:10434000100F20F4904001C4206820F02A0044F8A7
:104350000809206840F40050C4F8000054E8000F39
:1043600040F0200044E800010029F7D10EB010BD54
:1043700044380240000002400CED00E025E000E07F
:1043800000100140FEE700000449012803D04FF46B
:104390000000886170478020FBE7000000040240B5
:1043A00006494FF040728A61C20701D08A158A61BE
:1043B000800702D54FF40070886170470004024006
:1043C00006494FF4C0128A61C20701D008228A61EF
:1043D000800701D51020886170470000000402406A
:1043E000002809DB00F01F020121914040098000F4
:1043F00000F1E020C0F800117047002809DB00F050
:104400001F02012191404009800000F1E020C0F826
:10441000001170470907090E002804DB00F1E020B5
:1044200080F80014704700F00F0000F1E02080F8E1
:10443000141D7047000000002DE9F0412DED020B26
:104440009FED3D0B2DED028B9FED3D8BDDE9025481
:10445000C4F30A50A0F2FF36142E37DA002E18DA11
:1044600053EC102B9DED020B51EC100BFBF707FFEB
:1044700053EC182BFCF7CAF857D2002CBCBF4FF0F6
:104480000044002551DB54EA050018BF2E4C1BD117
:104490004BE02E4820FA06F704EA070028431FD015
:1044A00053EC102B9DED020B51EC100BFBF7E7FECC
:1044B00053EC182BFCF7AAF837D2002C03DD4FF48D
:1044C0008010F0400444BC4300252EE0332E07DC6E
:1044D000A6F114004FF0FF3121FA00F73D4206D15A
:1044E0009DED020BBDEC028B02B0BDE8F08153ECF8
:1044F000102B9DED020B51EC100BFBF764FF53ECFE
:10450000182BFCF783F810D2002C0DDD142E08BFF9
:10451000641C09D0C6F13400012101FA00F02844DE
:10452000A84238BF641C0546BD43CDE902549DED49
:10453000020BD7E7000000009C7500883CE4377E42
:1045400000000000000000000000F03FFFFF0F002F
:104550002DED020B019820F0004001909DED000B25
:1045600002B0704700B52DED048BB0EE418AF0EE3D
:10457000618AB0EE409AF0EE609A83B053EC182B4B
:1045800051EC190BFCF76FF900F07040B0F1005FCF
:104590001AD018EE101A18EE900A8DED008B002933
:1045A00018BF0121084320F00040C0F17F6000F1F6
:1045B000E040C00F01BFB0EE480AF0EE680A03B059
:1045C000BDEC048B08BF00BDB0EE490A03B0F0EEAD
:1045D000690ABDEC048B00BD00B52DED048BB0EE77
:1045E000418AF0EE618AB0EE409AF0EE609A83B0B4
:1045F00053EC182B51EC190BFCF735F900F0704017
:10460000B0F1004F1AD018EE101A18EE900A8DED86
:10461000008B002918BF0121084320F00040C0F1A1
:104620007F6000F1E040C00F01BFB0EE480AF0EE3D
:10463000680A03B0BDEC048B08BF00BDB0EE490AA8
:1046400003B0F0EE690ABDEC048B00BD10B52DED92
:10465000040B86B09DED060B10EE100A10EE901ABA
:104660008DED000B002818BF0120084320F000400A
:10467000C0F17F6000F1E040C00F21D19DED080B3B
:1046800010EE101A10EE900A8DED000B002918BFE5
:104690000121084320F00040C0F17F6000F1E040BC
:1046A000C00F0DD129490798B1EB400F04BF069800
:1046B000002842D00998400004BF089800283CD048
:1046C0009DED080B53EC102B9DED060B51EC100BE0
:1046D000FCF786F8CDE902019DED020B40F2FF7177
:1046E00010EE900A8DED000B31EA105021D00798A2
:1046F000039900F0004001F00041884219D09DED7F
:10470000080B8DED040B9DED020B8DED000B10EEF3
:10471000900A059961F31E0005909DED041B9DED27
:10472000020B51EC110B53EC102BFBF74CFECDE9B7
:1047300002019DED020B0AB010BD012000F098F8B7
:104740000AB0BDE8104000F073B800000000E0FFC0
:1047500010B52DED020B2DED088B84B09DED0C0BEB
:1047600051EC100BFBF7F8FF41EC180B9DED0C0B17
:1047700053EC182B51EC100BFBF722FE41EC190BFC
:104780000D989FED290B10F0004F53EC102B51ECBE
:10479000190B9FED21AB9FED22BB0ED0FBF71EFF47
:1047A0000ED953EC1B2B51EC190BFBF72FFF1CD22E
:1047B00014E000BF41EC180B17E0FBF70FFF06D227
:1047C00053EC1A2B51EC180BFBF7FAFDF2E753EC04
:1047D0001B2B51EC190BFBF719FF06D853EC1A2BC6
:1047E00051EC180BFBF74BFDE4E78DED028B9DEDD3
:1047F0000C0B18EE901A10EE900A8DED000B61F381
:104800001E0003909DED020B04B0BDEC088B02B0BE
:1048100010BD000000000000000000000000F03F9C
:10482000000000000000E03F000000000000E0BFCA
:104830009FED050B10B553EC102B51EC100BFBF753
:1048400037FE41EC100B10BD00000000000000001E
:1048500002E008C8121F08C1002AFAD17047704749
:10486000002001E001C1121F002AFBD170470000A7
:1048700001490860704700003401002010B52DED9B
:10488000088BB0EE40BAF0EE60BAB0EE418AF0EEBE
:10489000618A9FED3B9B9FED3CAB53EC192B51EC98
:1048A0001B0BFBF79BFE09D1B0EE480AF0EE680A3D
:1048B000BDEC088BBDE81040FFF74ABE53EC192B46
:1048C00051EC180BFBF78AFEB0EE4B0AF0EE6B0AC8
:1048D000EED0FFF73DFEB0EE409AF0EE609AB0EEFB
:1048E000480AF0EE680AFFF733FEB0EE408AF0EEB9
:1048F000608A53EC182B51EC190BFBF761FD41EC6E
:10490000100BFFF725FE53EC1A2B51EC100BFBF7A5
:1049100065FE30D353EC182B51EC190BFBF75EFE00
:1049200016D2B0EE490AF0EE690A09E0B0EE481A74
:10493000F0EE681AB0EE490AF0EE690AFFF786FE5B
:10494000B0EE489AF0EE689AB0EE408AF0EE608AD7
:1049500053EC1A2B51EC180BFBF758FEE6D353EC33
:104960001A2B51EC190BFBF739FE04D29FED080B03
:10497000BDEC088B10BDB0EE490AF0EE690AF7E70E
:1049800000000000000000008DEDB5A0F7C6B03EAD
:10499000000000000000F03F264808B5016841F41F
:1049A00080410160006800F4804000902148001FB1
:1049B000016841F08051016000681F4900F080509B
:1049C000009008684FF6FF0210401C4A40F4407007
:1049D000104308600868C0F30220C0F10702042AEF
:1049E00000D90422011D072901D2002000E0C01EC9
:1049F00001219140491E81400801114981F8140D9F
:104A0000FFF748F8FFF7BAF8FEF799F8FEF7A2F8B3
:104A1000FFF744FCFDF77EF84FF4FA70FEF798FCC0
:104A2000FEF790F80748FDF732FE00BFFFF70AF8DF
:104A3000FCE70000443802400CED00E00000FA05FD
:104A40000FE000E01C000020102840587088A0B83B
:104A50000000000004040400000800000008102802
:104A600040587088A0B8000000000000000001025B
:104A700003040607080900000000010203041028CF
:104A800040587088A0B8000000000000000000003E
:104A90000000000000000000000000000000000016
:104AA0000000000000000000000000000000000006
:104AB00000000000000000000000000000000040B6
:104AC00001000000000000000000000000000000E5
:104AD00000000000000000000000000000000000D6
:104AE00000000000000000000000000000000000C6
:104AF00000000000000000000000000000000000B6
:104B000000000000000000000000000000000000A5
:104B10000000000000000040010000000000000054
:104B20000000000000000000000000000000000085
:104B30000000000000000000000000000000000075
:104B40000000000000000000000000000000000065
:104B50000000000000000000000000000000000055
:104B60000000000000000000000000000000004005
:104B70000100000000000000000000000000000034
:104B80000000000000000000000000000000000025
:104B9000B04B00080000002038010000EC080008BD
:104BA000D84B000838010020B80501006048000813
:104BB000616B024004320432083210190C021120D9
:104BC00099125E80C0F440641472012908293C5196
:084BD00003C924F4F2500000B7
:040000050800019955
:00000001FF
