:020000040800F2
:10000000F0050020B1010008B90D0008E108000862
:10001000B70D00080D04000891130008000000004F
:100020000000000000000000000000009510000823
:100030009908000800000000BB0D0008B51000087A
:10004000CB010008CB010008CB010008CB01000860
:10005000CB010008CB010008CB010008CB01000850
:10006000CB010008CB010008CB010008CB01000840
:10007000CB010008CB010008CB010008CB01000830
:10008000CB010008CB010008CB01000800000000F4
:10009000000000000000000000000000CB0100088C
:1000A000CB010008CB010008CB010008CB01000800
:1000B000CB010008CB010008CB010008CB010008F0
:1000C000CB010008CB010008CB010008CB010008E0
:1000D000CB010008DD110008CB0100080000000082
:1000E000CB010008CB010008CB0100080000000094
:1000F000000000000000000000000000CB0100082C
:1001000000000000CB010008CB010008CB01000873
:1001100000000000000000000000000000000000DF
:10012000CB010008CB0100081506000819060008DD
:100130004D06000800000000000000000000000064
:10014000000000000000000000000000CB010008DB
:1001500071060008CB010008CB010008CB010008A4
:10016000CB010008CB0100080000000000000000E7
:10017000000000000000000000000000000000007F
:1001800000000000CB01000800000000000000009B
:10019000CB010008CB010008DFF810D000F07CF89C
:1001A00000480047B1130008AFF30080F0050020BD
:1001B0000648804706480047FEE7FEE7FEE7FEE701
:1001C000FEE7FEE7FEE7FEE7FEE7FEE79111000827
:1001D000990100082DE9F05F0546002092469B46F4
:1001E00088460646814640241BE02846414647464D
:1001F000224600F041F853465A46C01A914110D3A6
:1002000011461846224600F028F82D1A67EB01081F
:100210004F4622460120002100F01FF817EB00098D
:100220004E41201EA4F10104DFDC484631462A4637
:100230004346BDE8F09FD2B201E000F8012B491E11
:10024000FBD270470022F6E710B513460A46044673
:100250001946FFF7F0FF204610BD202A04DB203AA4
:1002600000FA02F1002070479140C2F1200320FA09
:1002700003F3194390407047202A04DB203A21FA07
:1002800002F00021704721FA02F3D040C2F12002AF
:100290009140084319467047064C074D06E0E06858
:1002A00040F0010394E8070098471034AC42F6D3BD
:1002B000FFF776FFA0140008C014000810B5002353
:1002C0004FEA030400F090F8641C1844E4B283B2CF
:1002D0000A2CF7D30A20B3FBF0F010BDF0B591B0B3
:1002E00000240B940C94142168460D94FFF7AAFF88
:1002F000182105A80E94FFF7A5FF3748016841F4BF
:1003000080710160006800F480700F9032481438EA
:10031000016841F004010160006805A900F00400D3
:100320000F90202005900320069009942B4800F0A0
:10033000A9FB2B4D0B940C940BA928460D9400F0AF
:1003400003FB0094019402940394694628460494A4
:1003500000F014FBA86840F48060A8604FF480307F
:100360000E900EA91F4800F0DDFA4FF4407191FA8B
:10037000A1F16815B1FA81F1C84005EB8000C16AAE
:1003800021F01F0141F00F01C1624FF0007090FA9F
:10039000A0F0B0FA80F024FA00F005EB8001CA6802
:1003A0004FF0F87393FAA3F64FF47000B6FA86F69E
:1003B00020FA06F60727B74093FAA3F3B3FA83F3BC
:1003C000D840BA4384402243CA60A86840F0010084
:1003D000A86011B0F0BD000044380240000802409F
:1003E00000200140002301400749886840F0804018
:1003F00088600868C0F340000028FAD0C86C6FF02D
:10040000020280B20A60704700200140FEE700004F
:100410002DE9F0473D4D6868DFF8F480C0F34010E7
:1004200000273C4EA8F12804002855D02020E86081
:10043000607C002868D0A068E1680844A06070680B
:1004400020B100F0BBFC726802219047A16862688D
:100450000120914211D3207467742D481438007C18
:10046000002851D0042188F8311000F0C3FC7268D4
:10047000002A49D00421642041E021782278C2F189
:1004800001022270A268E3681A446368934201D9AA
:10049000E174A0740421284600F0C4FA042128461F
:1004A00000F0D4FA0028F9D16068A168401AE16828
:1004B000814200D2E0688146207818B3B2690421F5
:1004C000284600F0D7FA4A460421284600F0C6FA2A
:1004D0000421284600F0B0FA6868C0F3C000002884
:1004E00012D00820E8606774A774052188F83110DD
:1004F00000F080FCB268002A06D002210520BDE889
:10050000F04710477269DAE7BDE8F08700640240FF
:1005100008010020140000202DE9F0473A4D6868DA
:10052000DFF8E880C0F3C0200027394EA8F114049A
:1005300000284ED0E814E860607C002862D0A068F3
:10054000E1680844A060A06862680121904211D36C
:1005500021746774A4F11400007C002852D0042197
:1005600088F8311000F046FC7268002A4AD0042155
:10057000642042E020782278C2F101022270A26851
:10058000E3681A446368934201D9E074A1740521B9
:10059000284600F047FA0521284600F057FA0028BF
:1005A000F9D16068A168401AE168814200D2E06830
:1005B0008146207820B332690521284600F05AFA96
:1005C0004A460521284600F049FA0521284600F050
:1005D00033FA6868C0F34020002813D04FF400704D
:1005E000E8606774A774052188F8311000F002FCF8
:1005F000B268002A06D002210520BDE8F047104766
:10060000F268D9E7BDE8F0870064024008010020E5
:10061000140000207047000009480168C1F3C06160
:1006200000290CD04FF000618160064A0121117051
:100630000549CA788258C97822F0100242507047A2
:100640000064024000000020781400080748407C45
:1006500000280AD00548283090F8300008B1012859
:1006600001D0FFF7D5BE00F015B87047E0000020BC
:100670000748407C00280AD00548143090F8300024
:1006800008B1012801D0FFF747BF00F087B87047D5
:10069000F40000202DE9F0473D4D6868DFF8F48054
:1006A000C0F3401000273C4EA8F12804002855D084
:1006B0002020E860607C002868D0A068E1680844D9
:1006C000A060706820B100F079FB72680221904749
:1006D000A16862680120914211D3207467742D488B
:1006E0001438007C002851D0042188F8311000F023
:1006F00081FB7268002A49D00421642041E02178FE
:100700002278C2F101022270A268E3681A44636889
:10071000934201D9E174A0740421284600F082F9C3
:100720000421284600F092F90028F9D16068A168F8
:10073000401AE168814200D2E0688146207818B30F
:10074000B2690421284600F095F94A46042128465A
:1007500000F084F90421284600F06EF96868C0F3BF
:10076000C000002812D00820E8606774A774052133
:1007700088F8311000F03EFBB268002A06D0022152
:100780000520BDE8F04710477269DAE7BDE8F08759
:100790000064024008010020140000202DE9F04709
:1007A0003A4D6868DFF8E880C0F3C0200027394E72
:1007B000A8F1140400284ED0E814E860607C0028FA
:1007C00062D0A068E1680844A060A0686268012166
:1007D000904211D321746774A4F11400007C0028A6
:1007E00052D0042188F8311000F004FB7268002A0E
:1007F0004AD00421642042E020782278C2F101022C
:100800002270A268E3681A446368934201D9E074D5
:10081000A1740521284600F005F90521284600F0BD
:1008200015F90028F9D16068A168401AE168814291
:1008300000D2E0688146207820B33269052128463D
:1008400000F018F94A460521284600F007F905216D
:10085000284600F0F1F86868C0F34020002813D063
:100860004FF40070E8606774A774052188F83110B0
:1008700000F0C0FAB268002A06D002210520BDE8C7
:10088000F0471047F268D9E7BDE8F08700640240FE
:1008900008010020140000207047000000B587B058
:1008A00018216846FFF7CEFC042000F08FF80848B6
:1008B0004FF400510A048261009101210022CDE928
:1008C0000112CDE90321694600F0DCF807B000BD54
:1008D00000080240014880687047000004000020C2
:1008E000FEE7FFF7DBBF000002494FF000508861D0
:1008F000704700000008024002494FF40050886130
:10090000704700000008024005494FF40052486952
:10091000824300F4005042EA0040886170470000C2
:1009200000080240074B024600209B6813F0010FAD
:1009300001D0012070470968536823F440330B430A
:10094000536070470020014030B58368002213F0E7
:10095000010F02D00122104630BD8C680B68234382
:100960004468054D2C40234343608368496823F461
:1009700000630B438360EEE7FFFEFFFC30B54B687E
:100980008468002214F0010F02D00122104630BD0D
:10099000002B436823F4684301D08C6823434360F1
:1009A000D1E9033423438468074D2C400D6805F0DA
:1009B00070652C43234383604968C36A23F4700342
:1009C0000B43C362E2E70000FDFCFFC0044908B529
:1009D0000A6802430A6009680140009108BD0000EE
:1009E00030380240044908B50A6802430A600968C1
:1009F0000140009108BD000030380240034A515CBC
:100A0000425822F01002425070470000981400082B
:100A1000034A515C425822F00402425070470000E1
:100A200098140008034A515C425822F001024250D7
:100A30007047000098140008034A515C425842F085
:100A4000010242507047000098140008024A515CAD
:100A5000405800F00100704798140008044B001D36
:100A6000595C0B586FF30F0313430B507047000092
:100A700098140008024B0C30595C0A507047000073
:100A800098140008F0B50A680F2692FAA2F2B2FA9A
:100A900082F303248AE001279F4015EA07027DD0F4
:100AA0004D68012D01D0022D1BD18D68876892FA07
:100AB000A2FCBCFA8CFC4FEA4C0C04FA0CFC27EAB2
:100AC0000C0792FAA2FCBCFA8CFC4FEA4C0C05FA1B
:100AD0000CF52F438760CD684768554397432F43F4
:100AE00047600F69D0F80CC092FAA2F5B5FA85F507
:100AF0004FEA450E04FA0EF52CEA050C92FAA2F51F
:100B0000B5FA85F56D00AF404CEA070CC0F80CC093
:100B10004D68022D33D192FAA2F5B5FA85F5082D6C
:100B200015D2D1F814C0056A92FAA2F7B7FA87F77E
:100B3000BF0006FA07F7BD4392FAA2F7B7FA87F7A4
:100B4000BF000CFA07FC45EA0C05056217E0D1F876
:100B500014E0476A150A95FAA5FCBCFA8CFC4FEA2A
:100B60008C0C06FA0CFC95FAA5F5B5FA85F5AD00E6
:100B700027EA0C070EFA05FE47EA0E0747624D68A2
:100B8000076892FAA2FCBCFA8CFC4FEA4C0C04FAFF
:100B90000CFE27EA0E0792FAA2F200E005E0B2FA94
:100BA00082F2520095402F4307605B1C0A6815468D
:100BB000DA407FF470AF0020F0BD4FF47A71B0FBE3
:100BC000F1F14FF0E020491E4161002181610521D2
:100BD0000161704710B5044600F096F9206000F0FE
:100BE00069F9606000F074F9A060606800F07EF957
:100BF000E06010BD10B503680122C3F380132BBB66
:100C0000D1E900231A43D1E9023423431A430B6983
:100C10001A434B691A438B691A43CB691A430B6A0F
:100C20001A4303684FF6BF74A3431A430260426835
:100C30004B6922F0040242EA134242600A6AB2F5AA
:100C4000005F02D1898C89B201610022C16921F45F
:100C50000061C161104610BD014908607047000085
:100C6000100000207FB50446C0680D460126C0F381
:100C7000403078BBE9686868AA690843296911436C
:100C80000843E16849F20C6291430843E060A868B8
:100C9000216921F44051014321616869616921F4AE
:100CA0004071014361616846FFF794FF0B4884423D
:100CB00007D00B48844201D1029903E009488442DD
:100CC00008D1039931B12B6823B100262046AA69C7
:100CD00000F00AF804B0304670BD0000001001407A
:100CE00000440040001401402DE9F041064619205F
:100CF000A1FB00011F46002364243225B2F5004FFA
:100D000027D0BB0FBA00FFF765FA0146B0FBF4F03D
:100D10006FF01802504301EB800005EB0010B0FBB0
:100D2000F4F000F0F002B1FBF4F002EB0012B1FBC2
:100D3000F4F06FF01803584301EB800005EB00104E
:100D4000B0FBF4F000F00F00104480B2B060BDE8DA
:100D5000F081FA195B41FFF73DFA0146B0FBF4F070
:100D60000201B1FBF4F06FF01803584301EB80006F
:100D700005EBC000B0FBF4F000F0F80002EB40021D
:100D8000B1FBF4F0584301EB800005EBC000B0FB71
:100D9000F4F000F00700D7E708B54FF0E0210A694A
:100DA0000092421C00D0401C0A69D20300D5401EAC
:100DB0000028F9D108BDFEE7FEE770470C484168FE
:100DC00039B1826800F114018B689A4203D98168B5
:100DD00002E0002070478968642240685143B1FBFB
:100DE000F0F0642801D964207047C0B27047000059
:100DF000E000002010B52B4C05212046FFF712FE25
:100E000004212046FFF70EFE05212046FFF71EFEB7
:100E10000028F9D104212046FFF718FE0028F3D15D
:100E20002149086820F0010008602048426822F04B
:100E300002024260C86820F48070C860C86820F46C
:100E40008050C86000F027F905212046FFF7D6FD45
:100E500005212046FFF7DCFD04212046FFF7CEFDEB
:100E600004212046FFF7D4FD4FF40060E0608010BD
:100E7000E0604000E0608010E0604020E060202002
:100E8000E0600820E0601020E0600420E0600120C5
:100E9000E0600749002048748874143148748874ED
:100EA00010BD00000064024000000140003001401D
:100EB000E000002004490968044A01F0F001090932
:100EC000515CC84070470000083802408014000898
:100ED00004490968044A01F4E05102EB91210978C0
:100EE000C840704708380240901400080449096857
:100EF000044A01F4604102EB51310978C84070475F
:100F000008380240901400080748006810F00C01EF
:100F1000064807D0042904D0082903D1082000F08E
:100F200009B8034870470000083802400024F40064
:100F300040787D0110B5104A04460020116811F474
:100F400080030E4903D0B3F5800F00D10C49082C63
:100F500011D1106800F03F00B1FBF0F01168C1F34F
:100F6000881148431168012201F4403102EB11411C
:100F70004900B0FBF1F010BD043802400024F40039
:100F800040787D01F0B591B0282106A8FFF75AF905
:100F900018216846FFF756F92348016841F480415B
:100FA0000160006800F4804010900220FFF71AFDF5
:100FB0000420FFF717FD082002250024CDE90005D5
:100FC00003260527CDE90264CDE9044769461748A1
:100FD000FFF758FD6802CDE90005CDE90264CDE9CF
:100FE000044769461248FFF74DFD4FF48270CDE982
:100FF00006402802CDE90A4008943820CDE90C04C7
:1010000009940A20CDE90E400A4C06A92046FFF7B4
:10101000F1FD606820F010006060206840F0400042
:10102000206011B0F0BD00004038024000080240CE
:1010300000040240003800402DE9F04116460F46FA
:101040000446FFF747FC054605E000BFFFF742FCFA
:10105000401BB0421CD2A068C0F340000028F5D06D
:10106000277304E0FFF736FC401BB04210D2A068A3
:10107000C0F340000028F5D005E000BFFFF72AFCD0
:10108000401BB04204D2A068C0F3C0100028F5D1C4
:10109000BDE8F081704700F091B8000004480021DD
:1010A00080F8AB1000F8A91F4170C0F8031070471A
:1010B000300000207047000070B52F48016821F013
:1010C000070141F003010160016801F007010329F4
:1010D000FAD12A49086840F440400860284802686C
:1010E00042F4803202600268C2F34042002AFAD021
:1010F000234A244B121D1468234D2C4023431360B4
:10110000136823F440331360026842F08072026077
:101110000268C2F34062002AFAD04868C0F3803007
:101120000028FAD016480830016821F0F00101606B
:10113000016821F4E05141F480510160016821F41B
:1011400060410160016821F0030141F0020101608A
:10115000016801F00C010829FAD10C4C2046FFF778
:101160002CFD2046FFF778FD05488C30016821F002
:101170008071016070BD0000003C024000700040C2
:10118000003802400C1840000080BFFF00E1F50568
:101190000248016841F470010160704788ED00E089
:1011A00000B587B018216846FFF74CF88020FFF79C
:1011B0000DFC0120FFF70AFC07B000BD05480168DF
:1011C00021F0010101600021416203490120886191
:1011D000704700000004004000040240AFF30080AC
:1011E00070B52F4C2068C0F34010002857D06068BD
:1011F0000021C2B22B48012390F8AB5035B1012D2C
:101200000BD0022D11D0032D2CD12EE0FF2A43D17B
:1012100080F8AB30C0F8AC103EE000F8AB2B0222F7
:1012200000F81F294177016236E090F8A93090F864
:10123000A8108B4216D2D90803F007030A2911D24D
:1012400000EBC10119440A7290F8A910491CC9B2F7
:1012500080F8A91090F8A82091421DD3032180F8AE
:10126000AB1019E0FFF71AFF16E0FE2AFAD1027858
:101270004270002200EBC205521C95ED020BD2B267
:1012800085ED160B0A2AF5D380F8AA3080F8AB104A
:1012900000F8A91FC0F803106FF02000206070BD97
:1012A000001001403000002010B58EB01C216846AF
:1012B000FEF7C8FF182107A8FEF7C4FF2F480168F2
:1012C00041F010010160006800F010000D902B4803
:1012D0001438016841F0010101600068002400F049
:1012E00001000D904FF4C060079002200890032089
:1012F000CDE909040720CDE90B4007A92048FFF7F5
:10130000C1FB20480068C0F30220011D072901D25B
:10131000002000E0C01E04FA00F108011A4981F81B
:101320000004194920202139C1F800014FF4E130AF
:10133000CDE900040C200294CDE903400594069405
:10134000124C69462046FFF78DFC54F8100F20F42C
:10135000904001C4206820F02A0044F80809206861
:1013600040F40050C4F8000054E8000F40F02000A2
:1013700044E800010029F7D10EB010BD4438024006
:10138000000002400CED00E025E000E0001001400C
:10139000FEE702E008C8121F08C1002AFAD1704710
:1013A0007047002001E001C1121F002AFBD17047E5
:1013B0002C4808B5016841F480410160006800F4E0
:1013C000804000902748001F016841F08051016073
:1013D000006800F080500090234801684FF6FF023B
:1013E0001140224A41F44071114301600068C0F38A
:1013F0000220C0F10702042A00D90422011D072996
:1014000001D2002000E0C01E01219140491E814010
:1014100008011749002481F8140DFFF74DFEFFF76E
:10142000BFFEFFF75EFAFFF767FAFFF73DFF4FF4E5
:10143000FA752846FFF7B0FCFFF756FAFFF7A2FD52
:10144000FEF74CFF00940B4C0122A5212046FFF72C
:10145000F3FDFEF733FF0090FFF756FA2846FFF73B
:101460009BFCF1E7443802400CED00E00000FA0577
:101470000FE000E000380040102840587088A0B805
:101480000000000000000000010203040607080934
:101490000000000001020304102840587088A0B822
:1014A000C014000800000020E000000092130008B3
:1014B000A0150008E000002010050000A21300089D
:1014C000000000000100000010000000000000000B
:1014D0000024F400000000000000000000000000F4
:1014E00000000000000000000000000000000000FC
:1014F00000000000000000000000000000000000EC
:1015000000000000000000000000000000000000DB
:1015100000000000000000000000000000000000CB
:1015200000000000000000000000000000000000BB
:1015300000000000000000000000000000000000AB
:10154000000000000000000000000000000000009B
:10155000000000000000000000000000000000008B
:10156000000000000000000000000000000000007B
:10157000000000000000000000000000000000006B
:10158000000000000000000000000000000000005B
:1015900000000000000000005000000000000000FB
:040000050800019955
:00000001FF
