:020000040800F2
:1000000048060120B10100080B2100086D18000806
:100010000921000843090008BD2D00080000000068
:100020000000000000000000000000000D24000897
:10003000C9160008000000003F210008C92400087C
:10004000CB010008CB010008CB010008CB01000860
:10005000CB010008CB010008CB010008CB01000850
:10006000CB010008CB010008CB010008CB01000840
:10007000CB010008CB010008CB010008CB01000830
:10008000CB010008CB010008CB01000800000000F4
:10009000000000000000000000000000CB0100088C
:1000A000CB010008CB010008CB010008CB01000800
:1000B000CB010008CB010008CB010008CB010008F0
:1000C000CB010008CB010008CB010008CB010008E0
:1000D000CB010008092C0008CB010008000000003B
:1000E000CB010008CB010008CB0100080000000094
:1000F000000000000000000000000000CB0100082C
:1001000000000000CB010008CB010008CB01000873
:1001100000000000000000000000000000000000DF
:10012000CB010008CB0100089D0C0008A10C0008C1
:10013000D50C0008000000000000000000000000D6
:10014000000000000000000000000000CB010008DB
:10015000F90C0008CB010008CB010008CB01000816
:10016000CB010008CB0100080000000000000000E7
:10017000000000000000000000000000000000007F
:1001800000000000CB01000800000000000000009B
:10019000CB010008CB010008DFF810D000F094FB81
:1001A0000048004779330008AFF30080480601207B
:1001B0000648804706480047FEE7FEE7FEE7FEE701
:1001C000FEE7FEE7FEE7FEE7FEE7FEE7A5250008FF
:1001D000990100082DE9F05F0546002092469B46F4
:1001E00088460646814640241BE02846414647464D
:1001F000224600F032FA53465A46C01A914110D3B3
:1002000011461846224600F019FA2D1A67EB01082C
:100210004F4622460120002100F010FA17EB00099A
:100220004E41201EA4F10104DFDC484631462A4637
:100230004346BDE8F09F40EA01039B0703D009E075
:1002400008C9121F08C0042AFAD203E011F8013BC2
:1002500000F8013B521EF9D27047D2B201E000F81B
:10026000012B491EFBD270470022F6E710B513465A
:100270000A4604461946FFF7F0FF204610BD2DE957
:10028000FE4F804681EA0300C00F0C46009021F02B
:10029000004123F00045B8EB0200A94105D24046D9
:1002A000214690461C460B46024623F00040104370
:1002B00047D0270DC7F30A00C3F30A510290401A32
:1002C000019040286BDAC3F3130040F4801B0098C0
:1002D000924620B10023D2EB030A63EB0B0B01988B
:1002E0005946C0F14002504600F0A8F906460D46B6
:1002F00050465946019A00F0C0F910EB08006141E0
:10030000002487EA115284EAE7731A4340D0009A26
:1003100062B3019A012A4FEA075215DC001B61EB18
:1003200002014FF0004202EA0752CDE90042001CF0
:1003300041F5801132462B4600F0C0F903B0BDE80C
:10034000F08F40462146F9E7001B61EB0201001CDB
:1003500041F5801300185B412018A2F5001747EB08
:10036000030140EAD570B6196D4111E06D084FEAFE
:10037000360645EAC0754FEA0752001B61EB0201E1
:10038000001C41F5801149084FEA30000019514125
:1003900032462B4603B0BDE8F04F00F080B900981C
:1003A000012240000023D0EB020263EBE0730098CF
:1003B00021464FEAE074B8EB000061EB0401E9E785
:1003C00083F000435BE781F0004158E72DE9FE4FE1
:1003D00081EA030404F0004421F0004100944FF04E
:1003E000000B23F0004350EA01045ED052EA0304FC
:1003F0005BD0C3F30A54C1F30A552C44A4F2F3347E
:100400000194A0FB0254C1F3130141F48011C3F322
:10041000130343F4801301FB024400FB034E840AE0
:10042000970A44EA815447EA8357A4FB0768029578
:100430008D0A05FB07854FEA932C04FB0C54270516
:10044000029D4FEA065847EA1637B5EB08056EEBF2
:10045000070C870E920E47EA811742EA8312A7FB28
:100460000201B6EB0B0164EB00042B0D43EA0C33E5
:100470005E1844EB1C50DA465146E7FB0201C5F317
:1004800013044FEA0B3343EA14534FEA0432019C3E
:1004900043EA0603A4F10C040294009CCDE900B4E5
:1004A00000F00CF903B0BDE8F08F00200146F9E739
:1004B0002DE9F04D81EA030404F0004B21F00045E2
:1004C00014464FF0000A23F0004150EA050220D004
:1004D00054EA01021DD0C5F30A570246C5F31303BF
:1004E000C1F31300C1F30A5640F4801543F480139E
:1004F000A7EB0608101BD64608F2FD3873EB050083
:1005000002D308F1010801E092185B41B8F1000F35
:1005100003DA00200146BDE8F08D00204FF4801181
:10052000064684460EE0171B73EB050705D3121B26
:1005300063EB050306434CEA010C49084FEA30001F
:1005400092185B4150EA0107EDD152EA030012D044
:1005500082EA040083EA0501084305D0101BAB4181
:1005600006D20122002306E000224FF0004302E001
:100570006FF0010253101AEB06004CEB085110EB20
:100580000A0041EB0B01BDE8F04D00F088B80EB554
:1005900040F2334102910021CDE900110A460B4699
:1005A00000F08CF803B000BDC1F30A5210B5C1F3DE
:1005B000130140F2FF3341F480119A4201DA002026
:1005C00010BD40F233439A42A2F2334203DC52425E
:1005D00000F043F810BD904010BD000030B5041E7F
:1005E00071F1000404DB4FF00044404264EB010170
:1005F000141E73F1000405DB1C464FF00043524209
:1006000063EB04038B4208BF824230BD30B5041E49
:1006100071F1000404DB4FF00044404264EB01013F
:10062000141E73F1000405DB1C464FF000435242D8
:1006300063EB0403994208BF904230BD202A04DBDB
:10064000203A00FA02F1002070479140C2F12003E5
:1006500020FA03F3194390407047202A04DB203A24
:1006600021FA02F00021704721FA02F3D040C2F1D2
:1006700020029140084319467047202A06DBCB1719
:10068000203A41FA02F043EAE07306E041FA02F34D
:10069000D040C2F12002914008431946704710B57E
:1006A000141E73F1000408DA401C41F10001921895
:1006B0005B411A4301D120F0010010BD2DE9F04D3E
:1006C00092469B4611B1B1FA81F202E0B0FA80F293
:1006D00020329046FFF7B2FF04460F4640EA0A0078
:1006E00041EA0B0153465A46084313D0114653EAD8
:1006F000010019D0C8F140025046FFF7AEFF054691
:100700000E46504659464246FFF798FF084305D02B
:10071000012004E020463946BDE8F08D0020054365
:1007200046EAE0762C4337430A986305E40AA0EBD7
:1007300008000022FD0A44EA47540A3002D500208E
:100740000146E9E7010510196941DDE9084500198D
:100750006941BDE8F04DA2E72DE9F041054621F0E1
:1007600000400C46284309D0C4F30A5040F23341FC
:10077000884205DD28462146BDE8F0812846FBE792
:1007800040F2FE31884210DC0CDB4FEA043040EAD4
:10079000155050EA053105D0104804F000410143DE
:1007A0000020E9E700200146E6E7A0F23340464298
:1007B000C6F1400228462146FFF740FF074688461B
:1007C000284621463246FFF748FF43463A46FFF7A0
:1007D00066FF3246BDE8F041FFF730BF0000F03F52
:1007E0002DE9FE4FC3F30A5701F000450024C1F381
:1007F0000A56C3F31303C1F3130143F4801312EB3E
:10080000020AA64641F48011009543EB030CA7F1C0
:10081000010B16E0B0EB0A0061EB0C01071E71F151
:10082000000707DA4FF00008D0EB080085F000451C
:1008300068EB0101171A73EB0107EBD3761E001862
:1008400049415E45F6DA50EA010209D0CDE900E5FA
:10085000002213460296FFF731FF03B0BDE8F08F88
:1008600020460099F9E770B5044601F000450020E4
:10087000054304D14FF00045644265EB010103F0EC
:100880000045284305D118464FF00043524263EB20
:100890000003101B73EB010002D24FF0004009E08F
:1008A00082EA040283EA01034FF000501A4301D1A7
:1008B0004FF0C0404FEA2062EFF3008162F31F6106
:1008C00081F3008870BD0000064C074D06E0E0682B
:1008D00040F0010394E8070098471034AC42F6D387
:1008E000FFF75EFC703500089035000870B58C1875
:1008F00010F8015B15F0070301D110F8013B2A1134
:1009000006D110F8012B03E010F8016B01F8016B20
:100910005B1EF9D12B0705D40023521E0DD401F81C
:10092000013BFAE710F8013BCB1A921C03E013F8E5
:10093000015B01F8015B521EF9D5A142D8D300201A
:1009400070BDFEE74268006909B19061704700041C
:10095000FBE78268406909B1906170470004FBE7DA
:100960002DE9F0473D4D6868DFF8F480C0F3401092
:1009700000273C4EA8F12804002855D02020E8602C
:10098000607C002868D0A068E1680844A0607068B6
:1009900020B101F0D5FB726802219047A16862681E
:1009A0000120914211D3207467742D481438007CC3
:1009B000002851D0042188F8311001F0EBFB726857
:1009C000002A49D00421642041E021782278C2F134
:1009D00001022270A268E3681A446368934201D955
:1009E000E174A0740421284600F0A8FF04212846E1
:1009F00000F0CCFF0028F9D16068A168401AE168D6
:100A0000814200D2E0688146207818B3B26904219F
:100A1000284600F0E3FF4A460421284600F0C8FFBC
:100A20000421284600F0A8FF6868C0F3C000002831
:100A300012D00820E8606774A774052188F8311087
:100A400001F0A8FBB268002A06D002210520BDE80B
:100A5000F04710477269DAE7BDE8F08700640240AA
:100A600060010120600000202DE9F0473A4D6868E0
:100A7000DFF8E880C0F3C0200027394EA8F1140445
:100A800000284ED0E814E860607C002862D0A0689E
:100A9000E1680844A060A06862680121904211D317
:100AA00021746774A4F11400007C002852D0042142
:100AB00088F8311001F06EFB7268002A4AD00421D8
:100AC000642042E020782278C2F101022270A268FC
:100AD000E3681A446368934201D9E074A174052164
:100AE000284600F02BFF0521284600F04FFF002884
:100AF000F9D16068A168401AE168814200D2E068DB
:100B00008146207820B332690521284600F066FF2F
:100B10004A460521284600F04BFF0521284600F0F3
:100B20002BFF6868C0F34020002813D04FF40070FA
:100B3000E8606774A774052188F8311001F02AFB7A
:100B4000B268002A06D002210520BDE8F047104710
:100B5000F268D9E7BDE8F087006402406001012037
:100B6000600000208171C26822F4700242EA0151E3
:100B7000C16070474171C26822F0706242EA01614F
:100B8000C16070470181034BC2681A4042EA0111FB
:100B9000C16070470F00F0FFF0B587B00446182120
:100BA0006846FFF761FB1348016841F001010160ED
:100BB0000068012500F001000690E06803278DE839
:100BC000A1000026CDE903566946206800F054FFD5
:100BD000206900906946606800F04EFF6069CDE9C9
:100BE0000276CDE9000504966946A06800F044FF4E
:100BF00007B0F0BD3038024010B504460068FFF77A
:100C0000CBFF00212068FFF7A4FE0021206800F040
:100C10002EFE01212068FFF795FE01F083FB0021E5
:100C2000204600F01DF803212046FFF7A3FF0F2107
:100C30002046FFF797FF47F6FF712046FFF7A2FF18
:100C40000021204600F005F82046BDE8104000F0E5
:100C50000FB88172C26822F00F020A43C260704767
:100C60000171C26822F0704242EA0171C1607047AE
:100C700070B5044600680021FFF76BFEE168080CC0
:100C80008DB2012101F092FB0121284601F08EFB7B
:100C90002068BDE870400121FFF75BBE704700008F
:100CA00009480168C1F3C06100290CD04FF0006110
:100CB0008160064A012111700549CA788258C978B5
:100CC00022F01002425070470064024000000020F1
:100CD000803400080748407C00280AD005482830A6
:100CE00090F8300008B1012801D0FFF739BE00F0BC
:100CF000E9BB7047380101200748407C00280AD032
:100D00000548143090F8300008B1012801D0FFF7F1
:100D1000ABBE00F05BBC70474C0101202DE9FF4FDA
:100D20009A462DED0C8B9FB016460C46FE4DDDF815
:100D3000E8B02B98F0B1ECB1E6B1BAF1000F19D0E0
:100D40003898B8B13998A8B15FEA0B009FEDF7BBAE
:100D50009FEDF89B9FEDF9AB9FEDFACB9FEDFB8BE1
:100D600008D094ED000B53EC1B2B51EC100BFFF74C
:100D700035FC04D2AA68002A7DD00121F0E294ED6E
:100D8000000B53EC192B51EC100BFFF73FFCF1D388
:100D900094ED020B53EC1B2B51EC100BFFF71EFCD8
:100DA000E8D394ED020B53EC192B51EC100BFFF729
:100DB0002DFCDFD394ED040B9FEDE61B51EC100BE3
:100DC00053EC112BFFF70AFCD4D394ED040B53EC36
:100DD0001A2B51EC100BFFF719FCCBD394ED060B3B
:100DE00053EC182B51EC100BFFF7F8FBC2D394ED2A
:100DF000060B9FEDDA1B51EC100B53EC112BFFF798
:100E000005FCB7D394ED080B9FEDD61B51EC100BEE
:100E100053EC112BFFF7E2FBACD394ED080B53EC32
:100E20001A2B51EC100BFFF7F1FBA3D394ED0A0B37
:100E300053EC182B51EC100BFFF7D0FB9AD394ED29
:100E40000A0B53EC1C2B51EC100BFFF7DFFB91D37B
:100E500094ED0A1B94ED080B53EC112B51EC100B85
:100E6000FFF7D4FB86D95822214602A8FFF7E3F901
:100E70009DED020B00E075E29DED041B53EC102B81
:100E800051EC110BFFF7AAFB9DED060B08D202F007
:100E90004FF851EC100B81F00041CDE9060103E061
:100EA00002F046F88DED060B9F482B99C0F80CA078
:100EB0000160389901613999C0E9051B94EC040B74
:100EC00053EC102B51EC110BFFF77AFA41EC100B9D
:100ED00002F02EF802F02CF894ED041B51EC100BEC
:100EE00053EC112BFFF7E4FA41EC100B01F094FFE7
:100EF00051EC100BFFF758FB5FEA000801D14FF0EF
:100F0000010894ED0A0B53EC1A2B51EC100BFFF770
:100F1000CFFA94ED080B41EC190B53EC1A2B51EC62
:100F2000100BFFF7C5FA41EC1A0B9FED900B53EC39
:100F3000102BFFF76BFB7DD253EC1A2B51EC180BE7
:100F4000FFF7B6FA9FED8BBB53EC1B2BFFF73EFA76
:100F500041EC100B02F0ECF853EC1B2B51EC100B96
:100F6000FFF7A6FA41EC1D0B53EC192B51EC180BB3
:100F7000FFF79EFA0F4647EC120B054653EC1B2B6E
:100F800051EC120BFFF722FA41EC100B02F0D0F8F3
:100F900053EC1B2B51EC100BFFF78AFA41EC180BAA
:100FA000B0EE4D0AF0EE6D0AB0EE481AF0EE681A97
:100FB00002F054F953EC1B2B51EC100BFFF706FA1F
:100FC00041EC100B02F0B4F853EC1B2B51EC100B5E
:100FD000FFF76EFA41EC1B0B53EC182B51EC1D0B79
:100FE000FFF7F4F953EC1B2BFFF762FA41EC100BFF
:100FF00096ED021B01F0E0FFB0EE408AF0EE608A51
:1010000053EC1C2B51EC180BFFF700FB2CD253ECCC
:101010001A2B9FED5A0B51EC100BFFF749FA41ECDC
:10102000180B9FED580B51EC190B53EC102BFFF7DD
:10103000EDFA00E04DE00AD253EC192B9FED530B73
:1010400051EC100BFFF734FA41EC110B01E047ECC7
:10105000115BB0EE480AF0EE680A01F073FF00BFC2
:10106000B0EE408AF0EE608A96ED021BB0EE480AC0
:10107000F0EE680A01F0A0FF9FED461B01F062FF51
:10108000B0EE408AF0EE608A53EC192B51EC180B4D
:10109000FFF79CF941EC100B02F04AF851EC100BF1
:1010A000FFF782FA054653EC1A2B51EC180BFFF7A9
:1010B0008DF941EC100B02F03BF851EC100BFFF7EF
:1010C00073FA0746A5EB0709022D00D202254FB19E
:1010D00009E096ED020BB0EE4C1AF0EE6C1A01F03E
:1010E0006BFFBDE70127B9F1000F0BD17D1C4FF05D
:1010F00001092846FFF74BFA53EC192BFFF7D8F9F3
:1011000041EC180B08FB05F0CDE91490CDE912571E
:10111000CDF844808DED168B582202A91F48FFF7A9
:101120008AF800251D483BE0600000200000000018
:101130000088B3C0000000000088B3400000000039
:1011400000408F40000000000088C3400000000005
:101150000000F03F0000000000408FC000000000D1
:1011600000407F409A9999999999B93FFCA9F1D289
:101170004D62503F000000000000244000000000CD
:10118000000014407B14AE47E17A843F0000000069
:10119000000000400000000000003440F001012089
:1011A000B83805701599416085603168C160057473
:1011B0004FF0010880F811808574C57414300570F3
:1011C0001599416085603168C160057480F81180AF
:1011D0008574C5748C4F1598386087ED028B15980F
:1011E000FFF7D5F953EC182BFFF762F9C7E90401B3
:1011F00094ED040B53EC192B51EC100BFFF758F93D
:101200009FED820BC7E9060187ED080B87ED0A0BFE
:1012100087F8308087F831804FF0E02087F832502F
:10122000006900F00400786315983768B84200D868
:10123000074602ACCDE9007400235146399A2B9839
:1012400000F06AFA1598336898420AD9C01A984291
:1012500000D91846CDE900045A4638992B9800F079
:101260005BFA6C4EB068C0F340000028FAD0B0685A
:10127000C0F3C0100028FAD1674C0521204600F0C9
:101280005DFB0421204600F059FB0521204600F0BB
:101290007DFB0028F9D10421204600F077FB0028CF
:1012A000F9D14FF40070E0608000E060C010E060B1
:1012B0004020E0600001E0600820E0602020E06065
:1012C0000420E060C4F80C801020E060534D6FF003
:1012D0000109C5F810906FF0100BC5F810B000228E
:1012E0000521204600F0A0FB52460521204600F0D3
:1012F00075FB3A460521204600F05AFB00220421E6
:10130000204600F091FB04212046399A00F066FB4C
:101310003A460421204600F04BFB0521204600F010
:1013200017FB0521204600F01DFB0421204600F09C
:101330000FFB0421204600F015FB442001F04CFD7A
:101340003C2001F049FD364818A9B0EE480AF0EEFD
:10135000680A01F081FB60B13248826812B108214D
:101360000520904700201FB0BDEC0C8B04B0BDE8F9
:10137000F08F9FED2D8B9FED2E9B18A9B0EE481A94
:10138000F0EE681AB0EE490AF0EE690A284601F05C
:1013900003FBB0EE481AF0EE681AB0EE490AF0EE20
:1013A000690A18A801F035F8174F022087F83100B4
:1013B000706840F002007060E86840F48070E86097
:1013C000E86840F48050E8600521204600F0D4FA37
:1013D0000421204600F0D0FAC5F81090C5F810B0EE
:1013E0001548416941F001014161686940F001001F
:1013F000686101F010F8286840F00100286087F863
:1014000032800120AFE700006001012000000000F1
:101410000000000000300140006402400000014074
:1014200000E1F505600000200000000084D787413E
:101430000000000084D79741000400402DE9FC41E2
:10144000174CA07C002825D0607C002822D0207C6E
:1014500000281FD1A068E16843186068002504F1E6
:101460001406984214D96068C21AE068904200D20B
:10147000E26894F813C00A4F0A49B837BCF1000F6C
:101480000868CDE9002707D08A69096900F044F9A6
:10149000A574B574BDE8FC814A69C968F6E7000027
:1014A00038010120600000200548817C19B1417C91
:1014B00009B1007C08B1002070470120704700008E
:1014C000380101202DE9F0473D4D6868DFF8F480D0
:1014D000C0F3401000273C4EA8F12804002855D046
:1014E0002020E860607C002868D0A068E16808449B
:1014F000A060706820B100F023FE7268022190475E
:10150000A16862680120914211D3207467742D484C
:101510001438007C002851D0042188F8311000F0E4
:1015200039FE7268002A49D00421642041E0217804
:101530002278C2F101022270A268E3681A4463684B
:10154000934201D9E174A0740421284600F0F6F911
:101550000421284600F01AFA0028F9D16068A16831
:10156000401AE168814200D2E0688146207818B3D1
:10157000B2690421284600F031FA4A46042128467F
:1015800000F016FA0421284600F0F6F96868C0F366
:10159000C000002812D00820E8606774A7740521F5
:1015A00088F8311000F0F6FDB268002A06D002215A
:1015B0000520BDE8F04710477269DAE7BDE8F0871B
:1015C0000064024060010120600000202DE9F04726
:1015D0003A4D6868DFF8E880C0F3C0200027394E34
:1015E000A8F1140400284ED0E814E860607C0028BC
:1015F00062D0A068E1680844A060A0686268012128
:10160000904211D321746774A4F11400007C002867
:1016100052D0042188F8311000F0BCFD7268002A15
:101620004AD00421642042E020782278C2F10102ED
:101630002270A268E3681A446368934201D9E07497
:10164000A1740521284600F079F90521284600F00B
:101650009DF90028F9D16068A168401AE1688142CB
:1016600000D2E0688146207820B3326905212846FF
:1016700000F0B4F94A460521284600F099F9052101
:10168000284600F079F96868C0F34020002813D09C
:101690004FF40070E8606774A774052188F8311072
:1016A00000F078FDB268002A06D002210520BDE8CE
:1016B000F0471047F268D9E7BDE8F08700640240C0
:1016C0006001012060000020704710B5FFF794FA18
:1016D00000F0ECFC00F07CFFBDE8104000F097BE8D
:1016E00000B587B018216846FEF7BEFD042000F063
:1016F000D7F808484FF400510A0482610091012193
:101700000022CDE90112CDE90321694600F0B4F9C8
:1017100007B000BD000802402DE9FF5F9B462DED9C
:101720000A8BC7684548DDE918A4074000259FEDEE
:1017300044AB9FED45BBD4F84890266C77E000BFE2
:101740000BEB0501B1FBF6F2B1FBF6F006FB12184C
:101750009FED3FCBFEF71BFF94ED049B53EC192B41
:10176000FEF734FE94ED001B53EC112BFEF787FDC2
:1017700041EC180B53EC1C2B51EC190BFEF746FFF8
:1017800094ED020B51EC180B53EC102B03D2FEF727
:101790003DFF05D202E0FEF721FF01D294ED028B5E
:1017A000C84509D394ED060B51EC180B53EC102BE4
:1017B000FEF765FD41EC180BB0EE4A9AF0EE6A9A1E
:1017C00053EC192B51EC180BFEF708FF03D2B0EEC7
:1017D000498AF0EE698AB0EE4B9AF0EE6B9A53ECC0
:1017E000192B51EC180BFEF711FF03D2B0EE498A0A
:1017F000F0EE698A9FED18CB51EC180B53EC1C2BC3
:10180000FEF7E4FD53EC192BFEF752FE53EC1C2BB4
:10181000FEF735FDFEF7C8FE80B20B9947EA0010CF
:10182000020C21F815200C9921F815006D1C554566
:1018300086D3BDEC0A8BBDE8FF9F00000F00F0FFD0
:10184000000000000088B3C0000000000088B34022
:101850000000000000000000000000000000E04068
:10186000014880687047000050000020FEE70268D1
:10187000C06809B1906170470004FBE7FFF730BF13
:1018800002494FF000508861704700000008024094
:1018900002494FF400508861704700000008024080
:1018A000044908B50A6802430A60096801400091CA
:1018B00008BD000030380240044908B50A680243F8
:1018C0000A6009680140009108BD000030380240FC
:1018D000044908B50A6802430A600968014000919A
:1018E00008BD000030380240044908B50A680243C8
:1018F0000A6009680140009108BD000044380240B8
:10190000034A1430515C0A5822F004020A5070470E
:1019100096340008034A515C425822F010024250AB
:1019200070470000B6340008034A515C425822F068
:101930000402425070470000B6340008034A515C6C
:10194000425822F00102425070470000B6340008AD
:10195000034A515C425842F0100242507047000066
:10196000B6340008034A515C425842F00402425027
:1019700070470000B6340008034A515C425842F0F8
:101980000102425070470000B6340008024A515C20
:10199000405800F001007047B6340008034B595C12
:1019A000435823F060631343435070479634000854
:1019B000044B001D595C0B586FF30F0313430B507E
:1019C00070470000B6340008034B595C435823F0BD
:1019D000C00313434350704796340008024B0C3049
:1019E000595C0A5070470000B6340008034B595C3C
:1019F000435823F4806313434350704796340008E0
:101A0000034B595C435823F4C0431343435070477E
:101A100096340008034B595C435823F490731343E6
:101A20004350704796340008034B595C435823F4E5
:101A30009073134343507047B6340008034B595C0E
:101A4000435823F4007313434350704796340008FF
:101A5000034B595C435823F4C0531343435070471E
:101A600096340008034B595C435823F44033134326
:101A70004350704796340008F0B50A680F2692FA72
:101A8000A2F2B2FA82F303248AE001279F4015EA0A
:101A900007027DD04D68012D01D0022D1BD18D682C
:101AA000876892FAA2FCBCFA8CFC4FEA4C0C04FA50
:101AB0000CFC27EA0C0792FAA2FCBCFA8CFC4FEA59
:101AC0004C0C05FA0CF52F438760CD6847685543E9
:101AD00097432F4347600F69D0F80CC092FAA2F5E4
:101AE000B5FA85F54FEA450E04FA0EF52CEA050C19
:101AF00092FAA2F5B5FA85F56D00AF404CEA070CF5
:101B0000C0F80CC04D68022D33D192FAA2F5B5FA97
:101B100085F5082D15D2D1F814C0056A92FAA2F7FE
:101B2000B7FA87F7BF0006FA07F7BD4392FAA2F7A4
:101B3000B7FA87F7BF000CFA07FC45EA0C05056207
:101B400017E0D1F814E0476A150A95FAA5FCBCFA2B
:101B50008CFC4FEA8C0C06FA0CFC95FAA5F5B5FA4C
:101B600085F5AD0027EA0C070EFA05FE47EA0E07D9
:101B700047624D68076892FAA2FCBCFA8CFC4FEAF7
:101B80004C0C04FA0CFE27EA0E0792FAA2F200E0CF
:101B900005E0B2FA82F2520095402F4307605B1CC9
:101BA0000A681546DA407FF470AF0020F0BD4FF4AC
:101BB0007A71B0FBF1F14FF0E020491E4161002144
:101BC000816105210161704710B5044600F06CFB8E
:101BD000206000F03FFB606000F04AFBA06060689E
:101BE00000F054FBE06010BD10B503680122C3F3A0
:101BF00080132BBBD1E900231A43D1E902342343DC
:101C00001A430B691A434B691A438B691A43CB6910
:101C10001A430B6A1A4303684FF6BF74A3431A436F
:101C2000026042684B6922F0040242EA13424260B9
:101C30000A6AB2F5005F02D1898C89B20161002283
:101C4000C16921F40061C161104610BD01490860FD
:101C5000704700005C0000200A7B8B681A434B68C9
:101C600022F480621A430B6822F400621A43CB8983
:101C700022F480521A430B6922F400521A43496934
:101C800022F480420A43426400207047F0B50268A3
:101C90001D4B1E4C9F031E4D1E4E984207D0B8424E
:101CA00005D0A04203D0A84201D0B04205D1D1F85E
:101CB00004C022F0700242EA0C02984210D0B842EE
:101CC0000ED0A0420CD0A8420AD0B04208D0124C8C
:101CD000A04205D0114CA04202D0114CA04203D129
:101CE000CC6822F44072224302608A68C2620A8889
:101CF0008262984201D109690163416941F00101A1
:101D000041610020F0BD00000000014000040040DF
:101D100000080040000C0040004001400044014029
:101D200000480140012919D0042919D0102919D0DF
:101D3000402919D0B1F5807F18D0B1F5806F17D048
:101D400006210C4A1830525C10440268094BDB1D16
:101D50005B5C042199408A43026070470021F0E7F0
:101D60000121EEE70221ECE70321EAE70421E8E79D
:101D70000521E6E788340008012919D0042919D083
:101D8000102919D0402919D0B1F5807F18D0B1F5AC
:101D9000806F17D006210C4A1830525C104402683C
:101DA000094BDB1D5B5C082199400A4302607047C8
:101DB0000021F0E70121EEE70221ECE70321EAE749
:101DC0000421E8E70521E6E788340008F0B501259D
:101DD0000023604C012908D0102933D0B1F5807F51
:101DE00064D0B1F5805F5FD190E0016A21F001011C
:101DF0000162016A45688669176826F073063E43EA
:101E0000176921F002013943576821F00101394374
:101E1000A04212D1546921F0080141EA840194687A
:101E200021F0040141EA840125F4807495692C4372
:101E3000D56924F4007444EA450545608661D2689A
:101E400042632FE0016A21F010010162016A4568D6
:101E50008669176826F4E64646EA0726176921F0E0
:101E6000200141EA0711576821F0100141EA0711EA
:101E7000A04213D1546921F0800141EA8411946891
:101E800021F0400141EA841125F48064956944EA17
:101E90008504D56924F4006444EAC505456086617B
:101EA000D268826301621D462846F0BD016A21F4B2
:101EB00080710162016A4568C669176826F0730679
:101EC0003E43176921F4007141EA0721576821F464
:101ED000807141EA0721A04213D1546921F40061C5
:101EE00041EA8421946821F4806141EA842125F447
:101EF0008054956944EA0514D56924F4005444EAF1
:101F000045154560C661D268C263CBE7016A21F41A
:101F100080510162056A4168C669176826F4E64681
:101F200046EA0726176925F4005545EA073557683C
:101F300025F4805545EA0735A04204D1946921F47F
:101F4000804141EA84114160C661D1680164056243
:101F5000A9E70000000001407FB50446C0680D46B7
:101F60000126C0F3403078BBE9686868AA69084375
:101F7000296911430843E16849F20C62914308431F
:101F8000E060A868216921F440510143216168693A
:101F9000616921F44071014361616846FFF714FEF5
:101FA0000B48844207D00B48844201D1029903E0D8
:101FB0000948844208D1039931B12B6823B1002626
:101FC0002046AA6900F00AF804B0304670BD00004F
:101FD0000010014000440040001401402DE9F04190
:101FE00006461920A1FB00011F4600236424322568
:101FF000B2F5004F27D0BB0FBA00FEF7EBF8014651
:10200000B0FBF4F06FF01802504301EB800005EBD9
:102010000010B0FBF4F000F0F002B1FBF4F002EBC2
:102020000012B1FBF4F06FF01803584301EB80008D
:1020300005EB0010B0FBF4F000F00F00104480B28C
:10204000B060BDE8F081FA195B41FEF7C3F80146C4
:10205000B0FBF4F00201B1FBF4F06FF01803584349
:1020600001EB800005EBC000B0FBF4F000F0F800DD
:1020700002EB4002B1FBF4F0584301EB800005EBAA
:10208000C000B0FBF4F000F00700D7E708B54FF050
:10209000E0210A690092421C00D0401C0A69D20368
:1020A00000D5401E0028F9D108BD000038B51448FD
:1020B000016841F4800101600068124C00F4800066
:1020C000009020680022C0F30220114600F01EF8A4
:1020D0000146442000F08DFE442000F070FE206890
:1020E0000022C0F30220114600F010F801463C2007
:1020F00000F07FFEBDE838403C2000F060BE0000EC
:10210000303802400CED00E0FEE7FEE730B500F0AD
:102110000703C3F10704042C00D90424181D072861
:1021200001D2002300E0DB1E012505FA04F0401E69
:10213000084098409D406D1E1540284330BD7047B3
:102140000C48416839B1826800F114018B689A42E9
:1021500003D9816802E000207047896864224068E2
:102160005143B1FBF0F0642801D964207047C0B23C
:1021700070470000380101200548007C28B1044860
:102180001430007C08B10120704700207047000027
:102190003801012010B52B4C05212046FFF7CEFB5E
:1021A00004212046FFF7CAFB05212046FFF7EEFB7E
:1021B0000028F9D104212046FFF7E8FB0028F3D1DD
:1021C0002149086820F0010008602048426822F098
:1021D00002024260C86820F48070C860C86820F4B9
:1021E0008050C86000F019F905212046FFF792FBE6
:1021F00005212046FFF798FB04212046FFF78AFBC4
:1022000004212046FFF790FB4FF40060E06080104F
:10221000E0604000E0608010E0604020E06020204E
:10222000E0600820E0601020E0600420E060012011
:10223000E060074900204874887414314874887439
:1022400010BD000000640240000001400030014069
:102250003801012004490968044A01F0F001090924
:10226000515CC84070470000083802409E340008A6
:1022700004490968044A01F4E05102EB912109780C
:10228000C840704708380240AE3400080449096865
:10229000044A01F4604102EB51310978C8407047AB
:1022A00008380240AE3400080748006810F00C01FE
:1022B000064807D0042904D0082903D1082000F0DB
:1022C00009B8034870470000083802400024F400B1
:1022D00040787D0110B5104A04460020116811F4C1
:1022E00080030E4903D0B3F5800F00D10C49082CB0
:1022F00011D1106800F03F00B1FBF0F01168C1F39C
:10230000881148431168012201F4403102EB114168
:102310004900B0FBF1F010BD043802400024F40085
:1023200040787D0110B590B028216846FDF79CFFEC
:1023300018210AA8FDF798FF4FF48050FFF7D4FA50
:102340000120FFF7B9FAA0200A9002200B90032089
:102350000024CDE90C040520CDE90E400AA911485E
:10236000FFF78AFB4FF48270CDE900404FF4006024
:10237000CDE902048010CDE904400A20CDE90840EF
:1023800006940794084C69462046FFF72DFC6068C8
:1023900020F010006060206840F04000206010B025
:1023A00010BD000000000240003001402DE9F04166
:1023B0000E460746FFF754FA0446134D05E000BFEA
:1023C000FFF74EFA001BB0421CD2A868C0F34000D1
:1023D0000028F5D0EF6004E0FFF742FA001BB0429E
:1023E00010D2A868C0F340000028F5D005E000BF77
:1023F000FFF736FA001BB04204D2A868C0F3C01041
:102400000028F5D1BDE8F08100300140704700F0B0
:1024100043BA00F0D7B900F0A7BA00F0ADBA000097
:1024200010B59AB0044658221A4904A8FDF703FFD4
:1024300094ED000B1A488DED040B94ED020B164A37
:102440008DED060B94ED040B14498DED080B94ED06
:10245000060B144B8DED0A0B94ED080B8DED0C0B58
:1024600094ED0A0B8DED0E0B8DE807000E4A04A9C2
:102470000E48FEF753FCFFF70BFA04E0FFF714F8E1
:1024800008B1FEF7DBFFFFF777FE0028F6D01AB0A1
:1024900010BD00001835000834C100203481002030
:1024A0003441002034010020300000201C000020B6
:1024B0000448002180F8AB1000F8A91F4170C0F853
:1024C00003107047800000207047000070B52F484F
:1024D000016821F0070141F003010160016801F08A
:1024E00007010329FAD12A49086840F440400860EE
:1024F0002848026842F4803202600268C2F3404217
:10250000002AFAD0234A244B121D1468234D2C4074
:1025100023431360136823F440331360026842F0CE
:10252000807202600268C2F34062002AFAD04868F2
:10253000C0F380300028FAD016480830016821F036
:10254000F0010160016821F4E05141F48051016023
:10255000016821F460410160016821F0030141F04C
:1025600002010160016801F00C010829FAD10C4C4C
:102570002046FFF71CFB2046FFF768FB05488C3020
:10258000016821F08071016070BD0000003C0240D4
:1025900000700040003802400C1840000080BFFF6F
:1025A00000E1F5050248016841F4700101607047DF
:1025B00088ED00E000B587B018216846FDF754FEAD
:1025C0008020FFF76DF90120FFF76AF907B000BD21
:1025D0002DE9F04F9BB0142114A8FDF745FE2021F2
:1025E0006846FDF741FE182108A8FDF73DFE1821B9
:1025F0000EA8FDF739FE6D48016841F00101016048
:102600000068DFF8ACA100F001004FF040691990BC
:102610004A4605215046FFF7C1F9402205215046A0
:10262000FFF7D2F94FF4403205215046FFF71AFA6E
:10263000002205215046FFF7EDF900220521504602
:10264000FFF7FCF94FF4806B5A4605215046FFF71F
:10265000CDF94FF40066324605215046FFF7F8F9F0
:102660004FF40058424605215046FFF7C9F90521AD
:102670005046FFF745F9504D4D4F4E4C687908379D
:10268000C4514A4604215046FFF788F940220421EC
:102690005046FFF799F9B20104215046FFF7E2F9DD
:1026A000002204215046FFF7B5F9002204215046CC
:1026B000FFF7C4F95A4604215046FFF797F932460E
:1026C00004215046FFF7C4F9424604215046FFF763
:1026D00097F904215046FFF713F92879C4510024D3
:1026E000ADF850404FF6FF70CDE91540334D1794CB
:1026F00014A928461894FFF7C9FA286820F080002A
:102700002860A86844F207018843A8603020CDE91A
:10271000000447F6FF70CDE90240AF14049406941C
:102720006A46394628460794FFF750FB3946284643
:10273000FFF7F8FA686820F070006860A86820F079
:102740008000A8600894CDE90C848DF82C40099491
:102750000A94ADF82E4008A92846FFF77DFA01201B
:10276000FFF7B6F802200E96CDE90F040120CDE95F
:1027700012400EA911941248FFF77EF939462846F7
:10278000FFF7FAFAE86840F48070E860E86840F41F
:102790008050E860286A40F480502862686C40F4F9
:1027A000004068641BB0BDE8F08F00004438024070
:1027B000006402400C3001409634000800000140E3
:1027C0000000024030B504002DED068B83B0B0EE62
:1027D000418AF0EE618A9FED2BABB0EE409AF0EEAD
:1027E000609A4AD053EC1A2B51EC180BFDF7F6FE09
:1027F00043D953EC1A2B51EC190BFDF7EFFE3CD9E2
:10280000224D286820F0010028602068A8626068D6
:10281000E8622068401CFDF7BAFE41EC100B51EC59
:10282000190B53EC102BFDF743FE9FED191B53ECD6
:10283000112BFDF7CBFD53EC182BFDF739FECDE93D
:1028400000019DED000B00F0E7FA51EC100BFDF7D5
:10285000ABFE009060680099884201D3084602E010
:10286000401C4008009008B901200090E863286AE5
:1028700040F4807028620020686203B0BDEC068BD3
:1028800030BD000000000000000000000004004017
:102890000000000000004E402DE9F04194B01421EA
:1028A0000EA8FDF7E1FC20216846FDF7DDFC1821AC
:1028B00008A8FDF7D9FC2948016841F00201016030
:1028C0000068002500F002001390ADF838504FF674
:1028D000FF70CDE90F50224C0EA920461195FFF74D
:1028E000D5F9206820F0800020604FF480784146C0
:1028F0002046FFF741FA60200127CDE9000747F69F
:10290000FF70CDE9025002266A464146CDF8188094
:1029100004962046FFF75AFA41462046FFF702FA8E
:10292000606820F0700040F020006060A06820F037
:102930008000A0600220FEF7CBFFCDE90876CDE94C
:102940000A65CDE90C7608A90648FFF795F8206AD4
:1029500040F48070206214B0BDE8F081403802403D
:1029600000040040000402400248016841F00101F7
:1029700001607047000400400548016821F0010132
:102980000160002141620349012088617047000015
:10299000000400400004024030B50D002DED068B10
:1029A00081B0B0EE418AF0EE618A9FED27ABB0EEC8
:1029B000409AF0EE609A044642D053EC1A2B51EC48
:1029C000180BFDF70BFE3BD953EC1A2B51EC190BEE
:1029D000FDF704FE34D9206820F00100206028684B
:1029E000A0626868E0622868401CFDF7D0FD41ECF9
:1029F000100B51EC190B53EC102BFDF759FD9FED0B
:102A0000141B53EC112BFDF7E1FC53EC182BFDF7D5
:102A10004FFD41EC100B00F0FFF951EC100BFDF7EE
:102A2000C3FD6968814201D2491C480800B90120F0
:102A300000902064206A40F4805020620020606290
:102A400001B0BDEC068B30BD0000000000000000AE
:102A500000000000008030402DE9F05F0C002DEDFB
:102A60000A8BB0EE409AF0EE609A06469FED5CBB92
:102A7000B0EE4B8AF0EE6B8A9FED5BAB7ED053ECF1
:102A80001A2B51EC190BFDF7A9FD77D99FED580BC7
:102A9000002084ED040B20606060054684ED02ABED
:102AA0003046FDF774FD894680464FF48036681C39
:102AB000FDF76DFD41EC110B49EC108B53EC112B24
:102AC00051EC100BFDF7F4FC41EC1A0B53EC192BF5
:102AD000FDF7EEFC41EC100B00F02AFB51EC100B63
:102AE000FDF762FD002869D0B04267D8471E462F27
:102AF00068D9781CFDF74BFD41EC100B51EC1A0B1B
:102B000053EC102BFDF7D4FC41EC1A0B53EC192BB2
:102B1000FDF756FC41EC100B00F00AFAB0EE40CA8B
:102B2000F0EE60CAB0EE4A0AF0EE6A0A00F000FB6E
:102B300051EC100BFDF738FD8346B0EE4C0AF0EE79
:102B40006C0A00F0F5FA51EC100BFDF72DFD8246F2
:102B500053EC182B51EC1C0BFDF740FD1ED2B0EED0
:102B60004C8AF0EE6C8A5046FDF711FDC4E9040171
:102B7000C4E900575846FDF70AFD00E029E09FED43
:102B80001E0BC4E9020153EC102B51EC190BFDF79D
:102B90001DFC53EC1C2BFDF739FD13D351EC190B25
:102BA0009FED170B53EC102BFDF710FC53EC1C2B77
:102BB000FDF72CFD02D8B5F57A7F03D36D1CB54225
:102BC000FFF475AF53EC1B2B51EC180BFDF706FD12
:102BD00004D10120BDEC0A8BBDE8F09F0020F9E78D
:102BE000FFFFFFFFFFFFEF7F00000000000000007D
:102BF0000000E0FFFFFFEF4195D626E80B2E113EC7
:102C00008DEDB5A0F7C6B03EAFF3008070B52F4C88
:102C10002068C0F34010002857D060680021C2B27D
:102C20002B48012390F8AB5035B1012D0BD0022D6C
:102C300011D0032D2CD12EE0FF2A43D180F8AB30E8
:102C4000C0F8AC103EE000F8AB2B022200F81F29C0
:102C50004177016236E090F8A93090F8A8108B42D5
:102C600016D2D90803F007030A2911D200EBC101DB
:102C700019440A7290F8A910491CC9B280F8A91029
:102C800090F8A82091421DD3032180F8AB1019E0E1
:102C9000FFF70EFC16E0FE2AFAD1027842700022FD
:102CA00000EBC205521C95ED020BD2B285ED160B5E
:102CB0000A2AF5D380F8AA3080F8AB1000F8A91FD3
:102CC000C0F803106FF02000206070BD00100140BC
:102CD0008000002010B58EB01C216846FDF7C4FAB4
:102CE000182107A8FDF7C0FA2F48016841F010012C
:102CF0000160006800F010000D902B481438016846
:102D000041F0010101600068002400F001000D9015
:102D10004FF4C0600790022008900320CDE9090419
:102D20000720CDE90B4007A92048FEF7A5FE204863
:102D30000068C0F30220011D072901D2002000E035
:102D4000C01E04FA00F108011A4981F8000419496B
:102D500020202139C1F800014FF4E130CDE9000411
:102D60000C200294CDE9034005940694124C694668
:102D70002046FFF7F1F854F8100F20F4904001C4FA
:102D8000206820F02A0044F80809206840F4005028
:102D9000C4F8000054E8000F40F0200044E80001AF
:102DA0000029F7D10EB010BD4438024000000240A7
:102DB0000CED00E025E000E000100140FEE70028F7
:102DC00009DB00F01F02012191404009800000F161
:102DD000E020C0F800117047002809DB00F01F0256
:102DE000012191404009800000F1E020C0F800116D
:102DF00070470907090E002804DB00F1E02080F885
:102E00000014704700F00F0000F1E02080F8141D5E
:102E100070470000000000002DE9F0412DED020B8D
:102E20009FED3D0B2DED028B9FED3D8BDDE90254B7
:102E3000C4F30A50A0F2FF36142E37DA002E18DA47
:102E400053EC102B9DED020B51EC100BFDF717FA14
:102E500053EC182BFDF7DAFB57D2002CBCBF4FF018
:102E60000044002551DB54EA050018BF2E4C1BD14D
:102E70004BE02E4820FA06F704EA070028431FD04B
:102E800053EC102B9DED020B51EC100BFDF7F7F9F5
:102E900053EC182BFDF7BAFB37D2002C03DD4FF4AF
:102EA0008010F0400444BC4300252EE0332E07DCA4
:102EB000A6F114004FF0FF3121FA00F73D4206D190
:102EC0009DED020BBDEC028B02B0BDE8F08153EC2E
:102ED000102B9DED020B51EC100BFDF774FA53EC27
:102EE000182BFDF793FB10D2002C0DDD142E08BF1C
:102EF000641C09D0C6F13400012101FA00F0284415
:102F0000A84238BF641C0546BD43CDE902549DED7F
:102F1000020BD7E7000000009C7500883CE4377E78
:102F200000000000000000000000F03FFFFF0F0065
:102F30002DED020B019820F0004001909DED000B5B
:102F400002B0704700B52DED048BB0EE418AF0EE73
:102F5000618AB0EE409AF0EE609A83B053EC182B81
:102F600051EC190BFDF77FFC00F07040B0F1005FF1
:102F70001AD018EE101A18EE900A8DED008B002969
:102F800018BF0121084320F00040C0F17F6000F12C
:102F9000E040C00F01BFB0EE480AF0EE680A03B08F
:102FA000BDEC048B08BF00BDB0EE490A03B0F0EEE3
:102FB000690ABDEC048B00BD00B52DED048BB0EEAD
:102FC000418AF0EE618AB0EE409AF0EE609A83B0EA
:102FD00053EC182B51EC190BFDF745FC00F0704039
:102FE000B0F1004F1AD018EE101A18EE900A8DEDBD
:102FF000008B002918BF0121084320F00040C0F1D8
:103000007F6000F1E040C00F01BFB0EE480AF0EE73
:10301000680A03B0BDEC048B08BF00BDB0EE490ADE
:1030200003B0F0EE690ABDEC048B00BD10B52DEDC8
:10303000040B86B09DED060B10EE100A10EE901AF0
:103040008DED000B002818BF0120084320F0004040
:10305000C0F17F6000F1E040C00F21D19DED080B71
:1030600010EE101A10EE900A8DED000B002918BF1B
:103070000121084320F00040C0F17F6000F1E040F2
:10308000C00F0DD129490798B1EB400F04BF069836
:10309000002842D00998400004BF089800283CD07E
:1030A0009DED080B53EC102B9DED060B51EC100B16
:1030B000FDF796FBCDE902019DED020B40F2FF7199
:1030C00010EE900A8DED000B31EA105021D00798D8
:1030D000039900F0004001F00041884219D09DEDB5
:1030E000080B8DED040B9DED020B8DED000B10EE2A
:1030F000900A059961F31E0005909DED041B9DED5E
:10310000020B51EC110B53EC102BFDF75CF9CDE9E0
:1031100002019DED020B0AB010BD012000F098F8ED
:103120000AB0BDE8104000F073B800000000E0FFF6
:1031300010B52DED020B2DED088B84B09DED0C0B21
:1031400051EC100BFDF708FB41EC180B9DED0C0B3F
:1031500053EC182B51EC100BFDF732F941EC190B25
:103160000D989FED290B10F0004F53EC102B51ECF4
:10317000190B9FED21AB9FED22BB0ED0FDF72EFA70
:103180000ED953EC1B2B51EC190BFDF73FFA1CD257
:1031900014E000BF41EC180B17E0FDF71FFA06D250
:1031A00053EC1A2B51EC180BFDF70AF9F2E753EC2C
:1031B0001B2B51EC190BFDF729FA06D853EC1A2BEF
:1031C00051EC180BFDF75BF8E4E78DED028B9DEDFC
:1031D0000C0B18EE901A10EE900A8DED000B61F3B7
:1031E0001E0003909DED020B04B0BDEC088B02B0F5
:1031F00010BD000000000000000000000000F03FD3
:10320000000000000000E03F000000000000E0BF00
:103210009FED050B10B553EC102B51EC100BFDF787
:1032200047F941EC100B10BD000000000000000049
:1032300002E008C8121F08C1002AFAD1704770477F
:10324000002001E001C1121F002AFBD170470000DD
:1032500001490860704700003001002010B52DEDD5
:10326000088BB0EE40BAF0EE60BAB0EE418AF0EEF4
:10327000618A9FED3B9B9FED3CAB53EC192B51ECCE
:103280001B0BFDF7ABF909D1B0EE480AF0EE680A66
:10329000BDEC088BBDE81040FFF74ABE53EC192B7C
:1032A00051EC180BFDF79AF9B0EE4B0AF0EE6B0AF1
:1032B000EED0FFF73DFEB0EE409AF0EE609AB0EE31
:1032C000480AF0EE680AFFF733FEB0EE408AF0EEEF
:1032D000608A53EC182B51EC190BFDF771F841EC97
:1032E000100BFFF725FE53EC1A2B51EC100BFDF7DA
:1032F00075F930D353EC182B51EC190BFDF76EF91F
:1033000016D2B0EE490AF0EE690A09E0B0EE481AAA
:10331000F0EE681AB0EE490AF0EE690AFFF786FE91
:10332000B0EE489AF0EE689AB0EE408AF0EE608A0D
:1033300053EC1A2B51EC180BFDF768F9E6D353EC5C
:103340001A2B51EC190BFDF749F904D29FED080B2C
:10335000BDEC088B10BDB0EE490AF0EE690AF7E744
:1033600000000000000000008DEDB5A0F7C6B03EE3
:10337000000000000000F03F274896B0016841F4CB
:1033800080410160006800F4804014902248001FD2
:10339000016841F0805101600068204900F08050D0
:1033A000149008684FF6FF0210401D4A40F4407028
:1033B000104308600868C0F30220C0F10702042A25
:1033C00000D90422011D072901D2002000E0C01EFF
:1033D00001219140491E81400801124981F8140DD4
:1033E000FFF774F8FFF7E6F8FEF748FAFEF750FA31
:1033F000FFF770FC4FF4FA70FEF748FEFEF740FA54
:103400000948FEF762F9502208496846FCF713FFA5
:103410006846FFF705F8FEE7443802400CED00E08F
:103420000000FA050FE000E01C0000203034000826
:10343000000000000000594000000000000089C0AA
:1034400000000000000049400000000000C05240A1
:103450000000000000406F400000000000407F407E
:10346000000000000000000000000000000000005C
:10347000000000000000000000000000000000004C
:10348000102840587088A0B8000000000404040010
:10349000000800000008102840587088A0B80000FC
:1034A00000000000000001020304060708090000F4
:1034B000000001020304102840587088A0B80000E2
:1034C00000000000000000000000000000000000FC
:1034D00000000000000000000000000000000000EC
:1034E00000000000000000000000000000000000DC
:1034F000000000000000004001000000000000008B
:1035000000000000000000000000000000000000BB
:1035100000000000000000000000000000000000AB
:10352000000000000000000000000000000000009B
:10353000000000000000000000000000000000008B
:10354000000000000000000000000000000000403B
:10355000010000000000000000000000000000006A
:10356000000000000000000000000000000000005B
:10357000903500080000002034010000EC0800082D
:10358000B83500083401002014050100403200085D
:10359000616B024004320432083210190C0211200F
:1035A00099125E80C0F440641472012908293C51CC
:0835B00003C924F4B25000002D
:040000050800019955
:00000001FF
