:020000040800F2
:10000000C807012039020008571A00081D1300080C
:10001000551A0008E7030008C1230008000000008B
:10002000000000000000000000000000891C000823
:10003000DD100008000000008B1A00089B1C00085F
:10004000530200085302000853020008530200083C
:10005000530200085302000853020008530200082C
:10006000530200085302000853020008530200081C
:10007000530200085302000853020008530200080C
:100080005302000853020008530200080000000059
:100090000000000000000000000000005302000803
:1000A00053020008530200085302000853020008DC
:1000B00053020008530200085302000853020008CC
:1000C00053020008530200085302000853020008BC
:1000D0005302000853020008530200080000000009
:1000E00053020008530200085302000800000000F9
:1000F00000000000000000000000000053020008A3
:1001000000000000530200085302000853020008D8
:1001100000000000000000000000000000000000DF
:100120005302000853020008590E00085D0E000833
:10013000910E000800000000000000000000000018
:100140000000000000000000000000005302000852
:10015000B50E0008530200085302000853020008BD
:1001600053020008530200080000000000000000D5
:10017000000000000000000000000000000000007F
:100180000000000053020008000000000000000012
:10019000530200085302000800F002F800F03CF897
:1001A0000AA090E8000C82448344AAF10107DA45D2
:1001B00001D100F031F8AFF2090EBAE80F0013F0E8
:1001C000010F18BFFB1A43F001031847B4300000B9
:1001D000D4300000103A24BF78C878C1FAD852074A
:1001E00024BF30C830C144BF04680C6070470000B1
:1001F0000023002400250026103A28BF78C1FBD830
:10020000520728BF30C148BF0B6070471FB502F0CE
:10021000E1FF1FBD10B510BD00F0B0F81146FFF7AB
:10022000F5FF02F001FA00F0CEF803B4FFF7F2FF99
:1002300003BC00F0D1F80000094880470948004796
:10024000FEE7FEE7FEE7FEE7FEE7FEE7FEE7FEE786
:10025000FEE7FEE704480549054A064B70470000E3
:10026000751D000899010008C8010120C807012078
:10027000C8030120C803012010B5203AC0F00B804C
:10028000B1E81850203AA0E81850B1E81850A0E89A
:100290001850BFF4F5AF5FEA027C24BFB1E81850F4
:1002A000A0E8185044BF18C918C0BDE810405FEA64
:1002B000827C24BF51F8043B40F8043B08BF7047E0
:1002C000D20728BF31F8023B48BF11F8012B28BFE5
:1002D00020F8023B48BF00F8012B70474FF00002A6
:1002E0000429C0F0128010F0030C00F01B80CCF148
:1002F000040CBCF1020F18BF00F8012BA8BF20F8B6
:10030000022BA1EB0C0100F00DB85FEAC17C24BF09
:1003100000F8012B00F8012B48BF00F8012B7047B3
:100320004FF0000200B5134694469646203922BF8E
:10033000A0E80C50A0E80C50B1F12001BFF4F7AFD9
:10034000090728BFA0E80C5048BF0CC05DF804EBBB
:10035000890028BF40F8042B08BF704748BF20F829
:10036000022B11F0804F18BF00F8012B7047704727
:100370007047704700487047680101207546FFF7D5
:10038000F9FFAE4605006946534620F00700854652
:1003900018B020B5FFF75EFFBDE820404FF0000623
:1003A0004FF000074FF000084FF0000B21F007015D
:1003B000AC46ACE8C009ACE8C009ACE8C009ACE8A0
:1003C000C0098D46704710B50446AFF30080204643
:1003D000BDE81040FFF729BF01491820ABBEFEE77A
:1003E000260002007047FEE74268006909B190618B
:1003F00070470004FBE78268406909B1906170476B
:100400000004FBE72DE9FF4F99462DED108B9FB0BF
:1004100016460C46FE4DDDF8F0B0DDF8F8A02F983A
:10042000D8B1D4B1CEB1B9F1000F16D05FEA0B004C
:1004300013D03D9888B15FEA0A009FEDF6AB9FEDBF
:10044000F78B9FEDF89B08D094ED000B53EC1A2B23
:1004500051EC100B02F0FEFB04D2AA68002A7DD0FA
:100460000121A5E294ED000B53EC182B51EC100B7D
:1004700002F02AFDF1D394ED020B53EC1A2B51EC50
:10048000100B02F0E7FBE8D394ED020B53EC182BB2
:1004900051EC100B02F018FDDFD394ED040B53EC7C
:1004A0001A2B51EC100B02F0D5FBD6D394ED040BB4
:1004B00053EC182B51EC100B02F006FDCDD394ED4C
:1004C000060B53EC1A2B51EC100B02F0C3FBC4D3F8
:1004D00094ED060B53EC182B51EC100B02F0F4FCCE
:1004E000BBD394ED080B9FEDD11B51EC100B53ECDB
:1004F000112B02F0AFFBB0D394ED080B53EC192B8A
:1005000051EC100B02F0E0FCA7D35822214602A8C0
:10051000FFF7B2FEBE482F990160C0E9039B3D99E9
:10052000C0E9051A94ED080B9FEDC21B51EC100BAE
:1005300053EC112B02F0CAFB53EC192B02F0B6F965
:1005400002F048FB80B202F072FB96ED020B41EC28
:10055000180B53EC102B02F07DFB00E02AE201D3D4
:1005600096ED028BA56A05B9012594ED000B94ED7B
:1005700004BB53EC102B51EC1B0B02F041FD41EC82
:10058000100B01F0D5FF94ED089BB0EE40FAF0EEB1
:1005900060FA53EC192B51EC1F0B02F087F994ED24
:1005A000060B41EC1E0B53EC1B2B51EC100B02F015
:1005B00027FD41EC100B01F0BBFFB0EE40AAF0EEBE
:1005C00060AA9FED9E0B51EC1A0B53EC102B02F01E
:1005D0007DFB53EC192B02F069F994ED020B41EC11
:1005E0001D0B53EC1B2B51EC100B02F009FD41ECE1
:1005F000100B01F09DFFB0EE40CAF0EE60CA53EC64
:10060000192B51EC1C0B02F051F941EC1B0B284645
:1006100002F00DFB53EC1D2B02F058FB53EC1E2B8C
:1006200002F090F853EC1B2B02F08CF841EC190B04
:1006300051EC180B53EC192B02F048FB41EC100B5A
:1006400001F082FF51EC100B02F0C4FA074630694A
:10065000B84208D9074602F0EAFA53EC192B02F027
:1006600025F941EC180B384602F0E1FA53EC182B4F
:1006700002F01CF953EC192B02F018F941EC190B9C
:1006800053EC1E2B51EC180B02F020FB53EC192BF2
:1006900002F01CFB41EC100B01F056FF51EC100B6B
:1006A00002F098FA119053EC1D2B51EC180B02F04C
:1006B0000DFB53EC192B02F009FB41EC100B01F080
:1006C00043FF51EC100B02F085FA129053EC1B2BF8
:1006D00051EC180B02F0FAFA53EC192B02F0F6FA6F
:1006E00041EC100B01F030FF51EC100B02F072FAEC
:1006F00013909FED549B1198012738B953EC192B97
:1007000051EC1F0B02F0E0FB00D211971298022867
:1007100008D253EC192B51EC1A0B02F0D5FB01D285
:1007200002201290139838B953EC192B51EC1C0B82
:1007300002F0CAFB00D21397DDE9110101FB0500AD
:1007400013995822084414908DED168B02A93F4846
:10075000FFF792FD3D48002560380570149941600F
:1007600085603168C1600574B84647748574C57486
:10077000143005701499416085603168C16005745A
:1007800047748574C574314F1498383F386087EDCD
:10079000028B149802F04BFA53EC182B02F086F8F7
:1007A000C7E90401129802F042FA53EC182B02F048
:1007B0007DF89FED271B53EC112B02F087FA41ECDB
:1007C000100B51EC1A0B53EC102B02F06FF841ECAC
:1007D000100B87ED060B94ED081B53EC112B02F068
:1007E0000FFC41EC100B01F0A3FE87ED080B94ED1C
:1007F000081B51EC100B53EC112B02F057F89FED36
:10080000161B53EC112B02F061FAC7E90A0127E02D
:100810003C000020000000000088B3C00000000081
:100820000088B340000000000088C3409A9999995D
:100830009999B93F00000000E0FFEF400000000080
:10084000000000400000000000000000B80001208F
:10085000000000000000E03F0000000000005940E0
:1008600087F8305087F831804FF0E02087F8325019
:10087000006900F00400786314983768B84200D823
:10088000074602ACCDE90074002349463D9A2F98F3
:1008900000F04CFC1498336898420AD9C01A984268
:1008A00000D91846CDE90004524659462F9800F069
:1008B0003DFC694EB068C0F340000028FAD0B06833
:1008C000C0F3C0100028FAD1644C0521204600F086
:1008D00085FD0421204600F081FD0521204600F021
:1008E000A5FD0028F9D10421204600F09FFD002835
:1008F000F9D14FF40070E0608000E060C010E0606B
:100900004020E0600001E0600820E0602020E0601E
:100910000420E060C4F80C801020E060504D6FF0BF
:10092000010AC5F810A06FF0100BC5F810B0002236
:100930000521204600F0C8FD4A460521204600F06A
:100940009DFD3A460521204600F082FD002204214B
:10095000204600F0B9FD042120463D9A00F08EFDAE
:100960003A460421204600F073FD0521204600F0A0
:100970003FFD0521204600F045FD0421204600F002
:1009800037FD0421204600F03DFD442001F026FD06
:100990003C2001F023FD334818A9B0EE480AF0EEE0
:1009A000680A01F037FC60B12F48826812B1082153
:1009B0000520904700201FB0BDEC108B04B0BDE8AF
:1009C000F08F9FED2A8B9FED2B9B18A9B0EE481A54
:1009D000F0EE681AB0EE490AF0EE690A284601F016
:1009E000B9FBB0EE481AF0EE681AB0EE490AF0EE24
:1009F000690A18A801F04BF9204F022087F831004E
:100A0000706840F002007060E86840F48070E86050
:100A1000E86840F48050E8600521204600F0FCFCC6
:100A20000421204600F0F8FCC5F810A0C5F810B06D
:100A30001348416941F001014161686940F00100DA
:100A4000686101F026F9286840F00100286087F805
:100A500032800120AFE70000003001400064024016
:100A60000000014000E1F5053C000020000000000E
:100A700084D787410000000084D79741800001207F
:100A8000000400402DE9FC41174CA07C00280ED04A
:100A9000607C00280BD0207C002808D1A068E16889
:100AA000431860680025984203D8A574A574BDE872
:100AB000FC816068C11AE068884200D2E168E77C86
:100AC0000A4E094A60323068CDE900124FB1B2696E
:100AD000D6F8101000F02AFBA57403481430857472
:100AE000E5E77269F168F5E7580001203C00002055
:100AF0000948817C59B1417C49B1007C38B906482C
:100B00001430817C19B1417C09B1007C08B100200E
:100B10007047012070470000580001202DE9F04780
:100B20003D4D6868DFF8F480C0F3401000273C4E6C
:100B3000A8F12804002855D02020E860607C002817
:100B400068D0A068E1680844A060706820B100F037
:100B50009DFF726802219047A1686268012091425E
:100B600011D3207467742D481438007C002851D0AC
:100B7000042188F8311000F0B3FF7268002A49D0D0
:100B80000421642041E021782278C2F10102227020
:100B9000A268E3681A446368934201D9E174A074BF
:100BA0000421284600F01AFC0421284600F03EFCEF
:100BB0000028F9D16068A168401AE168814200D23A
:100BC000E0688146207818B3B2690421284600F015
:100BD00055FC4A460421284600F03AFC04212846E8
:100BE00000F01AFC6868C0F3C000002812D008208A
:100BF000E8606774A774052188F8311000F070FF71
:100C0000B268002A06D002210520BDE8F04710474F
:100C10007269DAE7BDE8F0870064024080000120D5
:100C20003C0000202DE9F0473A4D6868DFF8E88085
:100C3000C0F3C0200027394EA8F1140400284ED07C
:100C4000E814E860607C002862D0A068E16808448D
:100C5000A060A06862680121904211D3217467747A
:100C6000A4F11400007C002852D0042188F831102F
:100C700000F036FF7268002A4AD00421642042E066
:100C800020782278C2F101022270A268E3681A4437
:100C90006368934201D9E074A1740521284600F0ED
:100CA0009DFB0521284600F0C1FB0028F9D16068B2
:100CB000A168401AE168814200D2E068814620784C
:100CC00020B332690521284600F0D8FB4A460521A9
:100CD000284600F0BDFB0521284600F09DFB686812
:100CE000C0F34020002813D04FF40070E860677410
:100CF000A774052188F8311000F0F2FEB268002ACE
:100D000006D002210520BDE8F0471047F268D9E778
:100D1000BDE8F08700640240800001203C00002014
:100D20008171C26822F4700242EA0151C1607047C9
:100D30004171C26822F0706242EA0161C16070478D
:100D40000181034BC2681A4042EA0111C160704739
:100D50000F00F0FFF0B587B0044618216846FFF792
:100D6000DFFA1348016841F00101016000680125C4
:100D700000F001000690E06803278DE8A10000263E
:100D8000CDE903566946206800F0C6FB2069009053
:100D90006946606800F0C0FB6069CDE90276CDE984
:100DA000000504966946A06800F0B6FB07B0F0BDE8
:100DB0003038024010B504460068FFF7CBFF002131
:100DC0002068FFF718FB0021206800F0A8FA012135
:100DD0002068FFF709FB00F0E3FE0021204600F049
:100DE0001DF803212046FFF7A3FF0F212046FFF740
:100DF00097FF47F6FF712046FFF7A2FF002120462C
:100E000000F005F82046BDE8104000F00FB88172F0
:100E1000C26822F00F020A43C26070470171C268C3
:100E200022F0704242EA0171C160704770B5044619
:100E300000680021FFF7DFFAE168080C8DB201219C
:100E400000F0F2FE0121284600F0EEFE2068BDE829
:100E500070400121FFF7CFBA7047000009480168D0
:100E6000C1F3C06100290CD04FF000618160064AD7
:100E7000012111700549CA788258C97822F0100200
:100E80004250704700640240280000205832000899
:100E90000748407C00280AD00548283090F83000E8
:100EA00008B1012801D0FFF739BE00F015B870472E
:100EB000580001200748407C00280AD0054814301B
:100EC00090F8300008B1012801D0FFF7ABBE00F068
:100ED00087B870476C0001202DE9F0473D4D6868E8
:100EE000DFF8F480C0F3401000273C4EA8F128043E
:100EF000002855D02020E860607C002868D0A068D9
:100F0000E1680844A060706820B100F0BFFD72681D
:100F100002219047A16862680120914211D3207498
:100F200067742D481438007C002851D0042188F8BB
:100F3000311000F0D5FD7268002A49D004216420E8
:100F400041E021782278C2F101022270A268E368B0
:100F50001A446368934201D9E174A07404212846BD
:100F600000F03CFA0421284600F060FA0028F9D18C
:100F70006068A168401AE168814200D2E068814659
:100F8000207818B3B2690421284600F077FA4A465F
:100F90000421284600F05CFA0421284600F03CFABF
:100FA0006868C0F3C000002812D00820E8606774A9
:100FB000A774052188F8311000F092FDB268002A6C
:100FC00006D002210520BDE8F04710477269DAE734
:100FD000BDE8F08700640240800001203C00002052
:100FE0002DE9F0473A4D6868DFF8E880C0F3C0208B
:100FF0000027394EA8F1140400284ED0E814E86008
:10100000607C002862D0A068E1680844A060A06805
:1010100062680121904211D321746774A4F1140015
:10102000007C002852D0042188F8311000F058FDCF
:101030007268002A4AD00421642042E02078227895
:10104000C2F101022270A268E3681A446368934205
:1010500001D9E074A1740521284600F0BFF90521EB
:10106000284600F0E3F90028F9D16068A168401A29
:10107000E168814200D2E0688146207820B332697D
:101080000521284600F0FAF94A460521284600F0D5
:10109000DFF90521284600F0BFF96868C0F3402059
:1010A000002813D04FF40070E8606774A77405211E
:1010B00088F8311000F014FDB268002A06D0022131
:1010C0000520BDE8F0471047F268D9E7BDE8F08792
:1010D00000640240800001203C000020704710B5F1
:1010E000FFF768FE00F088FC00F05AFEBDE81040F3
:1010F00000F0CBBD00B587B018216846FFF710F9A6
:10110000042000F01DF908484FF400510A048261E0
:10111000009101210022CDE90112CDE903216946A8
:1011200000F0FAF907B000BD000802402DE9FF4FBA
:1011300070492DED048B85B0C068DDE916A400EA86
:101140000109A06A00B90120D4E90F518846616CF9
:1011500008FB00FB00269FED688B0491A0E00C9833
:101160008DED008B87198DED028BAF4219D2012DC9
:101170000ED9681E01F05BFD41EC190B384601F0F9
:1011800056FD53EC192B01F091FB41EC100B03E0E1
:10119000B0EE480AF0EE680A8DED020B94ED009B6C
:1011A00047E005EB0B00B842A7EB05007DD9B0FB8B
:1011B000F8F2B0FBF8F108FB12074FEA580087423B
:1011C0001BD201280ED9401E01F031FD41EC190B54
:1011D000384601F02CFD53EC192B01F067FB41EC74
:1011E000100B03E0B0EE480AF0EE680A8DED020B3A
:1011F00094ED049B94ED060B1DE03F1AA8EB000054
:1012000001280ED9401E01F012FD41EC190B3846A1
:1012100001F00DFD53EC192B01F048FB41EC100BD4
:1012200003E0B0EE480AF0EE680A8DED020B94ED93
:10123000069B94ED040B53EC192B51EC100B01F0B1
:10124000DFFE9DED021B53EC112B01F03FFD53EC33
:10125000192B01F077FACDE900019FED299B9DED57
:10126000000B53EC192B51EC100B01F02FFD9FEDEF
:10127000261B53EC112B01F019FB53EC192B01F039
:1012800061FA01F0A7FC80B249EA0010010C00905D
:101290000A9820F816100B99009821F81600761C71
:1012A0005645FFF45CAF05B000E003E0BDEC048BF5
:1012B000BDE8FF8FA0EB0B07049801280ED9401E54
:1012C00001F0B5FC41EC190B384601F0B0FC53ECD1
:1012D000192B01F0EBFA41EC100B03E0B0EE480AD9
:1012E000F0EE680A8DED020B94ED049B94ED020B79
:1012F000A1E700000F00F0FF000000000000000068
:10130000000000000000E040000000000088B34042
:1013100001488068704700002C000020FEE702684A
:10132000C06809B1906170470004FBE7FFF7E2BEB7
:1013300002494FF4005088617047000000080240E5
:10134000044908B50A6802430A600968014000912F
:1013500008BD000030380240044908B50A6802435D
:101360000A6009680140009108BD00003038024061
:10137000044908B50A6802430A60096801400091FF
:1013800008BD000030380240044908B50A6802432D
:101390000A6009680140009108BD0000443802401D
:1013A000034A1430515C0A5822F004020A50704774
:1013B0006E320008034A515C425822F0100242503B
:1013C0007047000076320008034A515C425822F010
:1013D000040242507047000076320008034A515C14
:1013E000425822F001024250704700007632000855
:1013F000034A515C425842F01002425070470000CC
:1014000076320008034A515C425842F004024250CE
:101410007047000076320008034A515C425842F09F
:10142000010242507047000076320008024A515CC7
:10143000405800F00100704776320008034B595CB9
:10144000435823F060631343435070476E320008E3
:10145000044B001D595C0B586FF30F0313430B50E3
:101460007047000076320008034B595C435823F064
:10147000C0031343435070476E320008024B0C30D8
:10148000595C0A507047000076320008034B595CE3
:10149000435823F480631343435070476E3200086F
:1014A000034B595C435823F4C043134343507047E4
:1014B0006E320008034B595C435823F49073134376
:1014C000435070476E320008034B595C435823F475
:1014D000907313434350704776320008034B595CB6
:1014E000435823F400731343435070476E3200088F
:1014F000034B595C435823F4C05313434350704784
:101500006E320008034B595C435823F440331343B5
:10151000435070476E320008F0B50A680F2692FA01
:10152000A2F2B2FA82F303248AE001279F4015EA6F
:1015300007027DD04D68012D01D0022D1BD18D6891
:10154000876892FAA2FCBCFA8CFC4FEA4C0C04FAB5
:101550000CFC27EA0C0792FAA2FCBCFA8CFC4FEABE
:101560004C0C05FA0CF52F438760CD68476855434E
:1015700097432F4347600F69D0F80CC092FAA2F549
:10158000B5FA85F54FEA450E04FA0EF52CEA050C7E
:1015900092FAA2F5B5FA85F56D00AF404CEA070C5A
:1015A000C0F80CC04D68022D33D192FAA2F5B5FAFD
:1015B00085F5082D15D2D1F814C0056A92FAA2F764
:1015C000B7FA87F7BF0006FA07F7BD4392FAA2F70A
:1015D000B7FA87F7BF000CFA07FC45EA0C0505626D
:1015E00017E0D1F814E0476A150A95FAA5FCBCFA91
:1015F0008CFC4FEA8C0C06FA0CFC95FAA5F5B5FAB2
:1016000085F5AD0027EA0C070EFA05FE47EA0E073E
:1016100047624D68076892FAA2FCBCFA8CFC4FEA5C
:101620004C0C04FA0CFE27EA0E0792FAA2F200E034
:1016300005E0B2FA82F2520095402F4307605B1C2E
:101640000A681546DA407FF470AF0020F0BD4FF411
:101650007A71B0FBF1F14FF0E020491E41610021A9
:10166000816105210161704710B503680122C3F350
:1016700080132BBBD1E900231A43D1E90234234361
:101680001A430B691A434B691A438B691A43CB6996
:101690001A430B6A1A4303684FF6BF74A3431A43F5
:1016A000026042684B6922F0040242EA134242603F
:1016B0000A6AB2F5005F02D1898C89B20161002209
:1016C000C16921F40061C161104610BD0149086083
:1016D00070470000380000200A7B8B681A434B6873
:1016E00022F480621A430B6822F400621A43CB8909
:1016F00022F480521A430B6922F400521A434969BA
:1017000022F480420A43426400207047F0B5026828
:101710001D4B1E4C9F031E4D1E4E984207D0B842D3
:1017200005D0A04203D0A84201D0B04205D1D1F8E3
:1017300004C022F0700242EA0C02984210D0B84273
:101740000ED0A0420CD0A8420AD0B04208D0124C11
:10175000A04205D0114CA04202D0114CA04203D1AE
:10176000CC6822F44072224302608A68C2620A880E
:101770008262984201D109690163416941F0010126
:1017800041610020F0BD0000000001400004004065
:1017900000080040000C00400040014000440140AF
:1017A00000480140012919D0042919D0102919D065
:1017B000402919D0B1F5807F18D0B1F5806F17D0CE
:1017C00006210C4A1830525C10440268094BDB1D9C
:1017D0005B5C042199408A43026070470021F0E776
:1017E0000121EEE70221ECE70321EAE70421E8E723
:1017F0000521E6E760320008012919D0042919D033
:10180000102919D0402919D0B1F5807F18D0B1F531
:10181000806F17D006210C4A1830525C10440268C1
:10182000094BDB1D5B5C082199400A43026070474D
:101830000021F0E70121EEE70221ECE70321EAE7CE
:101840000421E8E70521E6E760320008F0B501254C
:101850000023604C012908D0102933D0B1F5807FD6
:1018600064D0B1F5805F5FD190E0016A21F00101A1
:101870000162016A45688669176826F073063E436F
:10188000176921F002013943576821F001013943FA
:10189000A04212D1546921F0080141EA8401946800
:1018A00021F0040141EA840125F4807495692C43F8
:1018B000D56924F4007444EA450545608661D26820
:1018C00042632FE0016A21F010010162016A45685C
:1018D0008669176826F4E64646EA0726176921F066
:1018E000200141EA0711576821F0100141EA071170
:1018F000A04213D1546921F0800141EA8411946817
:1019000021F0400141EA841125F48064956944EA9C
:101910008504D56924F4006444EAC5054560866100
:10192000D268826301621D462846F0BD016A21F437
:1019300080710162016A4568C669176826F07306FE
:101940003E43176921F4007141EA0721576821F4E9
:10195000807141EA0721A04213D1546921F400614A
:1019600041EA8421946821F4806141EA842125F4CC
:101970008054956944EA0514D56924F4005444EA76
:1019800045154560C661D268C263CBE7016A21F4A0
:1019900080510162056A4168C669176826F4E64607
:1019A00046EA0726176925F4005545EA07355768C2
:1019B00025F4805545EA0735A04204D1946921F405
:1019C000804141EA84114160C661D16801640562C9
:1019D000A9E700000000014008B54FF0E0210A69C6
:1019E0000092421C00D0401C0A69D20300D5401E60
:1019F0000028F9D108BD000038B51448016841F449
:101A0000800101600068124C00F4800000902068A2
:101A10000022C0F30220114600F01EF801464420C7
:101A200000F0E9FC442000F0CCFC20680022C0F368
:101A30000220114600F010F801463C2000F0DBFCCB
:101A4000BDE838403C2000F0BCBC0000303802400B
:101A50000CED00E0FEE7FEE730B500F00703C3F150
:101A60000704042C00D90424181D072801D20023E0
:101A700000E0DB1E012505FA04F0401E08409840F6
:101A80009D406D1E1540284330BD70470C4841688D
:101A900039B1826800F114018B689A4203D98168D8
:101AA00002E0002070478968642240685143B1FB1E
:101AB000F0F0642801D964207047C0B2704700007C
:101AC000580001200548007C28B104481430007CEF
:101AD00008B1012070470020704700005800012025
:101AE00010B52B4C05212046FFF778FC0421204639
:101AF000FFF774FC05212046FFF798FC0028F9D178
:101B000004212046FFF792FC0028F3D12149086800
:101B100020F0010008602048426822F00202426082
:101B2000C86820F48070C860C86820F48050C8601D
:101B300000F0B1F805212046FFF73CFC05212046C6
:101B4000FFF742FC04212046FFF734FC0421204625
:101B5000FFF73AFC4FF40060E0608010E060400066
:101B6000E0608010E0604020E0602020E06008201D
:101B7000E0601020E0600420E0600120E0600749A0
:101B800000204874887414314874887410BD0000B3
:101B90000064024000000140003001405800012074
:101BA00010B590B028216846FEF7BAFB18210AA8A4
:101BB000FEF7B6FB4FF48050FFF7E6FB0120FFF77E
:101BC000CBFBA0200A9002200B9003200024CDE93B
:101BD0000C040520CDE90E400AA91148FFF79CFC32
:101BE0004FF48270CDE900404FF40060CDE902046B
:101BF0008010CDE904400A20CDE9084006940794FE
:101C0000084C69462046FFF72FFD606820F0100061
:101C10006060206840F04000206010B010BD0000FF
:101C200000000240003001402DE9F0410E46074619
:101C3000FFF76EFB0446134D05E000BFFFF768FB9E
:101C4000001BB0421CD2A868C0F340000028F5D0A9
:101C5000EF6004E0FFF75CFB001BB04210D2A86805
:101C6000C0F340000028F5D005E000BFFFF750FBAF
:101C7000001BB04204D2A868C0F3C0100028F5D100
:101C8000BDE8F08100300140704700F0E3B900F09A
:101C900081B900F047BA00F04DBA704770B52F48CF
:101CA000016821F0070141F003010160016801F0C2
:101CB00007010329FAD12A49086840F44040086026
:101CC0002848026842F4803202600268C2F340424F
:101CD000002AFAD0234A244B121D1468234D2C40AD
:101CE00023431360136823F440331360026842F007
:101CF000807202600268C2F34062002AFAD048682B
:101D0000C0F380300028FAD016480830016821F06E
:101D1000F0010160016821F4E05141F4805101605B
:101D2000016821F460410160016821F0030141F084
:101D300002010160016801F00C010829FAD10C4C84
:101D40002046FFF784FC2046FFF7C0FC05488C3096
:101D5000016821F08071016070BD0000003C02400C
:101D600000700040003802400C1840000080BFFFA7
:101D700000E1F5050248016841F470010160704717
:101D800088ED00E000B587B018216846FEF7C8FA74
:101D90008020FFF7D5FA0120FFF7D2FA07B000BD87
:101DA0002DE9F04F9BB0142114A8FEF7B9FA2021B9
:101DB0006846FEF7B5FA182108A8FEF7B1FA18210F
:101DC0000EA8FEF7ADFA6D48016841F0010101600F
:101DD0000068DFF8ACA100F001004FF040691990F5
:101DE0004A4605215046FFF729FB4022052150466F
:101DF000FFF73AFB4FF4403205215046FFF782FBD4
:101E0000002205215046FFF755FB002205215046D0
:101E1000FFF764FB4FF4806B5A4605215046FFF7ED
:101E200035FB4FF40066324605215046FFF760FB54
:101E30004FF40058424605215046FFF731FB05217B
:101E40005046FFF7ADFA504D4D4F4E4C687908376C
:101E5000C4514A4604215046FFF7F0FA40220421BB
:101E60005046FFF701FBB20104215046FFF74AFB41
:101E7000002204215046FFF71DFB0022042150469A
:101E8000FFF72CFB5A4604215046FFF7FFFA324673
:101E900004215046FFF72CFB424604215046FFF731
:101EA000FFFA04215046FFF77BFA2879C451002439
:101EB000ADF850404FF6FF70CDE91540334D179403
:101EC00014A928461894FFF721FC286820F0800008
:101ED0002860A86844F207018843A8603020CDE953
:101EE000000447F6FF70CDE90240AF140494069455
:101EF0006A46394628460794FFF7A8FC3946284623
:101F0000FFF750FC686820F070006860A86820F057
:101F10008000A8600894CDE90C848DF82C400994C9
:101F20000A94ADF82E4008A92846FFF7D5FB0120FA
:101F3000FFF71EFA02200E96CDE90F040120CDE92D
:101F400012400EA911941248FFF7E6FA39462846C6
:101F5000FFF752FCE86840F48070E860E86840F4FD
:101F60008050E860286A40F480502862686C40F431
:101F7000004068641BB0BDE8F08F000044380240A8
:101F8000006402400C3001406E3200080000014045
:101F90000000024070B504002DED068BB0EE418AC2
:101FA000F0EE618AB0EE409A9FED25ABF0EE609ABC
:101FB00042D053EC1A2B51EC180B00F04BFE3BD9DE
:101FC00053EC1A2B51EC190B00F044FE34D91E4D82
:101FD000286820F0010028602068A8626068E86234
:101FE0002068401C00F023FE41EC100B51EC190B53
:101FF00053EC102B00F05AFC9FED141B53EC112BEB
:1020000000F064FE53EC182B00F050FC41EC100B78
:1020100000F002FA51EC100B00F0DCFD6168814227
:1020200001D2491C480800B90120E863286A40F43D
:102030008070286200206862BDEC068B70BD0000D5
:10204000000000000000000000040040000000004C
:1020500000004E402DE9F04194B014210EA8FEF787
:102060005FF920216846FEF75BF9182108A8FEF702
:1020700057F92948016841F0020101600068002514
:1020800000F002001390ADF838504FF6FF70CDE924
:102090000F50224C0EA920461195FFF737FB206800
:1020A00020F0800020604FF4807841462046FFF702
:1020B000A3FB60200127CDE9000747F6FF70CDE9BB
:1020C000025002266A464146CDF818800496204602
:1020D000FFF7BCFB41462046FFF764FB606820F039
:1020E000700040F020006060A06820F08000A060D8
:1020F0000220FFF73DF9CDE90876CDE90A65CDE983
:102100000C7608A90648FFF707FA206A40F48070A9
:10211000206214B0BDE8F081403802400004004065
:10212000000402400248016841F00101016070476B
:10213000000400400548016821F001010160002110
:10214000416203490120886170470000000400409B
:102150000004024030B50D002DED068B81B0B0EECD
:10216000418AF0EE618A9FED27ABB0EE409AF0EE27
:10217000609A044642D053EC1A2B51EC180B00F035
:1021800069FD3BD953EC1A2B51EC190B00F062FDA1
:1021900034D9206820F0010020602868A0626868B7
:1021A000E0622868401C00F042FD41EC100B51EC4D
:1021B000190B53EC102B00F079FB9FED141B53EC23
:1021C000112B00F083FD53EC182B00F06FFB41EC5A
:1021D000100B00F021F951EC100B00F0FBFC6968CA
:1021E000814201D2491C480800B9012000902064B6
:1021F000206A40F4805020620020606201B0BDEC93
:10220000068B30BD00000000000000000000000050
:10221000008030402DE9F05F0C002DED0A8BB0EE10
:1022200040AAF0EE60AA06469FED5BCBB0EE4C8A6A
:10223000F0EE6C8A9FED5A9B7BD053EC192B51EC3E
:102240001A0B00F007FD74D99FED570B002084EDA9
:10225000040B20606060054684ED029B304600F070
:10226000E6FC894680464FF48036681C00F0DFFCAF
:1022700041EC110B49EC108B53EC112B51EC100B72
:1022800000F014FB41EC190B53EC1A2B00F00EFB81
:1022900041EC100B00F058F951EC100B00F09AFCD7
:1022A000002866D0B04264D8471E00F0C0FC41EC64
:1022B000100B51EC190B53EC102B00F0F7FA41EC1A
:1022C0001B0B53EC1A2B00F09BFE41EC100B00F0A3
:1022D0002FF9B0EE409AF0EE609AB0EE4B0AF0EEB5
:1022E0006B0A00F031F951EC100B00F073FC8346DF
:1022F000B0EE490AF0EE690A00F026F951EC100B35
:1023000000F068FC824653EC182B51EC190B00F0DE
:10231000A1FC1ED2B0EE498AF0EE698A504600F068
:1023200086FCC4E90401C4E90057584600F07FFC6C
:1023300000E029E09FED1E0BC4E9020153EC102BD5
:1023400051EC1A0B00F0C2FC53EC192B00F0BCFD51
:1023500013D351EC1A0B9FED180B53EC102B00F01C
:10236000B5FC53EC192B00F0AFFD02D8B5F57A7F20
:1023700003D36D1CB542FFF478AF53EC1C2B51EC2A
:10238000180B00F0EBFB04D10120BDEC0A8BBDE87B
:10239000F09F0020F9E70000FFFFFFFFFFFFEF7F46
:1023A00000000000000000000000E0FFFFFFEF4120
:1023B00095D626E80B2E113E8DEDB5A0F7C6B03EA2
:1023C000FEE7002809DB00F01F02012191404009CF
:1023D000800000F1E020C0F800117047002809DB00
:1023E00000F01F02012191404009800000F1E0202F
:1023F000C0F8001170470907090E002804DB00F13E
:10240000E02080F80014704700F00F0000F1E02099
:1024100080F8141D704700002DE9F0412DED020BEE
:102420009FED3D0B2DED028B9FED3D8BDDE90254C1
:10243000C4F30A50A0F2FF36142E37DA002E18DA51
:1024400053EC102B9DED020B51EC100B00F07AF9C0
:1024500053EC182B00F038FD57D2002CBCBF4FF0C6
:102460000044002551DB54EA050018BF2E4C1BD157
:102470004BE02E4820FA06F704EA070028431FD055
:1024800053EC102B9DED020B51EC100B00F05AF9A0
:1024900053EC182B00F018FD37D2002C03DD4FF45D
:1024A0008010F0400444BC4300252EE0332E07DCAE
:1024B000A6F114004FF0FF3121FA00F73D4206D19A
:1024C0009DED020BBDEC028B02B0BDE8F08153EC38
:1024D000102B9DED020B51EC100B00F085FD53EC21
:1024E000182B00F0F1FC10D2002C0DDD142E08BFCB
:1024F000641C09D0C6F13400012101FA00F028441F
:10250000A84238BF641C0546BD43CDE902549DED89
:10251000020BD7E7000000009C7500883CE4377E82
:1025200000000000000000000000F03FFFFF0F006F
:102530002DED020B019820F0004001909DED000B65
:1025400002B070470000000010B52DED020B2DED1C
:10255000088B84B09DED0C0B51EC100B00F0EAFCE5
:1025600041EC180B9DED0C0B53EC182B51EC100BA0
:1025700000F046FD41EC190B0D989FED290B10F072
:10258000004F53EC102B51EC190B9FED21AB9FED3D
:1025900022BB0ED000F05EFB0ED953EC1B2B51EC8E
:1025A000190B00F091FC1CD214E000BF41EC180B99
:1025B00017E000F04FFB06D253EC1A2B51EC180B2E
:1025C00000F01EFDF2E753EC1B2B51EC190B00F051
:1025D0007BFC06D853EC1A2B51EC180B00F0B2F828
:1025E000E4E78DED028B9DED0C0B18EE901A10EECA
:1025F000900A8DED000B61F31E0003909DED020B20
:1026000004B0BDEC088B02B010BD0000000000005B
:10261000000000000000F03F000000000000E03F6C
:10262000000000000000E0BF3C48A2B04FF480442E
:10263000016841F480410160006800F4804000902E
:102640003648001F016841F080510160006800F0C9
:1026500080500090324801684FF6FF021140314A25
:1026600041F44071114301600068C0F30220C0F1E1
:102670000701042900D90421021D072A01D20020E4
:1026800000E0C01E01228A40521E274982401001EC
:1026900081F8140DFFF702FBFFF774FBFEF746FE0F
:1026A000FEF746FE4FF4FA70FFF796F921461F48F1
:1026B000FDF714FE21461E48FDF710FE21461D4879
:1026C000FDF70CFE21461C48FDF708FE1B48FEF7EF
:1026D00006FD58221A4904A8FDF7CEFD184920220C
:1026E00058311AA8FDF7C8FD1148134A11498DE861
:1026F00007000E4B1AAA04A91048FDF783FE04E058
:10270000FEF7F6F908B1FEF7BDF9FFF7DBF900288F
:10271000F6D06420FFF760F9FBE700004438024080
:102720000CED00E00000FA050FE000E0580000208A
:10273000584000205880002058C000201800002079
:10274000E031000810B591EA030F48BF83F0004361
:1027500000F15E84841A71EB030C05D2121943EB6D
:102760000C03001B61EB0C01DFF824E14FEA11546C
:10277000A4EB135C1EEA430F18BF9EEA445F73D0BC
:1027800023EA0E03DCF1200E21EA045143F4801306
:1027900032D322FA0CFE10EB0E0023FA0CFE41EBB2
:1027A0000E01CCF1200E03FA0EFE10EB0E0051F1DB
:1027B0000001B1F5801FCCF1200E32D201EB0451A3
:1027C00012FA0EF2BDE8104058BF7047401C38BFE7
:1027D0005FEA420218BF7047002814BF20F00100D2
:1027E00041F100014FEA410313F5001F38BF704764
:1027F000A1F1C04100F062BB012A43EB0302ACF13E
:10280000200CDCF11F0E32BF4FF0000E23FA0CF348
:1028100010EB030041EB0451B4EB115FD0D0A1EBFE
:10282000045101F5801149085FEA300001EB0451C1
:102830000ED350F1000038BF12FA0EFE08D1BDE8E9
:102840001040C9E7401C38BF5FEA4202CAD1C3E763
:10285000BDE810404FEA410313F5001F38BF704731
:10286000A1F1C04100F02ABB9EEA445F08D011EA02
:102870005E0FBDE8104004BF01F00041002070472A
:10288000BDE8104070B500F0CBFA00BF64FBBE3E5F
:102890000000E0FF491058BFC1F140415B1058BF34
:1028A000C3F140438B42EFF3008070472DE9C041F4
:1028B00030B4DFF8A0C23CEA111418BF3CEA13148C
:1028C00000F0EC8081EA03051CEA111444EAD57497
:1028D00018BF1CEA131500F0C780A4EB05044FF0E5
:1028E000004545EAC12145EAC32341EA505143EA84
:1028F000525304F17F74994204F500344FEAC0202A
:102900004FEAC22208BF904200F09C804FEA136554
:102910000FF24016765D4FEA134506FB05F7C7F147
:10292000807706FB07F74FEAD737A7FB03687642A5
:10293000C8F58038A7FB06CE38BFA8F1010807FB11
:1029400008E64FF0000EA6FB028CE6FB03CEDCF19E
:10295000000CCEF1004E38BFAEF1010EA6FB0C58B4
:102960004FF000074FF00005E6FB0E87A1FB08C6FD
:10297000A0FB07CE16EB0E0645F10005E1FB07654F
:1029800015F1E04E7EBFA4F580345FEA46066D4146
:1029900016F1800745F100054FEA17274FEA066652
:1029A00047EA0567A6F1DE46B6F1805F4FEA1525D6
:1029B0001FD9384624F0010C05EBC471BCF1FE6F41
:1029C00001EB0C1102D8F0BCBDE8008124425CBFD1
:1029D00001F5801E9EEAC47F02D4F0BCBDE80081F0
:1029E000244238D4F0BCA1F1C041BDE8004100F060
:1029F00065BA4FEAD22242EA43524FEAD323A7FBF9
:102A000002864FEAD02040EA415007FB03661EEAE7
:102A10000E0F4FEAD12105FB026658BFA6EB005608
:102A2000B6EB00564FEA520E4EEAC37E18EB0E0E7E
:102A300056EB530EBDD518EB02085E417F1C55F1D5
:102A40000005B6E74FF480154FF000074FF0000681
:102A50004FF00008ADE7F0BC4FF0000001F1C041BD
:102A600001F00041BDE8008111EA0C1F0CEA1315CA
:102A700000D00CE013EA0C1F00F025804FF000009E
:102A8000F0BC81EA030101F00041BDE80081F0BC27
:102A9000BDE8004181EA030100F010BAF0BCBDE8D6
:102AA000004170B500F0BCF9097EFC3E00F007B8AB
:102AB00081EA03014FF0000001F00041704781EA14
:102AC000030100F0FBB9F0BCBDE800414FF000008D
:102AD00021497047FFFDFBF9F7F5F4F2F0EEEDEB5D
:102AE000E9E8E6E4E3E1E0DEDDDBDAD8D7D5D4D30C
:102AF000D1D0CFCDCCCBCAC8C7C6C5C4C2C1C0BF58
:102B0000BEBDBCBBBAB9B8B7B6B5B4B3B2B1B0AF5D
:102B1000AEADACABAAA9A8A8A7A6A5A4A3A3A2A141
:102B2000A09F9F9E9D9C9C9B9A99999897979695FC
:102B300095949393929191908F8F8E8E8D8C8C8B98
:102B40008B8A898988888787868585848483838220
:102B5000828181800000FF070000F87F51EA030CAA
:102B600017D41CF5801F58BFBCF5801F00F10680EC
:102B7000994218BF704708BF9042704707D711F5B8
:102B8000801F58BF13F5801F19D49942704789429E
:102B900070471CF5801F08D5BCF5801FF7D58B4208
:102BA00018BF704708BF824270474FF4001C1CEBEF
:102BB000410F38BF1CEB430F01D28B42704770B5F9
:102BC00000F02EF9922449004FF000514FF080534D
:102BD000FFF760BE4FEA1153A3F58063D3F11E03E4
:102BE000A8BFD3F1200C08DB4FF0004242EAC1221B
:102BF00052EA505232FA03F0704709420BD4102BBC
:102C0000C4BF0020704703F5787CBCF1FF3F05D0BE
:102C10004FF0FF3070474FF00000704770B500F084
:102C2000FFF800BF4992248000207047F0E7B0FA17
:102C300080F310FA03F10AD0C3F11D0303F580639A
:102C40004FEA41504FEA035202EBD12170474FF057
:102C50000000704751EA030C17D41CF5801F58BFC1
:102C6000BCF5801F00F10680994218BF704708BF6D
:102C70009042704707D711F5801F58BF13F5801F8A
:102C800019D499427047894270471CF5801F08D5B6
:102C9000BCF5801FF7D58B4218BF704708BF824232
:102CA00070474FF4001C1CEB410F38BF1CEB430F67
:102CB00001D28B42704770B500F0B2F892244900FF
:102CC0004FF000514FF08053FFF7E4BDDFF848C1EB
:102CD00070B51CEA111E1EBF1CEA13159EEA0C0FEC
:102CE00095EA0C0F00F06F8081EA030423EA4C138D
:102CF0004EEAD47E21EA4C1141F4801143F4801352
:102D0000AE44A1FB024CA0FB0365AEF17F7E3619F9
:102D100055EB0C05A1FB034C4CF10003A0FB021C7E
:102D200016EB0C06654153F10003094218BF46F04B
:102D3000010613F4007F0BD14FEA03314FEA05304F
:102D4000340341EA155140EA16506FF003020AE0DD
:102D50004FEAC3214FEAC520F40241EA555140EA47
:102D600056506FF0020202EB2E4201EB025585EA4B
:102D7000CE710AD05FEA440C18BF24F0004450F131
:102D8000000041F1000120EAD47040F2FE7C62456F
:102D900000D270BDA84214BF4FF080444FF04044B1
:102DA000002E08BF0024BEF1806FA8BFA1F1C04172
:102DB000BDE8704080F282804FF0000001F1C04118
:102DC00001F0004170479EEA0C0F0CEA131518BF82
:102DD00095EA0C0F06D04FF0000081EA030E0EF0CA
:102DE000004170BD00F01CF88900013E00F007B8FA
:102DF00000F009B84FEA430C5FEA5C5C08D081EA56
:102E0000030100F05BB84FEA410C5FEA5C5CF6D16D
:102E10004FF00000014970470000FF070000F87FF5
:102E20000EF1020E2EF0030E5EF8046B364205D44E
:102E3000012A43EB030515F5001F12D8012841EBC9
:102E4000010C1CF5001F0CD80ED14FEAD17C15F5F2
:102E5000001F0CEB4C0C0CF1020C08BF4CEBD37CAC
:102E600004E04FF0080C01E04FEAD37C0CEB4C057A
:102E700026FA05F606F00706B6F1040C06D20EEBAC
:102E8000860CBDE870404CF0010C6047DFE80CF0A8
:102E9000090B02024FF000414FF00000A1F50021A4
:102EA00070BD19461046012851EB010418BFD4F536
:102EB000001484BF002001F0004170BD0808A0F597
:102EC00000114FEA3101704753EA010C17D41CF589
:102ED000801F58BFBCF5801F00F106808B4218BFD1
:102EE000704708BF8242704707D713F5801F58BF4D
:102EF00011F5801F19D48B4270479B4270471CF517
:102F0000801F08D5BCF5801FF7D5994218BF7047C0
:102F100008BF904270474FF4001C1CEB430F38BFB2
:102F20001CEB410F01D2994270470FB40CBC03BC9B
:102F3000FFF7C1BE5FEA410C5FEA5C5CACF5806301
:102F40005B1C39D4D3F1340240F34580B2F1200345
:102F500014DA4FF0010C0CFA02FCACF1010303404F
:102F6000B3EB5C0220EA030008BF10EA0C0F98BF25
:102F7000704710EB0C0041F1000170470AD0C3F11B
:102F8000200201FA02FC012821FA03F101FA03F1FF
:102F90004CF100004FF0010C0CFA03FCACF1010302
:102FA000B0F1004F21EA030108BF11EA0C0F4FF006
:102FB000000088BF61447047B3F1FF3F28BF50EA6B
:102FC000C12C01F000414FF0000084BF41F07C5162
:102FD00041F470017047B3F5806FB8BF704770B5AA
:102FE000FFF71EFF40DBB6BE91EA030F10B581F07C
:102FF00000413FF5AFAB83F0004300F009B800009B
:1030000010B591EA030F48BF83F000433FF5A2AB30
:10301000841A71EB030C07D212198CF0004C43EBAD
:103020000C03001B61EB0C01DFF8A4E14FEA115423
:10303000A4EB135C1EEA430F18BF9EEA445F00F046
:10304000B08023EA6E03524221EA0451C3EB6E03BF
:1030500038BF5B1EDCF1200E25D322FA0CFE10EBEC
:103060000E0043FA0CFE41EB0E01CCF1200E03FAE8
:103070000EFE10EB0E0051F10001CCF1200E29D410
:1030800012FA0EF201EB0451BDE8104058BF704730
:10309000401C1CBFB2F1004F704700280CBF491CF8
:1030A00020F00100704712EB020E43EB030218BF41
:1030B0004FF0010E4EEA4202ACF1200CDCF11E0E84
:1030C00054D943FA0CFE10EB0E0051F1FF31CCF154
:1030D0001E0ED5D50EF1010E12FA0EFE404141EB47
:1030E000010101EB445C5FEA5C5C10D910EBDE701F
:1030F00001EB045138BFBEF1004FBDE8104018BFCE
:10310000704700280CBF491C20F00100704730D2E6
:103110004FEAD42C11F5001124F400641BD0B1FA4D
:1031200081F20B3AA41AA41ED2F12003914030FA86
:1031300003F31943904001EBCC71002C01EB0451D7
:10314000BDE81040A8BF704701F1C0414FF000003A
:1031500001F000417047B0FA80F310FA03F100D19A
:1031600010BDE41A173C4805C90AE4E701EB045115
:1031700010BD491001EB0451BDE810404FEA30008A
:1031800002E04FF0000170474A0008BF0042F8D04B
:10319000B2F5001F28BF704701F000414FF000005A
:1031A00070479EEA445F07D011EA5E0FBDE8104009
:1031B00004BF002100207047BDE8104070B5FFF744
:1031C0002FFE00BF40DFF63E83F0004110467047FF
:1031D0000000E0FF4FF04070E1EE100A7047000081
:1031E0000000000000407F400000000000407FC061
:1031F0000000000000408FC00000000000408F4031
:103200000000000000408F400200000000000000AD
:10321000000000000000004001000000000000006D
:10322000000000000000000000000000000000009E
:10323000000000000000000000200000000000006E
:103240000000000080C0F440640000000020000086
:103250000100000000000000102840587088A0B84D
:10326000000000000404040000080000000810280A
:1032700040587088A0B8102840587088A0B8000046
:10328000A03200080000002058000000D40100080F
:10329000F83200085800002070070100F001000813
:1032A0000000024000000240000002400400000054
:1032B00008000000100000000000002000000000D6
:1032C00000000000000000000000000001000000FD
:1032D00010000000000000000024F40000000000C6
:1032E00000000000000000000000000000000000DE
:0832F0000000000000000000D6
:040000050800019955
:00000001FF
