:020000040800F2
:1000000098060120AD01000873290008E5200008CA
:10001000712900083F090008493700080000000066
:10002000000000000000000000000000752C000827
:10003000851D000800000000A72900086D2E00089B
:10004000C7010008C7010008C7010008C701000870
:10005000C7010008C7010008C7010008C701000860
:10006000C7010008C7010008C7010008C701000850
:10007000C7010008C7010008C7010008C701000840
:10008000C7010008C7010008C70100080000000000
:10009000000000000000000000000000C701000890
:1000A000C7010008C7010008C7010008C701000810
:1000B000C7010008C7010008C7010008C701000800
:1000C000C7010008C7010008C7010008C7010008F0
:1000D000C701000895350008C701000800000000AE
:1000E000C7010008C7010008C701000800000000A0
:1000F000000000000000000000000000C701000830
:1001000000000000C7010008C7010008C70100087F
:1001100000000000000000000000000000000000DF
:10012000C7010008C70100089513000899130008CB
:10013000CD130008000000000000000000000000D7
:10014000000000000000000000000000C7010008DF
:10015000F1130008C7010008C7010008C701000823
:10016000C7010008C70100080000000000000000EF
:10017000000000000000000000000000000000007F
:1001800000000000C701000800000000000000009F
:10019000C7010008C7010008DFF80CD000F092FB8F
:1001A00000480047013D00089806012006488047A6
:1001B00006480047FEE7FEE7FEE7FEE7FEE7FEE74C
:1001C000FEE7FEE7FEE7FEE7492F00089901000879
:1001D0002DE9F05F0546002092469B46884606467C
:1001E000814640241BE0284641464746224600F00F
:1001F00032FA53465A46C01A914110D31146184656
:10020000224600F019FA2D1A67EB01084F462246E4
:100210000120002100F010FA17EB00094E41201ECA
:10022000A4F10104DFDC484631462A464346BDE8D6
:10023000F09F40EA01039B0703D009E008C9121FA1
:1002400008C0042AFAD203E011F8013B00F8013B90
:10025000521EF9D27047D2B201E000F8012B491EBC
:10026000FBD270470022F6E710B513460A46044653
:100270001946FFF7F0FF204610BD2DE9FE4F8046DE
:1002800081EA0300C00F0C46009021F0004123F0EA
:100290000045B8EB0200A94105D2404621469046F0
:1002A0001C460B46024623F00040104347D0270D62
:1002B000C7F30A00C3F30A510290401A0190402884
:1002C0006BDAC3F3130040F4801B0098924620B110
:1002D0000023D2EB030A63EB0B0B01985946C0F1E4
:1002E0004002504600F0A8F906460D4650465946D1
:1002F000019A00F0C0F910EB08006141002487EA80
:10030000115284EAE7731A4340D0009A62B3019A0B
:10031000012A4FEA075215DC001B61EB02014FF086
:10032000004202EA0752CDE90042001C41F580116B
:1003300032462B4600F0C0F903B0BDE8F08F4046CE
:100340002146F9E7001B61EB0201001C41F5801317
:1003500000185B412018A2F5001747EB030140EAA3
:10036000D570B6196D4111E06D084FEA360645EAC1
:10037000C0754FEA0752001B61EB0201001C41F5FA
:10038000801149084FEA30000019514132462B468E
:1003900003B0BDE8F04F00F080B9009801224000A2
:1003A0000023D0EB020263EBE073009821464FEA92
:1003B000E074B8EB000061EB0401E9E783F000436F
:1003C0005BE781F0004158E72DE9FE4F81EA030425
:1003D00004F0004421F0004100944FF0000B23F0A2
:1003E000004350EA01045ED052EA03045BD0C3F339
:1003F0000A54C1F30A552C44A4F2F3340194A0FB2F
:100400000254C1F3130141F48011C3F3130343F405
:10041000801301FB024400FB034E840A970A44EA5E
:10042000815447EA8357A4FB076802958D0A05FBB0
:1004300007854FEA932C04FB0C542705029D4FEAD5
:10044000065847EA1637B5EB08056EEB070C870E22
:10045000920E47EA811742EA8312A7FB0201B6EB2C
:100460000B0164EB00042B0D43EA0C335E1844EBE4
:100470001C50DA465146E7FB0201C5F313044FEA6C
:100480000B3343EA14534FEA0432019C43EA060358
:10049000A4F10C040294009CCDE900B400F00CF926
:1004A00003B0BDE8F08F00200146F9E72DE9F04DDB
:1004B00081EA030404F0004B21F0004514464FF09C
:1004C000000A23F0004150EA050220D054EA01025C
:1004D0001DD0C5F30A570246C5F31303C1F3130039
:1004E000C1F30A5640F4801543F48013A7EB0608C5
:1004F000101BD64608F2FD3873EB050002D308F155
:10050000010801E092185B41B8F1000F03DA002006
:100510000146BDE8F08D00204FF480110646844668
:100520000EE0171B73EB050705D3121B63EB0503E6
:1005300006434CEA010C49084FEA300092185B412F
:1005400050EA0107EDD152EA030012D082EA04001A
:1005500083EA0501084305D0101BAB4106D20122F6
:10056000002306E000224FF0004302E06FF001029A
:1005700053101AEB06004CEB085110EB0A0041EB4C
:100580000B01BDE8F04D00F088B80EB540F23341E4
:1005900002910021CDE900110A460B4600F08CF8CB
:1005A00003B000BDC1F30A5210B5C1F3130140F20C
:1005B000FF3341F480119A4201DA002010BD40F26D
:1005C00033439A42A2F2334203DC524200F043F832
:1005D00010BD904010BD000030B5041E71F1000444
:1005E00004DB4FF00044404264EB0101141E73F140
:1005F000000405DB1C464FF00043524263EB04034A
:100600008B4208BF824230BD30B5041E71F1000438
:1006100004DB4FF00044404264EB0101141E73F10F
:10062000000405DB1C464FF00043524263EB040319
:10063000994208BF904230BD202A04DB203A00FADC
:1006400002F1002070479140C2F1200320FA03F329
:10065000194390407047202A04DB203A21FA02F027
:100660000021704721FA02F3D040C2F120029140EC
:10067000084319467047202A06DBCB17203A41FA77
:1006800002F043EAE07306E041FA02F3D040C2F11F
:100690002002914008431946704710B5141E73F1AB
:1006A000000408DA401C41F1000192185B411A4332
:1006B00001D120F0010010BD2DE9F04D92469B467E
:1006C00011B1B1FA81F202E0B0FA80F22032904624
:1006D000FFF7B2FF04460F4640EA0A0041EA0B0169
:1006E00053465A46084313D0114653EA010019D025
:1006F000C8F140025046FFF7AEFF05460E46504691
:1007000059464246FFF798FF084305D0012004E010
:1007100020463946BDE8F08D0020054346EAE076E4
:100720002C4337430A986305E40AA0EB0800002233
:10073000FD0A44EA47540A3002D500200146E9E7A1
:10074000010510196941DDE9084500196941BDE855
:10075000F04DA2E72DE9F041054621F000400C469E
:10076000284309D0C4F30A5040F23341884205DDE2
:1007700028462146BDE8F0812846FBE740F2FE31DD
:10078000884210DC0CDB4FEA043040EA155050EA96
:10079000053105D0104804F0004101430020E9E78D
:1007A00000200146E6E7A0F233404642C6F140028F
:1007B00028462146FFF740FF07468846284621463F
:1007C0003246FFF748FF43463A46FFF766FF324698
:1007D000BDE8F041FFF730BF0000F03F2DE9FE4FCC
:1007E000C3F30A5701F000450024C1F30A56C3F3CE
:1007F0001303C1F3130143F4801312EB020AA6465C
:1008000041F48011009543EB030CA7F1010B16E0B6
:10081000B0EB0A0061EB0C01071E71F1000707DA6B
:100820004FF00008D0EB080085F0004568EB0101AF
:10083000171A73EB0107EBD3761E001849415E458A
:10084000F6DA50EA010209D0CDE900E500221346AC
:100850000296FFF731FF03B0BDE8F08F2046009904
:10086000F9E770B5044601F000450020054304D1C6
:100870004FF00045644265EB010103F00045284359
:1008800005D118464FF00043524263EB0003101BA2
:1008900073EB010002D24FF0004009E082EA04024B
:1008A00083EA01034FF000501A4301D14FF0C040DA
:1008B0004FEA2062EFF3008162F31F6181F3008849
:1008C00070BD0000064C074D06E0E06840F00103F3
:1008D00094E8070098471034AC42F6D3FFF760FC69
:1008E000983E0008B83E000870B58C1810F8015BFF
:1008F00015F0070301D110F8013B2A1106D110F8B9
:10090000012B03E010F8016B01F8016B5B1EF9D1BC
:100910002B0705D40023521E0DD401F8013BFAE742
:1009200010F8013BCB1A921C03E013F8015B01F8AD
:10093000015B521EF9D5A142D8D3002070BDFEE75D
:100940004268006909B1906170470004FBE7826862
:10095000406909B1906170470004FBE72DE9FF4F42
:1009600099462DED108B9FB016460C46FE4DDDF8D6
:10097000F0B0DDF8F8A02F98D8B1D4B1CEB1B9F16C
:10098000000F16D05FEA0B0013D03D9888B15FEAE4
:100990000A009FEDF69B9FEDF78B9FEDF8AB08D01B
:1009A00094ED000B53EC192B51EC100BFFF714FED8
:1009B00004D2AA68002A7DD0012197E294ED000BB1
:1009C00053EC182B51EC100BFFF71EFEF1D394EDF6
:1009D000020B53EC192B51EC100BFFF7FDFDE8D384
:1009E00094ED020B53EC182B51EC100BFFF70CFE9F
:1009F000DFD394ED040B53EC192B51EC100BFFF7E4
:100A0000EBFDD6D394ED040B53EC182B51EC100BEB
:100A1000FFF7FAFDCDD394ED060B53EC192B51ECF7
:100A2000100BFFF7D9FDC4D394ED060B53EC182B34
:100A300051EC100BFFF7E8FDBBD394ED080B9FEDD5
:100A4000D11B51EC100B53EC112BFFF7C5FDB0D3AC
:100A500094ED080B53EC1A2B51EC100BFFF7D4FD5F
:100A6000A7D35822214602A8FFF7E3FBBE482F99DF
:100A70000160C0E9039B3D99C0E9051A94ED080B9C
:100A80009FEDC21B51EC100B53EC112BFFF79CFC9C
:100A900053EC1A2BFFF70AFDFFF784FD80B2FFF736
:100AA00074FD96ED020B41EC180B53EC102BFFF785
:100AB00093FD00E01CE201D396ED028BA56A05B917
:100AC000012594ED000B94ED04BB53EC102B51EC7D
:100AD0001B0BFFF773FC41EC100B02F0EDFE94EDE5
:100AE000089BB0EE40FAF0EE60FA53EC192B51EC93
:100AF0001F0BFFF7DBFC94ED060B41EC1E0B53ECD8
:100B00001B2B51EC100BFFF759FC41EC100B02F0C2
:100B1000D3FEB0EE40AAF0EE60AA9FED9E0B51EC22
:100B20001A0B53EC102BFFF74FFC53EC192BFFF76C
:100B3000BDFC94ED020B41EC1D0B53EC1B2B51EC57
:100B4000100BFFF73BFC41EC100B02F0B5FEB0EED2
:100B500040CAF0EE60CA53EC192B51EC1C0BFFF7A6
:100B6000A5FC41EC1B0B2846FFF70FFD53EC1D2B9A
:100B7000FFF72AFC53EC1E2BFFF77FFB53EC1B2BDC
:100B8000FFF77BFB41EC190B51EC180B53EC192BC5
:100B9000FFF71AFC41EC100B02F08EFF51EC100B2A
:100BA000FFF700FDFFF7F1FC53EC182BFFF77EFC7D
:100BB00053EC192BFFF77AFC41EC190B53EC1E2B6D
:100BC00051EC180BFFF700FC53EC192BFFF7FCFB63
:100BD00041EC100B02F070FF51EC100BFFF7E2FC40
:100BE000119053EC1D2B51EC180BFFF7EDFB53EC60
:100BF000192BFFF7E9FB41EC100B02F05DFF51EC04
:100C0000100BFFF7CFFC129053EC1B2B51EC180B81
:100C1000FFF7DAFB53EC192BFFF7D6FB41EC100B77
:100C200002F04AFF51EC100BFFF7BCFC13909FED54
:100C30005B9B1198012738B953EC192B51EC1F0B12
:100C4000FFF7E2FC00D211971298022808D253EC69
:100C5000192B51EC1A0BFFF7D7FC01D2022012908E
:100C6000139838B953EC192B51EC1C0BFFF7CCFC43
:100C700000D21397DDE9110101FB050013995822F9
:100C8000084414908DED168B02A94648FFF7D1FA5F
:100C900044480025603805701499416085603168CA
:100CA000C1600574B84647748574C5741430057006
:100CB0001499416085603168C1600574477485741A
:100CC000C574384F1498383F386087ED028B1498FC
:100CD000FFF75BFC53EC182BFFF7E8FBC7E90401B7
:100CE0001298FFF752FC53EC182BFFF7DFFB9FED38
:100CF0002E1B53EC112BFFF767FB41EC100B51EC53
:100D00001A0B53EC102BFFF7D1FB41EC100B87EDC6
:100D1000060B94ED081B53EC112BFFF74FFB41EC36
:100D2000100B02F0C9FD87ED080B94ED081B51EC88
:100D3000100B53EC112BFFF7B9FB9FED1D1B53EC70
:100D4000112BFFF741FBC7E90A0187F8305087F8FC
:100D500031804FF0E02087F83250006900F0040045
:100D600078631498376827E06000002000000000D6
:100D70000088B3C0000000000088B34000000000FD
:100D80000088C3409A9999999999B93F0000000049
:100D9000E0FFEF4000000000000000400000000005
:100DA0000000000098010120000000000000E03F6A
:100DB0000000000000005940B84200D8074602ACCD
:100DC000CDE90074002349463D9A2F9801F002F8BE
:100DD0001498336898420AD9C01A984200D9184624
:100DE000CDE90004524659462F9800F0F3FF694EB2
:100DF000B068C0F340000028FAD0B068C0F3C0105B
:100E00000028FAD1644C0521204601F0CBF90421D9
:100E1000204601F0C7F90521204601F0EBF9002832
:100E2000F9D10421204601F0E5F90028F9D14FF469
:100E30000070E0608000E060C010E0604020E06092
:100E40000001E0600820E0602020E0600420E06015
:100E5000C4F80C801020E060504D6FF0010AC5F816
:100E600010A06FF0100BC5F810B00022052120462D
:100E700001F00EFA4A460521204601F0E3F93A4610
:100E80000521204601F0C8F900220421204601F086
:100E9000FFF9042120463D9A01F0D4F93A46042195
:100EA000204601F0B9F90521204601F085F9052118
:100EB000204601F08BF90421204601F07DF9042140
:100EC000204601F083F9442002F04CFC3C2002F063
:100ED00049FC334818A9B0EE480AF0EE680A02F05F
:100EE00083FA60B12F48826812B10821052090472B
:100EF00000201FB0BDEC108B04B0BDE8F08F9FED5B
:100F00002A8B9FED2B9B18A9B0EE481AF0EE681AB9
:100F1000B0EE490AF0EE690A284602F005FAB0EE92
:100F2000481AF0EE681AB0EE490AF0EE690A18A8FD
:100F300001F0A3FE204F022087F83100706840F0D6
:100F400002007060E86840F48070E860E86840F48F
:100F50008050E8600521204601F042F90421204636
:100F600001F03EF9C5F810A0C5F810B0134841696A
:100F700041F001014161686940F00100686101F0E0
:100F80007EFE286840F00100286087F8328001204A
:100F9000AFE7000000300140006402400000014063
:100FA00000E1F505600000200000000084D78741C3
:100FB0000000000084D79741600101200004004038
:100FC0002DE9FC41174CA07C00280ED0607C002845
:100FD0000BD0207C002808D1A068E1684318606825
:100FE0000025984203D8A574A574BDE8FC8160680B
:100FF000C11AE068884200D2E168E77C0A4E094ADB
:1010000060323068CDE900124FB1B269D6F81010E5
:1010100000F0E0FEA574034814308574E5E77269BA
:10102000F168F5E738010120600000200948817C63
:1010300059B1417C49B1007C38B906481430817CF3
:1010400019B1417C09B1007C08B100207047012032
:1010500070470000380101202DE9F0473D4D6868D8
:10106000DFF8F480C0F3401000273C4EA8F12804BC
:10107000002855D02020E860607C002868D0A06857
:10108000E1680844A060706820B101F08DFC7268CE
:1010900002219047A16862680120914211D3207417
:1010A00067742D481438007C002851D0042188F83A
:1010B000311001F0A3FC7268002A49D00421642099
:1010C00041E021782278C2F101022270A268E3682F
:1010D0001A446368934201D9E174A074042128463C
:1010E00001F060F80421284601F084F80028F9D1C5
:1010F0006068A168401AE168814200D2E0688146D8
:10110000207818B3B2690421284601F09BF84A46BA
:101110000421284601F080F80421284601F060F8F7
:101120006868C0F3C000002812D00820E860677427
:10113000A774052188F8311001F060FCB268002A1C
:1011400006D002210520BDE8F04710477269DAE7B2
:10115000BDE8F087006402406001012060000020CB
:101160002DE9F0473A4D6868DFF8E880C0F3C02009
:101170000027394EA8F1140400284ED0E814E86086
:10118000607C002862D0A068E1680844A060A06884
:1011900062680121904211D321746774A4F1140094
:1011A000007C002852D0042188F8311001F026FC80
:1011B0007268002A4AD00421642042E02078227814
:1011C000C2F101022270A268E3681A446368934284
:1011D00001D9E074A1740521284600F0E3FF052140
:1011E000284601F007F80028F9D16068A168401A84
:1011F000E168814200D2E0688146207820B33269FC
:101200000521284601F01EF84A460521284601F02E
:1012100003F80521284600F0E3FF6868C0F340208A
:10122000002813D04FF40070E8606774A77405219C
:1012300088F8311001F0E2FBB268002A06D00221E2
:101240000520BDE8F0471047F268D9E7BDE8F08710
:101250000064024060010120600000208171C268CA
:1012600022F4700242EA0151C16070474171C268C4
:1012700022F0706242EA0161C16070470181034B54
:10128000C2681A4042EA0111C16070470F00F0FFC6
:10129000F0B587B0044618216846FEF7E3FF13480F
:1012A000016841F0010101600068012500F00100C2
:1012B0000690E06803278DE8A1000026CDE90356DB
:1012C0006946206801F00CF8206900906946606862
:1012D00001F006F86069CDE90276CDE900050496D3
:1012E0006946A06800F0FCFF07B0F0BD303802404E
:1012F00010B504460068FFF7CBFF00212068FFF718
:1013000026FB0021206800F0EEFE01212068FFF797
:1013100017FB01F03BFC0021204600F01DF80321E3
:101320002046FFF7A3FF0F212046FFF797FF47F660
:10133000FF712046FFF7A2FF0021204600F005F8CC
:101340002046BDE8104000F00FB88172C26822F05C
:101350000F020A43C26070470171C26822F07042F6
:1013600042EA0171C160704770B50446006800210F
:10137000FFF7EDFAE168080C8DB2012101F04AFC9B
:101380000121284601F046FC2068BDE8704001219B
:10139000FFF7DDBA7047000009480168C1F3C0617A
:1013A00000290CD04FF000618160064A01211170C4
:1013B0000549CA788258C97822F010024250704715
:1013C0000064024000000020A83D00080748407C5F
:1013D00000280AD00548283090F8300008B10128CC
:1013E00001D0FFF739BE00F0CBBB704738010120B8
:1013F0000748407C00280AD00548143090F8300097
:1014000008B1012801D0FFF7ABBE00F03DBC70472A
:101410004C0101202DE9FF4F9A462DED0C8B9FB01A
:1014200016460C46FE4DDDF8E8B02B9800B3FCB133
:10143000F6B1BAF1000F1BD03898C8B13998B8B1DD
:101440005FEA0B009FEDF7CB9FEDF89B9FEDF9BB9B
:101450009FEDFAAB9FEDFBDB9FEDFC8B08D094ED8D
:10146000000B53EC1C2B51EC100BFFF7B5F804D21A
:10147000AA68002A7DD00121D0E294ED000B53EC44
:10148000192B51EC100BFFF7BFF8F1D394ED020BC1
:1014900053EC1C2B51EC100BFFF79EF8E8D394EDA6
:1014A000020B53EC192B51EC100BFFF7ADF8DFD307
:1014B00094ED040B53EC1B2B51EC100BFFF78CF845
:1014C000D6D394ED040B53EC1A2B51EC100BFFF711
:1014D0009BF8CDD394ED060B53EC182B51EC100B6D
:1014E000FFF77AF8C4D394ED060B9FEDDA1B51ECAD
:1014F000100B53EC112BFFF787F8B9D394ED080BC1
:1015000053EC1B2B51EC100BFFF766F8B0D394EDA6
:10151000080B53EC1A2B51EC100BFFF775F8A7D3FF
:1015200094ED0A0B53EC182B51EC100BFFF754F809
:101530009ED394ED0A0BB0EE4DCAF0EE6DCA53EC9B
:101540001C2B51EC100BFFF75FF891D394ED0A1BA5
:1015500094ED080B53EC112B51EC100BFFF754F8E2
:1015600086D95822214602A8FEF763FEAC482B9983
:1015700000E055E2C0F80CA001603899016139998A
:10158000C0E9051B94EC040B53EC102B51EC110B30
:10159000FEF714FF41EC100B02F08EF994ED041BE2
:1015A00051EC100B53EC112BFEF780FF41EC100BAC
:1015B00002F0F6F851EC100BFEF7F4FF5FEA0008BA
:1015C00001D14FF0010894ED0A0B53EC1A2B51ECAA
:1015D000100BFEF76BFF94ED080B41EC190B53EC6D
:1015E0001A2B51EC100BFEF761FF41EC1A0B9FED2B
:1015F0009B0B53EC102BFFF707F87DD253EC1A2B03
:1016000051EC180BFEF752FF9FED96BB53EC1B2BD2
:10161000FEF7DAFE41EC100B02F04EFA53EC1B2BF6
:1016200051EC100BFEF742FF41EC1D0B53EC192B54
:1016300051EC180BFEF73AFF0F4647EC120B05462C
:1016400053EC1B2B51EC120BFEF7BEFE41EC100BC2
:1016500002F032FA53EC1B2B51EC100BFEF726FF75
:1016600041EC180BB0EE4D0AF0EE6D0AB0EE481AE0
:10167000F0EE681A02F0B6FA53EC1B2B51EC100B8B
:10168000FEF7A2FE41EC100B02F016FA53EC1B2BF6
:1016900051EC100BFEF70AFF41EC1B0B53EC182B1F
:1016A00051EC1D0BFEF790FE53EC1B2BFEF7FEFEDC
:1016B00041EC100B96ED021B02F042F9B0EE408AAD
:1016C000F0EE608A53EC1C2B51EC180BFEF79CFFDC
:1016D0002CD253EC1A2B9FED650B51EC100BFEF73F
:1016E000E5FE41EC180B9FED630B51EC190B53EC2D
:1016F000102BFEF789FF00E04DE00AD253EC192BC6
:101700009FED5E0B51EC100BFEF7D0FE41EC110B80
:1017100001E047EC115BB0EE480AF0EE680A02F017
:10172000D5F800BFB0EE408AF0EE608A96ED021B5D
:10173000B0EE480AF0EE680A02F002F99FED511B84
:1017400002F0C4F8B0EE408AF0EE608A53EC192B38
:1017500051EC180BFEF738FE41EC100B02F0ACF91F
:1017600051EC100BFEF71EFF054653EC1A2B51EC03
:10177000180BFEF729FE41EC100B02F09DF951EC1D
:10178000100BFEF70FFF0746A5EB0709022D00D24D
:1017900002254FB109E096ED020BB0EE4C1AF0EEC7
:1017A0006C1A02F0CDF8BDE70127B9F1000F0BD19B
:1017B0007D1C4FF001092846FEF7E7FE53EC192B7C
:1017C000FEF774FE41EC180B08FB05F0CDE9149010
:1017D000CDE91257CDF844808DED168B582202A921
:1017E0002A48FEF726FD29480025B83805701599C6
:1017F000416085603168C16005744FF0010880F870
:1018000011808574C5741430057015994160856028
:101810003168C160057480F811808574C57437E043
:1018200060000020000000000088B3C0000000003D
:101830000088B3409A9999999999B93F000000009E
:1018400000408F40000000000088C34000000000FE
:101850000000F03F0000000000407F40FCA9F1D2F2
:101860004D62503F000000000000244000000000D6
:10187000000014407B14AE47E17A843F0000000072
:10188000000000400000000000003440F001012092
:101890008C4F1598386087ED028B1598FEF775FE12
:1018A00053EC182BFEF702FEC7E9040194ED040B7C
:1018B00053EC192B51EC100BFEF7F8FD9FED820B4A
:1018C000C7E9060187ED080B87ED0A0B87F8308022
:1018D00087F831804FF0E02087F83250006900F03F
:1018E0000400786315983768B84200D8074602AC00
:1018F000CDE9007400235146399A2B9800F05CFB27
:101900001598336898420AD9C01A984200D91846E7
:10191000CDE900045A4638992B9800F04DFB6C4EE7
:10192000B068C0F340000028FAD0B068C0F3C0101F
:101930000028FAD1674C0521204600F033FC042131
:10194000204600F02FFC0521204600F053FC002823
:10195000F9D10421204600F04DFC0028F9D14FF4C4
:101960000070E0608000E060C010E0604020E06057
:101970000001E0600820E0602020E0600420E060DA
:10198000C4F80C801020E060534D6FF0010BC5F8D7
:1019900010B06FF01009C5F8109000220521204604
:1019A00000F076FC52460521204600F04BFC3A46FA
:1019B0000521204600F030FC00220421204600F0E2
:1019C00067FC04212046399A00F03CFC3A46042189
:1019D000204600F021FC0521204600F0EDFB05210A
:1019E000204600F0F3FB0421204600F0E5FB042133
:1019F000204600F0EBFB442001F0B4FE3C2001F057
:101A0000B1FE364818A9B0EE480AF0EE680A01F0B7
:101A1000EBFC60B13248826812B108210520904782
:101A200000201FB0BDEC0C8B04B0BDE8F08F9FED23
:101A30002D8B9FED2E9B18A9B0EE481AF0EE681A78
:101A4000B0EE490AF0EE690A284601F06DFCB0EEEE
:101A5000481AF0EE681AB0EE490AF0EE690A18A8C2
:101A600001F00BF9174F022087F83100706840F041
:101A700002007060E86840F48070E860E86840F454
:101A80008050E8600521204600F0AAFB0421204692
:101A900000F0A6FBC5F810B0C5F8109015484169D4
:101AA00041F001014161686940F00100686101F0A5
:101AB000E6F8286840F00100286087F832800120AD
:101AC000AFE70000600101200000000000000000FE
:101AD00000300140006402400000014000E1F505D3
:101AE000600000200000000084D787410000000053
:101AF00084D79741000400402DE9FC41174CA07C9D
:101B0000002825D0607C002822D0207C00281FD10E
:101B1000A068E16843186068002504F11406984243
:101B200014D96068C21AE068904200D2E26894F862
:101B300013C00A4F0A49B837BCF1000F0868CDE955
:101B4000002707D08A69096900F036FAA574B574D0
:101B5000BDE8FC814A69C968F6E700003801012048
:101B6000600000200548817C19B1417C09B1007CEE
:101B700008B10020704701207047000038010120A3
:101B80002DE9F0473D4D6868DFF8F480C0F3401060
:101B900000273C4EA8F12804002855D02020E860FA
:101BA000607C002868D0A068E1680844A060706884
:101BB00020B100F0F9FE726802219047A1686268C6
:101BC0000120914211D3207467742D481438007C91
:101BD000002851D0042188F8311000F00FFF7268FE
:101BE000002A49D00421642041E021782278C2F102
:101BF00001022270A268E3681A446368934201D923
:101C0000E174A0740421284600F0CCFA042128468F
:101C100000F0F0FA0028F9D16068A168401AE16884
:101C2000814200D2E0688146207818B3B26904216D
:101C3000284600F007FB4A460421284600F0ECFA4B
:101C40000421284600F0CCFA6868C0F3C0000028E0
:101C500012D00820E8606774A774052188F8311055
:101C600000F0CCFEB268002A06D002210520BDE8B3
:101C7000F04710477269DAE7BDE8F0870064024078
:101C800060010120600000202DE9F0473A4D6868AE
:101C9000DFF8E880C0F3C0200027394EA8F1140413
:101CA00000284ED0E814E860607C002862D0A0686C
:101CB000E1680844A060A06862680121904211D3E5
:101CC00021746774A4F11400007C002852D0042110
:101CD00088F8311000F092FE7268002A4AD0042180
:101CE000642042E020782278C2F101022270A268CA
:101CF000E3681A446368934201D9E074A174052132
:101D0000284600F04FFA0521284600F073FA002813
:101D1000F9D16068A168401AE168814200D2E068A8
:101D20008146207820B332690521284600F08AFADE
:101D30004A460521284600F06FFA0521284600F0A2
:101D40004FFA6868C0F34020002813D04FF40070A9
:101D5000E8606774A774052188F8311000F04EFE22
:101D6000B268002A06D002210520BDE8F0471047DE
:101D7000F268D9E7BDE8F087006402406001012005
:101D800060000020704710B5FFF7B2FA00F0C2FD06
:101D900001F0F0F8BDE8104000F06DBF00B587B06D
:101DA00018216846FEF75EFA042000F0ADF90848F5
:101DB0004FF400510A048261009101210022CDE913
:101DC0000112CDE90321694600F08AFA07B000BD8F
:101DD000000802402DE9FF4F70492DED048B85B0BE
:101DE000C068DDE916A400EA0109A06A00B9012073
:101DF000D4E90F518846616C08FB00FB00269FED7B
:101E0000688B0491A0E00C988DED008B87198DED07
:101E1000028BAF4219D2012D0ED9681EFEF7B5FB19
:101E200041EC190B3846FEF7B0FB53EC192BFEF7CB
:101E30003DFB41EC100B03E0B0EE480AF0EE680AFF
:101E40008DED020B94ED009B47E005EB0B00B842D3
:101E5000A7EB05007DD9B0FBF8F2B0FBF8F108FB69
:101E600012074FEA580087421BD201280ED9401EA4
:101E7000FEF78BFB41EC190B3846FEF786FB53EC63
:101E8000192BFEF713FB41EC100B03E0B0EE480AF0
:101E9000F0EE680A8DED020B94ED049B94ED060BB9
:101EA0001DE03F1AA8EB000001280ED9401EFEF7E6
:101EB0006CFB41EC190B3846FEF767FB53EC192B12
:101EC000FEF7F4FA41EC100B03E0B0EE480AF0EE36
:101ED000680A8DED020B94ED069B94ED040B53EC18
:101EE000192B51EC100BFEF769FA9DED021B53EC18
:101EF000112BFEF769FA53EC192BFEF7BEF9CDE969
:101F000000019FED299B9DED000B53EC192B51EC2B
:101F1000100BFEF759FA9FED261B53EC112BFEF721
:101F2000C5FA53EC192BFEF7A8F9FEF73BFB80B27C
:101F300049EA0010010C00900A9820F816100B993D
:101F4000009821F81600761C5645FFF45CAF05B0EA
:101F500000E003E0BDEC048BBDE8FF8FA0EB0B07B6
:101F6000049801280ED9401EFEF70FFB41EC190B17
:101F70003846FEF70AFB53EC192BFEF797FA41ECB3
:101F8000100B03E0B0EE480AF0EE680A8DED020B8C
:101F900094ED049B94ED020BA1E700000F00F0FF0D
:101FA0000000000000000000000000000000E04011
:101FB000000000000088B3402DE9FF5F9B462DED37
:101FC0000A8BDDE918A5C7683C489FED3DAB07408B
:101FD00000249FED3DBBD5F848902E6C68E000BF13
:101FE0000BEB0401B1FBF6F2B1FBF6F006FB1218A5
:101FF000FEF7CBFA95ED041B53EC112BFEF7E4F939
:1020000095ED001B53EC112BFEF737F995ED020B04
:1020100041EC180B53EC102BFEF7F6FA01D295EDBC
:10202000028BC84509D395ED060B51EC180B53EC08
:10203000102BFEF722F941EC180BB0EE4A9AF0EEA5
:102040006A9A53EC192B51EC180BFEF7C5FA03D220
:10205000B0EE498AF0EE698AB0EE4B9AF0EE6B9AD8
:1020600053EC192B51EC180BFEF7CEFA03D2B0EE5D
:10207000498AF0EE698A9FED16CB51EC180B53ECB0
:102080001C2BFEF7A1F953EC192BFEF70FFA53ECBA
:102090001C2BFEF7F2F8FEF785FA80B20B9947EA9F
:1020A0000010020C21F814200C9921F81400641C73
:1020B000544595D3BDEC0A8BBDE8FF9F0F00F0FFA0
:1020C000000000000088B3C0000000000088B3409A
:1020D000000000000000E0400148806870470000F8
:1020E00050000020FEE70268C06809B190617047A7
:1020F0000004FBE7FFF752BE02494FF4005088612D
:102100007047000000080240044908B50A6802430D
:102110000A6009680140009108BD000030380240A3
:10212000044908B50A6802430A6009680140009141
:1021300008BD000030380240044908B50A6802436F
:102140000A6009680140009108BD00003038024073
:10215000044908B50A6802430A6009680140009111
:1021600008BD000044380240034A1430515C0A584C
:1021700022F004020A507047BE3D0008034A515C39
:10218000425822F01002425070470000DE3D000825
:10219000034A515C425822F004024250704700004A
:1021A000DE3D0008034A515C425822F001024250D1
:1021B00070470000DE3D0008034A515C425842F07F
:1021C0001002425070470000DE3D0008034A515C97
:1021D000425842F00402425070470000DE3D0008C1
:1021E000034A515C425842F00102425070470000DD
:1021F000DE3D0008024A515C405800F00100704783
:10220000DE3D0008034B595C435823F060631343E1
:1022100043507047BE3D0008044B001D595C0B58ED
:102220006FF30F0313430B5070470000DE3D0008AF
:10223000034B595C435823F0C0031343435070478A
:10224000BE3D0008024B0C30595C0A50704700003C
:10225000DE3D0008034B595C435823F4806313436D
:1022600043507047BE3D0008034B595C435823F46C
:10227000C043134343507047BE3D0008034B595CB5
:10228000435823F49073134343507047BE3D0008F6
:10229000034B595C435823F49073134343507047E6
:1022A000DE3D0008034B595C435823F4007313438D
:1022B00043507047BE3D0008034B595C435823F41C
:1022C000C053134343507047BE3D0008034B595C55
:1022D000435823F44033134343507047BE3D000836
:1022E000F0B50A680F2692FAA2F2B2FA82F303243A
:1022F0008AE001279F4015EA07027DD04D68012D35
:1023000001D0022D1BD18D68876892FAA2FCBCFA1D
:102310008CFC4FEA4C0C04FA0CFC27EA0C0792FAEE
:10232000A2FCBCFA8CFC4FEA4C0C05FA0CF52F43CE
:102330008760CD684768554397432F4347600F69CF
:10234000D0F80CC092FAA2F5B5FA85F54FEA450E21
:1023500004FA0EF52CEA050C92FAA2F5B5FA85F509
:102360006D00AF404CEA070CC0F80CC04D68022D60
:1023700033D192FAA2F5B5FA85F5082D15D2D1F828
:1023800014C0056A92FAA2F7B7FA87F7BF0006FAF7
:1023900007F7BD4392FAA2F7B7FA87F7BF000CFA26
:1023A00007FC45EA0C05056217E0D1F814E0476A1E
:1023B000150A95FAA5FCBCFA8CFC4FEA8C0C06FABF
:1023C0000CFC95FAA5F5B5FA85F5AD0027EA0C07E2
:1023D0000EFA05FE47EA0E0747624D68076892FA53
:1023E000A2FCBCFA8CFC4FEA4C0C04FA0CFE27EA67
:1023F0000E0792FAA2F200E005E0B2FA82F2520071
:1024000095402F4307605B1C0A681546DA407FF44D
:1024100070AF0020F0BD4FF47A71B0FBF1F14FF0D6
:10242000E020491E41610021816105210161704761
:1024300010B5044600F06CFB206000F03FFB6060CC
:1024400000F04AFBA060606800F054FBE06010BD43
:1024500010B503680122C3F380132BBBD1E900231D
:102460001A43D1E9023423431A430B691A434B69D7
:102470001A438B691A43CB691A430B6A1A430368E0
:102480004FF6BF74A3431A43026042684B6922F0BF
:10249000040242EA134242600A6AB2F5005F02D1C6
:1024A000898C89B201610022C16921F40061C16196
:1024B000104610BD01490860704700005C00002014
:1024C0000A7B8B681A434B6822F480621A430B68BC
:1024D00022F400621A43CB8922F480521A430B691A
:1024E00022F400521A43496922F480420A434264AA
:1024F00000207047F0B502681D4B1E4C9F031E4D17
:102500001E4E984207D0B84205D0A04203D0A84240
:1025100001D0B04205D1D1F804C022F0700242EAE5
:102520000C02984210D0B8420ED0A0420CD0A84263
:102530000AD0B04208D0124CA04205D0114CA042A3
:1025400002D0114CA04203D1CC6822F44072224345
:1025500002608A68C2620A888262984201D109696F
:102560000163416941F0010141610020F0BD0000BB
:10257000000001400004004000080040000C004042
:10258000004001400044014000480140012919D0A9
:10259000042919D0102919D0402919D0B1F5807F0C
:1025A00018D0B1F5806F17D006210C4A1830525C54
:1025B00010440268094BDB1D5B5C042199408A438F
:1025C000026070470021F0E70121EEE70221ECE70D
:1025D0000321EAE70421E8E70521E6E7B03D00082A
:1025E000012919D0042919D0102919D0402919D04E
:1025F000B1F5807F18D0B1F5806F17D006210C4A55
:102600001830525C10440268094BDB1D5B5C0821EA
:1026100099400A43026070470021F0E70121EEE78C
:102620000221ECE70321EAE70421E8E70521E6E7D8
:10263000B03D0008F0B501250023604C012908D009
:10264000102933D0B1F5807F64D0B1F5805F5FD1C0
:1026500090E0016A21F001010162016A4568866922
:10266000176826F073063E43176921F002013943CB
:10267000576821F001013943A04212D1546921F079
:10268000080141EA8401946821F0040141EA8401CF
:1026900025F4807495692C43D56924F4007444EAC8
:1026A000450545608661D26842632FE0016A21F0EA
:1026B00010010162016A45688669176826F4E646DA
:1026C00046EA0726176921F0200141EA07115768F9
:1026D00021F0100141EA0711A04213D1546921F001
:1026E000800141EA8411946821F0400141EA84119B
:1026F00025F48064956944EA8504D56924F400646E
:1027000044EAC50545608661D268826301621D4660
:102710002846F0BD016A21F480710162016A4568B2
:10272000C669176826F073063E43176921F40071E5
:1027300041EA0721576821F4807141EA0721A0424C
:1027400013D1546921F4006141EA8421946821F491
:10275000806141EA842125F48054956944EA051496
:10276000D56924F4005444EA45154560C661D26831
:10277000C263CBE7016A21F480510162056A4168B6
:10278000C669176826F4E64646EA0726176925F45F
:10279000005545EA0735576825F4805545EA073561
:1027A000A04204D1946921F4804141EA841141603E
:1027B000C661D16801640562A9E70000000001401C
:1027C0007FB50446C0680D460126C0F3403078BB93
:1027D000E9686868AA690843296911430843E16800
:1027E00049F20C6291430843E060A868216921F432
:1027F0004051014321616869616921F440710143DD
:1028000061616846FFF714FE0B48844207D00B480D
:10281000844201D1029903E00948844208D1039916
:1028200031B12B6823B100262046AA6900F00AF8CE
:1028300004B0304670BD000000100140004400406C
:10284000001401402DE9F04106461920A1FB0001CA
:102850001F46002364243225B2F5004F27D0BB0F5A
:10286000BA00FDF7B5FC0146B0FBF4F06FF01802BA
:10287000504301EB800005EB0010B0FBF4F000F0DA
:10288000F002B1FBF4F002EB0012B1FBF4F06FF0D8
:102890001803584301EB800005EB0010B0FBF4F087
:1028A00000F00F00104480B2B060BDE8F081FA196A
:1028B0005B41FDF78DFC0146B0FBF4F00201B1FB7A
:1028C000F4F06FF01803584301EB800005EBC000F3
:1028D000B0FBF4F000F0F80002EB4002B1FBF4F0C2
:1028E000584301EB800005EBC000B0FBF4F000F0B2
:1028F0000700D7E708B54FF0E0210A690092421CB3
:1029000000D0401C0A69D20300D5401E0028F9D12E
:1029100008BD000038B51448016841F48001016029
:102920000068124C00F48000009020680022C0F380
:102930000220114600F01EF80146442000F01FFF5F
:10294000442000F002FF20680022C0F3022011465C
:1029500000F010F801463C2000F011FFBDE83840BF
:102960003C2000F0F2BE0000303802400CED00E0E8
:10297000FEE7FEE730B500F00703C3F10704042CBF
:1029800000D90424181D072801D2002300E0DB1E13
:10299000012505FA04F0401E084098409D406D1E38
:1029A0001540284330BD70470C48416839B18268F2
:1029B00000F114018B689A4203D9816802E000207B
:1029C00070478968642240685143B1FBF0F0642885
:1029D00001D964207047C0B270470000380101205F
:1029E0000548007C28B104481430007C08B101205F
:1029F00070470020704700003801012010B52B4CB3
:102A000005212046FFF7CEFB04212046FFF7CAFB35
:102A100005212046FFF7EEFB0028F9D104212046CE
:102A2000FFF7E8FB0028F3D12149086820F00100F6
:102A300008602048426822F002024260C86820F420
:102A40008070C860C86820F48050C86000F019F930
:102A500005212046FFF792FB05212046FFF798FB52
:102A600004212046FFF78AFB04212046FFF790FB54
:102A70004FF40060E0608010E0604000E060801093
:102A8000E0604020E0602020E0600820E06010204E
:102A9000E0600420E0600120E06007490020487405
:102AA000887414314874887410BD000000640240BA
:102AB000000001400030014038010120044909684C
:102AC000044A01F0F0010909515CC8407047000058
:102AD00008380240C63D000804490968044A01F468
:102AE000E05102EB91210978C84070470838024054
:102AF000D63D000804490968044A01F4604102EB2C
:102B000051310978C840704708380240D63D000866
:102B10000748006810F00C01064807D0042904D0CB
:102B2000082903D1082000F009B8034870470000C5
:102B3000083802400024F40040787D0110B5104AA6
:102B400004460020116811F480030E4903D0B3F548
:102B5000800F00D10C49082C11D1106800F03F0003
:102B6000B1FBF0F01168C1F38811484311680122EC
:102B700001F4403102EB11414900B0FBF1F010BD0E
:102B8000043802400024F40040787D0110B590B074
:102B900028216846FDF766FB18210AA8FDF762FBAD
:102BA0004FF48050FFF7D4FA0120FFF7B9FAA020C4
:102BB0000A9002200B9003200024CDE90C0405208C
:102BC000CDE90E400AA91148FFF78AFB4FF4827045
:102BD000CDE900404FF40060CDE902048010CDE95A
:102BE00004400A20CDE9084006940794084C694641
:102BF0002046FFF72DFC606820F010006060206820
:102C000040F04000206010B010BD00000000024005
:102C1000003001402DE9F0410E460746FFF75CFA0F
:102C20000446134D05E000BFFFF756FA001BB04203
:102C30001CD2A868C0F340000028F5D0EF6004E083
:102C4000FFF74AFA001BB04210D2A868C0F3400058
:102C50000028F5D005E000BFFFF73EFA001BB042A8
:102C600004D2A868C0F3C0100028F5D1BDE8F081F7
:102C700000300140704700F0D7BA00F075BA00F09C
:102C80003BBB00F041BB000010B59AB0044658228F
:102C90001B4904A8FDF7CDFA94ED000B8DED040B54
:102CA00094ED020B8DED060B94ED040B8DED080BEE
:102CB00094ED060B8DED0A0B94ED080B8DED0C0BCE
:102CC00094ED0A0B51EC100BFDF76CFC0E900F48C5
:102CD0000C4A0D498DE807000D4B0E4A04A90E4819
:102CE000FDF73CFE05E000BFFEF7A0F908B1FEF7D6
:102CF00067F9FFF775FE0028F6D01AB010BD000086
:102D0000E83D000838C1002038810020384100200B
:102D100038010020300000201C00002020B10128D4
:102D200005D1034800F006B80148FFF7ADBF704772
:102D30004802012010B59AB004465822194904A847
:102D4000FDF777FA94ED000B19488DED040B94ED27
:102D5000020B154A8DED060B94ED040B13498DED16
:102D6000080B94ED060B134B8DED0A0B94ED080B3D
:102D70008DED0C0B94ED0A0B8DED0E0B8DE807001D
:102D80000D4A04A90D48FEF745FB04E0FEF7EAFEF4
:102D900008B1FEF7B1FEFFF723FE0028F6D01AB007
:102DA00010BD0000403E000838C1002038810020DE
:102DB0003841002038010020300000201C00002095
:102DC000014840787047000080000020030005D0D3
:102DD00021B10A2904D90A20002204E0002070470A
:102DE000084600220AE0074901EBC20191ED160BEB
:102DF00003EBC201521C81ED000BD2B28242F2D32E
:102E00007047000080000020054890F8AA1021B10A
:102E1000002180F8AA1001207047002070470000B0
:102E20008000002010B5FFF7EFFF01280CD1FFF75D
:102E3000C7FF064C0A2120700548FFF7C7FF20781E
:102E4000BDE81040FFF76ABF10BD00003001002050
:102E5000480201200448002180F8AB1000F8A91FA7
:102E60004170C0F8031070478000002070470000D8
:102E700070B52F48016821F0070141F0030101609E
:102E8000016801F007010329FAD12A49086840F4D2
:102E9000404008602848026842F4803202600268BC
:102EA000C2F34042002AFAD0234A244B121D146870
:102EB000234D2C4023431360136823F440331360E5
:102EC000026842F0807202600268C2F34062002A27
:102ED000FAD04868C0F380300028FAD0164808308D
:102EE000016821F0F0010160016821F4E05141F432
:102EF00080510160016821F460410160016821F0A6
:102F0000030141F002010160016801F00C01082990
:102F1000FAD10C4C2046FFF77EFA2046FFF7CAFA9A
:102F200005488C30016821F08071016070BD00009F
:102F3000003C024000700040003802400C18400085
:102F40000080BFFF00E1F5050248016841F470010F
:102F50000160704788ED00E000B587B01821684631
:102F6000FDF780F98020FFF7CFF80120FFF7CCF8BC
:102F700007B000BD2DE9F04F9BB0142114A8FDF758
:102F800071F920216846FDF76DF9182108A8FDF7B1
:102F900069F918210EA8FDF765F96D48016841F03F
:102FA000010101600068DFF8ACA100F001004FF002
:102FB000406919904A4605215046FFF723F94022FF
:102FC00005215046FFF734F94FF4403205215046B1
:102FD000FFF77CF9002205215046FFF74FF9002248
:102FE00005215046FFF75EF94FF4806B5A460521E4
:102FF0005046FFF72FF94FF4006632460521504640
:10300000FFF75AF94FF40058424605215046FFF7A2
:103010002BF905215046FFF7A7F8504D4D4F4E4C68
:1030200068790837C4514A4604215046FFF7EAF848
:10303000402204215046FFF7FBF8B201042150461C
:10304000FFF744F9002204215046FFF717F9002248
:1030500004215046FFF726F95A4604215046FFF74F
:10306000F9F8324604215046FFF726F9424604217A
:103070005046FFF7F9F804215046FFF775F8287914
:10308000C4510024ADF850404FF6FF70CDE9154013
:10309000334D179414A928461894FFF72BFA286883
:1030A00020F080002860A86844F207018843A860E7
:1030B0003020CDE9000447F6FF70CDE90240AF149F
:1030C000049406946A46394628460794FFF7B2FAF4
:1030D00039462846FFF75AFA686820F070006860A1
:1030E000A86820F08000A8600894CDE90C848DF8D1
:1030F0002C4009940A94ADF82E4008A92846FFF701
:10310000DFF90120FFF718F802200E96CDE90F0431
:103110000120CDE912400EA911941248FFF7E0F802
:1031200039462846FFF75CFAE86840F48070E860AA
:10313000E86840F48050E860286A40F480502862D3
:10314000686C40F4004068641BB0BDE8F08F00007C
:1031500044380240006402400C300140BE3D00088B
:10316000000001400000024070B504002DED068B08
:10317000B0EE418AF0EE618AB0EE409A9FED25AB49
:10318000F0EE609A42D053EC1A2B51EC180BFDF77D
:1031900023FA3BD953EC1A2B51EC190BFDF71CFA0F
:1031A00034D91E4D286820F0010028602068A862EC
:1031B0006068E8622068401CFDF7E7F941EC100BFD
:1031C00051EC190B53EC102BFDF770F99FED141B0C
:1031D00053EC112BFDF7F8F853EC182BFDF766F9BB
:1031E00041EC100B00F0DCFA51EC100BFDF7DAF9B2
:1031F0006168814201D2491C480800B90120E86396
:10320000286A40F48070286200206862BDEC068B5A
:1032100070BD00000000000000000000000400403D
:103220000000000000004E402DE9F04194B0142150
:103230000EA8FDF717F820216846FDF713F81821AE
:1032400008A8FDF70FF82948016841F00201016064
:103250000068002500F002001390ADF838504FF6DA
:10326000FF70CDE90F50224C0EA920461195FFF7B3
:1032700041F9206820F0800020604FF480784146BA
:103280002046FFF7ADF960200127CDE9000747F69A
:10329000FF70CDE9025002266A464146CDF81880FB
:1032A00004962046FFF7C6F941462046FFF76EF91F
:1032B000606820F0700040F020006060A06820F09E
:1032C0008000A0600220FEF737FFCDE90876CDE947
:1032D0000A65CDE90C7608A90648FFF701F8206ACF
:1032E00040F48070206214B0BDE8F08140380240A4
:1032F00000040040000402400248016841F001015E
:1033000001607047000400400548016821F0010198
:10331000016000214162034901208861704700007B
:10332000000400400004024030B50D002DED068B76
:1033300081B0B0EE418AF0EE618A9FED27ABB0EE2E
:10334000409AF0EE609A044642D053EC1A2B51ECAE
:10335000180BFDF741F93BD953EC1A2B51EC190B23
:10336000FDF73AF934D9206820F001002060286880
:10337000A0626868E0622868401CFDF706F941EC2D
:10338000100B51EC190B53EC102BFDF78FF89FED40
:10339000141B53EC112BFDF717F853EC182BFDF70A
:1033A00085F841EC100B00F0FBF951EC100BFDF728
:1033B000F9F86968814201D2491C480800B9012026
:1033C00000902064206A40F48050206200206062F7
:1033D00001B0BDEC068B30BD000000000000000015
:1033E00000000000008030402DE9F05F0C002DED62
:1033F0000A8BB0EE40AAF0EE60AA06469FED5BCBCA
:10340000B0EE4C8AF0EE6C8A9FED5A9B7BD053EC69
:10341000192B51EC1A0BFDF7DFF874D99FED570B00
:10342000002084ED040B20606060054684ED029B63
:103430003046FDF7AAF8894680464FF48036681C6E
:10344000FDF7A3F841EC110B49EC108B53EC112B59
:1034500051EC100BFDF72AF841EC190B53EC1A2B29
:10346000FDF724F841EC100B00F026FB51EC100B9B
:10347000FDF798F8002866D0B04264D8471EFDF7E3
:1034800084F841EC100B51EC190B53EC102BFDF7A9
:103490000DF841EC1B0B53EC1A2BFCF78FFF41ECA2
:1034A000100B00F009FAB0EE409AF0EE609AB0EE20
:1034B0004B0AF0EE6B0A00F0FFFA51EC100BFDF72F
:1034C00071F88346B0EE490AF0EE690A00F0F4FAAA
:1034D00051EC100BFDF766F8824653EC182B51ECBB
:1034E000190BFDF779F81ED2B0EE498AF0EE698A21
:1034F0005046FDF74AF8C4E90401C4E900575846AC
:10350000FDF743F800E029E09FED1E0BC4E902013E
:1035100053EC102B51EC1A0BFCF756FF53EC192B04
:10352000FDF772F813D351EC1A0B9FED180B53EC07
:10353000102BFCF749FF53EC192BFDF765F802D867
:10354000B5F57A7F03D36D1CB542FFF478AF53EC29
:103550001C2B51EC180BFDF73FF804D10120BDECFA
:103560000A8BBDE8F09F0020F9E70000FFFFFFFF96
:10357000FFFFEF7F00000000000000000000E0FF00
:10358000FFFFEF4195D626E80B2E113E8DEDB5A03D
:10359000F7C6B03EAFF3008070B52F4C2068C0F383
:1035A0004010002857D060680021C2B22B48012388
:1035B00090F8AB5035B1012D0BD0022D11D0032D59
:1035C0002CD12EE0FF2A43D180F8AB30C0F8AC10EC
:1035D0003EE000F8AB2B022200F81F294177016280
:1035E00036E090F8A93090F8A8108B4216D2D9088E
:1035F00003F007030A2911D200EBC10119440A7232
:1036000090F8A910491CC9B280F8A91090F8A82018
:1036100091421DD3032180F8AB1019E0FFF71AFC8B
:1036200016E0FE2AFAD102784270002200EBC205B1
:10363000521C95ED020BD2B285ED160B0A2AF5D37A
:1036400080F8AA3080F8AB1000F8A91FC0F803106A
:103650006FF02000206070BD00100140800000204D
:1036600010B58EB01C216846FCF7FCFD182107A898
:10367000FCF7F8FD2F48016841F010010160006877
:1036800000F010000D902B481438016841F0010142
:1036900001600068002400F001000D904FF4C0604C
:1036A0000790022008900320CDE909040720CDE906
:1036B0000B4007A92048FEF713FE20480068C0F31E
:1036C0000220011D072901D2002000E0C01E04FADB
:1036D00000F108011A4981F8000419492020213914
:1036E000C1F800014FF4E130CDE900040C20029450
:1036F000CDE9034005940694124C69462046FFF735
:103700005FF854F8100F20F4904001C4206820F0B6
:103710002A0044F80809206840F40050C4F800006A
:1037200054E8000F40F0200044E800010029F7D1E0
:103730000EB010BD44380240000002400CED00E025
:1037400025E000E000100140FEE7002809DB00F062
:103750001F02012191404009800000F1E020C0F8E3
:1037600000117047002809DB00F01F020121914081
:103770004009800000F1E020C0F8001170470907FF
:10378000090E002804DB00F1E02080F800147047E7
:1037900000F00F0000F1E02080F8141D70470000D9
:1037A0002DE9F0412DED020B9FED3D0B2DED028B30
:1037B0009FED3D8BDDE90254C4F30A50A0F2FF36C1
:1037C000142E37DA002E18DA53EC102B9DED020B75
:1037D00051EC100BFCF751FD53EC182BFCF714FFC8
:1037E00057D2002CBCBF4FF00044002551DB54EAF7
:1037F000050018BF2E4C1BD14BE02E4820FA06F7CF
:1038000004EA070028431FD053EC102B9DED020B58
:1038100051EC100BFCF731FD53EC182BFCF7F4FEC8
:1038200037D2002C03DD4FF48010F0400444BC4339
:1038300000252EE0332E07DCA6F114004FF0FF31F7
:1038400021FA00F73D4206D19DED020BBDEC028B43
:1038500002B0BDE8F08153EC102B9DED020B51EC52
:10386000100BFCF7AEFD53EC182BFCF7CDFE10D27D
:10387000002C0DDD142E08BF641C09D0C6F13400E5
:10388000012101FA00F02844A84238BF641C054613
:10389000BD43CDE902549DED020BD7E700000000C7
:1038A0009C7500883CE4377E0000000000000000AA
:1038B0000000F03FFFFF0F002DED020B019820F0FC
:1038C000004001909DED000B02B0704700B52DED5A
:1038D000048BB0EE418AF0EE618AB0EE409AF0EED1
:1038E000609A83B053EC182B51EC190BFCF7B9FF1D
:1038F00000F07040B0F1005F1AD018EE101A18EE08
:10390000900A8DED008B002918BF0121084320F09B
:103910000040C0F17F6000F1E040C00F01BFB0EE99
:10392000480AF0EE680A03B0BDEC048B08BF00BD86
:10393000B0EE490A03B0F0EE690ABDEC048B00BD9D
:1039400000B52DED048BB0EE418AF0EE618AB0EE49
:10395000409AF0EE609A83B053EC182B51EC190B9F
:10396000FCF77FFF00F07040B0F1004F1AD018EE66
:10397000101A18EE900A8DED008B002918BF012156
:10398000084320F00040C0F17F6000F1E040C00F2C
:1039900001BFB0EE480AF0EE680A03B0BDEC048B3C
:1039A00008BF00BDB0EE490A03B0F0EE690ABDECF5
:1039B000048B00BD10B52DED040B86B09DED060BFC
:1039C00010EE100A10EE901A8DED000B002818BFB3
:1039D0000120084320F00040C0F17F6000F1E0408A
:1039E000C00F21D19DED080B10EE101A10EE900AB9
:1039F0008DED000B002918BF0121084320F0004085
:103A0000C0F17F6000F1E040C00F0DD12949079857
:103A1000B1EB400F04BF0698002842D0099840003F
:103A200004BF089800283CD09DED080B53EC102BE8
:103A30009DED060B51EC100BFCF7D0FECDE9020119
:103A40009DED020B40F2FF7110EE900A8DED000B20
:103A500031EA105021D00798039900F0004001F09E
:103A60000041884219D09DED080B8DED040B9DEDB2
:103A7000020B8DED000B10EE900A059961F31E000C
:103A800005909DED041B9DED020B51EC110B53ECC9
:103A9000102BFCF796FCCDE902019DED020B0AB05C
:103AA00010BD012000F098F80AB0BDE8104000F009
:103AB00073B800000000E0FF10B52DED020B2DEDF6
:103AC000088B84B09DED0C0B51EC100BFCF742FE03
:103AD00041EC180B9DED0C0B53EC182B51EC100B1B
:103AE000FCF76CFC41EC190B0D989FED290B10F0C5
:103AF000004F53EC102B51EC190B9FED21AB9FEDB8
:103B000022BB0ED0FCF768FD0ED953EC1B2B51ECF9
:103B1000190BFCF779FD1CD214E000BF41EC180B27
:103B200017E0FCF759FD06D253EC1A2B51EC180B99
:103B3000FCF744FCF2E753EC1B2B51EC190BFCF7A0
:103B400063FD06D853EC1A2B51EC180BFCF795FBD0
:103B5000E4E78DED028B9DED0C0B18EE901A10EE44
:103B6000900A8DED000B61F31E0003909DED020B9A
:103B700004B0BDEC088B02B010BD000000000000D6
:103B8000000000000000F03F000000000000E03FE7
:103B9000000000000000E0BF9FED050B10B553ECE6
:103BA000102B51EC100BFCF781FC41EC100B10BDFD
:103BB000000000000000000002E008C8121F08C159
:103BC000002AFAD170477047002001E001C1121F9E
:103BD000002AFBD1704700000149086070470000CF
:103BE0003401002010B52DED088BB0EE40BAF0EE98
:103BF00060BAB0EE418AF0EE618A9FED3B9B9FED8B
:103C00003CAB53EC192B51EC1B0BFCF7E5FC09D139
:103C1000B0EE480AF0EE680ABDEC088BBDE8104033
:103C2000FFF74ABE53EC192B51EC180BFCF7D4FCF0
:103C3000B0EE4B0AF0EE6B0AEED0FFF73DFEB0EEB1
:103C4000409AF0EE609AB0EE480AF0EE680AFFF78C
:103C500033FEB0EE408AF0EE608A53EC182B51EC44
:103C6000190BFCF7ABFB41EC100BFFF725FE53ECF7
:103C70001A2B51EC100BFCF7AFFC30D353EC182B84
:103C800051EC190BFCF7A8FC16D2B0EE490AF0EE85
:103C9000690A09E0B0EE481AF0EE681AB0EE490A77
:103CA000F0EE690AFFF786FEB0EE489AF0EE689AE9
:103CB000B0EE408AF0EE608A53EC1A2B51EC180BF0
:103CC000FCF7A2FCE6D353EC1A2B51EC190BFCF7D2
:103CD00083FC04D29FED080BBDEC088B10BDB0EE49
:103CE000490AF0EE690AF7E7000000000000000052
:103CF0008DEDB5A0F7C6B03E000000000000F03F1B
:103D0000244808B5016841F480410160006800F46E
:103D1000804000901F48001F016841F08051016001
:103D200000681D4900F08050009008684FF6FF02BF
:103D300010401A4A40F44070104308600868C0F30D
:103D40000220C0F10702042A00D90422011D07291C
:103D500001D2002000E0C01E01219140491E814097
:103D600008010F4981F8140DFFF782F8FFF7F4F806
:103D7000FEF7C0F9FEF7C0F9FFF772FC4FF4FA70D6
:103D8000FEF7B8FD0748FDF7FEFF00BFFFF74AF852
:103D9000FCE70000443802400CED00E00000FA05AA
:103DA0000FE000E01C000020102840587088A0B8E8
:103DB00000000000040404000008000000081028AF
:103DC00040587088A0B80000000000000000010208
:103DD000030406070809000000000102030410287C
:103DE00040587088A0B800000000000000000000EB
:103DF00000000000000000000000000000000000C3
:103E000000000000000000000000000000000000B2
:103E10000000000000000000000000000000004062
:103E20000100000000000000000000000000000091
:103E30000000000000000000000000000000000082
:103E40000000000000000000000000000000000072
:103E50000000000000000000000000000000000062
:103E60000000000000000000000000000000000052
:103E70000000000000000040010000000000000001
:103E80000000000000000000000000000000000032
:103E90000000000000000000B83E00080000002004
:103EA00038010000E8080008E03E00083801002062
:103EB00060050100C83B0008616B02400432043217
:103EC000083210190C02112099125E80C0F440646F
:103ED0001472012908293C5103C924F4F25000004E
:040000050800019955
:00000001FF
