:020000040800F2
:1000000080050120AD0100083D0B0008B507000880
:100010003B0B0008ED020008D110000800000000B2
:10002000000000000000000000000000090D0008B2
:1000300079070008000000003F0B00080D0E0008C3
:10004000C7010008C7010008C7010008C701000870
:10005000C7010008C7010008C7010008C701000860
:10006000C7010008C7010008C7010008C701000850
:10007000C7010008C7010008C7010008C701000840
:10008000C7010008C7010008C70100080000000000
:10009000000000000000000000000000C701000890
:1000A000C7010008C7010008C7010008C701000810
:1000B000C7010008C7010008C7010008C701000800
:1000C000C7010008C7010008C7010008C7010008F0
:1000D000C7010008350F0008C70100080000000034
:1000E000C7010008C7010008C701000800000000A0
:1000F000000000000000000000000000C701000830
:1001000000000000C7010008C7010008C70100087F
:1001100000000000000000000000000000000000DF
:10012000C7010008C7010008F5040008F904000829
:100130002D05000800000000000000000000000085
:10014000000000000000000000000000C7010008DF
:1001500051050008C7010008C7010008C7010008D1
:10016000C7010008C70100080000000000000000EF
:10017000000000000000000000000000000000007F
:1001800000000000C701000800000000000000009F
:10019000C7010008C7010008DFF80CD000F094F890
:1001A00000480047F11000088005012006488047FC
:1001B00006480047FEE7FEE7FEE7FEE7FEE7FEE74C
:1001C000FEE7FEE7FEE7FEE7E90E000899010008FA
:1001D0002DE9F05F0546002092469B46884606467C
:1001E000814640241BE0284641464746224600F00F
:1001F0005AF853465A46C01A914110D31146184630
:10020000224600F041F82D1A67EB01084F462246BE
:100210000120002100F038F817EB00094E41201EA4
:10022000A4F10104DFDC484631462A464346BDE8D6
:10023000F09FD2B201E000F8012B491EFBD27047BB
:100240000022F6E710B513460A4604461946FFF7A2
:10025000F0FF204610BDC1F30A5210B5C1F31301DF
:1002600040F2FF3341F480119A4201DA002010BDC0
:1002700040F233439A42A2F2334203DC524200F08E
:1002800012F810BD904010BD202A04DB203A00FA7D
:1002900002F1002070479140C2F1200320FA03F3DD
:1002A000194390407047202A04DB203A21FA02F0DB
:1002B0000021704721FA02F3D040C2F120029140A0
:1002C0000843194670470000064C074D06E0E068F9
:1002D00040F0010394E8070098471034AC42F6D38D
:1002E000FFF75EFF4412000864120008FEE70000FA
:1002F0002DE9F0473D4D6868DFF8F480C0F3401009
:1003000000273C4EA8F12804002855D02020E860A2
:10031000607C002868D0A068E1680844A06070682C
:1003200020B100F00DFC726802219047A16862685C
:100330000120914211D3207467742D481438007C39
:10034000002851D0042188F8311000F015FC7268A3
:10035000002A49D00421642041E021782278C2F1AA
:1003600001022270A268E3681A446368934201D9CB
:10037000E174A0740421284600F048FA04212846BC
:1003800000F058FA0028F9D16068A168401AE168C5
:10039000814200D2E0688146207818B3B269042116
:1003A000284600F05BFA4A460421284600F04AFA43
:1003B0000421284600F034FA6868C0F3C000002821
:1003C00012D00820E8606774A774052188F83110FE
:1003D00000F0D2FBB268002A06D002210520BDE859
:1003E000F04710477269DAE7BDE8F0870064024021
:1003F00098000120080000202DE9F0473A4D686878
:10040000DFF8E880C0F3C0200027394EA8F11404BB
:1004100000284ED0E814E860607C002862D0A06814
:10042000E1680844A060A06862680121904211D38D
:1004300021746774A4F11400007C002852D00421B8
:1004400088F8311000F098FB7268002A4AD0042125
:10045000642042E020782278C2F101022270A26872
:10046000E3681A446368934201D9E074A1740521DA
:10047000284600F0CBF90521284600F0DBF90028DA
:10048000F9D16068A168401AE168814200D2E06851
:100490008146207820B332690521284600F0DEF934
:1004A0004A460521284600F0CDF90521284600F0EE
:1004B000B7F96868C0F34020002813D04FF40070EB
:1004C000E8606774A774052188F8311000F054FBC8
:1004D000B268002A06D002210520BDE8F047104787
:1004E000F268D9E7BDE8F087006402409800012077
:1004F000080000207047000009480168C1F3C0618E
:1005000000290CD04FF000618160064A0121117072
:100510000549CA788258C97822F0100242507047C3
:1005200000640240000000201C1200080748407CC4
:1005300000280AD00548283090F8300008B101287A
:1005400001D0FFF7D5BE00F015B87047700001204C
:100550000748407C00280AD00548143090F8300045
:1005600008B1012801D0FFF747BF00F087B87047F6
:10057000840001202DE9F0473D4D6868DFF8F480E4
:10058000C0F3401000273C4EA8F12804002855D0A5
:100590002020E860607C002868D0A068E1680844FA
:1005A000A060706820B100F0CBFA72680221904719
:1005B000A16862680120914211D3207467742D48AC
:1005C0001438007C002851D0042188F8311000F044
:1005D000D3FA7268002A49D00421642041E02178CE
:1005E0002278C2F101022270A268E3681A446368AB
:1005F000934201D9E174A0740421284600F006F961
:100600000421284600F016F90028F9D16068A16895
:10061000401AE168814200D2E0688146207818B330
:10062000B2690421284600F019F94A4604212846F7
:1006300000F008F90421284600F0F2F86868C0F3D9
:10064000C000002812D00820E8606774A774052154
:1006500088F8311000F090FAB268002A06D0022122
:100660000520BDE8F04710477269DAE7BDE8F0877A
:100670000064024098000120080000202DE9F047A6
:100680003A4D6868DFF8E880C0F3C0200027394E93
:10069000A8F1140400284ED0E814E860607C00281B
:1006A00062D0A068E1680844A060A0686268012187
:1006B000904211D321746774A4F11400007C0028C7
:1006C00052D0042188F8311000F056FA7268002ADE
:1006D0004AD00421642042E020782278C2F101024D
:1006E0002270A268E3681A446368934201D9E074F7
:1006F000A1740521284600F089F80521284600F05C
:1007000099F80028F9D16068A168401AE16881422F
:1007100000D2E0688146207820B33269052128465E
:1007200000F09CF84A460521284600F08BF8052188
:10073000284600F075F86868C0F34020002813D000
:100740004FF40070E8606774A774052188F83110D1
:1007500000F012FAB268002A06D002210520BDE896
:10076000F0471047F268D9E7BDE8F087006402401F
:1007700098000120080000207047000000B587B0F5
:1007800018216846FFF75CFD042000F01FF80848B8
:100790004FF400510A048261009101210022CDE949
:1007A0000112CDE90321694600F060F807B000BDF1
:1007B00000080240FEE7FFF7E1BF000002494FF4E6
:1007C000005088617047000000080240044908B5E5
:1007D0000A6802430A6009680140009108BD0000F0
:1007E00030380240034A515C425822F01002425015
:1007F000704700003C120008034A515C425822F046
:1008000004024250704700003C120008034A515C49
:10081000425822F001024250704700003C1200088A
:10082000034A515C425842F00102425070470000B6
:100830003C120008024A515C405800F00100704729
:100840003C120008044B001D595C0B586FF30F035A
:1008500013430B50704700003C120008024B0C3051
:10086000595C0A50704700003C120008F0B50A6855
:100870000F2692FAA2F2B2FA82F303248AE0012749
:100880009F4015EA07027DD04D68012D01D0022D51
:100890001BD18D68876892FAA2FCBCFA8CFC4FEAE7
:1008A0004C0C04FA0CFC27EA0C0792FAA2FCBCFAE6
:1008B0008CFC4FEA4C0C05FA0CF52F438760CD6891
:1008C0004768554397432F4347600F69D0F80CC0E2
:1008D00092FAA2F5B5FA85F54FEA450E04FA0EF53F
:1008E0002CEA050C92FAA2F5B5FA85F56D00AF4039
:1008F0004CEA070CC0F80CC04D68022D33D192FAB7
:10090000A2F5B5FA85F5082D15D2D1F814C0056AFF
:1009100092FAA2F7B7FA87F7BF0006FA07F7BD43C6
:1009200092FAA2F7B7FA87F7BF000CFA07FC45EA7C
:100930000C05056217E0D1F814E0476A150A95FA2C
:10094000A5FCBCFA8CFC4FEA8C0C06FA0CFC95FA60
:10095000A5F5B5FA85F5AD0027EA0C070EFA05FEF8
:1009600047EA0E0747624D68076892FAA2FCBCFA94
:100970008CFC4FEA4C0C04FA0CFE27EA0E0792FAA4
:10098000A2F200E005E0B2FA82F2520095402F4355
:1009900007605B1C0A681546DA407FF470AF0020E0
:1009A000F0BD4FF47A71B0FBF1F14FF0E020491E39
:1009B00041610021816105210161704710B5044644
:1009C00000F064F9206000F037F9606000F042F94F
:1009D000A060606800F04CF9E06010BD014908605B
:1009E00070470000040000207FB50446C0680D4633
:1009F0000126C0F3403078BBE9686868AA690843FB
:100A0000296911430843E16849F20C6291430843A4
:100A1000E060A868216921F44051014321616869BF
:100A2000616921F44071014361616846FFF7C6FFC7
:100A30000B48844207D00B48844201D1029903E05D
:100A40000948844208D1039931B12B6823B10026AB
:100A50002046AA6900F00AF804B0304670BD0000D4
:100A60000010014000440040001401402DE9F04115
:100A700006461920A1FB00011F46002364243225ED
:100A8000B2F5004F27D0BB0FBA00FFF7A1FB01461C
:100A9000B0FBF4F06FF01802504301EB800005EB5F
:100AA0000010B0FBF4F000F0F002B1FBF4F002EB48
:100AB0000012B1FBF4F06FF01803584301EB800013
:100AC00005EB0010B0FBF4F000F00F00104480B212
:100AD000B060BDE8F081FA195B41FFF779FB014690
:100AE000B0FBF4F00201B1FBF4F06FF018035843CF
:100AF00001EB800005EBC000B0FBF4F000F0F80063
:100B000002EB4002B1FBF4F0584301EB800005EB2F
:100B1000C000B0FBF4F000F00700D7E708B54FF0D5
:100B2000E0210A690092421C00D0401C0A69D203ED
:100B300000D5401E0028F9D108BDFEE7FEE770474A
:100B40000C48416839B1826800F114018B689A42FF
:100B500003D9816802E000207047896864224068F8
:100B60005143B1FBF0F0642801D964207047C0B252
:100B7000704700007000012010B52B4C0521204665
:100B8000FFF744FE04212046FFF740FE05212046E2
:100B9000FFF750FE0028F9D104212046FFF74AFE56
:100BA0000028F3D12149086820F00100086020489E
:100BB000426822F002024260C86820F48070C86077
:100BC000C86820F48050C86000F09FF805212046D6
:100BD000FFF708FE05212046FFF70EFE0421204600
:100BE000FFF700FE04212046FFF706FE4FF40060E9
:100BF000E0608010E0604000E0608010E060402035
:100C0000E0602020E0600820E0601020E060042028
:100C1000E0600120E06007490020487488741431C6
:100C20004874887410BD0000006402400000014058
:100C3000003001407000012004490968044A01F0B5
:100C4000F0010909515CC8407047000008380240B3
:100C50002412000804490968044A01F4E05102EB37
:100C600091210978C84070470838024034120008C2
:100C700004490968044A01F4604102EB51310978E2
:100C8000C84070470838024034120008074800681E
:100C900010F00C01064807D0042904D0082903D11C
:100CA000082000F009B803487047000008380240E7
:100CB0000024F40040787D0110B5104A044600205D
:100CC000116811F480030E4903D0B3F5800F00D1F1
:100CD0000C49082C11D1106800F03F00B1FBF0F076
:100CE0001168C1F3881148431168012201F44031B1
:100CF00002EB11414900B0FBF1F010BD0438024095
:100D00000024F40040787D01704700F003B9000032
:100D1000030005D021B1022904D90220002204E0F9
:100D200000207047084600220AE0074901EBC20193
:100D300091ED040B03EBC201521C81ED000BD2B20A
:100D40008242F2D37047000028000020054890F846
:100D5000221021B1002180F82210012070470020CC
:100D600070470000280000200448002180F823106C
:100D700000F8211F4170C0F80310704728000020C0
:100D800030B502EB42040023C4EBC21406E02AB1E2
:100D90005B1CB3EBC40F01D3012030BD0568C5F364
:100DA000C015002DF3D04160002030BD2DE9F04387
:100DB0001E4617465FEA0108814603D017B1002599
:100DC0002C460EE00020BDE8F08300BF18F80410A8
:100DD00032464846FFF7D4FF28B96D1C641CEDB2BB
:100DE000E4B2BC42F2D306EB46010020C1EBC611CF
:100DF00004E01EB1401CB0EBC10F05D2D9F80020B1
:100E0000C2F38012002AF4D02846DCE770470000C5
:100E100070B52F48016821F0070141F0030101601E
:100E2000016801F007010329FAD12A49086840F452
:100E3000404008602848026842F48032026002683C
:100E4000C2F34042002AFAD0234A244B121D1468F0
:100E5000234D2C4023431360136823F44033136065
:100E6000026842F0807202600268C2F34062002AA7
:100E7000FAD04868C0F380300028FAD0164808300D
:100E8000016821F0F0010160016821F4E05141F4B2
:100E900080510160016821F460410160016821F026
:100EA000030141F002010160016801F00C01082911
:100EB000FAD10C4C2046FFF774FD2046FFF78EFD5B
:100EC00005488C30016821F08071016070BD000020
:100ED000003C024000700040003802400C18400006
:100EE0000080BFFF00E1F5050248016841F4700190
:100EF0000160704788ED00E000B587B018216846B2
:100F0000FFF79EF98020FFF761FC0120FFF75EFCF0
:100F100007B000BD0548016821F001010160002112
:100F200041620349012088617047000000040040CD
:100F300000040240AFF3008070B5294C2068C0F374
:100F4000401000284BD060680021C2B22548012320
:100F500090F8235025B1012D0AD0022D24D126E08E
:100F6000FF2A39D180F8233080F82110416233E024
:100F700090F8213090F820108B4215D2D90803F058
:100F80000703022910D200EBC101CA5490F82110C6
:100F9000491CC9B280F8211090F8202091421BD33F
:100FA000022180F8231017E0FFF7DEFE14E0FE2A8E
:100FB000FAD1002200EBC205521C95ED000BD2B213
:100FC00085ED040B022AF5D380F8223080F8231037
:100FD00000F8211FC0F803106FF02000206070BDE2
:100FE000001001402800002010B58EB01C2168467A
:100FF000FFF726F9182107A8FFF722F92F48016803
:1010000041F010010160006800F010000D902B48C5
:101010001438016841F0010101600068002400F00B
:1010200001000D904FF4C06007900220089003204B
:10103000CDE909040720CDE90B4007A92048FFF7B7
:1010400015FC20480068C0F30220011D072901D2C9
:10105000002000E0C01E04FA00F108011A4981F8DE
:101060000004194920202139C1F800014FF4E13072
:10107000CDE900040C200294CDE9034005940694C8
:10108000124C69462046FFF7AFFC54F8100F20F4CD
:10109000904001C4206820F02A0044F80809206824
:1010A00040F40050C4F8000054E8000F40F0200065
:1010B00044E800010029F7D10EB010BD44380240C9
:1010C000000002400CED00E025E000E000100140CF
:1010D000FEE702E008C8121F08C1002AFAD17047D3
:1010E0007047002001E001C1121F002AFBD17047A8
:1010F0003F4808B5016841F480410160006800F490
:10110000804000903A48001F016841F08051016022
:101110000068384900F08050009008684FF6FF02E0
:101120001040354A40F44070104308600868C0F32E
:101130000220C0F10702042A00D90422011D072958
:1011400001D2002000E0C01E01219140491E8140D3
:1011500008012A4981F8140DFFF75AFEFFF7CCFE6B
:10116000FFF729FBFFF72AFBFFF73EFF4FF4FA706A
:10117000FFF7D4FC244D9FED220B264E85ED000B8E
:101180009FED220B85ED020B5FF0000405EBC4011F
:10119000642308223046FFF709FE6420FFF7BEFCF7
:1011A000641CA4B2022CF1D3FFF7D0FD01281AD1A0
:1011B00002211948FFF7ACFD174C94ED000B51ECE0
:1011C000100BFFF748F8C1B264223046FFF7D8FD94
:1011D00094ED020B51EC100BFFF73DF8C1B2642205
:1011E0003046FFF7CDFD4FF47A70FFF797FCCBE761
:1011F000443802400CED00E00000FA050FE000E08A
:101200009A99999999D95E406000012000000000E8
:1012100000506D4000100140500000201028405840
:101220007088A0B800000000000000000102030464
:1012300006070809000000000102030410284058B6
:101240007088A0B864120008000000205000000060
:10125000D2100008B4120008500000203005010030
:10126000E2100008000000000024F400000000006C
:10127000000000000000000000000000000000006E
:10128000000000000000000000000000000000005E
:10129000000000000000000000000000000000004E
:1012A000000000000000000000000000100000002E
:0412B000000000003A
:040000050800019955
:00000001FF
