:020000040800F2
:100000006007012039020008D3160008990F000884
:10001000D1160008A3030008152000080000000006
:10002000000000000000000000000000DD180008D3
:10003000790D00080000000007170008EF180008FD
:10004000530200085302000853020008530200083C
:10005000530200085302000853020008530200082C
:10006000530200085302000853020008530200081C
:10007000530200085302000853020008530200080C
:100080005302000853020008530200080000000059
:100090000000000000000000000000005302000803
:1000A00053020008530200085302000853020008DC
:1000B00053020008530200085302000853020008CC
:1000C00053020008530200085302000853020008BC
:1000D0005302000853020008530200080000000009
:1000E00053020008530200085302000800000000F9
:1000F00000000000000000000000000053020008A3
:1001000000000000530200085302000853020008D8
:1001100000000000000000000000000000000000DF
:100120005302000853020008190D00081D0D0008B5
:10013000510D000800000000000000000000000059
:100140000000000000000000000000005302000852
:10015000650D00085302000853020008530200080E
:1001600053020008530200080000000000000000D5
:10017000000000000000000000000000000000007F
:100180000000000053020008000000000000000012
:10019000530200085302000800F002F800F03CF897
:1001A0000AA090E8000C82448344AAF10107DA45D2
:1001B00001D100F031F8AFF2090EBAE80F0013F0E8
:1001C000010F18BFFB1A43F001031847DC2C000095
:1001D000FC2C0000103A24BF78C878C1FAD8520726
:1001E00024BF30C830C144BF04680C6070470000B1
:1001F0000023002400250026103A28BF78C1FBD830
:10020000520728BF30C148BF0B6070471FB502F0CE
:10021000F5FD1FBD10B510BD00F08EF81146FFF7BB
:10022000F5FF02F02DF800F0ACF803B4FFF7F2FF91
:1002300003BC00F0AFF800000948804709480047B8
:10024000FEE7FEE7FEE7FEE7FEE7FEE7FEE7FEE786
:10025000FEE7FEE704480549054A064B70470000E3
:10026000C9190008990100086001012060070120F8
:10027000600301206003012010B5203AC0F00B801C
:10028000B1E81850203AA0E81850B1E81850A0E89A
:100290001850BFF4F5AF5FEA027C24BFB1E81850F4
:1002A000A0E8185044BF18C918C0BDE810405FEA64
:1002B000827C24BF51F8043B40F8043B08BF7047E0
:1002C000D20728BF31F8023B48BF11F8012B28BFE5
:1002D00020F8023B48BF00F8012B70474FF00002A6
:1002E00000B5134694469646203922BFA0E80C502C
:1002F000A0E80C50B1F12001BFF4F7AF090728BF07
:10030000A0E80C5048BF0CC05DF804EB890028BF82
:1003100040F8042B08BF704748BF20F8022B11F0AB
:10032000804F18BF00F8012B704770477047704727
:1003300000487047000101207546FFF7F9FFAE46FF
:1003400005006946534620F00700854618B020B5E1
:10035000FFF780FFBDE820404FF000064FF0000798
:100360004FF000084FF0000B21F00701AC46ACE85D
:10037000C009ACE8C009ACE8C009ACE8C0098D46CA
:10038000704710B50446AFF300802046BDE810402A
:10039000FFF74BBF01491820ABBEFEE72600020065
:1003A0007047FEE74268006909B190617047000438
:1003B000FBE78268406909B1906170470004FBE780
:1003C0002DE9F04F98462DED108B9FB016460C4648
:1003D0005FEA000BFE4DDDF8E0A0DDF8E89019D0F3
:1003E000C4B1BEB1B8F1000F14D05FEA0A0011D059
:1003F000399878B15FEA09009FEDF68B9FEDF79B86
:1004000008D094ED000B53EC182B51EC100B02F0BC
:1004100035FA04D2AA68002A7DD001218DE294ED3C
:10042000000B53EC192B51EC100B02F061FBF1D3D4
:1004300094ED020B53EC182B51EC100B02F01EFA4A
:10044000E8D394ED020B53EC192B51EC100B02F096
:100450004FFBDFD394ED040B53EC182B51EC100B36
:1004600002F00CFAD6D394ED040B53EC192B51EC9B
:10047000100B02F03DFBCDD394ED060B53EC182B83
:1004800051EC100B02F0FAF9C4D394ED060B53ECC7
:10049000192B51EC100B02F02BFBBBD394ED080B86
:1004A0009FEDD01B51EC100B53EC112B02F0E6F931
:1004B000B0D394ED080B9FEDCD1B51EC100B53EC1A
:1004C000112B02F015FBA5D35822214602A8FFF7F5
:1004D000D3FEBF48C0F800B0C0E9038A3999C0E92B
:1004E000051996ED028BA76A07B9012794ED000B59
:1004F00094ED049B53EC102B51EC190B02F094FB80
:1005000041EC100B01F040FEB0EE40BAF0EE60BAE4
:1005100094ED08FB00E012E253EC1F2B51EC1B0B97
:1005200001F0D8FF94ED060B41EC1E0B53EC192B98
:1005300051EC100B02F078FB41EC100B01F024FEA3
:10054000B0EE40AAF0EE60AA9FEDAA0B51EC1A0B98
:1005500053EC102B02F0CEF953EC1F2B01F0BAFF35
:1005600094ED020B41EC1D0B53EC192B51EC100BCD
:1005700002F05AFB41EC100B01F006FEB0EE40CA4F
:10058000F0EE60CA53EC1F2B51EC1C0B01F0A2FFE4
:1005900041EC1F0B384602F05EF953EC1D2B02F0C4
:1005A000A9F953EC1E2B01F0E1FE53EC1F2B01F0D7
:1005B000DDFE41EC190B51EC180B53EC192B02F03A
:1005C00099F941EC100B01F0EBFD51EC100B02F02E
:1005D00015F931690546A94209D90D46284602F0A8
:1005E0003AF953EC192B01F075FF41EC180B284632
:1005F00002F031F953EC182B01F06CFF53EC192B7E
:1006000001F068FF41EC190B53EC1E2B51EC180B59
:1006100002F070F953EC192B02F06CF941EC100B5D
:1006200001F0BEFD51EC100B02F0E8F8119053EC14
:100630001D2B51EC180B02F05DF953EC192B02F055
:1006400059F941EC100B01F0ABFD51EC100B02F02D
:10065000D5F8129053EC1F2B51EC180B02F04AF90D
:1006600053EC192B02F046F941EC100B01F098FD08
:1006700051EC100B02F0C2F81390DDE9110101FBFF
:10068000070013990844A84205D0281AB0FBF7F1D7
:100690001298084412909FED599B1198012538B982
:1006A00053EC192B51EC1B0B02F022FA00D21195DE
:1006B0001298022808D253EC192B51EC1A0B02F0B5
:1006C00017FA01D202201290139838B953EC192B63
:1006D00051EC1C0B02F00CFA00D21395DDE911016C
:1006E00001FB070013995822084414908DED168BD6
:1006F00002A94448FFF7C0FD424800275038077060
:100700001499416087603168C160077401214174A8
:100710008774C7743B4D1498383D286085ED028B73
:10072000149802F098F853EC182B01F0D3FEC5E9A9
:100730000401129802F08FF853EC182B01F0CAFE56
:100740009FED311B53EC112B02F0D4F841EC100B50
:1007500051EC1A0B53EC102B01F0BCFE41EC110BC9
:1007600085ED061B94ED080B53EC102B02F05CFAA0
:1007700041EC100B01F008FD85ED080B94ED081B12
:1007800051EC100B53EC112B01F0A4FE9FED201B3C
:1007900053EC112B02F0AEF8C5E90A0185F8307070
:1007A000012085F831004FF0E02085F832700069B3
:1007B00000F00400686314983568A84200D8054624
:1007C00002ACCDE90054002341465846399A23E053
:1007D0003C000020000000000088B3C000000000C2
:1007E0000088B3409A9999999999B93F00000000FF
:1007F0000088C3400000000000000040000000002E
:1008000000000000A8000120000000000000E03F00
:10081000000000000000594000F0D6FA1498336838
:1008200098420AD9C01A984200D91846CDE9000466
:100830004A465146584600F0C7FA6A4EB068C0F3BF
:1008400040000028FAD0B068C0F3C0100028FAD1E8
:10085000654C0521204600F0FFFB0421204600F0F6
:10086000FBFB0521204600F01FFC0028F9D10421E4
:10087000204600F019FC0028F9D14FF40070E06028
:100880008000E060C010E0604020E0600001E060B7
:100890000820E0602020E0600420E0600127E7609D
:1008A0001020E060DFF844916FF0010BC9F810B040
:1008B0006FF0100AC9F810A000220521204600F0B0
:1008C00041FC42460521204600F016FC2A4605213F
:1008D000204600F0FBFB00220421204600F032FC01
:1008E00004212046399A00F007FC2A4604212046BC
:1008F00000F0ECFB0521204600F0B8FB0521204666
:1009000000F0BEFB0421204600F0B0FB042120468D
:1009100000F0B6FB442001F08BFB3C2001F088FB8B
:10092000334818A9B0EE480AF0EE680A01F09CFAC4
:1009300058B13048826812B1082105209047002044
:100940001FB0BDEC108BBDE8F08F9FED2B8B9FEDA2
:100950002C9B18A9B0EE481AF0EE681AB0EE490ABE
:10096000F0EE690A4D46484601F01EFAB0EE481A0C
:10097000F0EE681AB0EE490AF0EE690A18A800F025
:10098000B0FFDFF88480022088F83100706840F002
:1009900002007060E86840F48070E860E86840F445
:1009A0008050E8600521204600F074FB04212046B9
:1009B00000F070FBC5F810B0C5F810A013484169ED
:1009C00041F001014161686940F00100686100F097
:1009D0008AFF286840F00100286088F83270012002
:1009E000AEE700000030014000640240000001401A
:1009F00000E1F5053C0000200000000084D74741DD
:100A00000000000084D797417000012000040040DE
:100A10002DE9FC41144CA07C002820D0607C0028EB
:100A20001DD0207C00281AD1A068E16843186068B6
:100A30000025984212D96068C21AE068904200D23C
:100A4000E268E77C0949084E50360868CDE900267F
:100A50003FB18A69D1F8101000F0B6F9A574BDE86D
:100A6000FC814A69C968F7E7580001203C00002072
:100A70000548817C19B1417C09B1007C08B1002096
:100A80007047012070470000580001200C4810B545
:100A90004168C1F3401109B12021C1604068C0F331
:100AA000C00000280AD000F049FE06488268002AEB
:100AB00004D00221BDE810400520104710BD000001
:100AC000006402403C0000202DE9F041414E706876
:100AD000414DC0F3C020002863D0F014F0603F4CBB
:100AE000607C002874D0A068E1680844A060686851
:100AF00020B100F009FE6A6802219047A068616891
:100B0000884207D300F01AFE6A68002A60D00421E8
:100B1000642052E02078C0F101002070A068E168F4
:100B200008446168814203D92078E0740120A074F0
:100B30000521304600F090FA0421304600F08CFA8E
:100B40000521304600F0B0FA0028F9D104213046E2
:100B500000F0AAFA0028F3D16068A168471AE0689B
:100B6000B84200D2E768207850B3052130462A69A0
:100B700000F0C2FAAA690421304600F0BDFA3A46F4
:100B80000521304600F0A2FA3A460421304600F032
:100B90009DFA0521304600F07DFA0421304600F030
:100BA00079FA7068C0F34020002811D000F0C6FD2B
:100BB000AA68002A0CD002210520BDE8F0411047A8
:100BC00005213046EA6800F097FA6A69D3E7FFE743
:100BD000BDE8F081006402403C0000205800012084
:100BE0008171C26822F4700242EA0151C16070470B
:100BF0004171C26822F0706242EA0161C1607047CF
:100C00000181034BC2681A4042EA0111C16070477A
:100C10000F00F0FFF0B587B0044618216846FFF7D3
:100C20005DFB1348016841F0010101600068012586
:100C300000F001000690E06803278DE8A10000267F
:100C4000CDE903566946206800F0A4FA20690090B7
:100C50006946606800F09EFA6069CDE90276CDE9E8
:100C6000000504966946A06800F094FA07B0F0BD4C
:100C70003038024010B504460068FFF7CBFF002172
:100C80002068FFF796FB0021206800F086F901211B
:100C90002068FFF787FB00F0ADFD0021204600F043
:100CA0001DF803212046FFF7A3FF0F212046FFF781
:100CB00097FF47F6FF712046FFF7A2FF002120466D
:100CC00000F005F82046BDE8104000F00FB8817232
:100CD000C26822F00F020A43C26070470171C26805
:100CE00022F0704242EA0171C160704770B504465B
:100CF00000680021FFF75DFBE168080C8DB201215F
:100D000000F0BCFD0121284600F0B8FD2068BDE8D8
:100D100070400121FFF74DBB704700000948016892
:100D2000C1F3C06100290CD04FF000618160064A18
:100D3000012111700549CA788258C97822F0100241
:100D4000425070470064024028000020802E0008B6
:100D50000348407C002801D0FFF798BE7047000090
:100D6000580001200348407C002801D0FFF7ACBEAA
:100D70007047000058000120704710B5FFF77AFF58
:100D800000F078FC00F036FEBDE8104000F0A7BD92
:100D900000B587B018216846FFF7A0FA042000F0DC
:100DA0000DF908484FF400510A04826100910121B5
:100DB0000022CDE90112CDE90321694600F0EAF9EC
:100DC00007B000BD000802402DE9FF4F68492DED36
:100DD000068B81B0DDE914A4C06800EA0109A06AAD
:100DE00000B90120D4E90F518846616C08FB00FB73
:100DF00000269FED60AB00918AE00A98B0EE4A8A27
:100E00008719F0EE6A8AAF4212D2012D0DD9681E01
:100E100001F021FD41EC180B384601F01CFD53ECAC
:100E2000182B01F057FB41EC180B94ED009B4BE0A5
:100E300005EB0B00B84274D9781BB0FBF8F2B0FB9D
:100E4000F8F108FB12074FEA5800874227D2012821
:100E50000ED9401E01F0FFFC41EC180B384601F0A2
:100E6000FAFC53EC182B01F035FB41EC190B03E0B5
:100E7000B0EE489AF0EE689A94ED048B94ED060B70
:100E800053EC182B51EC100B01F0CEFE53EC192B48
:100E900001F030FD41EC100B53EC182B17E03F1A1A
:100EA000A8EB000001280DD9401E01F0D4FC41EC54
:100EB000180B384601F0CFFC53EC182B01F00AFB5D
:100EC00041EC180B94ED069B94ED040B41E051ECC2
:100ED000100B01F04BFA9FED298B53EC182B01F00E
:100EE00009FD9FED281B53EC112B01F0F3FA53EC95
:100EF000182B01F03BFA01F081FC80B2089949EA15
:100F00000010020C21F81620099921F81600761C11
:100F10005645FFF472AF01B0BDEC068BBDE8FF8F04
:100F2000FFE7791B0098A1EB0B0701280DD9401EA4
:100F300001F091FC41EC180B384601F08CFC53ECAD
:100F4000182B01F0C7FA41EC180B94ED049B94EDBB
:100F5000020B53EC192B51EC100B01F065FE53EC16
:100F6000182B01F0C7FC41EC100B53EC192BAEE72A
:100F70000F00F0FF00000000000000000000000073
:100F80000000E040000000000088B3400148806895
:100F9000704700002C000020FEE70268C06809B11D
:100FA000906170470004FBE7FFF7F2BE02494FF47F
:100FB000005088617047000000080240044908B5ED
:100FC0000A6802430A6009680140009108BD0000F8
:100FD00030380240044908B50A6802430A600968CB
:100FE0000140009108BD000030380240044908B5B6
:100FF0000A6802430A6009680140009108BD0000C8
:1010000030380240044908B50A6802430A6009689A
:101010000140009108BD000044380240034A1430EA
:10102000515C0A5822F004020A507047962E0008BC
:10103000034A515C425822F01002425070470000AF
:101040009E2E0008034A515C425822F0040242508E
:10105000704700009E2E0008034A515C425822F05F
:1010600001024250704700009E2E0008034A515C66
:10107000425842F010024250704700009E2E000875
:10108000034A515C425842F004024250704700004B
:101090009E2E0008034A515C425842F00102425021
:1010A000704700009E2E0008024A515C405800F034
:1010B000010070479E2E0008034B595C435823F0F3
:1010C0006063134343507047962E0008044B001D85
:1010D000595C0B586FF30F0313430B50704700001C
:1010E0009E2E0008034B595C435823F0C003134362
:1010F00043507047962E0008024B0C30595C0A5042
:10110000704700009E2E0008034B595C435823F49F
:101110008063134343507047962E0008034B595C7D
:10112000435823F4C043134343507047962E00089E
:10113000034B595C435823F4907313434350704757
:10114000962E0008034B595C435823F490731343C5
:10115000435070479E2E0008034B595C435823F4BC
:101160000073134343507047962E0008034B595C9D
:10117000435823F4C053134343507047962E00083E
:10118000034B595C435823F4403313434350704797
:10119000962E0008F0B50A680F2692FAA2F2B2FA6B
:1011A00082F303248AE001279F4015EA07027DD0DD
:1011B0004D68012D01D0022D1BD18D68876892FAF0
:1011C000A2FCBCFA8CFC4FEA4C0C04FA0CFC27EA9B
:1011D0000C0792FAA2FCBCFA8CFC4FEA4C0C05FA04
:1011E0000CF52F438760CD684768554397432F43DD
:1011F00047600F69D0F80CC092FAA2F5B5FA85F5F0
:101200004FEA450E04FA0EF52CEA050C92FAA2F507
:10121000B5FA85F56D00AF404CEA070CC0F80CC07C
:101220004D68022D33D192FAA2F5B5FA85F5082D55
:1012300015D2D1F814C0056A92FAA2F7B7FA87F767
:10124000BF0006FA07F7BD4392FAA2F7B7FA87F78D
:10125000BF000CFA07FC45EA0C05056217E0D1F85F
:1012600014E0476A150A95FAA5FCBCFA8CFC4FEA13
:101270008C0C06FA0CFC95FAA5F5B5FA85F5AD00CF
:1012800027EA0C070EFA05FE47EA0E0747624D688B
:10129000076892FAA2FCBCFA8CFC4FEA4C0C04FAE8
:1012A0000CFE27EA0E0792FAA2F200E005E0B2FA7D
:1012B00082F2520095402F4307605B1C0A68154676
:1012C000DA407FF470AF0020F0BD4FF47A71B0FBCC
:1012D000F1F14FF0E020491E4161002181610521BB
:1012E0000161704710B503680122C3F380132BBB63
:1012F000D1E900231A43D1E9023423431A430B698D
:101300001A434B691A438B691A43CB691A430B6A18
:101310001A4303684FF6BF74A3431A43026042683E
:101320004B6922F0040242EA134242600A6AB2F5B3
:10133000005F02D1898C89B201610022C16921F468
:101340000061C161104610BD01490860704700008E
:10135000380000200A7B8B681A434B6822F48062B5
:101360001A430B6822F400621A43CB8922F480529C
:101370001A430B6922F400521A43496922F480424D
:101380000A43426400207047F0B502681D4B1E4CB2
:101390009F031E4D1E4E984207D0B84205D0A04272
:1013A00003D0A84201D0B04205D1D1F804C022F048
:1013B000700242EA0C02984210D0B8420ED0A0420D
:1013C0000CD0A8420AD0B04208D0124CA04205D09E
:1013D000114CA04202D0114CA04203D1CC6822F49F
:1013E0004072224302608A68C2620A88826298421E
:1013F00001D109690163416941F0010141610020A6
:10140000F0BD000000000140000400400008004062
:10141000000C0040004001400044014000480140F1
:10142000012919D0042919D0102919D0402919D01F
:10143000B1F5807F18D0B1F5806F17D006210C4A26
:101440001830525C10440268094BDB1D5B5C0421C0
:1014500099408A43026070470021F0E70121EEE7DE
:101460000221ECE70321EAE70421E8E70521E6E7AA
:10147000882E0008012919D0042919D0102919D063
:10148000402919D0B1F5807F18D0B1F5806F17D001
:1014900006210C4A1830525C10440268094BDB1DCF
:1014A0005B5C082199400A43026070470021F0E725
:1014B0000121EEE70221ECE70321EAE70421E8E756
:1014C0000521E6E7882E0008F0B501250023604CD1
:1014D000012908D0102933D0B1F5807F64D0B1F54F
:1014E000805F5FD190E0016A21F001010162016A31
:1014F00045688669176826F073063E43176921F030
:1015000002013943576821F001013943A04212D149
:10151000546921F0080141EA8401946821F0040132
:1015200041EA840125F4807495692C43D56924F43B
:10153000007444EA450545608661D26842632FE045
:10154000016A21F010010162016A45688669176825
:1015500026F4E64646EA0726176921F0200141EA0B
:101560000711576821F0100141EA0711A04213D179
:10157000546921F0800141EA8411946821F040010E
:1015800041EA841125F48064956944EA8504D569AB
:1015900024F4006444EAC50545608661D26882632C
:1015A00001621D462846F0BD016A21F48071016286
:1015B000016A4568C669176826F073063E431769D5
:1015C00021F4007141EA0721576821F4807141EA52
:1015D0000721A04213D1546921F4006141EA84211A
:1015E000946821F4806141EA842125F4805495694E
:1015F00044EA0514D56924F4005444EA45154560CD
:10160000C661D268C263CBE7016A21F480510162EE
:10161000056A4168C669176826F4E64646EA072661
:10162000176925F4005545EA0735576825F48055B4
:1016300045EA0735A04204D1946921F4804141EA8A
:1016400084114160C661D16801640562A9E70000A8
:101650000000014008B54FF0E0210A690092421CE9
:1016600000D0401C0A69D20300D5401E0028F9D1E1
:1016700008BD000038B51448016841F480010160DC
:101680000068124C00F48000009020680022C0F333
:101690000220114600F01EF80146442000F0D5FC5F
:1016A000442000F0B8FC20680022C0F3022011465C
:1016B00000F010F801463C2000F0C7FCBDE83840BF
:1016C0003C2000F0A8BC0000303802400CED00E0E7
:1016D000FEE7FEE730B500F00703C3F10704042C72
:1016E00000D90424181D072801D2002300E0DB1EC6
:1016F000012505FA04F0401E084098409D406D1EEB
:101700001540284330BD70470848416849B1816899
:10171000642240685143B1FBF0F0642803D964208F
:10172000704700207047C0B2704700005800012089
:101730000148007C704700005800012010B5294C7A
:1017400005212046FFF788FC04212046FFF784FC92
:1017500005212046FFF7A8FC0028F9D104212046E6
:10176000FFF7A2FC0028F3D11F49086820F0010010
:1017700008601E48426822F002024260C86820F4F5
:101780008070C860C86820F48050C86000F0ADF870
:1017900005212046FFF74CFC05212046FFF752FCAF
:1017A00004212046FFF744FC04212046FFF74AFCB1
:1017B0004FF40060E0608010E0604000E060801066
:1017C000E0604020E0602020E0600820E060102021
:1017D000E0600420E0600120E060054900204874DA
:1017E000887410BD006402400000014000300140D8
:1017F0005800012010B590B028216846FEF76EFD14
:1018000018210AA8FEF76AFD4FF48050FFF7FAFB93
:101810000120FFF7DFFBA0200A9002200B9003209D
:101820000024CDE90C040520CDE90E400AA9114899
:10183000FFF7B0FC4FF48270CDE900404FF4006038
:10184000CDE902048010CDE904402020CDE9060452
:101850000A20CDE90840084C69462046FFF742FDC2
:10186000606820F010006060206840F04000206058
:1018700010B010BD00000240003001402DE9F041E1
:101880000E460746FFF782FB0446134D05E000BFF6
:10189000FFF77CFB001BB0421CD2A868C0F34000DD
:1018A0000028F5D0EF6004E0FFF770FB001BB042AA
:1018B00010D2A868C0F340000028F5D005E000BFB2
:1018C000FFF764FB001BB04204D2A868C0F3C0104D
:1018D0000028F5D1BDE8F08100300140704700F0EC
:1018E000E3B900F081B900F047BA00F04DBA704793
:1018F00070B52F48016821F0070141F00301016034
:10190000016801F007010329FAD12A49086840F467
:10191000404008602848026842F480320260026851
:10192000C2F34042002AFAD0234A244B121D146805
:10193000234D2C4023431360136823F4403313607A
:10194000026842F0807202600268C2F34062002ABC
:10195000FAD04868C0F380300028FAD01648083022
:10196000016821F0F0010160016821F4E05141F4C7
:1019700080510160016821F460410160016821F03B
:10198000030141F002010160016801F00C01082926
:10199000FAD10C4C2046FFF798FC2046FFF7D4FC08
:1019A00005488C30016821F08071016070BD000035
:1019B000003C024000700040003802400C1840001B
:1019C0000080BFFF00E1F5050248016841F47001A5
:1019D0000160704788ED00E000B587B018216846C7
:1019E000FEF77CFC8020FFF7E9FA0120FFF7E6FA1A
:1019F00007B000BD2DE9F04F9BB0142114A8FEF7ED
:101A00006DFC20216846FEF769FC182108A8FEF746
:101A100065FC18210EA8FEF761FC6D48016841F0D5
:101A2000010101600068DFF8ACA100F001004FF097
:101A3000406919904A4605215046FFF73DFB402278
:101A400005215046FFF74EFB4FF44032052150462A
:101A5000FFF796FB002205215046FFF769FB0022A5
:101A600005215046FFF778FB4FF4806B5A4605215D
:101A70005046FFF749FB4FF40066324605215046B9
:101A8000FFF774FB4FF40058424605215046FFF71C
:101A900045FB05215046FFF7C1FA504D4D4F4E4CC6
:101AA00068790837C4514A4604215046FFF704FBC1
:101AB000402204215046FFF715FBB2010421504695
:101AC000FFF75EFB002204215046FFF731FB0022A6
:101AD00004215046FFF740FB5A4604215046FFF7C9
:101AE00013FB324604215046FFF740FB42460421D7
:101AF0005046FFF713FB04215046FFF78FFA287971
:101B0000C4510024ADF850404FF6FF70CDE91540A8
:101B1000334D179414A928461894FFF735FC28680C
:101B200020F080002860A86844F207018843A8607C
:101B30003020CDE9000447F6FF70CDE90240AF1434
:101B4000049406946A46394628460794FFF7BCFC7D
:101B500039462846FFF764FC686820F0700068602A
:101B6000A86820F08000A8600894CDE90C848DF866
:101B70002C4009940A94ADF82E4008A92846FFF796
:101B8000E9FB0120FFF732FA02200E96CDE90F049F
:101B90000120CDE912400EA911941248FFF7FAFA7C
:101BA00039462846FFF766FCE86840F48070E86034
:101BB000E86840F48050E860286A40F48050286269
:101BC000686C40F4004068641BB0BDE8F08F000012
:101BD00044380240006402400C300140962E000858
:101BE000000001400000024070B504002DED068B9E
:101BF000B0EE418AF0EE618AB0EE409A9FED25ABDF
:101C0000F0EE609A42D053EC1A2B51EC180B00F016
:101C100035FE3BD953EC1A2B51EC190B00F02EFE7C
:101C200034D91E4D286820F0010028602068A86281
:101C30006068E8622068401C00F00DFE41EC100B6B
:101C400051EC190B53EC102B00F044FC9FED141BCE
:101C500053EC112B00F04EFE53EC182B00F03AFC25
:101C600041EC100B00F004FA51EC100B00F0C6FD33
:101C70006168814201D2491C480800B90120E8632B
:101C8000286A40F48070286200206862BDEC068BF0
:101C900070BD0000000000000000000000040040D3
:101CA00000000000000045402DE9F04194B01421EF
:101CB0000EA8FEF713FB20216846FEF70FFB182144
:101CC00008A8FEF70BFB2948016841F002010160FA
:101CD0000068002500F002001390ADF838504FF670
:101CE000FF70CDE90F50224C0EA920461195FFF749
:101CF0004BFB206820F0800020604FF48078414644
:101D00002046FFF7B7FB60200127CDE9000747F623
:101D1000FF70CDE9025002266A464146CDF8188090
:101D200004962046FFF7D0FB41462046FFF778FB9C
:101D3000606820F0700040F020006060A06820F033
:101D40008000A0600220FFF751F9CDE90876CDE9C7
:101D50000A65CDE90C7608A90648FFF71BFA206A48
:101D600040F48070206214B0BDE8F0814038024039
:101D700000040040000402400248016841F00101F3
:101D800001607047000400400548016821F001012E
:101D90000160002141620349012088617047000011
:101DA000000400400004024030B50D002DED068B0C
:101DB00081B0B0EE418AF0EE618A9FED27ABB0EEC4
:101DC000409AF0EE609A044642D053EC1A2B51EC44
:101DD000180B00F053FD3BD953EC1A2B51EC190BA7
:101DE00000F04CFD34D9206820F001002060286804
:101DF000A0626868E0622868401C00F02CFD41EC9D
:101E0000100B51EC190B53EC102B00F063FB9FED02
:101E1000141B53EC112B00F06DFD53EC182B00F04C
:101E200059FB41EC100B00F023F951EC100B00F0C2
:101E3000E5FC6968814201D2491C480800B90120CB
:101E400000902064206A40F480502062002060628C
:101E500001B0BDEC068B30BD0000000000000000AA
:101E600000000000008030402DE9F05F0C002DEDF7
:101E70000A8BB0EE40AAF0EE60AA06469FED5BCB5F
:101E8000B0EE4C8AF0EE6C8A9FED5A9B7BD053ECFF
:101E9000192B51EC1A0B00F0F1FC74D99FED570B84
:101EA000002084ED040B20606060054684ED029BF9
:101EB000304600F0D0FC894680464FF48036681CDE
:101EC00000F0C9FC41EC110B49EC108B53EC112BC9
:101ED00051EC100B00F0FEFA41EC190B53EC1A2BED
:101EE00000F0F8FA41EC100B00F05AF951EC100B2D
:101EF00000F084FC002866D0B04264D8471E00F091
:101F0000AAFC41EC100B51EC190B53EC102B00F018
:101F1000E1FA41EC1B0B53EC1A2B00F085FE41EC6F
:101F2000100B00F031F9B0EE409AF0EE609AB0EE8E
:101F30004B0AF0EE6B0A00F033F951EC100B00F095
:101F40005DFC8346B0EE490AF0EE690A00F028F91C
:101F500051EC100B00F052FC824653EC182B51EC64
:101F6000190B00F08BFC1ED2B0EE498AF0EE698AA4
:101F7000504600F070FCC4E90401C4E9005758461B
:101F800000F069FC00E029E09FED1E0BC4E90201AE
:101F900053EC102B51EC1A0B00F0ACFC53EC192B4A
:101FA00000F0A6FD13D351EC1A0B9FED180B53EC68
:101FB000102B00F09FFC53EC192B00F099FD02D878
:101FC000B5F57A7F03D36D1CB542FFF478AF53ECBF
:101FD0001C2B51EC180B00F0D5FB04D10120BDECFB
:101FE0000A8BBDE8F09F0020F9E70000FFFFFFFF2C
:101FF000FFFFEF7F00000000000000000000E0FF96
:10200000FFFFEF4195D626E80B2E113E8DEDB5A0D2
:10201000F7C6B03EFEE7002809DB00F01F020121F1
:1020200091404009800000F1E020C0F800117047A5
:10203000002809DB00F01F020121914040098000C7
:1020400000F1E020C0F8001170470907090E0028D0
:1020500004DB00F1E02080F80014704700F00F006E
:1020600000F1E02080F8141D70470000000000001F
:102070002DE9F0412DED020B9FED3D0B2DED028B77
:102080009FED3D8BDDE90254C4F30A50A0F2FF3608
:10209000142E37DA002E18DA53EC102B9DED020BBC
:1020A00051EC100B00F062F953EC182B00F020FDFE
:1020B00057D2002CBCBF4FF00044002551DB54EA3E
:1020C000050018BF2E4C1BD14BE02E4820FA06F716
:1020D00004EA070028431FD053EC102B9DED020BA0
:1020E00051EC100B00F042F953EC182B00F000FDFE
:1020F00037D2002C03DD4FF48010F0400444BC4381
:1021000000252EE0332E07DCA6F114004FF0FF313E
:1021100021FA00F73D4206D19DED020BBDEC028B8A
:1021200002B0BDE8F08153EC102B9DED020B51EC99
:10213000100B00F06DFD53EC182B00F0D9FC10D201
:10214000002C0DDD142E08BF641C09D0C6F134002C
:10215000012101FA00F02844A84238BF641C05465A
:10216000BD43CDE902549DED020BD7E7000000000E
:102170009C7500883CE4377E0000000000000000F1
:102180000000F03FFFFF0F002DED020B019820F043
:10219000004001909DED000B02B070470000000070
:1021A00010B52DED020B2DED088B84B09DED0C0BC1
:1021B00051EC100B00F0D2FC41EC180B9DED0C0B18
:1021C00053EC182B51EC100B00F02EFD41EC190BC9
:1021D0000D989FED290B10F0004F53EC102B51EC94
:1021E000190B9FED21AB9FED22BB0ED000F046FBFB
:1021F0000ED953EC1B2B51EC190B00F079FC1CD2BF
:1022000014E000BF41EC180B17E000F037FB06D2DA
:1022100053EC1A2B51EC180B00F006FDF2E753ECCF
:102220001B2B51EC190B00F063FC06D853EC1A2B56
:1022300051EC180B00F09AF8E4E78DED028B9DED60
:102240000C0B18EE901A10EE900A8DED000B61F356
:102250001E0003909DED020B04B0BDEC088B02B094
:1022600010BD000000000000000000000000F03F72
:10227000000000000000E03F000000000000E0BFA0
:102280003348A2B0016841F480410160006800F465
:10229000804000902E48001F016841F0805101608D
:1022A000006800F0805000902A4801684FF6FF0255
:1022B0001140294A41F44071114301600068C0F3A4
:1022C0000220C0F10702042A00D90422011D0729B7
:1022D00001D2002000E0C01E01219140491E814032
:1022E00008011E4981F8140DFFF702FBFFF774FB8C
:1022F000FEF75AFEFEF75AFE1948FEF73EFD582239
:10230000184904A8FDF7B8FF1649202258311AA829
:10231000FDF7B2FF144AA2F58041A1F580408DE897
:102320000700A0F580431AAA04A90D48FEF748F853
:1023300005E000BFFEF79CFB08B1FEF769FBFFF765
:10234000F7F90028F6D06420FFF784F9FBE70000D6
:10235000443802400CED00E00000FA050FE000E018
:1023600018000020082E000858C0002010B591EA7F
:10237000030F48BF83F0004300F15E84841A71EBC1
:10238000030C05D2121943EB0C03001B61EB0C018B
:10239000DFF824E14FEA1154A4EB135C1EEA430F6B
:1023A00018BF9EEA445F73D023EA0E03DCF1200ECF
:1023B00021EA045143F4801332D322FA0CFE10EBCD
:1023C0000E0023FA0CFE41EB0E01CCF1200E03FAB5
:1023D0000EFE10EB0E0051F10001B1F5801FCCF1A3
:1023E000200E32D201EB045112FA0EF2BDE8104079
:1023F00058BF7047401C38BF5FEA420218BF7047A1
:10240000002814BF20F0010041F100014FEA410310
:1024100013F5001F38BF7047A1F1C04100F062BB47
:10242000012A43EB0302ACF1200CDCF11F0E32BF9A
:102430004FF0000E23FA0CF310EB030041EB0451B4
:10244000B4EB115FD0D0A1EB045101F58011490824
:102450005FEA300001EB04510ED350F1000038BFA9
:1024600012FA0EFE08D1BDE81040C9E7401C38BF83
:102470005FEA4202CAD1C3E7BDE810404FEA410318
:1024800013F5001F38BF7047A1F1C04100F02ABB0F
:102490009EEA445F08D011EA5E0FBDE8104004BF19
:1024A00001F0004100207047BDE8104070B500F019
:1024B000CBFA00BF64FBBE3E0000E0FF491058BFEE
:1024C000C1F140415B1058BFC3F140438B42EFF371
:1024D000008070472DE9C04130B4DFF8A0C23CEA6B
:1024E000111418BF3CEA131400F0EC8081EA0305D4
:1024F0001CEA111444EAD57418BF1CEA131500F045
:10250000C780A4EB05044FF0004545EAC12145EA28
:10251000C32341EA505143EA525304F17F74994274
:1025200004F500344FEAC0204FEAC22208BF9042AF
:1025300000F09C804FEA13650FF24016765D4FEA7B
:10254000134506FB05F7C7F1807706FB07F74FEA4F
:10255000D737A7FB03687642C8F58038A7FB06CEBD
:1025600038BFA8F1010807FB08E64FF0000EA6FBF4
:10257000028CE6FB03CEDCF1000CCEF1004E38BF3E
:10258000AEF1010EA6FB0C584FF000074FF000050E
:10259000E6FB0E87A1FB08C6A0FB07CE16EB0E06D6
:1025A00045F10005E1FB076515F1E04E7EBFA4F59E
:1025B00080345FEA46066D4116F1800745F100055B
:1025C0004FEA17274FEA066647EA0567A6F1DE4697
:1025D000B6F1805F4FEA15251FD9384624F0010C6B
:1025E00005EBC471BCF1FE6F01EB0C1102D8F0BC1D
:1025F000BDE8008124425CBF01F5801E9EEAC47FD5
:1026000002D4F0BCBDE80081244238D4F0BCA1F172
:10261000C041BDE8004100F065BA4FEAD22242EA6B
:1026200043524FEAD323A7FB02864FEAD02040EA69
:10263000415007FB03661EEA0E0F4FEAD12105FB4E
:10264000026658BFA6EB0056B6EB00564FEA520E94
:102650004EEAC37E18EB0E0E56EB530EBDD518EBAB
:1026600002085E417F1C55F10005B6E74FF4801566
:102670004FF000074FF000064FF00008ADE7F0BC48
:102680004FF0000001F1C04101F00041BDE80081C0
:1026900011EA0C1F0CEA131500D00CE013EA0C1F12
:1026A00000F025804FF00000F0BC81EA030101F04A
:1026B0000041BDE80081F0BCBDE8004181EA0301B2
:1026C00000F010BAF0BCBDE8004170B500F0BCF9F4
:1026D000097EFC3E00F007B881EA03014FF00000DC
:1026E00001F00041704781EA030100F0FBB9F0BC42
:1026F000BDE800414FF0000021497047FFFDFBF9A4
:10270000F7F5F4F2F0EEEDEBE9E8E6E4E3E1E0DE24
:10271000DDDBDAD8D7D5D4D3D1D0CFCDCCCBCAC896
:10272000C7C6C5C4C2C1C0BFBEBDBCBBBAB9B8B7BD
:10273000B6B5B4B3B2B1B0AFAEADACABAAA9A8A8B0
:10274000A7A6A5A4A3A3A2A1A09F9F9E9D9C9C9B7E
:102750009A99999897979695959493939291919029
:102760008F8F8E8E8D8C8C8B8B8A898988888787BA
:102770008685858484838382828181800000FF072F
:102780000000F87F51EA030C17D41CF5801F58BFD6
:10279000BCF5801F00F10680994218BF704708BF42
:1027A0009042704707D711F5801F58BF13F5801F5F
:1027B00019D499427047894270471CF5801F08D58B
:1027C000BCF5801FF7D58B4218BF704708BF824207
:1027D00070474FF4001C1CEB410F38BF1CEB430F3C
:1027E00001D28B42704770B500F02EF99224490057
:1027F0004FF000514FF08053FFF760BE4FEA115386
:10280000A3F58063D3F11E03A8BFD3F1200C08DB2E
:102810004FF0004242EAC12252EA505232FA03F02B
:10282000704709420BD4102BC4BF0020704703F53A
:10283000787CBCF1FF3F05D04FF0FF3070474FF080
:102840000000704770B500F0FFF800BF4992248087
:1028500000207047F0E7B0FA80F310FA03F10AD0D5
:10286000C3F11D0303F580634FEA41504FEA035261
:1028700002EBD12170474FF00000704751EA030C82
:1028800017D41CF5801F58BFBCF5801F00F10680CF
:10289000994218BF704708BF9042704707D711F59B
:1028A000801F58BF13F5801F19D499427047894281
:1028B00070471CF5801F08D5BCF5801FF7D58B42EB
:1028C00018BF704708BF824270474FF4001C1CEBD2
:1028D000410F38BF1CEB430F01D28B42704770B5DC
:1028E00000F0B2F8922449004FF000514FF08053AD
:1028F000FFF7E4BDDFF848C170B51CEA111E1EBF2A
:102900001CEA13159EEA0C0F95EA0C0F00F06F807D
:1029100081EA030423EA4C134EEAD47E21EA4C11E7
:1029200041F4801143F48013AE44A1FB024CA0FBA0
:102930000365AEF17F7E361955EB0C05A1FB034C08
:102940004CF10003A0FB021C16EB0C06654153F191
:102950000003094218BF46F0010613F4007F0BD1B3
:102960004FEA03314FEA0530340341EA155140EA9A
:1029700016506FF003020AE04FEAC3214FEAC52068
:10298000F40241EA555140EA56506FF0020202EB60
:102990002E4201EB025585EACE710AD05FEA440C63
:1029A00018BF24F0004450F1000041F1000120EA7A
:1029B000D47040F2FE7C624500D270BDA84214BFC4
:1029C0004FF080444FF04044002E08BF0024BEF179
:1029D000806FA8BFA1F1C041BDE8704080F2828045
:1029E0004FF0000001F1C04101F0004170479EEA44
:1029F0000C0F0CEA131518BF95EA0C0F06D04FF018
:102A0000000081EA030E0EF0004170BD00F01CF8DA
:102A10008900013E00F007B800F009B84FEA430C06
:102A20005FEA5C5C08D081EA030100F05BB84FEA22
:102A3000410C5FEA5C5CF6D14FF000000149704741
:102A40000000FF070000F87F0EF1020E2EF0030ECB
:102A50005EF8046B364205D4012A43EB030515F5F5
:102A6000001F12D8012841EB010C1CF5001F0CD8E7
:102A70000ED14FEAD17C15F5001F0CEB4C0C0CF17C
:102A8000020C08BF4CEBD37C04E04FF0080C01E0D3
:102A90004FEAD37C0CEB4C0526FA05F606F0070648
:102AA000B6F1040C06D20EEB860CBDE870404CF07B
:102AB000010C6047DFE80CF0090B02024FF0004107
:102AC0004FF00000A1F5002170BD19461046012805
:102AD00051EB010418BFD4F5001484BF002001F0AD
:102AE000004170BD0808A0F500114FEA31017047A0
:102AF00053EA010C17D41CF5801F58BFBCF5801F8A
:102B000000F106808B4218BF704708BF82427047B1
:102B100007D713F5801F58BF11F5801F19D48B42BA
:102B200070479B4270471CF5801F08D5BCF5801F7D
:102B3000F7D5994218BF704708BF904270474FF4CD
:102B4000001C1CEB430F38BF1CEB410F01D2994214
:102B500070470FB40CBC03BCFFF7C1BE5FEA410C69
:102B60005FEA5C5CACF580635B1C39D4D3F1340262
:102B700040F34580B2F1200314DA4FF0010C0CFA57
:102B800002FCACF101030340B3EB5C0220EA03005A
:102B900008BF10EA0C0F98BF704710EB0C0041F112
:102BA000000170470AD0C3F1200201FA02FC01289B
:102BB00021FA03F101FA03F14CF100004FF0010C8E
:102BC0000CFA03FCACF10103B0F1004F21EA030160
:102BD00008BF11EA0C0F4FF0000088BF6144704736
:102BE000B3F1FF3F28BF50EAC12C01F000414FF084
:102BF000000084BF41F07C5141F470017047B3F58F
:102C0000806FB8BF704770B5FFF71EFF40DBB6BEE0
:102C100091EA030F10B581F000413FF5AFAB83F0AF
:102C2000004300F009B8000010B591EA030F48BF57
:102C300083F000433FF5A2AB841A71EB030C07D27B
:102C400012198CF0004C43EB0C03001B61EB0C01E0
:102C5000DFF8A4E14FEA1154A4EB135C1EEA430F22
:102C600018BF9EEA445F00F0B08023EA6E03524230
:102C700021EA0451C3EB6E0338BF5B1EDCF1200E6A
:102C800025D322FA0CFE10EB0E0043FA0CFE41EBAA
:102C90000E01CCF1200E03FA0EFE10EB0E0051F1E6
:102CA0000001CCF1200E29D412FA0EF201EB0451EE
:102CB000BDE8104058BF7047401C1CBFB2F1004F28
:102CC000704700280CBF491C20F00100704712EB30
:102CD000020E43EB030218BF4FF0010E4EEA420210
:102CE000ACF1200CDCF11E0E54D943FA0CFE10EBB3
:102CF0000E0051F1FF31CCF11E0ED5D50EF1010EB3
:102D000012FA0EFE404141EB010101EB445C5FEA27
:102D10005C5C10D910EBDE7001EB045138BFBEF1E2
:102D2000004FBDE8104018BF704700280CBF491C79
:102D300020F00100704730D24FEAD42C11F5001179
:102D400024F400641BD0B1FA81F20B3AA41AA41E39
:102D5000D2F12003914030FA03F31943904001EB84
:102D6000CC71002C01EB0451BDE81040A8BF7047A6
:102D700001F1C0414FF0000001F000417047B0FA8E
:102D800080F310FA03F100D110BDE41A173C480596
:102D9000C90AE4E701EB045110BD491001EB0451ED
:102DA000BDE810404FEA300002E04FF000017047EC
:102DB0004A0008BF0042F8D0B2F5001F28BF704794
:102DC00001F000414FF0000070479EEA445F07D0D9
:102DD00011EA5E0FBDE8104004BF002100207047DB
:102DE000BDE8104070B5FFF72FFE00BF40DFF63E94
:102DF00083F00041104670470000E0FF4FF0407044
:102E0000E1EE100A704700000000000000407F4023
:102E10000000000000407F400000000000407FC034
:102E20000000000000407F4000000000000059400A
:102E3000030000000000000000000000000000404F
:102E40000100000000000000000000000000000081
:102E50000000000000000000000000000000000072
:102E60000020000000000000000000000088B340C7
:102E700064000000002000000100000000000000CD
:102E8000102840587088A0B8000000000404040016
:102E9000000800000008102840587088A0B81028CA
:102EA00040587088A0B80000C82E0008000000201C
:102EB00058000000D4010008202F0008580000200E
:102EC00008070100F0010008000002400000024075
:102ED0000000024004000000080000001000000094
:102EE00000000020000000000000000000000000C2
:102EF00000000000010000001000000000000000C1
:102F00000024F400000000000000000000000000A9
:102F100000000000000000000000000000000000B1
:040000050800019955
:00000001FF
