:020000040800F2
:1000000048470120390200087B1800083111000818
:10001000791800083F030008F921000800000000DB
:100020000000000000000000000000009919000816
:10003000E910000800000000AF180008D11A0008FD
:10004000530200085302000853020008530200083C
:10005000530200085302000853020008530200082C
:10006000530200085302000853020008530200081C
:10007000530200085302000853020008530200080C
:100080005302000853020008530200080000000059
:100090000000000000000000000000005302000803
:1000A00053020008530200085302000853020008DC
:1000B00053020008530200085302000853020008CC
:1000C00053020008530200085302000853020008BC
:1000D0005302000853020008530200080000000009
:1000E00053020008530200085302000800000000F9
:1000F00000000000000000000000000053020008A3
:1001000000000000530200085302000853020008D8
:1001100000000000000000000000000000000000DF
:10012000530200085302000831100008351000087F
:10013000691000080000000000000000000000003E
:100140000000000000000000000000005302000852
:1001500085100008530200085302000853020008EB
:1001600053020008530200080000000000000000D5
:10017000000000000000000000000000000000007F
:100180000000000053020008000000000000000012
:10019000530200085302000800F002F800F03CF897
:1001A0000AA090E8000C82448344AAF10107DA45D2
:1001B00001D100F031F8AFF2090EBAE80F0013F0E8
:1001C000010F18BFFB1A43F001031847AC2E0000C3
:1001D000CC2E0000103A24BF78C878C1FAD8520754
:1001E00024BF30C830C144BF04680C6070470000B1
:1001F0000023002400250026103A28BF78C1FBD830
:10020000520728BF30C148BF0B6070471FB502F0CE
:100210001BFF1FBD10B510BD00F05CF81146FFF7C5
:10022000F5FF02F01DF900F07AF803B4FFF7F2FFD2
:1002300003BC00F07DF800000948804709480047EA
:10024000FEE7FEE7FEE7FEE7FEE7FEE7FEE7FEE786
:10025000FEE7FEE704480549054A064B70470000E3
:10026000AD1B0008990100084841012048470120C2
:1002700048430120484301204FF0000200B51346D7
:1002800094469646203922BFA0E80C50A0E80C50B6
:10029000B1F12001BFF4F7AF090728BFA0E80C5067
:1002A00048BF0CC05DF804EB890028BF40F8042B60
:1002B00008BF704748BF20F8022B11F0804F18BFCD
:1002C00000F8012B7047704770477047004870472F
:1002D000E84001207546FFF7F9FFAE460500694684
:1002E000534620F00700854618B020B5FFF7B2FF4F
:1002F000BDE820404FF000064FF000074FF0000827
:100300004FF0000B21F00701AC46ACE8C009ACE8A7
:10031000C009ACE8C009ACE8C0098D46704710B50B
:100320000446AFF300802046BDE81040FFF77DBFD4
:1003300001491820ABBEFEE7260002007047FEE729
:100340004268006909B1906170470004FBE7826868
:10035000406909B1906170470004FBE72DE9FF5F38
:1003600015462DED0C0B0E462DED108BA2B0B0EE08
:1003700045CAF0EE65CAB0EE44AAF0EE64AAB0EE4B
:1003800042BAF0EE62BADDE94CBA3E98C0B15FEA1B
:100390000B0015D05FEA0A009FEDF88B10D053ECEC
:1003A000182B51EC1A0B02F08FFB09D953EC182BC8
:1003B00051EC1C0B02F088FB02D90EB1B54206D2FB
:1003C000002022B0BDEC108B10B0BDE8F09F3E982D
:1003D000EC49C06800EA0109EB4800219FEDE78B7A
:1003E000016080ED028B80ED048B80ED068B80ED4B
:1003F000088B80ED0A8B0122C0E90C218163C16367
:1004000080F840109DED320B51EC1B0B53EC102B80
:1004100002F030FDCDE9160141EC100B01F0A4FF14
:100420008DED180B53EC1A2B51EC100B02F048F920
:1004300041EC100B53EC1B2B8DED1A0B9DED380B83
:1004400051EC100B02F016FDCDE9140141EC100B3C
:1004500001F08AFFB0EE40DAF0EE60DA9FEDCB0BF0
:1004600051EC1D0B53EC102B02F06AFB53EC1A2BD2
:1004700002F026F99DED340B41EC1F0B53EC1B2BC6
:1004800051EC100B02F0F6FCCDE90E0141EC100B23
:1004900001F06AFF8DED0C0B53EC1A2B51EC100B95
:1004A00002F00EF941EC100B53EC1F2B8DED040BF9
:1004B0009DED1A0B51EC100B02F04EF89DED040B64
:1004C00053EC102B02F048F841EC190B9FEDB10BE7
:1004D0002C468DED1C0B2F4671E0384602F0E1FAF8
:1004E000804653EC192B089102F0EAF841EC1E0B00
:1004F00053EC1C2B02F022FC5BD3089953EC1E2B0F
:1005000041EC108B51EC100B02F0DAF853EC192B84
:1005100002F0D6F841EC100B51EC1F0B53EC102BF2
:1005200002F00EFB9FED9D1B53EC112B02F008FB1C
:1005300041EC100B51EC1D0B53EC102B02F0C0F8EA
:1005400053EC1A2B02F096FC41EC100B01F00CFF5F
:100550008DED080B53EC1A2B51EC100B02F0B0F898
:100560009FED901B53EC112B02F0EAFA41EC100BBB
:100570008DED200B9DED1C0B53EC102B9DED080B0E
:1005800051EC100B02F0A0FA13D29DED080B3C4683
:100590008DED1C0BB0EE4E8AF0EE6E8A9FED830B54
:1005A00053EC102B9DED200B51EC100B02F08CFA4C
:1005B00007D3A81B6421401CB0FBF1F03F1AB742DF
:1005C0008BD29FED6EEB51EC180B53EC1E2B02F00F
:1005D000CFF92CD1204602F064FA53EC192B02F02B
:1005E0006FF841EC180B53EC1C2B02F0A7FB12D256
:1005F000B0EE4C8AF0EE6C8A53EC192B51EC180BD0
:1006000002F09EFA41EC100B01F0BAFE51EC100B17
:1006100002F01AFA0446B44209D23446304602F0D7
:1006200040FA53EC192B02F04BF841EC180B204622
:1006300002F037FACDE9100153EC182B02F040F824
:1006400053EC192B02F03CF841EC190B9DED1A0B01
:1006500053EC192B51EC100B02F072FA41EC100B19
:1006600053EC192B8DED080B51EC1F0B02F068FABF
:100670009DED040B41EC1C0B53EC192B51EC100BB2
:1006800002F05EFA9DED080B41EC190B53EC102BB8
:1006900051EC180B02F054FA41EC100B01F070FE13
:1006A00051EC100B02F0D0F9804653EC1C2B51ECAE
:1006B000180B02F045FA41EC100B01F061FE51EC11
:1006C000100B02F0C1F9064653EC192B51EC180B34
:1006D00002F036FA41EC100B01F052FE51EC100B17
:1006E00002F0B2F9074608EB0601C819A04201D092
:1006F000201A0644B8F1000F0AD19DED180B53ECF7
:100700001E2B51EC100B02F019FB01D24FF0010827
:10071000022E07D253EC1E2B51EC1D0B02F00EFBE8
:1007200000D202264FB99DED0C0B53EC1E2B51EC61
:10073000100B02F003FB00D20127134800259FEDA8
:100740001D9BC0F83480C0E90E6728469FED1BCB87
:10075000079569E0B8F1010F34D9A8F1010002F062
:10076000A0F941EC1F0B079802F09BF953EC1F2BEB
:1007700001F0A6FF41EC110B28E000000000000092
:10078000000000000F00F0FFA0400120000000006A
:10079000000000400000000065CDCD4100000000D9
:1007A0000000E03F00000000000059400000000091
:1007B0000000F03F000000000000E04000000000EA
:1007C0000088B340B0EE4E1AF0EE6E1ADDE9160165
:1007D00053EC112B02F0B4F99DED321B53EC112BAD
:1007E00001F0BAFE53EC192B02F0AAF953EC1C2BC2
:1007F00001F066FF53EC192B01F0AEFE02F0F4F8A5
:10080000002801DA002004E0B0F5803F01DB4FF65C
:10081000FF7049EA0010020C2BF815202AF8150089
:100820000798401C6D1C0790404501D2A54291D30A
:1008300000204FEA5608079043E000BFB8F1010FCF
:100840000FD9A8F1010002F02CF941EC1F0B079819
:1008500002F027F953EC1F2B01F032FF41EC100B93
:1008600003E0B0EE4E0AF0EE6E0ADDE9140153EC3F
:10087000102B02F065F953EC1B2B01F06DFE53ECCD
:10088000192B02F05DF953EC1C2B01F019FF53EC0E
:10089000192B01F061FE02F0A7F8002801DA002010
:1008A00004E0B0F5803F01DB4FF6FF7049EA00102D
:1008B000020C2BF815202AF815000798401C6D1C17
:1008C0000790404501D2A542B8D3A6EB08004FF0EF
:1008D0000008059047E001290ED9481E02F0E1F812
:1008E00041EC1F0B404602F0DCF853EC1F2B01F0EB
:1008F000E7FE41EC1F0B03E0B0EE4EFAF0EE6EFAAD
:100900009DED380B51EC1B0B53EC102B02F0B2FA9F
:1009100053EC1F2B02F014F99DED381B53EC112BF7
:1009200001F01AFE53EC192B02F00AF953EC1C2BC0
:1009300001F0C6FE53EC192B01F00EFE02F054F844
:10094000002801DA002004E0B0F5803F01DB4FF61B
:10095000FF7049EA0010020C2BF815202AF8150048
:1009600008F101086D1C0599884501D2A542B2D352
:100970004FF000083FE0012F0ED9781E02F091F8E9
:1009800041EC1F0B404602F08CF853EC1F2B01F09A
:1009900097FE41EC110B03E0B0EE4E1AF0EE6E1A2A
:1009A000DDE90E0153EC112B02F0CAF853EC1B2BBE
:1009B00001F0D2FD53EC192B02F0C2F853EC1C2BC2
:1009C00001F07EFE53EC192B01F0C6FD02F00CF88D
:1009D000002801DA002004E0B0F5803F01DB4FF68B
:1009E000FF7049EA0010020C2BF815202AF81500B8
:1009F00008F101086D1CB84525D2A542BBD322E001
:100A00009DED340B53EC192B51EC100B02F098F8C0
:100A100053EC1C2B01F054FE53EC192B01F09CFD00
:100A200001F0E2FF002801DA002004E0B0F5803F89
:100A300001DB4FF6FF7049EA0010020C2BF815207D
:100A40002AF815006D1CA542DAD3284D53EC182B5B
:100A50002C6085ED028BDDE9100101F031FEC5E966
:100A60000401304602F01DF853EC182B01F028FE6B
:100A70001FEDB60B53EC102B02F062F841EC100B9B
:100A800051EC1D0B53EC102B01F01AFE41EC100B36
:100A900053EC1A2B85ED060B02F0ECF941EC100B30
:100AA00001F062FC85ED080B53EC1A2B51EC100B96
:100AB00001F006FE1FEDC51B53EC112B02F040F8B0
:100AC000C5E90A01012085F84000A0B241990090D3
:100AD000CDE90101B0EE480AF0EE680A53465A46E5
:100AE00002213E9800F044F96BE40000A040012090
:100AF00070B5234D6868234CC0F3401010B320201C
:100B0000E8606068F0B1206A401C2062206A616879
:100B1000884218D20421284600F072FB042128469E
:100B200000F096FB0028F9D1A2690421284600F0C4
:100B3000B7FBE2690421284600F09CFB042128460B
:100B400000F07CFB0BE0012084F82400207D0128CC
:100B500005D10320607000F02FFA01F007FA6868F1
:100B6000C0F3C000002809D00820E86004206070AD
:100B700000F022FABDE8704000F0E4BA70BD000059
:100B8000006402404040012070B5234D6868234C4A
:100B9000C0F3C02010B3E814E8606068F0B12069C9
:100BA000401C206120696168884218D205212846CE
:100BB00000F026FB0521284600F04AFB0028F9D169
:100BC000A2680521284600F06BFBE2680521284653
:100BD00000F050FB0521284600F030FB0BE001201F
:100BE000207594F82400012805D10320607000F0DE
:100BF000E3F901F0BBF96868C0F3402000280AD08F
:100C00004FF40070E8600420607000F0D5F9BDE892
:100C1000704000F097BA70BD00640240404001206F
:100C20008171C26822F4700242EA0151C1607047CA
:100C30004171C26822F0706242EA0161C16070478E
:100C40000181034BC2681A4042EA0111C16070473A
:100C50000F00F0FFF0B587B0044618216846FFF793
:100C60000BFB1348016841F0010101600068012598
:100C700000F001000690E06803278DE8A10000263F
:100C8000CDE903566946206800F058FB20690090C2
:100C90006946606800F052FB6069CDE90276CDE9F3
:100CA000000504966946A06800F048FB07B0F0BD57
:100CB0003038024010B504460068FFF7CBFF002132
:100CC0002068FFF744FB0021206800F032FA012180
:100CD0002068FFF735FB00F0EBFD0021204600F017
:100CE0001DF803212046FFF7A3FF0F212046FFF741
:100CF00097FF47F6FF712046FFF7A2FF002120462D
:100D000000F005F82046BDE8104000F00FB88172F1
:100D1000C26822F00F020A43C26070470171C268C4
:100D200022F0704242EA0171C160704770B504461A
:100D300000680021FFF70BFBE168080C8DB2012170
:100D400000F0FAFD0121284600F0F6FD2068BDE81C
:100D500070400121FFF7FBBA10B5FFF7ABFF00F0C1
:100D60005DFD00F039FFBDE8104001F08FB80000D4
:100D70002DE9FF5F2DED020B2DED048B88B0B0EE59
:100D8000408ADDE91D571098F0EE608A00287DD07A
:100D9000119800287AD01C98002877D0002D75D0A3
:100DA0007C4EB068C0F340000028FAD0B068C0F3B1
:100DB000C0100028FAD1784C0521204600F020FA16
:100DC0000421204600F01CFA0521204600F040FADC
:100DD0000028F9D10421204600F03AFA0028F9D180
:100DE0004FF40070E0608000E0604FF48079C4F858
:100DF0000C904020E0600001E0600820E0602020CE
:100E0000E0600420E0600120E0601020E060DFF896
:100E10008C816FF0010AC8F810A06FF0100BC8F8B1
:100E200010B000F03DF9CDE900570DF13C0C1C9AD3
:100E30009CE80B0000F040F94FB30022052120464A
:100E400000F054FA05212046109A00F029FA0521F5
:100E500020461C9A00F00EFA00220421204600F0E1
:100E600045FA04212046119A00F01AFA2A46042174
:100E7000204600F0FFF90521204600F0CBF90521BE
:100E8000204600F0D1F90421204601E015E01BE0E6
:100E900000F0C0F90421204600F0C6F9442001F01A
:100EA000B9F93C2001F0B6F93D4802A9B0EE480A74
:100EB000F0EE680A01F0CAF830B3002008B0BDECCB
:100EC000048B06B0BDE8F09F4F464A4605212046F8
:100ED00000F00CFA05212046109A00F0E1F90521F6
:100EE00020461C9A00F0C6F93A460421204600F03C
:100EF000FDF904212046119A00F0D2F92A46042176
:100F0000204600F0B7F9CFE79FED268B9FED279B9A
:100F100002A9B0EE481AF0EE681AB0EE490AF0EEF7
:100F2000690A4546404601F031F8B0EE481AF0EE45
:100F3000681AB0EE490AF0EE690A02A800F02DFD29
:100F4000706840F002007060E86840F48070E8600B
:100F5000E86840F48050E8600521204600F06EF912
:100F60000421204600F06AF9C5F810A0C5F810B0B9
:100F70001048416941F001014161686940F0010098
:100F8000686100F0EBFF286840F001002860012054
:100F900094E700000030014000640240000001407E
:100FA00000E1F5050000000084D787410000000043
:100FB00084D797410004004070B5194C206820F098
:100FC00001002060174D0521284600F019F9042181
:100FD000284600F015F91448416821F002014160EB
:100FE000E06820F48070E060E06820F48050E06009
:100FF000002161620D48017580F824100521284602
:1010000000F0EAF80421284600F0E6F80521284619
:1010100000F0ECF82846BDE87040042100F0E6B886
:1010200000000140006402400030014040400120C7
:101030007047000009480168C1F3C06100290CD065
:101040004FF000618160064A012111700549CA789C
:101050008258C97822F01002425070470064024062
:10106000280000205230000805480078012803D0ED
:10107000022803D1FFF73CBD00F092BC704700008E
:101080004040012005480078012803D0022803D100
:10109000FFF77ABD00F0D0BC70470000404001204F
:1010A00010B52C210348FFF7E7F802480021017032
:1010B000417010BD4040012070B50A4CDDE9045676
:1010C0002070A160E260002020612075A361E561CD
:1010D000206284F82400666084F828000120607093
:1010E00070BD0000404001207047000000B587B08F
:1010F00018216846FFF7C0F8042000F033F80848CC
:101100004FF400510A048261009101210022CDE9CF
:101110000112CDE90321694600F010F907B000BDC6
:101120000008024001488068704700002C00002041
:10113000FEE70268C06809B1906170470004FBE7F0
:10114000FFF7D4BF02494FF000508861704700009C
:101150000008024002494FF40050886170470000C7
:1011600000080240044908B50A6802430A60096899
:101170000140009108BD000030380240044908B524
:101180000A6802430A6009680140009108BD000036
:1011900030380240044908B50A6802430A60096809
:1011A0000140009108BD000030380240044908B5F4
:1011B0000A6802430A6009680140009108BD000006
:1011C00044380240034A1430515C0A5822F00402A9
:1011D0000A50704768300008034A515C425822F0B8
:1011E000100242507047000070300008034A515C02
:1011F000425822F00402425070470000703000084C
:10120000034A515C425822F00102425070470000EC
:1012100070300008034A515C425842F010024250BC
:101220007047000070300008034A515C425842F099
:10123000040242507047000070300008034A515CBD
:10124000425842F0010242507047000070300008DE
:10125000024A515C405800F00100704770300008AD
:10126000034B595C435823F060631343435070476A
:1012700068300008044B001D595C0B586FF30F03D6
:1012800013430B507047000070300008034B595C4B
:10129000435823F0C003134343507047683000089D
:1012A000024B0C30595C0A50704700007030000847
:1012B000034B595C435823F48063134343507047F6
:1012C00068300008034B595C435823F4C043134370
:1012D0004350704768300008034B595C435823F46F
:1012E000907313434350704768300008034B595CB8
:1012F000435823F4907313434350704770300008F1
:10130000034B595C435823F4007313434350704715
:1013100068300008034B595C435823F4C05313430F
:101320004350704768300008034B595C435823F41E
:10133000403313434350704768300008F0B50A68E3
:101340000F2692FAA2F2B2FA82F303248AE001276E
:101350009F4015EA07027DD04D68012D01D0022D76
:101360001BD18D68876892FAA2FCBCFA8CFC4FEA0C
:101370004C0C04FA0CFC27EA0C0792FAA2FCBCFA0B
:101380008CFC4FEA4C0C05FA0CF52F438760CD68B6
:101390004768554397432F4347600F69D0F80CC007
:1013A00092FAA2F5B5FA85F54FEA450E04FA0EF564
:1013B0002CEA050C92FAA2F5B5FA85F56D00AF405E
:1013C0004CEA070CC0F80CC04D68022D33D192FADC
:1013D000A2F5B5FA85F5082D15D2D1F814C0056A25
:1013E00092FAA2F7B7FA87F7BF0006FA07F7BD43EC
:1013F00092FAA2F7B7FA87F7BF000CFA07FC45EAA2
:101400000C05056217E0D1F814E0476A150A95FA51
:10141000A5FCBCFA8CFC4FEA8C0C06FA0CFC95FA85
:10142000A5F5B5FA85F5AD0027EA0C070EFA05FE1D
:1014300047EA0E0747624D68076892FAA2FCBCFAB9
:101440008CFC4FEA4C0C04FA0CFE27EA0E0792FAC9
:10145000A2F200E005E0B2FA82F2520095402F437A
:1014600007605B1C0A681546DA407FF470AF002005
:10147000F0BD4FF47A71B0FBF1F14FF0E020491E5E
:1014800041610021816105210161704710B5036848
:101490000122C3F380132BBBD1E900231A43D1E906
:1014A000023423431A430B691A434B691A438B696D
:1014B0001A43CB691A430B6A1A4303684FF6BF7489
:1014C000A3431A43026042684B6922F0040242EAD5
:1014D000134242600A6AB2F5005F02D1898C89B278
:1014E00001610022C16921F40061C161104610BD93
:1014F0000149086070470000380000200A7B8B68B3
:101500001A434B6822F480621A430B6822F400628B
:101510001A43CB8922F480521A430B6922F40052F9
:101520001A43496922F480420A434264002070470A
:10153000F0B502681D4B1E4C9F031E4D1E4E984277
:1015400007D0B84205D0A04203D0A84201D0B04293
:1015500005D1D1F804C022F0700242EA0C02984290
:1015600010D0B8420ED0A0420CD0A8420AD0B0424F
:1015700008D0124CA04205D0114CA04202D0114C10
:10158000A04203D1CC6822F44072224302608A68F0
:10159000C2620A888262984201D109690163416985
:1015A00041F0010141610020F0BD00000000014058
:1015B0000004004000080040000C004000400140D2
:1015C0000044014000480140012919D0042919D0E4
:1015D000102919D0402919D0B1F5807F18D0B1F564
:1015E000806F17D006210C4A1830525C10440268F4
:1015F000094BDB1D5B5C042199408A430260704704
:101600000021F0E70121EEE70221ECE70321EAE700
:101610000421E8E70521E6E75A300008012919D03E
:10162000042919D0102919D0402919D0B1F5807F8B
:1016300018D0B1F5806F17D006210C4A1830525CD3
:1016400010440268094BDB1D5B5C082199400A438A
:10165000026070470021F0E70121EEE70221ECE78C
:101660000321EAE70421E8E70521E6E75A3000080C
:10167000F0B501250023604C012908D0102933D092
:10168000B1F5807F64D0B1F5805F5FD190E0016AF1
:1016900021F001010162016A45688669176826F038
:1016A00073063E43176921F002013943576821F060
:1016B00001013943A04212D1546921F0080141EAE5
:1016C0008401946821F0040141EA840125F48074C6
:1016D00095692C43D56924F4007444EA45054560B6
:1016E0008661D26842632FE0016A21F01001016235
:1016F000016A45688669176826F4E64646EA0726C1
:10170000176921F0200141EA0711576821F0100103
:1017100041EA0711A04213D1546921F0800141EA46
:101720008411946821F0400141EA841125F4806419
:10173000956944EA8504D56924F4006444EAC50542
:1017400045608661D268826301621D462846F0BD0D
:10175000016A21F480710162016A4568C6691768EF
:1017600026F073063E43176921F4007141EA072110
:10177000576821F4807141EA0721A04213D15469CE
:1017800021F4006141EA8421946821F4806141EAF6
:10179000842125F48054956944EA0514D56924F41C
:1017A000005444EA45154560C661D268C263CBE780
:1017B000016A21F480510162056A4168C6691768AF
:1017C00026F4E64646EA0726176925F4005545EA59
:1017D0000735576825F4805545EA0735A04204D1FE
:1017E000946921F4804141EA84114160C661D16865
:1017F00001640562A9E700000000014008B54FF050
:10180000E0210A690092421C00D0401C0A69D20300
:1018100000D5401E0028F9D108BD000038B5144895
:10182000016841F4800101600068124C00F48000FE
:10183000009020680022C0F30220114600F01EF83C
:101840000146442000F0F3FC442000F0D6FC206860
:101850000022C0F30220114600F010F801463C209F
:1018600000F0E5FCBDE838403C2000F0C6BC0000BC
:10187000303802400CED00E0FEE7FEE730B500F046
:101880000703C3F10704042C00D90424181D0728FA
:1018900001D2002300E0DB1E012505FA04F0401E02
:1018A000084098409D406D1E1540284330BD70474C
:1018B00010B590B028216846FEF7DEFC18210AA872
:1018C000FEF7DAFC4FF48050FFF770FC0120FFF7C1
:1018D00055FCA0200A9002200B9003200024CDE9A3
:1018E0000C040520CDE90E400AA91148FFF726FD9A
:1018F0004FF48270CDE900404FF40060CDE902045E
:101900008010CDE904400A20CDE9084006940794F0
:10191000084C69462046FFF7B9FD606820F01000CA
:101920006060206840F04000206010B010BD0000F2
:1019300000000240003001402DE9F0410E4607460C
:10194000FFF7F0FB0446134D05E000BFFFF7EAFB8D
:10195000001BB0421CD2A868C0F340000028F5D09C
:10196000EF6004E0FFF7DEFB001BB04210D2A86876
:10197000C0F340000028F5D005E000BFFFF7D2FB20
:10198000001BB04204D2A868C0F3C0100028F5D1F3
:10199000BDE8F08100300140704700F017BA000048
:1019A00070B5234D6868234CC0F3401010B320205D
:1019B000E8606068F0B1206A401C2062206A6168BB
:1019C000884218D204212846FFF71AFC0421284631
:1019D000FFF73EFC0028F9D1A26904212846FFF751
:1019E0005FFCE26904212846FFF744FC04212846F5
:1019F000FFF724FC0BE0012084F82400207D01285F
:101A000005D103206070FFF7D7FA00F0AFFA6868DD
:101A1000C0F3C000002809D00820E86004206070EE
:101A2000FFF7CAFABDE87040FFF78CBB70BD00003D
:101A3000006402404040012070B5234D6868234C8B
:101A4000C0F3C02010B3E814E8606068F0B120690A
:101A5000401C206120696168884218D2052128460F
:101A6000FFF7CEFB05212846FFF7F2FB0028F9D14E
:101A7000A26805212846FFF713FCE26805212846E5
:101A8000FFF7F8FB05212846FFF7D8FB0BE0012004
:101A9000207594F82400012805D103206070FFF719
:101AA0008BFA00F063FA6868C0F3402000280AD07F
:101AB0004FF40070E86004206070FFF77DFABDE825
:101AC0007040FFF73FBB70BD006402404040012002
:101AD0007047000070B52F48016821F0070141F000
:101AE00003010160016801F007010329FAD12A49C5
:101AF000086840F4404008602848026842F4803298
:101B000002600268C2F34042002AFAD0234A244B02
:101B1000121D1468234D2C4023431360136823F4D3
:101B200040331360026842F0807202600268C2F3C0
:101B30004062002AFAD04868C0F380300028FAD00A
:101B400016480830016821F0F0010160016821F4B5
:101B5000E05141F480510160016821F4604101606D
:101B6000016821F0030141F002010160016801F008
:101B70000C010829FAD10C4C2046FFF77AFC2046CC
:101B8000FFF7B6FC05488C30016821F080710160D8
:101B900070BD0000003C0240007000400038024070
:101BA0000C1840000080BFFF00E1F5050248016805
:101BB00041F470010160704788ED00E000B587B026
:101BC00018216846FEF758FB8020FFF7CBFA01206A
:101BD000FFF7C8FA07B000BD2DE9F04F9BB0142104
:101BE00014A8FEF749FB20216846FEF745FB1821A3
:101BF00008A8FEF741FB18210EA8FEF73DFB6D4833
:101C0000016841F0010101600068DFF8ACA100F05B
:101C100001004FF0406919904A4605215046FFF7F0
:101C20001FFB402205215046FFF730FB4FF44032A6
:101C300005215046FFF778FB002205215046FFF7AB
:101C40004BFB002205215046FFF75AFB4FF4806BF7
:101C50005A4605215046FFF72BFB4FF400663246EB
:101C600005215046FFF756FB4FF400584246052128
:101C70005046FFF727FB05215046FFF7A3FA504DCA
:101C80004D4F4E4C68790837C4514A46042150469E
:101C9000FFF7E6FA402204215046FFF7F7FAB201B7
:101CA00004215046FFF740FB002204215046FFF775
:101CB00013FB002204215046FFF722FB5A46042161
:101CC0005046FFF7F5FA324604215046FFF722FB53
:101CD000424604215046FFF7F5FA04215046FFF72B
:101CE00071FA2879C4510024ADF850404FF6FF70C6
:101CF000CDE91540334D179414A928461894FFF7E1
:101D000017FC286820F080002860A86844F20701CA
:101D10008843A8603020CDE9000447F6FF70CDE984
:101D20000240AF14049406946A4639462846079444
:101D3000FFF79EFC39462846FFF746FC686820F00E
:101D400070006860A86820F08000A8600894CDE961
:101D50000C848DF82C4009940A94ADF82E4008A903
:101D60002846FFF7CBFB0120FFF714FA02200E965E
:101D7000CDE90F040120CDE912400EA911941248BB
:101D8000FFF7DCFA39462846FFF748FCE86840F4DC
:101D90008070E860E86840F48050E860286A40F4A9
:101DA00080502862686C40F4004068641BB0BDE855
:101DB000F08F000044380240006402400C300140C3
:101DC00068300008000001400000024070B50400C7
:101DD0002DED068BB0EE418AF0EE618AB0EE409AAE
:101DE0009FED25ABF0EE609A42D053EC1A2B51ECEC
:101DF000180B00F069FE3BD953EC1A2B51EC190B70
:101E000000F062FE34D91E4D286820F001002860E1
:101E10002068A8626068E8622068401C00F041FE0B
:101E200041EC100B51EC190B53EC102B00F048FC5B
:101E30009FED141B53EC112B00F082FE53EC182B7A
:101E400000F03EFC41EC100B00F002FA51EC100BDC
:101E500000F0FAFD6168814201D2491C480800B9CE
:101E60000120E863286A40F48070286200206862DC
:101E7000BDEC068B70BD00000000000000000000FB
:101E80000004004000000000000045402DE9F04142
:101E900094B014210EA8FEF7EFF920216846FEF752
:101EA000EBF9182108A8FEF7E7F92948016841F085
:101EB000020101600068002500F002001390ADF8F7
:101EC00038504FF6FF70CDE90F50224C0EA9204636
:101ED0001195FFF72DFB206820F0800020604FF463
:101EE000807841462046FFF799FB60200127CDE925
:101EF000000747F6FF70CDE9025002266A464146C8
:101F0000CDF8188004962046FFF7B2FB41462046E4
:101F1000FFF75AFB606820F0700040F0200060601E
:101F2000A06820F08000A0600220FFF733F9CDE91F
:101F30000876CDE90A65CDE90C7608A90648FFF7D1
:101F4000FDF9206A40F48070206214B0BDE8F08191
:101F5000403802400004004000040240024801688A
:101F600041F001010160704700040040054801682C
:101F700021F00101016000214162034901208861D3
:101F800070470000000400400004024030B50D001E
:101F90002DED068B81B0B0EE418AF0EE618A9FEDA7
:101FA00027ABB0EE409AF0EE609A044642D053EC74
:101FB0001A2B51EC180B00F087FD3BD953EC1A2B70
:101FC00051EC190B00F080FD34D9206820F001009D
:101FD00020602868A0626868E0622868401C00F001
:101FE00060FD41EC100B51EC190B53EC102B00F081
:101FF00067FB9FED141B53EC112B00F0A1FD53EC7C
:10200000182B00F05DFB41EC100B00F021F951ECB6
:10201000100B00F019FD6968814201D2491C480883
:1020200000B9012000902064206A40F480502062B2
:102030000020606201B0BDEC068B30BD00000000E6
:102040000000000000000000008030402DE9F05F3B
:102050000C002DED0A8BB0EE40AAF0EE60AA064609
:102060009FED5BCBB0EE4C8AF0EE6C8A9FED5A9BF5
:102070007BD053EC192B51EC1A0B00F025FD74D9D1
:102080009FED570B002084ED040B20606060054637
:1020900084ED029B304600F004FD894680464FF4F3
:1020A0008036681C00F0FDFC41EC110B49EC108BF4
:1020B00053EC112B51EC100B00F002FB41EC190B0F
:1020C00053EC1A2B00F0FCFA41EC100B00F058F91D
:1020D00051EC100B00F0B8FC002866D0B04264D878
:1020E000471E00F0DEFC41EC100B51EC190B53ECD9
:1020F000102B00F0E5FA41EC1B0B53EC1A2B00F00F
:10210000B9FE41EC100B00F02FF9B0EE409AF0EE62
:10211000609AB0EE4B0AF0EE6B0A00F031F951EC28
:10212000100B00F091FC8346B0EE490AF0EE690A0C
:1021300000F026F951EC100B00F086FC824653ECBF
:10214000182B51EC190B00F0BFFC1ED2B0EE498ADF
:10215000F0EE698A504600F0A4FCC4E90401C4E929
:102160000057584600F09DFC00E029E09FED1E0B53
:10217000C4E9020153EC102B51EC1A0B00F0E0FC07
:1021800053EC192B00F0DAFD13D351EC1A0B9FED31
:10219000180B53EC102B00F0D3FC53EC192B00F070
:1021A000CDFD02D8B5F57A7F03D36D1CB542FFF49F
:1021B00078AF53EC1C2B51EC180B00F0D9FB04D179
:1021C0000120BDEC0A8BBDE8F09F0020F9E700007C
:1021D000FFFFFFFFFFFFEF7F000000000000000097
:1021E0000000E0FFFFFFEF4195D626E80B2E113EE1
:1021F0008DEDB5A0F7C6B03EFEE7002809DB00F084
:102200001F02012191404009800000F1E020C0F848
:1022100000117047002809DB00F01F0201219140E6
:102220004009800000F1E020C0F800117047090764
:10223000090E002804DB00F1E02080F8001470474C
:1022400000F00F0000F1E02080F8141D704700003E
:102250002DE9F0412DED020B9FED3D0B2DED028B95
:102260009FED3D8BDDE90254C4F30A50A0F2FF3626
:10227000142E37DA002E18DA53EC102B9DED020BDA
:1022800051EC100B00F068F953EC182B00F056FDE0
:1022900057D2002CBCBF4FF00044002551DB54EA5C
:1022A000050018BF2E4C1BD14BE02E4820FA06F734
:1022B00004EA070028431FD053EC102B9DED020BBE
:1022C00051EC100B00F048F953EC182B00F036FDE0
:1022D00037D2002C03DD4FF48010F0400444BC439F
:1022E00000252EE0332E07DCA6F114004FF0FF315D
:1022F00021FA00F73D4206D19DED020BBDEC028BA9
:1023000002B0BDE8F08153EC102B9DED020B51ECB7
:10231000100B00F0A3FD53EC182B00F00FFD10D2B2
:10232000002C0DDD142E08BF641C09D0C6F134004A
:10233000012101FA00F02844A84238BF641C054678
:10234000BD43CDE902549DED020BD7E7000000002C
:102350009C7500883CE4377E00000000000000000F
:102360000000F03FFFFF0F002DED020B019820F061
:10237000004001909DED000B02B07047000000008E
:1023800010B52DED020B2DED088B84B09DED0C0BDF
:1023900051EC100B00F008FD41EC180B9DED0C0BFF
:1023A00053EC182B51EC100B00F064FD41EC190BB1
:1023B0000D989FED290B10F0004F53EC102B51ECB2
:1023C000190B9FED21AB9FED22BB0ED000F07CFBE3
:1023D0000ED953EC1B2B51EC190B00F0AFFC1CD2A7
:1023E00014E000BF41EC180B17E000F06DFB06D2C3
:1023F00053EC1A2B51EC180B00F03CFDF2E753ECB8
:102400001B2B51EC190B00F099FC06D853EC1A2B3E
:1024100051EC180B00F0A0F8E4E78DED028B9DED78
:102420000C0B18EE901A10EE900A8DED000B61F374
:102430001E0003909DED020B04B0BDEC088B02B0B2
:1024400010BD000000000000000000000000F03F90
:10245000000000000000E03F000000000000E0BFBE
:102460001CB52F48016841F480410160006800F408
:10247000804000902A48001F016841F080510160AF
:10248000006800F080500090264801684FF6FF0277
:102490001140254A41F44071114301600068C0F3C6
:1024A0000220C0F10702042A00D90422011D0729D5
:1024B00001D2002000E0C01E01219140491E814050
:1024C00008011A4981F8140DFFF704FBFFF776FBAA
:1024D000FEF736FEFEF73EFE1548FEF73DFC9FED8B
:1024E0001A0B14490023A1F52040CDE900014FF457
:1024F000A04264219FED105B9FED114BB0EE403A7E
:10250000F0EE603A9FED122BB0EE401AF0EE601A3A
:102510000748FDF723FF6420FFF770F9FBE7000091
:10252000443802400CED00E00000FA050FE000E046
:10253000180000203CA000200000000080842E41F4
:1025400000000000000059400000000000407F40F3
:102550000000000000407FC010B591EA030F48BFA3
:1025600083F0004300F18E84841A71EB030C05D2D2
:10257000121943EB0C03001B61EB0C01DFF824E1A3
:102580004FEA1154A4EB135C1EEA430F18BF9EEAF6
:10259000445F73D023EA0E03DCF1200E21EA0451DC
:1025A00043F4801332D322FA0CFE10EB0E0023FA10
:1025B0000CFE41EB0E01CCF1200E03FA0EFE10EBE7
:1025C0000E0051F10001B1F5801FCCF1200E32D286
:1025D00001EB045112FA0EF2BDE8104058BF7047EB
:1025E000401C38BF5FEA420218BF7047002814BF82
:1025F00020F0010041F100014FEA410313F5001FF3
:1026000038BF7047A1F1C04100F092BB012A43EBF3
:102610000302ACF1200CDCF11F0E32BF4FF0000EB4
:1026200023FA0CF310EB030041EB0451B4EB115F00
:10263000D0D0A1EB045101F5801149085FEA3000C8
:1026400001EB04510ED350F1000038BF12FA0EFE18
:1026500008D1BDE81040C9E7401C38BF5FEA42021C
:10266000CAD1C3E7BDE810404FEA410313F5001F8C
:1026700038BF7047A1F1C04100F05ABB9EEA445FE9
:1026800008D011EA5E0FBDE8104004BF01F0004120
:1026900000207047BDE8104070B500F0FBFA00BFA5
:1026A00064FBBE3E0000E0FF491058BFC1F140414D
:1026B0005B1058BFC3F140438B42EFF3008070477B
:1026C0002DE9C04130B4DFF8A0C23CEA111418BFB4
:1026D0003CEA131400F0EC8081EA03051CEA1114B3
:1026E00044EAD57418BF1CEA131500F0C780A4EBA8
:1026F00005044FF0004545EAC12145EAC32341EAFC
:10270000505143EA525304F17F74994204F5003466
:102710004FEAC0204FEAC22208BF904200F09C80DE
:102720004FEA13650FF24016765D4FEA134506FB3C
:1027300005F7C7F1807706FB07F74FEAD737A7FB06
:1027400003687642C8F58038A7FB06CE38BFA8F1EB
:10275000010807FB08E64FF0000EA6FB028CE6FB23
:1027600003CEDCF1000CCEF1004E38BFAEF1010E0D
:10277000A6FB0C584FF000074FF00005E6FB0E8754
:10278000A1FB08C6A0FB07CE16EB0E0645F100051F
:10279000E1FB076515F1E04E7EBFA4F580345FEAEA
:1027A00046066D4116F1800745F100054FEA1727EF
:1027B0004FEA066647EA0567A6F1DE46B6F1805F96
:1027C0004FEA15251FD9384624F0010C05EBC471DA
:1027D000BCF1FE6F01EB0C1102D8F0BCBDE800812A
:1027E00024425CBF01F5801E9EEAC47F02D4F0BC87
:1027F000BDE80081244238D4F0BCA1F1C041BDE85D
:10280000004100F095BA4FEAD22242EA43524FEA21
:10281000D323A7FB02864FEAD02040EA415007FBB2
:1028200003661EEA0E0F4FEAD12105FB026658BF70
:10283000A6EB0056B6EB00564FEA520E4EEAC37EA8
:1028400018EB0E0E56EB530EBDD518EB02085E4189
:102850007F1C55F10005B6E74FF480154FF00007D7
:102860004FF000064FF00008ADE7F0BC4FF000005D
:1028700001F1C04101F00041BDE8008111EA0C1FE7
:102880000CEA131500D00CE013EA0C1F00F02580B1
:102890004FF00000F0BC81EA030101F00041BDE807
:1028A0000081F0BCBDE8004181EA030100F040BABC
:1028B000F0BCBDE8004170B500F0ECF9097EFC3ECB
:1028C00000F007B881EA03014FF0000001F0004179
:1028D000704781EA030100F02BBAF0BCBDE800416B
:1028E0004FF0000021497047FFFDFBF9F7F5F4F2C6
:1028F000F0EEEDEBE9E8E6E4E3E1E0DEDDDBDAD89B
:10290000D7D5D4D3D1D0CFCDCCCBCAC8C7C6C5C4F8
:10291000C2C1C0BFBEBDBCBBBAB9B8B7B6B5B4B30F
:10292000B2B1B0AFAEADACABAAA9A8A8A7A6A5A4FA
:10293000A3A3A2A1A09F9F9E9D9C9C9B9A999998BE
:102940009797969595949393929191908F8F8E8E61
:102950008D8C8C8B8B8A89898888878786858584EE
:1029600084838382828181800000FF070000F87FDA
:1029700051EA030C17D41CF5801F58BFBCF5801F0B
:1029800000F10680994218BF704708BF9042704717
:1029900007D711F5801F58BF13F5801F19D499422E
:1029A0007047894270471CF5801F08D5BCF5801F11
:1029B000F7D58B4218BF704708BF824270474FF46B
:1029C000001C1CEB410F38BF1CEB430F01D28B42A4
:1029D000704770B500F05EF9922449004FF0005145
:1029E0004FF08053FFF760BE4FEA41034FEA535365
:1029F000A3F58063D3F11E03C8BFD3F1210C0CDD16
:102A00004FF0004242EAC12242EA505232FA03FC3D
:102A10008CEAE17CACEBE1707047102BC4BF002066
:102A2000704703F5787CBCF1FF3F04D06FF00042A3
:102A300082EA2100704770B500F02CF94992248099
:102A400000207047F2E700004FEA1153A3F58063BE
:102A5000D3F11E03A8BFD3F1200C08DB4FF00042D6
:102A600042EAC12252EA505232FA03F07047094258
:102A70000BD4102BC4BF0020704703F5787CBCF149
:102A8000FF3F05D04FF0FF3070474FF00000704718
:102A900070B500F0FFF800BF499224800020704715
:102AA000F0E7B0FA80F310FA03F10AD0C3F11D0386
:102AB00003F580634FEA41504FEA035202EBD12104
:102AC00070474FF00000704751EA030C17D41CF513
:102AD000801F58BFBCF5801F00F10680994218BFC7
:102AE000704708BF9042704707D711F5801F58BF45
:102AF00013F5801F19D499427047894270471CF51D
:102B0000801F08D5BCF5801FF7D58B4218BF7047D2
:102B100008BF824270474FF4001C1CEB410F38BFC6
:102B20001CEB430F01D28B42704770B500F0B2F836
:102B3000922449004FF000514FF08053FFF7B4BD8D
:102B4000DFF848C170B51CEA111E1EBF1CEA131540
:102B50009EEA0C0F95EA0C0F00F06F8081EA0304E7
:102B600023EA4C134EEAD47E21EA4C1141F4801141
:102B700043F48013AE44A1FB024CA0FB0365AEF10D
:102B80007F7E361955EB0C05A1FB034C4CF100037D
:102B9000A0FB021C16EB0C06654153F10003094231
:102BA00018BF46F0010613F4007F0BD14FEA033142
:102BB0004FEA0530340341EA155140EA16506FF0F0
:102BC00003020AE04FEAC3214FEAC520F40241EABA
:102BD000555140EA56506FF0020202EB2E4201EBD3
:102BE000025585EACE710AD05FEA440C18BF24F082
:102BF000004450F1000041F1000120EAD47040F29D
:102C0000FE7C624500D270BDA84214BF4FF08044E4
:102C10004FF04044002E08BF0024BEF1806FA8BFD3
:102C2000A1F1C041BDE8704080F282804FF0000009
:102C300001F1C04101F0004170479EEA0C0F0CEA1F
:102C4000131518BF95EA0C0F06D04FF0000081EA6B
:102C5000030E0EF0004170BD00F01CF88900013E2B
:102C600000F007B800F009B84FEA430C5FEA5C5C7B
:102C700008D081EA030100F05BB84FEA410C5FEA3B
:102C80005C5CF6D14FF00000014970470000FF077F
:102C90000000F87F0EF1020E2EF0030E5EF8046BBA
:102CA000364205D4012A43EB030515F5001F12D85F
:102CB000012841EB010C1CF5001F0CD80ED14FEA86
:102CC000D17C15F5001F0CEB4C0C0CF1020C08BF6D
:102CD0004CEBD37C04E04FF0080C01E04FEAD37CCE
:102CE0000CEB4C0526FA05F606F00706B6F1040CC7
:102CF00006D20EEB860CBDE870404CF0010C60472C
:102D0000DFE80CF0090B02024FF000414FF0000029
:102D1000A1F5002170BD19461046012851EB0104B0
:102D200018BFD4F5001484BF002001F0004170BD2D
:102D30000808A0F500114FEA3101704753EA010C71
:102D400017D41CF5801F58BFBCF5801F00F106800A
:102D50008B4218BF704708BF8242704707D713F5F0
:102D6000801F58BF11F5801F19D48B4270479B42BA
:102D700070471CF5801F08D5BCF5801FF7D5994218
:102D800018BF704708BF904270474FF4001C1CEBFF
:102D9000430F38BF1CEB410F01D2994270470FB46B
:102DA0000CBC03BCFFF7C1BE5FEA410C5FEA5C5C90
:102DB000ACF580635B1C39D4D3F1340240F3458019
:102DC000B2F1200314DA4FF0010C0CFA02FCACF162
:102DD00001030340B3EB5C0220EA030008BF10EAE2
:102DE0000C0F98BF704710EB0C0041F100017047C9
:102DF0000AD0C3F1200201FA02FC012821FA03F1F2
:102E000001FA03F14CF100004FF0010C0CFA03FC45
:102E1000ACF10103B0F1004F21EA030108BF11EA50
:102E20000C0F4FF0000088BF61447047B3F1FF3FC3
:102E300028BF50EAC12C01F000414FF0000084BFD0
:102E400041F07C5141F470017047B3F5806FB8BF19
:102E5000704770B5FFF71EFF40DBB6BE91EA030F67
:102E600010B581F000413FF57FAB83F0004300F0E7
:102E700009B8000010B591EA030F48BF83F0004382
:102E80003FF572AB841A71EB030C07D212198CF068
:102E9000004C43EB0C03001B61EB0C01DFF8A4E1D9
:102EA0004FEA1154A4EB135C1EEA430F18BF9EEACD
:102EB000445F00F0B08023EA6E03524221EA0451DD
:102EC000C3EB6E0338BF5B1EDCF1200E25D322FA64
:102ED0000CFE10EB0E0043FA0CFE41EB0E01CCF1A0
:102EE000200E03FA0EFE10EB0E0051F10001CCF1A2
:102EF000200E29D412FA0EF201EB0451BDE8104065
:102F000058BF7047401C1CBFB2F1004F70470028EB
:102F10000CBF491C20F00100704712EB020E43EB7E
:102F2000030218BF4FF0010E4EEA4202ACF1200C32
:102F3000DCF11E0E54D943FA0CFE10EB0E0051F1D9
:102F4000FF31CCF11E0ED5D50EF1010E12FA0EFE98
:102F5000404141EB010101EB445C5FEA5C5C10D94C
:102F600010EBDE7001EB045138BFBEF1004FBDE83D
:102F7000104018BF704700280CBF491C20F001000A
:102F8000704730D24FEAD42C11F5001124F40064BC
:102F90001BD0B1FA81F20B3AA41AA41ED2F120037D
:102FA000914030FA03F31943904001EBCC71002CAF
:102FB00001EB0451BDE81040A8BF704701F1C041CA
:102FC0004FF0000001F000417047B0FA80F310FAB2
:102FD00003F100D110BDE41A173C4805C90AE4E723
:102FE00001EB045110BD491001EB0451BDE8104044
:102FF0004FEA300002E04FF0000170474A0008BF7E
:103000000042F8D0B2F5001F28BF704701F0004120
:103010004FF0000070479EEA445F07D011EA5E0F50
:10302000BDE8104004BF002100207047BDE81040FB
:1030300070B5FFF72FFE00BF40DFF63E83F0004182
:10304000104670470000E0FF4FF04070E1EE100ABC
:103050007047102840587088A0B800000000040491
:103060000400000800000008102840587088A0B82C
:10307000102840587088A0B8983000080000002040
:103080003C000000D4010008D43000083C000020BF
:103090000C470100F001000800000240000002405F
:1030A00000000240040000000800000010000000C2
:1030B00000000020000000000000000000000000F0
:1030C00000000000010000001000000000000000EF
:0430D0000024F400E4
:040000050800019955
:00000001FF
