:020000040800F2
:10000000C866002039020008C3140008790D0008F2
:10001000C11400085F0300080D1D00080000000067
:10002000000000000000000000000000E1150008D2
:10003000E508000800000000F7140008E7150008B4
:10004000530200085302000853020008530200083C
:10005000530200085302000853020008530200082C
:10006000530200085302000853020008530200081C
:10007000530200085302000853020008530200080C
:100080005302000853020008530200080000000059
:100090000000000000000000000000005302000803
:1000A00053020008530200085302000853020008DC
:1000B00053020008530200085302000853020008CC
:1000C00053020008530200085302000853020008BC
:1000D0005302000853020008530200080000000009
:1000E00053020008530200085302000800000000F9
:1000F00000000000000000000000000053020008A3
:1001000000000000530200085302000853020008D8
:1001100000000000000000000000000000000000DF
:1001200053020008530200089107000895070008D1
:10013000C9070008000000000000000000000000E7
:100140000000000000000000000000005302000852
:100150005508000853020008530200085302000823
:1001600053020008530200080000000000000000D5
:10017000000000000000000000000000000000007F
:100180000000000053020008000000000000000012
:10019000530200085302000800F002F800F03CF897
:1001A0000AA090E8000C82448344AAF10107DA45D2
:1001B00001D100F031F8AFF2090EBAE80F0013F0E8
:1001C000010F18BFFB1A43F0010318474C3300001E
:1001D0006C330000103A24BF78C878C1FAD85207AF
:1001E00024BF30C830C144BF04680C6070470000B1
:1001F0000023002400250026103A28BF78C1FBD830
:10020000520728BF30C148BF0B6070471FB503F0CD
:10021000DBF81FBD10B510BD00F06CF81146FFF7FC
:10022000F5FF02F0B5FA00F08AF803B4FFF7F2FF29
:1002300003BC00F08DF800000948804709480047DA
:10024000FEE7FEE7FEE7FEE7FEE7FEE7FEE7FEE786
:10025000FEE7FEE704480549054A064B70470000E3
:10026000C116000899010008C8600020C866002077
:10027000C8620020C86200204FF0000200B513469B
:1002800094469646203922BFA0E80C50A0E80C50B6
:10029000B1F12001BFF4F7AF090728BFA0E80C5067
:1002A00048BF0CC05DF804EB890028BF40F8042B60
:1002B00008BF704748BF20F8022B11F0804F18BFCD
:1002C00000F8012B704770477047704710B500F079
:1002D00009F8006810BD10B5044600F003F804608A
:1002E00010BD00000048704768600020004870475B
:1002F000686000207546FFF7F9FFAE4605006946C5
:10030000534620F00700854618B020B5FFF7A2FF3E
:10031000BDE820404FF000064FF000074FF0000806
:100320004FF0000B21F00701AC46ACE8C009ACE887
:10033000C009ACE8C009ACE8C0098D46704710B5EB
:100340000446AFF300802046BDE81040FFF76DBFC4
:1003500001491820ABBEFEE7260002007047FEE709
:100360004268006909B1906170470004FBE7826848
:10037000406909B1906170470004FBE78171C26870
:1003800022F4700242EA0151C16070474171C268B3
:1003900022F0706242EA0161C16070470181034B43
:1003A000C2681A4042EA0111C16070470F00F0FFB5
:1003B000F0B587B0044618216846FFF75DFF134883
:1003C000016841F0010101600068012500F00100B1
:1003D0000690E06803278DE8A1000026CDE90356CA
:1003E0006946206800F0CEFD20690090694660688B
:1003F00000F0C8FD6069CDE90276CDE900050496FC
:100400006946A06800F0BEFD07B0F0BD303802407C
:1004100010B504460068FFF7CBFF00212068FFF706
:10042000A6FF0021206800F0A8FC01212068FFF74A
:1004300097FF01F061F80021204600F01DF803212C
:100440002046FFF7A3FF0F212046FFF797FF47F64F
:10045000FF712046FFF7A2FF0021204600F005F8BB
:100460002046BDE8104000F00FB88172C26822F04B
:100470000F020A43C26070470171C26822F07042E5
:1004800042EA0171C160704770B5044600680021FE
:10049000FFF76DFFE168080C8DB2012101F070F8E3
:1004A0000121284601F06CF82068BDE87040012168
:1004B000FFF75DBF10B5FFF7ABFF00F0D3FF01F012
:1004C00015F9BDE8104001F06BBA00002DE9F04FBE
:1004D0001D462DED048B87B0B0EE408ADDE9148A0D
:1004E000F0EE608A91460F007ED0B9F1000F7BD00C
:1004F000002D79D05FEA080076D07D4EB068C0F359
:1005000040000028FAD0B068C0F3C0100028FAD12B
:10051000784C0521204600F097FC0421204600F08D
:1005200093FC0521204600F0B7FC0028F9D10421F6
:10053000204600F0B1FC0028F9D14FF40070E060D3
:100540008000E060C210E2604020E0600001E060F6
:100550000820E0602020E0600420E0600120E060EE
:100560001020E060DFF890B16FF00101CBF81010BF
:100570006FF01001CBF810106048C0F818A00021EF
:10058000C1610162C0E90979C580A0F808804170A5
:100590008170BAF1000F44D000220521204600F0FE
:1005A000C9FC3A460521204600F09EFC2A4605215A
:1005B000204600F083FC00220421204600F0BAFC13
:1005C0004A460421204600F08FFC42460421204682
:1005D00000F074FC0521204600F040FC0521204677
:1005E00000F046FC042100E015E0204600F036FC57
:1005F0000421204600F03CFC442001F0ADFB3C20EF
:1006000001F0AAFB3E486946B0EE480AF0EE680ADF
:1006100001F0A6FA20B3002007B0BDEC048BBDE8C2
:10062000F08F92460521204600F084FC3A460521D1
:10063000204600F059FC2A460521204600F03EFCE9
:1006400052460421204600F075FC4A46042120460B
:1006500000F04AFC42460421204600F02FFCD1E77E
:100660009FED288B9FED299B6946B0EE481AF0EE6E
:10067000681AB0EE490AF0EE690A5D46584601F084
:100680000FFAB0EE481AF0EE681AB0EE490AF0EE32
:10069000690A684600F0A5FF706840F002007060CB
:1006A000E86840F48070E860E86840F48050E860F2
:1006B0000521204600F0E6FB0421204600F0E2FB85
:1006C0006FF0010028616FF0100028611148416946
:1006D00041F001014161686940F00100686101F089
:1006E000C7F9286840F001002860012094E7000065
:1006F0000030014000640240000001403C00002046
:1007000000E1F5050000000084D7874100000000EB
:1007100084D797410004004070B5194C206820F040
:1007200001002060174D0521284600F08DFB0421B3
:10073000284600F089FB1448416821F0020141601D
:10074000E06820F48070E060E06820F48050E060B1
:10075000002161620D48417081700521284600F03A
:100760005FFB0421284600F05BFB0521284600F0D2
:1007700061FB2846BDE87040042100F05BBB00002F
:100780000000014000640240003001403C000020B5
:100790007047000009480168C1F3C06100290CD00E
:1007A0004FF000618160064A012111700549CA7845
:1007B0008258C97822F0100242507047006402400B
:1007C00028000020D233000870B5204C6068C0F3C8
:1007D000401018B32020E0601D4DA869F0B1286AD0
:1007E000401C2862286AA969884218D20421204640
:1007F00000F02AFB0421204600F04EFB0028F9D12E
:1008000004212046AA6A00F06FFB2A8904212046B1
:1008100000F054FB0421204600F034FB08E00120E6
:10082000A8706878012803D1FFF776FF01F028F956
:100830006068C0F3C000002807D00820E060FFF720
:100840006BFFBDE8704000F0A1BA70BD00640240CB
:100850003C00002070B5214C6068C0F3C02018B384
:10086000E014E0601E4DA869F0B1E869401CE86141
:10087000E869A969884218D20521204600F0E4FA07
:100880000521204600F008FB0028F9D1052120466B
:100890006A6A00F029FBEA880521204600F00EFB79
:1008A0000521204600F0EEFA08E001206870A878E3
:1008B000012803D1FFF730FF01F0E2F86068C0F3D0
:1008C0004020002808D04FF40070E060FFF724FFBC
:1008D000BDE8704000F05ABA70BD000000640240EC
:1008E0003C00002070470000F0B50028059E19D09C
:1008F000002917D0002A15D0002B13D0002E11D0BC
:10090000C5680948054000200AE000BF31F81040E2
:1009100045EA0414270C22F8107023F81040401CFC
:10092000B042F3D3F0BD00000F00F0FF00B587B078
:1009300018216846FFF7A0FC042000F037FA0848A9
:100940004FF400510A048261009101210022CDE997
:100950000112CDE90321694600F014FB07B000BD88
:10096000000802402DE9FF5F17462DED040B0E46EF
:1009700081462DED108B86B0B0EE41DAF0EE61DAF3
:10098000B0EE409AF0EE609ADDE928B59FEDE78B76
:100990005DB10020286085ED028B85ED048B85ED2F
:1009A000068B85ED088B85F82800B9F1000F7DD006
:1009B000002D7BD053EC182B51EC190B02F044FAAC
:1009C00074D953EC182B51EC1D0B02F03DFA6DD984
:1009D000002E6BD09FEDD78BB74267D3384602F01D
:1009E0001FFA53EC192B02F06BFA41EC1B0B53EC82
:1009F0001D2B02F029FA03D3B0EE4DBAF0EE6DBA1A
:100A0000304602F00DFA53EC192B02F059FA41EC82
:100A10001E0B9FEDCA0B51EC190B53EC102B02F07F
:100A20004FFA41EC1C0B53EC182B02F00DFA03D2D9
:100A3000B0EE48CAF0EE68CAB0EE4B8AF0EE6B8AB0
:100A400000249FEDC00BB0EE4BAA8DED040BF0EE31
:100A50006BAA4FE053EC192B51EC1A0B01F0D8FFA5
:100A600041EC100B01F0A0F951EC100B02F094F9DD
:100A70008046B04236D3B84534D802F0D1F941ECC3
:100A8000100B51EC1A0B53EC102B01F0C1FF53EC7F
:100A9000192B02F0AFFB41EC100B01F07AF9B0EE2C
:100AA00040FAF0EE60FA9DED040B00E037E153EC04
:100AB000102B51EC1F0B02F0C7F913D28DED04FB84
:100AC000B0EE4A8AF0EE6A8A44469FEDA00B51ECE4
:100AD000190B53EC102B02F0F3F953EC1F2B02F01F
:100AE000EDFA0ED353EC1C2B51EC1A0B02F082FBE7
:100AF00041EC1A0B53EC1E2B51EC1A0B02F0DEFAF0
:100B0000A8D9002C7DD1F019400802F089F953ECE6
:100B1000192B02F0D5F941EC1C0B9FED8E0B51EC1B
:100B2000190B53EC102B02F0CBF941EC1F0B9FED8E
:100B30008B0B51EC190B53EC102B02F0C1F941EC6B
:100B4000100B53EC1F2B8DED020B51EC1C0B02F024
:100B500051FB41EC1A0B53EC1F2B51EC1C0B01F019
:100B6000A3FE8A46804649E053EC1E2B51EC1A0B3B
:100B700002F06AF938D353EC192B51EC1A0B01F03F
:100B800047FF41EC100B01F00FF951EC100B02F094
:100B900003F90090B04227D3B84225D802F040F9BB
:100BA00041EC100B51EC1A0B53EC102B01F030FF01
:100BB00053EC192B02F01EFB41EC100B01F0E9F88D
:100BC000B0EE40CAF0EE60CA9DED040B51EC1C0B78
:100BD00053EC102B02F038F906D28DED04CB009CBB
:100BE000B0EE4A8AF0EE6A8A9DED020B51EC1A0BC8
:100BF00053EC102B01F058FE41EC1A0B4AEC108B11
:100C000000E02CE053EC1A2B51EC100B02F056FADA
:100C100006D853EC1D2B51EC1A0B02F015F9A3D991
:100C2000ECB953EC192B51EC1B0B01F0F1FE41EC2C
:100C3000100B01F0B9F851EC100B02F0ADF80446BE
:100C4000B04200D23446BC4200D93C46204602F0B5
:100C5000E7F853EC192B02F033F941EC180B00269E
:100C6000204602F0DDF8884607462CE048EC1A7B67
:100C7000304602F0D5F89FED3B1B53EC112B02F0F0
:100C80001FF953EC1A2B01F0C3FE41EC100B01F0DD
:100C9000FBF8B0EE40AAF0EE60AA1D9802F0C0F892
:100CA00053EC1A2B02F00CF902F046F810EB0B0093
:100CB00001D5002004E0B0F5803F01DB4FF6FF7066
:100CC00029F81600761CA642D0D348EC107B51ECD4
:100CD000180B53EC102B2C6001F09AFE41EC100B1A
:100CE00053EC192B85ED020B85ED048B02F082FA93
:100CF00041EC100B01F04DF885ED060B53EC192B70
:100D000051EC100B01F084FE9FED121B53EC112BE4
:100D100002F0D6F8C5E90801012085F8280006B0E0
:100D2000BDEC108B08B0BDE8F09F00000000000093
:100D300000000000000000000000F03F9A9999991F
:100D40009999B93F0000000065CDCD418DEDB5A06A
:100D5000F7C6B03E00000000000059407B14AE47CB
:100D6000E17A843F182D4454FB21194001488068E2
:100D7000704700002C000020FEE70268C06809B13F
:100D8000906170470004FBE7FFF7D0BD02494FF0C8
:100D900000508861704700000008024002494FF48B
:100DA000005088617047000000080240044908B5FF
:100DB0000A6802430A6009680140009108BD00000A
:100DC00030380240044908B50A6802430A600968DD
:100DD0000140009108BD000030380240044908B5C8
:100DE0000A6802430A6009680140009108BD0000DA
:100DF00030380240044908B50A6802430A600968AD
:100E00000140009108BD000044380240034A1430FC
:100E1000515C0A5822F004020A507047E833000877
:100E2000034A515C425822F01002425070470000C1
:100E3000F0330008034A515C425822F00402425049
:100E400070470000F0330008034A515C425822F01A
:100E50000102425070470000F0330008034A515C21
:100E6000425842F01002425070470000F033000830
:100E7000034A515C425842F004024250704700005D
:100E8000F0330008034A515C425842F001024250DC
:100E900070470000F0330008024A515C405800F0EF
:100EA00001007047F0330008034B595C435823F0AE
:100EB0006063134343507047E8330008044B001D40
:100EC000595C0B586FF30F0313430B50704700002E
:100ED000F0330008034B595C435823F0C00313431D
:100EE00043507047E8330008024B0C30595C0A50FD
:100EF00070470000F0330008034B595C435823F45B
:100F00008063134343507047E8330008034B595C38
:100F1000435823F4C043134343507047E833000859
:100F2000034B595C435823F4907313434350704769
:100F3000E8330008034B595C435823F49073134380
:100F400043507047F0330008034B595C435823F477
:100F50000073134343507047E8330008034B595C58
:100F6000435823F4C053134343507047E8330008F9
:100F7000034B595C435823F44033134343507047A9
:100F8000E8330008F0B50A680F2692FAA2F2B2FA26
:100F900082F303248AE001279F4015EA07027DD0EF
:100FA0004D68012D01D0022D1BD18D68876892FA02
:100FB000A2FCBCFA8CFC4FEA4C0C04FA0CFC27EAAD
:100FC0000C0792FAA2FCBCFA8CFC4FEA4C0C05FA16
:100FD0000CF52F438760CD684768554397432F43EF
:100FE00047600F69D0F80CC092FAA2F5B5FA85F502
:100FF0004FEA450E04FA0EF52CEA050C92FAA2F51A
:10100000B5FA85F56D00AF404CEA070CC0F80CC08E
:101010004D68022D33D192FAA2F5B5FA85F5082D67
:1010200015D2D1F814C0056A92FAA2F7B7FA87F779
:10103000BF0006FA07F7BD4392FAA2F7B7FA87F79F
:10104000BF000CFA07FC45EA0C05056217E0D1F871
:1010500014E0476A150A95FAA5FCBCFA8CFC4FEA25
:101060008C0C06FA0CFC95FAA5F5B5FA85F5AD00E1
:1010700027EA0C070EFA05FE47EA0E0747624D689D
:10108000076892FAA2FCBCFA8CFC4FEA4C0C04FAFA
:101090000CFE27EA0E0792FAA2F200E005E0B2FA8F
:1010A00082F2520095402F4307605B1C0A68154688
:1010B000DA407FF470AF0020F0BD4FF47A71B0FBDE
:1010C000F1F14FF0E020491E4161002181610521CD
:1010D0000161704710B503680122C3F380132BBB75
:1010E000D1E900231A43D1E9023423431A430B699F
:1010F0001A434B691A438B691A43CB691A430B6A2B
:101100001A4303684FF6BF74A3431A430260426850
:101110004B6922F0040242EA134242600A6AB2F5C5
:10112000005F02D1898C89B201610022C16921F47A
:101130000061C161104610BD0149086070470000A0
:10114000380000200A7B8B681A434B6822F48062C7
:101150001A430B6822F400621A43CB8922F48052AE
:101160001A430B6922F400521A43496922F480425F
:101170000A43426400207047F0B502681D4B1E4CC4
:101180009F031E4D1E4E984207D0B84205D0A04284
:1011900003D0A84201D0B04205D1D1F804C022F05A
:1011A000700242EA0C02984210D0B8420ED0A0421F
:1011B0000CD0A8420AD0B04208D0124CA04205D0B0
:1011C000114CA04202D0114CA04203D1CC6822F4B1
:1011D0004072224302608A68C2620A888262984230
:1011E00001D109690163416941F0010141610020B8
:1011F000F0BD000000000140000400400008004075
:10120000000C004000400140004401400048014003
:10121000012919D0042919D0102919D0402919D031
:10122000B1F5807F18D0B1F5806F17D006210C4A38
:101230001830525C10440268094BDB1D5B5C0421D2
:1012400099408A43026070470021F0E70121EEE7F0
:101250000221ECE70321EAE70421E8E70521E6E7BC
:10126000DA330008012919D0042919D0102919D01E
:10127000402919D0B1F5807F18D0B1F5806F17D013
:1012800006210C4A1830525C10440268094BDB1DE1
:101290005B5C082199400A43026070470021F0E737
:1012A0000121EEE70221ECE70321EAE70421E8E768
:1012B0000521E6E7DA330008F0B501250023604C8C
:1012C000012908D0102933D0B1F5807F64D0B1F561
:1012D000805F5FD190E0016A21F001010162016A43
:1012E00045688669176826F073063E43176921F042
:1012F00002013943576821F001013943A04212D15C
:10130000546921F0080141EA8401946821F0040144
:1013100041EA840125F4807495692C43D56924F44D
:10132000007444EA450545608661D26842632FE057
:10133000016A21F010010162016A45688669176837
:1013400026F4E64646EA0726176921F0200141EA1D
:101350000711576821F0100141EA0711A04213D18B
:10136000546921F0800141EA8411946821F0400120
:1013700041EA841125F48064956944EA8504D569BD
:1013800024F4006444EAC50545608661D26882633E
:1013900001621D462846F0BD016A21F48071016298
:1013A000016A4568C669176826F073063E431769E7
:1013B00021F4007141EA0721576821F4807141EA64
:1013C0000721A04213D1546921F4006141EA84212C
:1013D000946821F4806141EA842125F48054956960
:1013E00044EA0514D56924F4005444EA45154560DF
:1013F000C661D268C263CBE7016A21F48051016201
:10140000056A4168C669176826F4E64646EA072673
:10141000176925F4005545EA0735576825F48055C6
:1014200045EA0735A04204D1946921F4804141EA9C
:1014300084114160C661D16801640562A9E70000BA
:101440000000014008B54FF0E0210A690092421CFB
:1014500000D0401C0A69D20300D5401E0028F9D1F3
:1014600008BD000038B51448016841F480010160EE
:101470000068124C00F48000009020680022C0F345
:101480000220114600F01EF80146442000F071FCD5
:10149000442000F054FC20680022C0F302201146D2
:1014A00000F010F801463C2000F063FCBDE8384035
:1014B0003C2000F044BC0000303802400CED00E05D
:1014C000FEE7FEE730B500F00703C3F10704042C84
:1014D00000D90424181D072801D2002300E0DB1ED8
:1014E000012505FA04F0401E084098409D406D1EFD
:1014F0001540284330BD704710B590B0282168468C
:10150000FEF7BAFE18210AA8FEF7B6FE4FF4805087
:10151000FFF770FC0120FFF755FCA0200A90022085
:101520000B9003200024CDE90C040520CDE90E40EA
:101530000AA91148FFF726FD4FF48270CDE900405B
:101540004FF40060CDE902048010CDE904400A2088
:10155000CDE9084006940794084C69462046FFF7F9
:10156000B9FD606820F010006060206840F0400025
:10157000206010B010BD00000000024000300140AB
:101580002DE9F0410E460746FFF7F0FB0446134DE8
:1015900005E000BFFFF7EAFB001BB0421CD2A868C1
:1015A000C0F340000028F5D0EF6004E0FFF7DEFB59
:1015B000001BB04210D2A868C0F340000028F5D04C
:1015C00005E000BFFFF7D2FB001BB04204D2A868C1
:1015D000C0F3C0100028F5D1BDE8F0810030014013
:1015E000704700F07DB9704770B52F48016821F051
:1015F000070141F003010160016801F007010329BF
:10160000FAD12A49086840F4404008602848026836
:1016100042F4803202600268C2F34042002AFAD0EB
:10162000234A244B121D1468234D2C40234313607E
:10163000136823F440331360026842F08072026042
:101640000268C2F34062002AFAD04868C0F38030D2
:101650000028FAD016480830016821F0F001016036
:10166000016821F4E05141F480510160016821F4E6
:1016700060410160016821F0030141F00201016055
:10168000016801F00C010829FAD10C4C2046FFF743
:1016900014FD2046FFF750FD05488C30016821F00D
:1016A0008071016070BD0000003C0240007000408D
:1016B000003802400C1840000080BFFF00E1F50533
:1016C0000248016841F470010160704788ED00E054
:1016D00000B587B018216846FEF7CEFD8020FFF7E1
:1016E00065FB0120FFF762FB07B000BD2DE9F04F5D
:1016F0009BB0142114A8FEF7BFFD20216846FEF719
:10170000BBFD182108A8FEF7B7FD18210EA8FEF7AB
:10171000B3FD6D48016841F0010101600068DFF828
:10172000ACA100F001004FF0406919904A46052134
:101730005046FFF7B9FB402205215046FFF7CAFB90
:101740004FF4403205215046FFF712FC00220521DC
:101750005046FFF7E5FB002205215046FFF7F4FB5A
:101760004FF4806B5A4605215046FFF7C5FB4FF4F6
:101770000066324605215046FFF7F0FB4FF4005853
:10178000424605215046FFF7C1FB05215046FFF7B1
:101790003DFB504D4D4F4E4C68790837C4514A4679
:1017A00004215046FFF780FB402204215046FFF7FA
:1017B00091FBB20104215046FFF7DAFB002204211D
:1017C0005046FFF7ADFB002204215046FFF7BCFB5B
:1017D0005A4604215046FFF78FFB324604215046FB
:1017E000FFF7BCFB424604215046FFF78FFB042164
:1017F0005046FFF70BFB2879C4510024ADF8504048
:101800004FF6FF70CDE91540334D179414A92846C3
:101810001894FFF7B1FC286820F080002860A868C1
:1018200044F207018843A8603020CDE9000447F660
:10183000FF70CDE90240AF14049406946A4639461D
:1018400028460794FFF738FD39462846FFF7E0FCA5
:10185000686820F070006860A86820F08000A860C8
:101860000894CDE90C848DF82C4009940A94ADF8C5
:101870002E4008A92846FFF765FC0120FFF7AEFAC5
:1018800002200E96CDE90F040120CDE912400EA9E9
:1018900011941248FFF776FB39462846FFF7E2FC21
:1018A000E86840F48070E860E86840F48050E860E0
:1018B000286A40F480502862686C40F400406864F4
:1018C0001BB0BDE8F08F00004438024000640240C5
:1018D0000C300140E83300080000014000000240E5
:1018E00070B504002DED068BB0EE418AF0EE618AF2
:1018F000B0EE409A9FED25ABF0EE609A42D053ECEB
:101900001A2B51EC180B01F09FFA3BD953EC1A2B10
:1019100051EC190B01F098FA34D91E4D286820F0CB
:10192000010028602068A8626068E8622068401CA6
:1019300001F076FA41EC100B51EC190B53EC102B23
:1019400001F066F89FED141B53EC112B01F0B8FA6F
:1019500053EC182B01F05CF841EC100B00F024FA6A
:1019600051EC100B01F018FA6168814201D2491C58
:10197000480800B90120E863286A40F480702862B2
:1019800000206862BDEC068B70BD00000000000006
:10199000000000000004004000000000000045407E
:1019A0002DE9F04194B014210EA8FEF765FC20212A
:1019B0006846FEF761FC182108A8FEF75DFC29487F
:1019C000016841F0020101600068002500F002009A
:1019D0001390ADF838504FF6FF70CDE90F50224C00
:1019E0000EA920461195FFF7C7FB206820F0800064
:1019F00020604FF4807841462046FFF733FC60209A
:101A00000127CDE9000747F6FF70CDE90250022615
:101A10006A464146CDF8188004962046FFF74CFCF4
:101A200041462046FFF7F4FB606820F0700040F06C
:101A300020006060A06820F08000A0600220FFF716
:101A4000CDF9CDE90876CDE90A65CDE90C7608A98E
:101A50000648FFF797FA206A40F48070206214B0BD
:101A6000BDE8F0814038024000040040000402401C
:101A70000248016841F00101016070470004004024
:101A80000548016821F0010101600021416203491C
:101A900001208861704700000004004000040240FB
:101AA00030B50D002DED068B81B0B0EE418AF0EE21
:101AB000618A9FED27ABB0EE409AF0EE609A044643
:101AC00042D053EC1A2B51EC180B01F0BDF93BD965
:101AD00053EC1A2B51EC190B01F0B6F934D92068EC
:101AE00020F0010020602868A0626868E062286831
:101AF000401C01F095F941EC100B51EC190B53EC23
:101B0000102B00F085FF9FED141B53EC112B01F0FF
:101B1000D7F953EC182B00F07BFF41EC100B00F0D1
:101B200043F951EC100B01F037F96968814201D299
:101B3000491C480800B9012000902064206A40F444
:101B4000805020620020606201B0BDEC068B30BD89
:101B50000000000000000000000000000080304095
:101B60002DE9F05F0C002DED0A8BB0EE40AAF0EEEF
:101B700060AA06469FED5BCBB0EE4C8AF0EE6C8A15
:101B80009FED5A9B7BD053EC192B51EC1A0B01F0B3
:101B90005BF974D99FED570B002084ED040B206096
:101BA0006060054684ED029B304601F039F98946B4
:101BB00080464FF48036681C01F032F941EC110B7D
:101BC00049EC108B53EC112B51EC100B00F020FF63
:101BD00041EC190B53EC1A2B00F01AFF41EC100BDF
:101BE00000F0E2F851EC100B01F0D6F8002866D0B6
:101BF000B04264D8471E01F013F941EC100B51ECD0
:101C0000190B53EC102B00F003FF41EC1B0B53ECB2
:101C10001A2B01F0EFFA41EC100B00F0BAF8B0EE1D
:101C2000409AF0EE609AB0EE4B0AF0EE6B0A00F0CC
:101C3000BBF851EC100B01F0AFF88346B0EE490A47
:101C4000F0EE690A00F0B0F851EC100B01F0A4F8C6
:101C5000824653EC182B51EC190B01F0F5F81ED20B
:101C6000B0EE498AF0EE698A504601F0D9F8C4E92D
:101C70000401C4E90057584601F0D2F800E029E019
:101C80009FED1E0BC4E9020153EC102B51EC1A0B13
:101C900001F016F953EC192B01F010FA13D351ECA3
:101CA0001A0B9FED180B53EC102B01F009F953ECB4
:101CB000192B01F003FA02D8B5F57A7F03D36D1C16
:101CC000B542FFF478AF53EC1C2B51EC180B00F02D
:101CD000F7FF04D10120BDEC0A8BBDE8F09F002086
:101CE000F9E70000FFFFFFFFFFFFEF7F00000000AC
:101CF000000000000000E0FFFFFFEF4195D626E85E
:101D00000B2E113E8DEDB5A0F7C6B03EFEE703B435
:101D100001984100009850EAC12018BF04204A0DE4
:101D200018BF40F0010040F2FF72B2EB515F08BFF4
:101D300040F00200012808BF052002B070470028CB
:101D400009DB00F01F02012191404009800000F1F1
:101D5000E020C0F800117047002809DB00F01F02E6
:101D6000012191404009800000F1E020C0F80011FD
:101D700070470907090E002804DB00F1E02080F815
:101D80000014704700F00F0000F1E02080F8141DEF
:101D900070472DED020B019820F0004001909DED61
:101DA000000B02B07047000010B52DED020B2DEDB9
:101DB000088B84B09DED0C0B51EC100B01F0B4F9C5
:101DC00041EC180B9DED0C0B53EC182B51EC100B48
:101DD00001F010FA41EC190B0D989FED290B10F052
:101DE000004F53EC102B51EC190B9FED21AB9FEDE5
:101DF00022BB0ED001F028F80ED953EC1B2B51EC6E
:101E0000190B01F05BF91CD214E000BF41EC180B78
:101E100017E001F019F806D253EC1A2B51EC180B0D
:101E200001F0E8F9F2E753EC1B2B51EC190B01F030
:101E300045F906D853EC1A2B51EC180B00F034FD81
:101E4000E4E78DED028B9DED0C0B18EE901A10EE71
:101E5000900A8DED000B61F31E0003909DED020BC7
:101E600004B0BDEC088B02B010BD00000000000003
:101E7000000000000000F03F000000000000E03F14
:101E8000000000000000E0BF10B52F499FED2C1BA3
:101E90002DED020B84B0059820F000408842DCBF95
:101EA00000209DED040B32DD2849884209D10498B9
:101EB00040B94FF00100FEF70EFA00F03DFC06B00D
:101EC00010BD05DB9DED040B00F02AFC06B010BD33
:101ED00068469DED040B00F03BF810F0030011D0B4
:101EE000012818D09DED021B9DED000B02281AD091
:101EF00000F04AFA51EC100B00F0CAFC06B041ECBD
:101F0000100B10BD9DED021B9DED000B012000F09C
:101F10006FFB06B010BD9DED021B9DED000B00F0A8
:101F200033FA06B010BD012000F062FB51EC100B3B
:101F300000F0AEFC06B041EC100B10BD000000003C
:101F40000000000000000000FB21E93F0000F07FDE
:101F50002DE9F14F04462DED020B2DED088B8AB0D3
:101F60009FEDE70B80ED020B139EE74826F000453E
:101F700085420ADC9DED120B002084ED000B0AB0B7
:101F8000BDEC088B03B0BDE8F08FE0489FEDE0ABFF
:101F90009FEDE1BBA84247DDE14F9FEDE39B9FED45
:101FA000E48B9DED120B53EC1A2B51EC100B002E11
:101FB0001CDD01F01FF941EC100BBD4208D053ECC1
:101FC0001B2B51EC100B01F015F9C4E900010BE0DB
:101FD00053EC192B51EC100B01F00CF953EC182BAE
:101FE00001F008F9C4E900010120C8E700F05CFC39
:101FF00041EC100BBD4208D053EC1B2B51EC100BE5
:1020000000F052FCC4E900010BE053EC192B51EC39
:10201000100B00F049FC53EC182B00F045FCC4E910
:1020200000014FF0FF30AAE7C348A84279DB9DEDDD
:10203000120B51EC100B00F09FFB41EC180B9FEDC5
:10204000C00B53EC102B00F03BFF9FEDBF1B53EC7C
:10205000112B00F029FC00F06FFE074600F0C9FECE
:1020600041EC190B53EC1A2B00F02AFF53EC182B00
:1020700001F0B4F841EC180B53EC1B2B51EC190B8D
:1020800000F01EFFDFF8C8A241EC100B4FEA155814
:102090000125FA4453EC102B51EC180B01F0AAF86F
:1020A000032DC4E900013DD0C1F30A5005EB4511F1
:1020B000A8EB00001139814234DA0AEB051BB0EEBF
:1020C00048AA9BED000BF0EE68AA53EC102B51ECE4
:1020D000190B00F0F5FE41EC1B0B51EC1A0B53EC05
:1020E0001B2B01F087F841EC180B51EC1A0B53EC49
:1020F000182B01F07FF853EC1B2B01F07BF89BEDC4
:10210000020B41EC1A0B53EC102B51EC190B00F0A5
:10211000D7FE53EC1A2B01F06DF841EC100B6D1C3F
:10212000B8E70EE0002EA8BF3846BFF628AF94ED02
:10213000000B51EC100B00F0ABFBC4E9000178423E
:102140001DE7C6F3130040F4801EC6F30A50A0F248
:10215000F530471100F01F05C5F12000DDF848B04B
:1021600008900020069007900520EC467949002D44
:1021700007EB0002794408BF51F8221009D051F84A
:10218000223001EB8201AB404A68089922FA01F142
:102190001943A1FB0E26A1FB0B131A449A4234BF2C
:1021A0000123002303EB06080CEB8003D3E901A60F
:1021B0000E448E4234BF0121002192448A4411B161
:1021C000924502D903E0924501D2012100E00021AD
:1021D000C3E901A641444CF82010011EA0F1010002
:1021E000C4DC029800F10050850F0298DDE9036716
:1021F0008000DDF8148000F0FCFD41EC1A0B304645
:1022000000F00EFE9FED541B53EC112B00F058FE16
:1022100041EC1B0B384600F003FE9FED511B53ECC5
:10222000112B00F04DFE41EC180B404600F0F8FD7C
:102230009FED4D1B53EC112B00F042FE41EC190BAE
:1022400051EC180B53EC192B00F02EFB53EC1B2B0D
:1022500000F02AFB53EC1A2B00F026FBCDE9080115
:10226000002008909DED080B53EC1A2B51EC100B3D
:1022700000F0C0FF53EC1B2B00F0BCFF53EC182BFD
:1022800000F0B8FF53EC192B00F0A8FF9FED381BAE
:1022900053EC112B00F014FE9FED370B41EC180BA3
:1022A00053EC102B9DED080B51EC100B00F008FEC9
:1022B00053EC182B00F0F8FA9FED310B41EC180BA2
:1022C00053EC102B9DED080B51EC100B00F0F8FDBA
:1022D00053EC182B00F0E8FA41EC100B139810F0B7
:1022E000004F06D06D4251EC100B00F0D1FA41ECDA
:1022F000100B284684ED000B41E6000000000000B2
:102300000000000000000000FB21E93F7CD90240F2
:1023100000004054FB21F93F3163621A61B4D03DA3
:10232000FB21F93F000000000000601A61B4D03DBD
:102330007370032E8A19A33BFB2139410000000072
:1023400083C8C96D305FE43F000000000000E03F3B
:1023500092130000E0120000000000000000103E98
:10236000000000000000103C000000000000103AD7
:10237000182D4454FB21F93D3326A611460B113C80
:1023800000000054FB21F93D10B52DED040B2DED9F
:10239000088B82B0B0EE419AF0EE619A0B9820F073
:1023A00000449FED4BABB4F1795F11DA9DED0A0B60
:1023B00051EC100B00F0C0FC002801BFB0EE4A0A3F
:1023C000F0EE6A0A02B0BDEC088B04BF04B010BD89
:1023D0009DED0A0B53EC102B51EC100B00F070FD2F
:1023E00041EC180B3C480621B0EE480AF0EE680AB2
:1023F000784400F081F853EC182B51EC100B00F0EE
:102400005FFD9DED0A0B41EC1B0B53EC192B51ECBE
:10241000100B00F055FD41EC190B53EC1B2B51EC4C
:10242000180B00F04DFD53EC192B00F0E3FE9FED6F
:102430002C0B41EC190B53EC102B51EC180B00F04A
:102440003FFD41EC100B2848844210DA53EC192B65
:1024500051EC100B00F0CEFE53EC1A2B00F0BEFE38
:1024600041EC100B02B0BDEC088B04B010BD1F484E
:10247000A042BCBF9FED1E1B8DED001B06DBA4F52B
:1024800000100190002000909DED001B51EC100BFE
:1024900053EC112B00F0AEFE9DED000B41EC180B40
:1024A00053EC102B51EC1A0B00F0A4FE41EC1A0B6C
:1024B00053EC192B51EC180B00F09CFE53EC1A2B2B
:1024C00000F08CFE41EC100BCCE700000000000097
:1024D000000000000000F03F0410000000000000B9
:1024E000000000000000E03F3333D33F0000E93F2D
:1024F000000000000000D23F70B504462DED028BB5
:102500004D1E00EBC500B0EE408AF0EE608A90ED03
:10251000000B35F0060017D053EC182B51EC100BC4
:1025200000F0CEFC41EC100B6D1E04EBC50090EDED
:10253000001B51EC100B53EC112B00F0B5F941ECE2
:10254000100B35F00600E7D1022D36D0042D1CD03B
:10255000062D1CBFBDEC028B70BD53EC182B51EC4B
:10256000100B00F0ADFC94ED0A1B53EC112B00F0A6
:102570009BF953EC182B00F0A3FC94ED081B53ECD3
:10258000112B00F091F941EC100B53EC182B51EC8E
:10259000100B00F095FC94ED061B53EC112B00F092
:1025A00083F953EC182B00F08BFC94ED040B53ECE7
:1025B000102B00F079F941EC100B53EC182B51EC77
:1025C000100B00F07DFC94ED021B53EC112B00F07E
:1025D0006BF953EC182B00F073FC94ED001B53ECDB
:1025E000112B00F061F9BDEC028B41EC100B70BDBA
:1025F00031B504462DED040B2DED0A8BB0EE41BA3A
:10260000F0EE61BA0B989DED0A0B20F00040B0F19E
:10261000795F0DDA51EC100BFFF779FB042808BF46
:1026200000F09AF89DED0A0BBDEC0A8B05B030BDA9
:1026300053EC102B51EC100B00F042FC41EC180B4A
:102640009DED0A0B53EC182B51EC100B00F038FCED
:1026500041EC190B2C48B0EE480AF0EE680A05214F
:102660007844FFF749FF9FED2ACBB0EE40AAF0EE89
:1026700060AA9CB353EC1C2B51EC190B00F020FC0E
:1026800041EC1C0B53EC1A2B51EC190B00F018FC0D
:102690009FED210B41EC190B53EC102B51EC1B0B54
:1026A00000F00EFC53EC192B00F0A4FD53EC182B9A
:1026B00000F006FC53EC1B2B00F09CFD53EC1C2B94
:1026C00000F098FD9DED0A1B53EC112B00F086FDE8
:1026D000BDEC0A8B05B041EC100B30BDFFE753ECAD
:1026E0001A2B51EC180B00F0EBFB53EC1C2B00F0F9
:1026F000DBF853EC192B00F0E3FB9DED0A1B53ECC8
:10270000112B00F0D1F8E3E78C0E00000000000070
:10271000495555555555C5BF000000000000E03F24
:1027200010B553EC102B51EC100B00F0BDF841EC40
:10273000100B10BD000000009FED050B10B553EC11
:10274000102B51EC100B00F063F941EC100B10BD95
:1027500000000000000000009FED050B10B553ECD9
:10276000102B51EC100B00F0ABFB41EC100B10BD2B
:10277000000000000000001082B0CDE9000121F04F
:10278000004001909DED000B02B051EC100B704722
:1027900034488EB0016841F480410160006800F463
:1027A000804000902F48001F016841F08051016077
:1027B000006800F0805000902B4801684FF6FF023F
:1027C00011402A4A41F44071114301600068C0F38E
:1027D0000220C0F10702042A00D90422011D0729A2
:1027E00001D2002000E0C01E01219140491E81401D
:1027F00008011F49002481F8140DFEF7F5FEFEF7CD
:1028000067FFFEF7C1FAFEF7C9FA1A48FDF752FE54
:102810004FF4004002A9CDE90001C21044F6206344
:1028200014219FED151B9FED160B1748FEF79AF824
:102830000298164B0090A3F5005213490D48FEF77D
:1028400053F80298114A83B2CDE900349DED060B8E
:10285000A2F500510748FDF739FE6420FEF7F2FDAE
:10286000FBE70000443802400CED00E00000FA05F0
:102870000FE000E01800002000000000A0F0294157
:102880000000000000408F406840002068200020C9
:1028900081F00041704780F00040704721F0004116
:1028A000704720F00040704710B591EA030F48BF11
:1028B00083F0004300F1A684841A71EB030C05D267
:1028C000121943EB0C03001B61EB0C01DFF824E150
:1028D0004FEA1154A4EB135C1EEA430F18BF9EEAA3
:1028E000445F73D023EA0E03DCF1200E21EA045189
:1028F00043F4801332D322FA0CFE10EB0E0023FABD
:102900000CFE41EB0E01CCF1200E03FA0EFE10EB93
:102910000E0051F10001B1F5801FCCF1200E32D232
:1029200001EB045112FA0EF2BDE8104058BF704797
:10293000401C38BF5FEA420218BF7047002814BF2E
:1029400020F0010041F100014FEA410313F5001F9F
:1029500038BF7047A1F1C04100F0AABB012A43EB88
:102960000302ACF1200CDCF11F0E32BF4FF0000E61
:1029700023FA0CF310EB030041EB0451B4EB115FAD
:10298000D0D0A1EB045101F5801149085FEA300075
:1029900001EB04510ED350F1000038BF12FA0EFEC5
:1029A00008D1BDE81040C9E7401C38BF5FEA4202C9
:1029B000CAD1C3E7BDE810404FEA410313F5001F39
:1029C00038BF7047A1F1C04100F072BB9EEA445F7E
:1029D00008D011EA5E0FBDE8104004BF01F00041CD
:1029E00000207047BDE8104070B500F013FB00BF39
:1029F00064FBBE3E0000E0FF491058BFC1F14041FA
:102A00005B1058BFC3F140438B42EFF30080704727
:102A10002DE9C04130B4DFF8A0C23CEA111418BF60
:102A20003CEA131400F0EC8081EA03051CEA11145F
:102A300044EAD57418BF1CEA131500F0C780A4EB54
:102A400005044FF0004545EAC12145EAC32341EAA8
:102A5000505143EA525304F17F74994204F5003413
:102A60004FEAC0204FEAC22208BF904200F09C808B
:102A70004FEA13650FF24016765D4FEA134506FBE9
:102A800005F7C7F1807706FB07F74FEAD737A7FBB3
:102A900003687642C8F58038A7FB06CE38BFA8F198
:102AA000010807FB08E64FF0000EA6FB028CE6FBD0
:102AB00003CEDCF1000CCEF1004E38BFAEF1010EBA
:102AC000A6FB0C584FF000074FF00005E6FB0E8701
:102AD000A1FB08C6A0FB07CE16EB0E0645F10005CC
:102AE000E1FB076515F1E04E7EBFA4F580345FEA97
:102AF00046066D4116F1800745F100054FEA17279C
:102B00004FEA066647EA0567A6F1DE46B6F1805F42
:102B10004FEA15251FD9384624F0010C05EBC47186
:102B2000BCF1FE6F01EB0C1102D8F0BCBDE80081D6
:102B300024425CBF01F5801E9EEAC47F02D4F0BC33
:102B4000BDE80081244238D4F0BCA1F1C041BDE809
:102B5000004100F0ADBA4FEAD22242EA43524FEAB6
:102B6000D323A7FB02864FEAD02040EA415007FB5F
:102B700003661EEA0E0F4FEAD12105FB026658BF1D
:102B8000A6EB0056B6EB00564FEA520E4EEAC37E55
:102B900018EB0E0E56EB530EBDD518EB02085E4136
:102BA0007F1C55F10005B6E74FF480154FF0000784
:102BB0004FF000064FF00008ADE7F0BC4FF000000A
:102BC00001F1C04101F00041BDE8008111EA0C1F94
:102BD0000CEA131500D00CE013EA0C1F00F025805E
:102BE0004FF00000F0BC81EA030101F00041BDE8B4
:102BF0000081F0BCBDE8004181EA030100F058BA51
:102C0000F0BCBDE8004170B500F004FA097EFC3E5E
:102C100000F007B881EA03014FF0000001F0004125
:102C2000704781EA030100F043BAF0BCBDE80041FF
:102C30004FF0000021497047FFFDFBF9F7F5F4F272
:102C4000F0EEEDEBE9E8E6E4E3E1E0DEDDDBDAD847
:102C5000D7D5D4D3D1D0CFCDCCCBCAC8C7C6C5C4A5
:102C6000C2C1C0BFBEBDBCBBBAB9B8B7B6B5B4B3BC
:102C7000B2B1B0AFAEADACABAAA9A8A8A7A6A5A4A7
:102C8000A3A3A2A1A09F9F9E9D9C9C9B9A9999986B
:102C90009797969595949393929191908F8F8E8E0E
:102CA0008D8C8C8B8B8A898988888787868585849B
:102CB00084838382828181800000FF070000F87F87
:102CC00051EA030C17D41CF5801F58BFBCF5801FB8
:102CD00000F10680994218BF704708BF90427047C4
:102CE00007D711F5801F58BF13F5801F19D49942DB
:102CF0007047894270471CF5801F08D5BCF5801FBE
:102D0000F7D58B4218BF704708BF824270474FF417
:102D1000001C1CEB410F38BF1CEB430F01D28B4250
:102D2000704770B500F076F9922449004FF00051D9
:102D30004FF08053FFF760BE4FEA41034FEA535311
:102D4000A3F58063D3F11E03C8BFD3F1210C0CDDC2
:102D50004FF0004242EAC12242EA505232FA03FCEA
:102D60008CEAE17CACEBE1707047102BC4BF002013
:102D7000704703F5787CBCF1FF3F04D06FF0004250
:102D800082EA2100704770B500F044F9499224802E
:102D900000207047F2E700004FEA1153A3F580636B
:102DA000D3F11E03A8BFD3F1200C08DB4FF0004283
:102DB00042EAC12252EA505232FA03F07047094205
:102DC0000BD4102BC4BF0020704703F5787CBCF1F6
:102DD000FF3F05D04FF0FF3070474FF000007047C5
:102DE00070B500F017F900BF4992248000207047A9
:102DF000F0E710F0004248BF4042B0FA80F310FA0A
:102E000003F10AD0C3F11D0303F580634FEA41507B
:102E100002EB035202EBD12170474FF000007047E4
:102E2000B0FA80F310FA03F10AD0C3F11D0303F5E1
:102E300080634FEA41504FEA035202EBD1217047C1
:102E40004FF000007047000051EA030C17D41CF546
:102E5000801F58BFBCF5801F00F10680994218BF43
:102E6000704708BF9042704707D711F5801F58BFC1
:102E700013F5801F19D499427047894270471CF599
:102E8000801F08D5BCF5801FF7D58B4218BF70474F
:102E900008BF824270474FF4001C1CEB410F38BF43
:102EA0001CEB430F01D28B42704770B500F0B2F8B3
:102EB000922449004FF000514FF08053FFF79CBD22
:102EC000DFF848C170B51CEA111E1EBF1CEA1315BD
:102ED0009EEA0C0F95EA0C0F00F06F8081EA030464
:102EE00023EA4C134EEAD47E21EA4C1141F48011BE
:102EF00043F48013AE44A1FB024CA0FB0365AEF18A
:102F00007F7E361955EB0C05A1FB034C4CF10003F9
:102F1000A0FB021C16EB0C06654153F100030942AD
:102F200018BF46F0010613F4007F0BD14FEA0331BE
:102F30004FEA0530340341EA155140EA16506FF06C
:102F400003020AE04FEAC3214FEAC520F40241EA36
:102F5000555140EA56506FF0020202EB2E4201EB4F
:102F6000025585EACE710AD05FEA440C18BF24F0FE
:102F7000004450F1000041F1000120EAD47040F219
:102F8000FE7C624500D270BDA84214BF4FF0804461
:102F90004FF04044002E08BF0024BEF1806FA8BF50
:102FA000A1F1C041BDE8704080F282804FF0000086
:102FB00001F1C04101F0004170479EEA0C0F0CEA9C
:102FC000131518BF95EA0C0F06D04FF0000081EAE8
:102FD000030E0EF0004170BD00F01CF88900013EA8
:102FE00000F007B800F009B84FEA430C5FEA5C5CF8
:102FF00008D081EA030100F05BB84FEA410C5FEAB8
:103000005C5CF6D14FF00000014970470000FF07FB
:103010000000F87F0EF1020E2EF0030E5EF8046B36
:10302000364205D4012A43EB030515F5001F12D8DB
:10303000012841EB010C1CF5001F0CD80ED14FEA02
:10304000D17C15F5001F0CEB4C0C0CF1020C08BFE9
:103050004CEBD37C04E04FF0080C01E04FEAD37C4A
:103060000CEB4C0526FA05F606F00706B6F1040C43
:1030700006D20EEB860CBDE870404CF0010C6047A8
:10308000DFE80CF0090B02024FF000414FF00000A6
:10309000A1F5002170BD19461046012851EB01042D
:1030A00018BFD4F5001484BF002001F0004170BDAA
:1030B0000808A0F500114FEA3101704753EA010CEE
:1030C00017D41CF5801F58BFBCF5801F00F1068087
:1030D0008B4218BF704708BF8242704707D713F56D
:1030E000801F58BF11F5801F19D48B4270479B4237
:1030F00070471CF5801F08D5BCF5801FF7D5994295
:1031000018BF704708BF904270474FF4001C1CEB7B
:10311000430F38BF1CEB410F01D2994270470FB4E7
:103120000CBC03BCFFF7C1BE5FEA410C5FEA5C5C0C
:10313000ACF580635B1C39D4D3F1340240F3458095
:10314000B2F1200314DA4FF0010C0CFA02FCACF1DE
:1031500001030340B3EB5C0220EA030008BF10EA5E
:103160000C0F98BF704710EB0C0041F10001704745
:103170000AD0C3F1200201FA02FC012821FA03F16E
:1031800001FA03F14CF100004FF0010C0CFA03FCC2
:10319000ACF10103B0F1004F21EA030108BF11EACD
:1031A0000C0F4FF0000088BF61447047B3F1FF3F40
:1031B00028BF50EAC12C01F000414FF0000084BF4D
:1031C00041F07C5141F470017047B3F5806FB8BF96
:1031D000704770B5FFF71EFF40DBB6BE91EA030FE4
:1031E00010B581F000413FF567AB83F0004300F07C
:1031F00009B8000010B591EA030F48BF83F00043FF
:103200003FF55AAB841A71EB030C07D212198CF0FC
:10321000004C43EB0C03001B61EB0C01DFF8A4E155
:103220004FEA1154A4EB135C1EEA430F18BF9EEA49
:10323000445F00F0B08023EA6E03524221EA045159
:10324000C3EB6E0338BF5B1EDCF1200E25D322FAE0
:103250000CFE10EB0E0043FA0CFE41EB0E01CCF11C
:10326000200E03FA0EFE10EB0E0051F10001CCF11E
:10327000200E29D412FA0EF201EB0451BDE81040E1
:1032800058BF7047401C1CBFB2F1004F7047002868
:103290000CBF491C20F00100704712EB020E43EBFB
:1032A000030218BF4FF0010E4EEA4202ACF1200CAF
:1032B000DCF11E0E54D943FA0CFE10EB0E0051F156
:1032C000FF31CCF11E0ED5D50EF1010E12FA0EFE15
:1032D000404141EB010101EB445C5FEA5C5C10D9C9
:1032E00010EBDE7001EB045138BFBEF1004FBDE8BA
:1032F000104018BF704700280CBF491C20F0010087
:10330000704730D24FEAD42C11F5001124F4006438
:103310001BD0B1FA81F20B3AA41AA41ED2F12003F9
:10332000914030FA03F31943904001EBCC71002C2B
:1033300001EB0451BDE81040A8BF704701F1C04146
:103340004FF0000001F000417047B0FA80F310FA2E
:1033500003F100D110BDE41A173C4805C90AE4E79F
:1033600001EB045110BD491001EB0451BDE81040C0
:103370004FEA300002E04FF0000170474A0008BFFA
:103380000042F8D0B2F5001F28BF704701F000419D
:103390004FF0000070479EEA445F07D011EA5E0FCD
:1033A000BDE8104004BF002100207047BDE8104078
:1033B00070B5FFF72FFE00BF40DFF63E83F00041FF
:1033C000104670470000E0FF4FF04070E1EE100A39
:1033D0007047102840587088A0B80000000004040E
:1033E0000400000800000008102840587088A0B8A9
:1033F000102840587088A0B84C5555555555A53FD4
:103400007751C1166CC156BF9015CB19A001FA3E79
:10341000AD529C804F7E92BEC4B1B4BD9EEE213EA3
:10342000D43888BEE9FAA8BD00004054FB21F93F1A
:103430003163621A61B4D03D0000601A61B4D03DBE
:103440007370032E8A19A33B0000002E8A19A33B38
:10345000C14920259A837B3900000000000000004C
:103460006E83F9A22915444ED15727FCC0DD34F5EF
:10347000999562DB4190433CAB6351FE61C5BBDE75
:103480003A6E24B7E0D24D42EA2E49061C92D10989
:103490001CEB1DFE3EA729B1F53582E88444BB2E06
:1034A00026709CE9417E5FB439D69139F439538353
:1034B0008B5F849C3B28F9BDFF97F81F0F9805DEB2
:1034C0008B112FEF1F6D0A5ACF7E366DB709CB27B0
:1034D000663F464F2DEA5F9EC7BA27757BF1E5EB45
:1034E000F739073DEA92528AB15FFB6B085D8D1F89
:1034F000A6F810111111813FD561C119A0012ABF91
:103500007DFEB157E31DC73EEB9C2B8AE6E55ABE14
:103510007CD5CF5A3AD9E53D383500080000002067
:1035200068000000D4010008A035000868000020F1
:1035300060660000F0010008000002400000024048
:10354000000002400400000008000000100000001D
:10355000000000200000000000000000000000004B
:10356000000000000100000010000000000000004A
:103570000024F40000000000000000000000000033
:10358000000000000000000000000000000000003B
:10359000000000000000000000000000000000002B
:040000050800019955
:00000001FF
