:020000040800F2
:1000000038050020AD01000815090008E1060008C8
:1000100013090008190200083D0B00080000000049
:10002000000000000000000000000000110A0008AD
:10003000A50600080000000017090008170A0008BC
:10004000C7010008C7010008C7010008C701000870
:10005000C7010008C7010008C7010008C701000860
:10006000C7010008C7010008C7010008C701000850
:10007000C7010008C7010008C7010008C701000840
:10008000C7010008C7010008C70100080000000000
:10009000000000000000000000000000C701000890
:1000A000C7010008C7010008C7010008C701000810
:1000B000C7010008C7010008C7010008C701000800
:1000C000C7010008C7010008C7010008C7010008F0
:1000D000C7010008C7010008C701000800000000B0
:1000E000C7010008C7010008C701000800000000A0
:1000F000000000000000000000000000C701000830
:1001000000000000C7010008C7010008C70100087F
:1001100000000000000000000000000000000000DF
:10012000C7010008C70100082104000825040008D1
:10013000590400080000000000000000000000005A
:10014000000000000000000000000000C7010008DF
:100150007D040008C7010008C7010008C7010008A6
:10016000C7010008C70100080000000000000000EF
:10017000000000000000000000000000000000007F
:1001800000000000C701000800000000000000009F
:10019000C7010008C7010008DFF80CD000F02AF8FA
:1001A000004800475D0B00083805002006488047DE
:1001B00006480047FEE7FEE7FEE7FEE7FEE7FEE74C
:1001C000FEE7FEE7FEE7FEE7F10A000899010008F6
:1001D000D2B201E000F8012B491EFBD27047002289
:1001E000F6E710B513460A4604461946FFF7F0FF36
:1001F000204610BD064C074D06E0E06840F00103C4
:1002000094E8070098471034AC42F6D3FFF7C8FFD4
:10021000100C0008300C0008FEE700002DE9F04744
:100220003D4D6868DFF8F480C0F3401000273C4E75
:10023000A8F12804002855D02020E860607C002820
:1002400068D0A068E1680844A060706820B100F040
:1002500063FB726802219047A168626801209142A5
:1002600011D3207467742D481438007C002851D0B5
:10027000042188F8311000F06BFB7268002A49D025
:100280000421642041E021782278C2F10102227029
:10029000A268E3681A446368934201D9E174A074C8
:1002A0000421284600F048FA0421284600F058FAB4
:1002B0000028F9D16068A168401AE168814200D243
:1002C000E0688146207818B3B2690421284600F01E
:1002D0005BFA4A460421284600F04AFA04212846DF
:1002E00000F034FA6868C0F3C000002812D008207B
:1002F000E8606774A774052188F8311000F028FBC6
:10030000B268002A06D002210520BDE8F047104758
:100310007269DAE7BDE8F08700640240500000200F
:10032000080000202DE9F0473A4D6868DFF8E880C2
:10033000C0F3C0200027394EA8F1140400284ED085
:10034000E814E860607C002862D0A068E168084496
:10035000A060A06862680121904211D32174677483
:10036000A4F11400007C002852D0042188F8311038
:1003700000F0EEFA7268002A4AD00421642042E0BC
:1003800020782278C2F101022270A268E3681A4440
:100390006368934201D9E074A1740521284600F0F6
:1003A000CBF90521284600F0DBF90028F9D1606877
:1003B000A168401AE168814200D2E0688146207855
:1003C00020B332690521284600F0DEF94A460521AE
:1003D000284600F0CDF90521284600F0B7F96868F5
:1003E000C0F34020002813D04FF40070E860677419
:1003F000A774052188F8311000F0AAFAB268002A23
:1004000006D002210520BDE8F0471047F268D9E781
:10041000BDE8F08700640240500000200800002082
:100420007047000009480168C1F3C06100290CD081
:100430004FF000618160064A012111700549CA78B8
:100440008258C97822F0100242507047006402407E
:1004500000000020000C00080748407C00280AD05B
:100460000548283090F8300008B1012801D0FFF786
:10047000D5BE00F015B87047280000200748407C22
:1004800000280AD00548143090F8300008B101283F
:1004900001D0FFF747BF00F087B870473C0000204D
:1004A0002DE9F0473D4D6868DFF8F480C0F3401057
:1004B00000273C4EA8F12804002855D02020E860F1
:1004C000607C002868D0A068E1680844A06070687B
:1004D00020B100F021FA726802219047A168626899
:1004E0000120914211D3207467742D481438007C88
:1004F000002851D0042188F8311000F029FA7268E0
:10050000002A49D00421642041E021782278C2F1F8
:1005100001022270A268E3681A446368934201D919
:10052000E174A0740421284600F006F9042128464D
:1005300000F016F90028F9D16068A168401AE16856
:10054000814200D2E0688146207818B3B269042164
:10055000284600F019F94A460421284600F008F917
:100560000421284600F0F2F86868C0F3C0000028B3
:1005700012D00820E8606774A774052188F831104C
:1005800000F0E6F9B268002A06D002210520BDE895
:10059000F04710477269DAE7BDE8F087006402406F
:1005A00050000020080000202DE9F0473A4D68680F
:1005B000DFF8E880C0F3C0200027394EA8F114040A
:1005C00000284ED0E814E860607C002862D0A06863
:1005D000E1680844A060A06862680121904211D3DC
:1005E00021746774A4F11400007C002852D0042107
:1005F00088F8311000F0ACF97268002A4AD0042162
:10060000642042E020782278C2F101022270A268C0
:10061000E3681A446368934201D9E074A174052128
:10062000284600F089F80521284600F099F80028AE
:10063000F9D16068A168401AE168814200D2E0689F
:100640008146207820B332690521284600F09CF8C5
:100650004A460521284600F08BF80521284600F07F
:1006600075F86868C0F34020002813D04FF400707C
:10067000E8606774A774052188F8311000F068F904
:10068000B268002A06D002210520BDE8F0471047D5
:10069000F268D9E7BDE8F08700640240500000200E
:1006A000080000207047000000B587B01821684698
:1006B000FFF795FD042000F01FF808484FF40051A3
:1006C0000A048261009101210022CDE90112CDE9E5
:1006D0000321694600F060F807B000BD0008024041
:1006E000FEE7FFF7E1BF000002494FF400508861C8
:1006F0007047000000080240044908B50A68024338
:100700000A6009680140009108BD000030380240CD
:10071000034A515C425822F01002425070470000D8
:10072000080C0008034A515C425822F0040242506F
:1007300070470000080C0008034A515C425822F040
:100740000102425070470000080C0008034A515C47
:10075000425842F00102425070470000080C000865
:10076000024A515C405800F001007047080C000834
:10077000044B001D595C0B586FF30F0313430B50D0
:1007800070470000080C0008024B0C30595C0A50FE
:1007900070470000080C0008F0B50A680F2692FAAE
:1007A000A2F2B2FA82F303248AE001279F4015EAFD
:1007B00007027DD04D68012D01D0022D1BD18D681F
:1007C000876892FAA2FCBCFA8CFC4FEA4C0C04FA43
:1007D0000CFC27EA0C0792FAA2FCBCFA8CFC4FEA4C
:1007E0004C0C05FA0CF52F438760CD6847685543DC
:1007F00097432F4347600F69D0F80CC092FAA2F5D7
:10080000B5FA85F54FEA450E04FA0EF52CEA050C0B
:1008100092FAA2F5B5FA85F56D00AF404CEA070CE7
:10082000C0F80CC04D68022D33D192FAA2F5B5FA8A
:1008300085F5082D15D2D1F814C0056A92FAA2F7F1
:10084000B7FA87F7BF0006FA07F7BD4392FAA2F797
:10085000B7FA87F7BF000CFA07FC45EA0C050562FA
:1008600017E0D1F814E0476A150A95FAA5FCBCFA1E
:100870008CFC4FEA8C0C06FA0CFC95FAA5F5B5FA3F
:1008800085F5AD0027EA0C070EFA05FE47EA0E07CC
:1008900047624D68076892FAA2FCBCFA8CFC4FEAEA
:1008A0004C0C04FA0CFE27EA0E0792FAA2F200E0C2
:1008B00005E0B2FA82F2520095402F4307605B1CBC
:1008C0000A681546DA407FF470AF0020F0BD4FF49F
:1008D0007A71B0FBF1F14FF0E020491E4161002137
:1008E000816105210161704701490860704700007E
:1008F0000400002008B54FF0E0210A690092421C74
:1009000000D0401C0A69D20300D5401E0028F9D14E
:1009100008BDFEE7FEE770470C48416839B18268C0
:1009200000F114018B689A4203D9816802E000202B
:1009300070478968642240685143B1FBF0F0642835
:1009400001D964207047C0B2704700002800002021
:1009500010B52B4C05212046FFF7EEFE0421204662
:10096000FFF7EAFE05212046FFF7FAFE0028F9D13D
:1009700004212046FFF7F4FE0028F3D1214908683E
:1009800020F0010008602048426822F00202426024
:10099000C86820F48070C860C86820F48050C860BF
:1009A00000F037F805212046FFF7B2FE052120466A
:1009B000FFF7B8FE04212046FFF7AAFE04212046D7
:1009C000FFF7B0FE4FF40060E0608010E060400090
:1009D000E0608010E0604020E0602020E0600820BF
:1009E000E0601020E0600420E0600120E060074942
:1009F00000204874887414314874887410BD000055
:100A00000064024000000140003001402800002046
:100A1000704700F083B8704770B52F48016821F027
:100A2000070141F003010160016801F0070103299A
:100A3000FAD12A49086840F4404008602848026812
:100A400042F4803202600268C2F34042002AFAD0C7
:100A5000234A244B121D1468234D2C40234313605A
:100A6000136823F440331360026842F0807202601E
:100A70000268C2F34062002AFAD04868C0F38030AE
:100A80000028FAD016480830016821F0F001016012
:100A9000016821F4E05141F480510160016821F4C2
:100AA00060410160016821F0030141F00201016031
:100AB000016801F00C010829FAD10C4C2046FFF71F
:100AC00006FF2046FFF710FF05488C30016821F033
:100AD0008071016070BD0000003C02400070004069
:100AE000003802400C1840000080BFFF00E1F5050F
:100AF0000248016841F470010160704788ED00E030
:100B000000B587B018216846FFF769FB8020FFF722
:100B1000F3FD0120FFF7F0FD07B000BD05480168B7
:100B200021F0010101600021416203490120886137
:100B3000704700000004004000040240FEE702E0AD
:100B400008C8121F08C1002AFAD170477047002058
:100B500001E001C1121F002AFBD17047234808B5EC
:100B6000016841F480410160006800F48040009019
:100B70001E48001F016841F08051016000681C4957
:100B800000F08050009008684FF6FF021040194AAC
:100B900040F44070104308600868C0F30220C0F1C0
:100BA0000702042A00D90422011D072901D20020CE
:100BB00000E0C01E01219140491E814008010E49FC
:100BC00081F8140DFFF728FFFFF79AFFFFF789FD63
:100BD000FFF78AFD4FF4FA742046FFF78BFE074DAE
:100BE000552068602046FFF785FEF9E7443802404B
:100BF0000CED00E00000FA050FE000E000100140FD
:100C0000102840587088A0B8102840587088A0B8A4
:100C1000300C000800000020240000003E0B0008FB
:100C2000540C000824000020140500004E0B00089E
:100C3000000000000024F40000000000000000009C
:100C400000000000000000000000000000000000A4
:040C500000000000A0
:040000050800019955
:00000001FF
